{
	"contracts/calls/multicall/Mutlicall.sol": {
		"Erc20": {
			"abi": [
				{
					"inputs": [
						{
							"internalType": "string",
							"name": "symbol_",
							"type": "string"
						}
					],
					"stateMutability": "nonpayable",
					"type": "constructor"
				},
				{
					"anonymous": false,
					"inputs": [
						{
							"indexed": false,
							"internalType": "address",
							"name": "from",
							"type": "address"
						},
						{
							"indexed": false,
							"internalType": "address",
							"name": "to",
							"type": "address"
						},
						{
							"indexed": false,
							"internalType": "uint256",
							"name": "amount",
							"type": "uint256"
						}
					],
					"name": "Transfer",
					"type": "event"
				},
				{
					"inputs": [
						{
							"internalType": "address",
							"name": "_addr",
							"type": "address"
						}
					],
					"name": "balanceOf",
					"outputs": [
						{
							"internalType": "uint256",
							"name": "",
							"type": "uint256"
						},
						{
							"internalType": "uint256",
							"name": "",
							"type": "uint256"
						}
					],
					"stateMutability": "view",
					"type": "function"
				},
				{
					"inputs": [
						{
							"internalType": "address",
							"name": "_addr",
							"type": "address"
						}
					],
					"name": "getInputData",
					"outputs": [
						{
							"internalType": "bytes",
							"name": "",
							"type": "bytes"
						}
					],
					"stateMutability": "pure",
					"type": "function"
				},
				{
					"inputs": [
						{
							"internalType": "address",
							"name": "_addr",
							"type": "address"
						},
						{
							"internalType": "uint256",
							"name": "amount",
							"type": "uint256"
						}
					],
					"name": "transfer",
					"outputs": [],
					"stateMutability": "nonpayable",
					"type": "function"
				}
			],
			"devdoc": {
				"kind": "dev",
				"methods": {},
				"version": 1
			},
			"evm": {
				"assembly": "    /* \"contracts/calls/multicall/Mutlicall.sol\":66:752  contract Erc20 {... */\n  mstore(0x40, 0x80)\n    /* \"contracts/calls/multicall/Mutlicall.sol\":230:298  constructor(string memory symbol_) {... */\n  callvalue\n  dup1\n  iszero\n  tag_1\n  jumpi\n  0x00\n  dup1\n  revert\ntag_1:\n  pop\n  mload(0x40)\n  sub(codesize, bytecodeSize)\n  dup1\n  bytecodeSize\n  dup4\n  codecopy\n  dup2\n  dup2\n  add\n  0x40\n  mstore\n  dup2\n  add\n  swap1\n  tag_2\n  swap2\n  swap1\n  tag_3\n  jump\t// in\ntag_2:\n    /* \"contracts/calls/multicall/Mutlicall.sol\":284:291  symbol_ */\n  dup1\n    /* \"contracts/calls/multicall/Mutlicall.sol\":275:281  symbol */\n  0x01\n    /* \"contracts/calls/multicall/Mutlicall.sol\":275:291  symbol = symbol_ */\n  swap1\n  dup2\n  tag_6\n  swap2\n  swap1\n  tag_7\n  jump\t// in\ntag_6:\n  pop\n    /* \"contracts/calls/multicall/Mutlicall.sol\":230:298  constructor(string memory symbol_) {... */\n  pop\n    /* \"contracts/calls/multicall/Mutlicall.sol\":66:752  contract Erc20 {... */\n  jump(tag_8)\n    /* \"#utility.yul\":7:82   */\ntag_9:\n    /* \"#utility.yul\":40:46   */\n  0x00\n    /* \"#utility.yul\":73:75   */\n  0x40\n    /* \"#utility.yul\":67:76   */\n  mload\n    /* \"#utility.yul\":57:76   */\n  swap1\n  pop\n    /* \"#utility.yul\":7:82   */\n  swap1\n  jump\t// out\n    /* \"#utility.yul\":88:205   */\ntag_10:\n    /* \"#utility.yul\":197:198   */\n  0x00\n    /* \"#utility.yul\":194:195   */\n  dup1\n    /* \"#utility.yul\":187:199   */\n  revert\n    /* \"#utility.yul\":211:328   */\ntag_11:\n    /* \"#utility.yul\":320:321   */\n  0x00\n    /* \"#utility.yul\":317:318   */\n  dup1\n    /* \"#utility.yul\":310:322   */\n  revert\n    /* \"#utility.yul\":334:451   */\ntag_12:\n    /* \"#utility.yul\":443:444   */\n  0x00\n    /* \"#utility.yul\":440:441   */\n  dup1\n    /* \"#utility.yul\":433:445   */\n  revert\n    /* \"#utility.yul\":457:574   */\ntag_13:\n    /* \"#utility.yul\":566:567   */\n  0x00\n    /* \"#utility.yul\":563:564   */\n  dup1\n    /* \"#utility.yul\":556:568   */\n  revert\n    /* \"#utility.yul\":580:682   */\ntag_14:\n    /* \"#utility.yul\":621:627   */\n  0x00\n    /* \"#utility.yul\":672:674   */\n  0x1f\n    /* \"#utility.yul\":668:675   */\n  not\n    /* \"#utility.yul\":663:665   */\n  0x1f\n    /* \"#utility.yul\":656:661   */\n  dup4\n    /* \"#utility.yul\":652:666   */\n  add\n    /* \"#utility.yul\":648:676   */\n  and\n    /* \"#utility.yul\":638:676   */\n  swap1\n  pop\n    /* \"#utility.yul\":580:682   */\n  swap2\n  swap1\n  pop\n  jump\t// out\n    /* \"#utility.yul\":688:868   */\ntag_15:\n    /* \"#utility.yul\":736:813   */\n  0x4e487b7100000000000000000000000000000000000000000000000000000000\n    /* \"#utility.yul\":733:734   */\n  0x00\n    /* \"#utility.yul\":726:814   */\n  mstore\n    /* \"#utility.yul\":833:837   */\n  0x41\n    /* \"#utility.yul\":830:831   */\n  0x04\n    /* \"#utility.yul\":823:838   */\n  mstore\n    /* \"#utility.yul\":857:861   */\n  0x24\n    /* \"#utility.yul\":854:855   */\n  0x00\n    /* \"#utility.yul\":847:862   */\n  revert\n    /* \"#utility.yul\":874:1155   */\ntag_16:\n    /* \"#utility.yul\":957:984   */\n  tag_50\n    /* \"#utility.yul\":979:983   */\n  dup3\n    /* \"#utility.yul\":957:984   */\n  tag_14\n  jump\t// in\ntag_50:\n    /* \"#utility.yul\":949:955   */\n  dup2\n    /* \"#utility.yul\":945:985   */\n  add\n    /* \"#utility.yul\":1087:1093   */\n  dup2\n    /* \"#utility.yul\":1075:1085   */\n  dup2\n    /* \"#utility.yul\":1072:1094   */\n  lt\n    /* \"#utility.yul\":1051:1069   */\n  0xffffffffffffffff\n    /* \"#utility.yul\":1039:1049   */\n  dup3\n    /* \"#utility.yul\":1036:1070   */\n  gt\n    /* \"#utility.yul\":1033:1095   */\n  or\n    /* \"#utility.yul\":1030:1118   */\n  iszero\n  tag_51\n  jumpi\n    /* \"#utility.yul\":1098:1116   */\n  tag_52\n  tag_15\n  jump\t// in\ntag_52:\n    /* \"#utility.yul\":1030:1118   */\ntag_51:\n    /* \"#utility.yul\":1138:1148   */\n  dup1\n    /* \"#utility.yul\":1134:1136   */\n  0x40\n    /* \"#utility.yul\":1127:1149   */\n  mstore\n    /* \"#utility.yul\":917:1155   */\n  pop\n    /* \"#utility.yul\":874:1155   */\n  pop\n  pop\n  jump\t// out\n    /* \"#utility.yul\":1161:1290   */\ntag_17:\n    /* \"#utility.yul\":1195:1201   */\n  0x00\n    /* \"#utility.yul\":1222:1242   */\n  tag_54\n  tag_9\n  jump\t// in\ntag_54:\n    /* \"#utility.yul\":1212:1242   */\n  swap1\n  pop\n    /* \"#utility.yul\":1251:1284   */\n  tag_55\n    /* \"#utility.yul\":1279:1283   */\n  dup3\n    /* \"#utility.yul\":1271:1277   */\n  dup3\n    /* \"#utility.yul\":1251:1284   */\n  tag_16\n  jump\t// in\ntag_55:\n    /* \"#utility.yul\":1161:1290   */\n  swap2\n  swap1\n  pop\n  jump\t// out\n    /* \"#utility.yul\":1296:1604   */\ntag_18:\n    /* \"#utility.yul\":1358:1362   */\n  0x00\n    /* \"#utility.yul\":1448:1466   */\n  0xffffffffffffffff\n    /* \"#utility.yul\":1440:1446   */\n  dup3\n    /* \"#utility.yul\":1437:1467   */\n  gt\n    /* \"#utility.yul\":1434:1490   */\n  iszero\n  tag_57\n  jumpi\n    /* \"#utility.yul\":1470:1488   */\n  tag_58\n  tag_15\n  jump\t// in\ntag_58:\n    /* \"#utility.yul\":1434:1490   */\ntag_57:\n    /* \"#utility.yul\":1508:1537   */\n  tag_59\n    /* \"#utility.yul\":1530:1536   */\n  dup3\n    /* \"#utility.yul\":1508:1537   */\n  tag_14\n  jump\t// in\ntag_59:\n    /* \"#utility.yul\":1500:1537   */\n  swap1\n  pop\n    /* \"#utility.yul\":1592:1596   */\n  0x20\n    /* \"#utility.yul\":1586:1590   */\n  dup2\n    /* \"#utility.yul\":1582:1597   */\n  add\n    /* \"#utility.yul\":1574:1597   */\n  swap1\n  pop\n    /* \"#utility.yul\":1296:1604   */\n  swap2\n  swap1\n  pop\n  jump\t// out\n    /* \"#utility.yul\":1610:1856   */\ntag_19:\n    /* \"#utility.yul\":1691:1692   */\n  0x00\n    /* \"#utility.yul\":1701:1814   */\ntag_61:\n    /* \"#utility.yul\":1715:1721   */\n  dup4\n    /* \"#utility.yul\":1712:1713   */\n  dup2\n    /* \"#utility.yul\":1709:1722   */\n  lt\n    /* \"#utility.yul\":1701:1814   */\n  iszero\n  tag_63\n  jumpi\n    /* \"#utility.yul\":1800:1801   */\n  dup1\n    /* \"#utility.yul\":1795:1798   */\n  dup3\n    /* \"#utility.yul\":1791:1802   */\n  add\n    /* \"#utility.yul\":1785:1803   */\n  mload\n    /* \"#utility.yul\":1781:1782   */\n  dup2\n    /* \"#utility.yul\":1776:1779   */\n  dup5\n    /* \"#utility.yul\":1772:1783   */\n  add\n    /* \"#utility.yul\":1765:1804   */\n  mstore\n    /* \"#utility.yul\":1737:1739   */\n  0x20\n    /* \"#utility.yul\":1734:1735   */\n  dup2\n    /* \"#utility.yul\":1730:1740   */\n  add\n    /* \"#utility.yul\":1725:1740   */\n  swap1\n  pop\n    /* \"#utility.yul\":1701:1814   */\n  jump(tag_61)\ntag_63:\n    /* \"#utility.yul\":1848:1849   */\n  0x00\n    /* \"#utility.yul\":1839:1845   */\n  dup5\n    /* \"#utility.yul\":1834:1837   */\n  dup5\n    /* \"#utility.yul\":1830:1846   */\n  add\n    /* \"#utility.yul\":1823:1850   */\n  mstore\n    /* \"#utility.yul\":1672:1856   */\n  pop\n    /* \"#utility.yul\":1610:1856   */\n  pop\n  pop\n  pop\n  jump\t// out\n    /* \"#utility.yul\":1862:2296   */\ntag_20:\n    /* \"#utility.yul\":1951:1956   */\n  0x00\n    /* \"#utility.yul\":1976:2042   */\n  tag_65\n    /* \"#utility.yul\":1992:2041   */\n  tag_66\n    /* \"#utility.yul\":2034:2040   */\n  dup5\n    /* \"#utility.yul\":1992:2041   */\n  tag_18\n  jump\t// in\ntag_66:\n    /* \"#utility.yul\":1976:2042   */\n  tag_17\n  jump\t// in\ntag_65:\n    /* \"#utility.yul\":1967:2042   */\n  swap1\n  pop\n    /* \"#utility.yul\":2065:2071   */\n  dup3\n    /* \"#utility.yul\":2058:2063   */\n  dup2\n    /* \"#utility.yul\":2051:2072   */\n  mstore\n    /* \"#utility.yul\":2103:2107   */\n  0x20\n    /* \"#utility.yul\":2096:2101   */\n  dup2\n    /* \"#utility.yul\":2092:2108   */\n  add\n    /* \"#utility.yul\":2141:2144   */\n  dup5\n    /* \"#utility.yul\":2132:2138   */\n  dup5\n    /* \"#utility.yul\":2127:2130   */\n  dup5\n    /* \"#utility.yul\":2123:2139   */\n  add\n    /* \"#utility.yul\":2120:2145   */\n  gt\n    /* \"#utility.yul\":2117:2229   */\n  iszero\n  tag_67\n  jumpi\n    /* \"#utility.yul\":2148:2227   */\n  tag_68\n  tag_13\n  jump\t// in\ntag_68:\n    /* \"#utility.yul\":2117:2229   */\ntag_67:\n    /* \"#utility.yul\":2238:2290   */\n  tag_69\n    /* \"#utility.yul\":2283:2289   */\n  dup5\n    /* \"#utility.yul\":2278:2281   */\n  dup3\n    /* \"#utility.yul\":2273:2276   */\n  dup6\n    /* \"#utility.yul\":2238:2290   */\n  tag_19\n  jump\t// in\ntag_69:\n    /* \"#utility.yul\":1957:2296   */\n  pop\n    /* \"#utility.yul\":1862:2296   */\n  swap4\n  swap3\n  pop\n  pop\n  pop\n  jump\t// out\n    /* \"#utility.yul\":2316:2671   */\ntag_21:\n    /* \"#utility.yul\":2383:2388   */\n  0x00\n    /* \"#utility.yul\":2432:2435   */\n  dup3\n    /* \"#utility.yul\":2425:2429   */\n  0x1f\n    /* \"#utility.yul\":2417:2423   */\n  dup4\n    /* \"#utility.yul\":2413:2430   */\n  add\n    /* \"#utility.yul\":2409:2436   */\n  slt\n    /* \"#utility.yul\":2399:2521   */\n  tag_71\n  jumpi\n    /* \"#utility.yul\":2440:2519   */\n  tag_72\n  tag_12\n  jump\t// in\ntag_72:\n    /* \"#utility.yul\":2399:2521   */\ntag_71:\n    /* \"#utility.yul\":2550:2556   */\n  dup2\n    /* \"#utility.yul\":2544:2557   */\n  mload\n    /* \"#utility.yul\":2575:2665   */\n  tag_73\n    /* \"#utility.yul\":2661:2664   */\n  dup5\n    /* \"#utility.yul\":2653:2659   */\n  dup3\n    /* \"#utility.yul\":2646:2650   */\n  0x20\n    /* \"#utility.yul\":2638:2644   */\n  dup7\n    /* \"#utility.yul\":2634:2651   */\n  add\n    /* \"#utility.yul\":2575:2665   */\n  tag_20\n  jump\t// in\ntag_73:\n    /* \"#utility.yul\":2566:2665   */\n  swap2\n  pop\n    /* \"#utility.yul\":2389:2671   */\n  pop\n    /* \"#utility.yul\":2316:2671   */\n  swap3\n  swap2\n  pop\n  pop\n  jump\t// out\n    /* \"#utility.yul\":2677:3201   */\ntag_3:\n    /* \"#utility.yul\":2757:2763   */\n  0x00\n    /* \"#utility.yul\":2806:2808   */\n  0x20\n    /* \"#utility.yul\":2794:2803   */\n  dup3\n    /* \"#utility.yul\":2785:2792   */\n  dup5\n    /* \"#utility.yul\":2781:2804   */\n  sub\n    /* \"#utility.yul\":2777:2809   */\n  slt\n    /* \"#utility.yul\":2774:2893   */\n  iszero\n  tag_75\n  jumpi\n    /* \"#utility.yul\":2812:2891   */\n  tag_76\n  tag_10\n  jump\t// in\ntag_76:\n    /* \"#utility.yul\":2774:2893   */\ntag_75:\n    /* \"#utility.yul\":2953:2954   */\n  0x00\n    /* \"#utility.yul\":2942:2951   */\n  dup3\n    /* \"#utility.yul\":2938:2955   */\n  add\n    /* \"#utility.yul\":2932:2956   */\n  mload\n    /* \"#utility.yul\":2983:3001   */\n  0xffffffffffffffff\n    /* \"#utility.yul\":2975:2981   */\n  dup2\n    /* \"#utility.yul\":2972:3002   */\n  gt\n    /* \"#utility.yul\":2969:3086   */\n  iszero\n  tag_77\n  jumpi\n    /* \"#utility.yul\":3005:3084   */\n  tag_78\n  tag_11\n  jump\t// in\ntag_78:\n    /* \"#utility.yul\":2969:3086   */\ntag_77:\n    /* \"#utility.yul\":3110:3184   */\n  tag_79\n    /* \"#utility.yul\":3176:3183   */\n  dup5\n    /* \"#utility.yul\":3167:3173   */\n  dup3\n    /* \"#utility.yul\":3156:3165   */\n  dup6\n    /* \"#utility.yul\":3152:3174   */\n  add\n    /* \"#utility.yul\":3110:3184   */\n  tag_21\n  jump\t// in\ntag_79:\n    /* \"#utility.yul\":3100:3184   */\n  swap2\n  pop\n    /* \"#utility.yul\":2903:3194   */\n  pop\n    /* \"#utility.yul\":2677:3201   */\n  swap3\n  swap2\n  pop\n  pop\n  jump\t// out\n    /* \"#utility.yul\":3207:3306   */\ntag_22:\n    /* \"#utility.yul\":3259:3265   */\n  0x00\n    /* \"#utility.yul\":3293:3298   */\n  dup2\n    /* \"#utility.yul\":3287:3299   */\n  mload\n    /* \"#utility.yul\":3277:3299   */\n  swap1\n  pop\n    /* \"#utility.yul\":3207:3306   */\n  swap2\n  swap1\n  pop\n  jump\t// out\n    /* \"#utility.yul\":3312:3492   */\ntag_23:\n    /* \"#utility.yul\":3360:3437   */\n  0x4e487b7100000000000000000000000000000000000000000000000000000000\n    /* \"#utility.yul\":3357:3358   */\n  0x00\n    /* \"#utility.yul\":3350:3438   */\n  mstore\n    /* \"#utility.yul\":3457:3461   */\n  0x22\n    /* \"#utility.yul\":3454:3455   */\n  0x04\n    /* \"#utility.yul\":3447:3462   */\n  mstore\n    /* \"#utility.yul\":3481:3485   */\n  0x24\n    /* \"#utility.yul\":3478:3479   */\n  0x00\n    /* \"#utility.yul\":3471:3486   */\n  revert\n    /* \"#utility.yul\":3498:3818   */\ntag_24:\n    /* \"#utility.yul\":3542:3548   */\n  0x00\n    /* \"#utility.yul\":3579:3580   */\n  0x02\n    /* \"#utility.yul\":3573:3577   */\n  dup3\n    /* \"#utility.yul\":3569:3581   */\n  div\n    /* \"#utility.yul\":3559:3581   */\n  swap1\n  pop\n    /* \"#utility.yul\":3626:3627   */\n  0x01\n    /* \"#utility.yul\":3620:3624   */\n  dup3\n    /* \"#utility.yul\":3616:3628   */\n  and\n    /* \"#utility.yul\":3647:3665   */\n  dup1\n    /* \"#utility.yul\":3637:3718   */\n  tag_83\n  jumpi\n    /* \"#utility.yul\":3703:3707   */\n  0x7f\n    /* \"#utility.yul\":3695:3701   */\n  dup3\n    /* \"#utility.yul\":3691:3708   */\n  and\n    /* \"#utility.yul\":3681:3708   */\n  swap2\n  pop\n    /* \"#utility.yul\":3637:3718   */\ntag_83:\n    /* \"#utility.yul\":3765:3767   */\n  0x20\n    /* \"#utility.yul\":3757:3763   */\n  dup3\n    /* \"#utility.yul\":3754:3768   */\n  lt\n    /* \"#utility.yul\":3734:3752   */\n  dup2\n    /* \"#utility.yul\":3731:3769   */\n  sub\n    /* \"#utility.yul\":3728:3812   */\n  tag_84\n  jumpi\n    /* \"#utility.yul\":3784:3802   */\n  tag_85\n  tag_23\n  jump\t// in\ntag_85:\n    /* \"#utility.yul\":3728:3812   */\ntag_84:\n    /* \"#utility.yul\":3549:3818   */\n  pop\n    /* \"#utility.yul\":3498:3818   */\n  swap2\n  swap1\n  pop\n  jump\t// out\n    /* \"#utility.yul\":3824:3965   */\ntag_25:\n    /* \"#utility.yul\":3873:3877   */\n  0x00\n    /* \"#utility.yul\":3896:3899   */\n  dup2\n    /* \"#utility.yul\":3888:3899   */\n  swap1\n  pop\n    /* \"#utility.yul\":3919:3922   */\n  dup2\n    /* \"#utility.yul\":3916:3917   */\n  0x00\n    /* \"#utility.yul\":3909:3923   */\n  mstore\n    /* \"#utility.yul\":3953:3957   */\n  0x20\n    /* \"#utility.yul\":3950:3951   */\n  0x00\n    /* \"#utility.yul\":3940:3958   */\n  keccak256\n    /* \"#utility.yul\":3932:3958   */\n  swap1\n  pop\n    /* \"#utility.yul\":3824:3965   */\n  swap2\n  swap1\n  pop\n  jump\t// out\n    /* \"#utility.yul\":3971:4064   */\ntag_26:\n    /* \"#utility.yul\":4008:4014   */\n  0x00\n    /* \"#utility.yul\":4055:4057   */\n  0x20\n    /* \"#utility.yul\":4050:4052   */\n  0x1f\n    /* \"#utility.yul\":4043:4048   */\n  dup4\n    /* \"#utility.yul\":4039:4053   */\n  add\n    /* \"#utility.yul\":4035:4058   */\n  div\n    /* \"#utility.yul\":4025:4058   */\n  swap1\n  pop\n    /* \"#utility.yul\":3971:4064   */\n  swap2\n  swap1\n  pop\n  jump\t// out\n    /* \"#utility.yul\":4070:4177   */\ntag_27:\n    /* \"#utility.yul\":4114:4122   */\n  0x00\n    /* \"#utility.yul\":4164:4169   */\n  dup3\n    /* \"#utility.yul\":4158:4162   */\n  dup3\n    /* \"#utility.yul\":4154:4170   */\n  shl\n    /* \"#utility.yul\":4133:4170   */\n  swap1\n  pop\n    /* \"#utility.yul\":4070:4177   */\n  swap3\n  swap2\n  pop\n  pop\n  jump\t// out\n    /* \"#utility.yul\":4183:4576   */\ntag_28:\n    /* \"#utility.yul\":4252:4258   */\n  0x00\n    /* \"#utility.yul\":4302:4303   */\n  0x08\n    /* \"#utility.yul\":4290:4300   */\n  dup4\n    /* \"#utility.yul\":4286:4304   */\n  mul\n    /* \"#utility.yul\":4325:4422   */\n  tag_90\n    /* \"#utility.yul\":4355:4421   */\n  0xffffffffffffffffffffffffffffffffffffffffffffffffffffffffffffffff\n    /* \"#utility.yul\":4344:4353   */\n  dup3\n    /* \"#utility.yul\":4325:4422   */\n  tag_27\n  jump\t// in\ntag_90:\n    /* \"#utility.yul\":4443:4482   */\n  tag_91\n    /* \"#utility.yul\":4473:4481   */\n  dup7\n    /* \"#utility.yul\":4462:4471   */\n  dup4\n    /* \"#utility.yul\":4443:4482   */\n  tag_27\n  jump\t// in\ntag_91:\n    /* \"#utility.yul\":4431:4482   */\n  swap6\n  pop\n    /* \"#utility.yul\":4515:4519   */\n  dup1\n    /* \"#utility.yul\":4511:4520   */\n  not\n    /* \"#utility.yul\":4504:4509   */\n  dup5\n    /* \"#utility.yul\":4500:4521   */\n  and\n    /* \"#utility.yul\":4491:4521   */\n  swap4\n  pop\n    /* \"#utility.yul\":4564:4568   */\n  dup1\n    /* \"#utility.yul\":4554:4562   */\n  dup7\n    /* \"#utility.yul\":4550:4569   */\n  and\n    /* \"#utility.yul\":4543:4548   */\n  dup5\n    /* \"#utility.yul\":4540:4570   */\n  or\n    /* \"#utility.yul\":4530:4570   */\n  swap3\n  pop\n    /* \"#utility.yul\":4259:4576   */\n  pop\n  pop\n    /* \"#utility.yul\":4183:4576   */\n  swap4\n  swap3\n  pop\n  pop\n  pop\n  jump\t// out\n    /* \"#utility.yul\":4582:4659   */\ntag_29:\n    /* \"#utility.yul\":4619:4626   */\n  0x00\n    /* \"#utility.yul\":4648:4653   */\n  dup2\n    /* \"#utility.yul\":4637:4653   */\n  swap1\n  pop\n    /* \"#utility.yul\":4582:4659   */\n  swap2\n  swap1\n  pop\n  jump\t// out\n    /* \"#utility.yul\":4665:4725   */\ntag_30:\n    /* \"#utility.yul\":4693:4696   */\n  0x00\n    /* \"#utility.yul\":4714:4719   */\n  dup2\n    /* \"#utility.yul\":4707:4719   */\n  swap1\n  pop\n    /* \"#utility.yul\":4665:4725   */\n  swap2\n  swap1\n  pop\n  jump\t// out\n    /* \"#utility.yul\":4731:4873   */\ntag_31:\n    /* \"#utility.yul\":4781:4790   */\n  0x00\n    /* \"#utility.yul\":4814:4867   */\n  tag_95\n    /* \"#utility.yul\":4832:4866   */\n  tag_96\n    /* \"#utility.yul\":4841:4865   */\n  tag_97\n    /* \"#utility.yul\":4859:4864   */\n  dup5\n    /* \"#utility.yul\":4841:4865   */\n  tag_29\n  jump\t// in\ntag_97:\n    /* \"#utility.yul\":4832:4866   */\n  tag_30\n  jump\t// in\ntag_96:\n    /* \"#utility.yul\":4814:4867   */\n  tag_29\n  jump\t// in\ntag_95:\n    /* \"#utility.yul\":4801:4867   */\n  swap1\n  pop\n    /* \"#utility.yul\":4731:4873   */\n  swap2\n  swap1\n  pop\n  jump\t// out\n    /* \"#utility.yul\":4879:4954   */\ntag_32:\n    /* \"#utility.yul\":4922:4925   */\n  0x00\n    /* \"#utility.yul\":4943:4948   */\n  dup2\n    /* \"#utility.yul\":4936:4948   */\n  swap1\n  pop\n    /* \"#utility.yul\":4879:4954   */\n  swap2\n  swap1\n  pop\n  jump\t// out\n    /* \"#utility.yul\":4960:5229   */\ntag_33:\n    /* \"#utility.yul\":5070:5109   */\n  tag_100\n    /* \"#utility.yul\":5101:5108   */\n  dup4\n    /* \"#utility.yul\":5070:5109   */\n  tag_31\n  jump\t// in\ntag_100:\n    /* \"#utility.yul\":5131:5222   */\n  tag_101\n    /* \"#utility.yul\":5180:5221   */\n  tag_102\n    /* \"#utility.yul\":5204:5220   */\n  dup3\n    /* \"#utility.yul\":5180:5221   */\n  tag_32\n  jump\t// in\ntag_102:\n    /* \"#utility.yul\":5172:5178   */\n  dup5\n    /* \"#utility.yul\":5165:5169   */\n  dup5\n    /* \"#utility.yul\":5159:5170   */\n  sload\n    /* \"#utility.yul\":5131:5222   */\n  tag_28\n  jump\t// in\ntag_101:\n    /* \"#utility.yul\":5125:5129   */\n  dup3\n    /* \"#utility.yul\":5118:5223   */\n  sstore\n    /* \"#utility.yul\":5036:5229   */\n  pop\n    /* \"#utility.yul\":4960:5229   */\n  pop\n  pop\n  pop\n  jump\t// out\n    /* \"#utility.yul\":5235:5308   */\ntag_34:\n    /* \"#utility.yul\":5280:5283   */\n  0x00\n    /* \"#utility.yul\":5235:5308   */\n  swap1\n  jump\t// out\n    /* \"#utility.yul\":5314:5503   */\ntag_35:\n    /* \"#utility.yul\":5391:5423   */\n  tag_105\n  tag_34\n  jump\t// in\ntag_105:\n    /* \"#utility.yul\":5432:5497   */\n  tag_106\n    /* \"#utility.yul\":5490:5496   */\n  dup2\n    /* \"#utility.yul\":5482:5488   */\n  dup5\n    /* \"#utility.yul\":5476:5480   */\n  dup5\n    /* \"#utility.yul\":5432:5497   */\n  tag_33\n  jump\t// in\ntag_106:\n    /* \"#utility.yul\":5367:5503   */\n  pop\n    /* \"#utility.yul\":5314:5503   */\n  pop\n  pop\n  jump\t// out\n    /* \"#utility.yul\":5509:5695   */\ntag_36:\n    /* \"#utility.yul\":5569:5689   */\ntag_108:\n    /* \"#utility.yul\":5586:5589   */\n  dup2\n    /* \"#utility.yul\":5579:5584   */\n  dup2\n    /* \"#utility.yul\":5576:5590   */\n  lt\n    /* \"#utility.yul\":5569:5689   */\n  iszero\n  tag_110\n  jumpi\n    /* \"#utility.yul\":5640:5679   */\n  tag_111\n    /* \"#utility.yul\":5677:5678   */\n  0x00\n    /* \"#utility.yul\":5670:5675   */\n  dup3\n    /* \"#utility.yul\":5640:5679   */\n  tag_35\n  jump\t// in\ntag_111:\n    /* \"#utility.yul\":5613:5614   */\n  0x01\n    /* \"#utility.yul\":5606:5611   */\n  dup2\n    /* \"#utility.yul\":5602:5615   */\n  add\n    /* \"#utility.yul\":5593:5615   */\n  swap1\n  pop\n    /* \"#utility.yul\":5569:5689   */\n  jump(tag_108)\ntag_110:\n    /* \"#utility.yul\":5509:5695   */\n  pop\n  pop\n  jump\t// out\n    /* \"#utility.yul\":5701:6244   */\ntag_37:\n    /* \"#utility.yul\":5802:5804   */\n  0x1f\n    /* \"#utility.yul\":5797:5800   */\n  dup3\n    /* \"#utility.yul\":5794:5805   */\n  gt\n    /* \"#utility.yul\":5791:6237   */\n  iszero\n  tag_113\n  jumpi\n    /* \"#utility.yul\":5836:5874   */\n  tag_114\n    /* \"#utility.yul\":5868:5873   */\n  dup2\n    /* \"#utility.yul\":5836:5874   */\n  tag_25\n  jump\t// in\ntag_114:\n    /* \"#utility.yul\":5920:5949   */\n  tag_115\n    /* \"#utility.yul\":5938:5948   */\n  dup5\n    /* \"#utility.yul\":5920:5949   */\n  tag_26\n  jump\t// in\ntag_115:\n    /* \"#utility.yul\":5910:5918   */\n  dup2\n    /* \"#utility.yul\":5906:5950   */\n  add\n    /* \"#utility.yul\":6103:6105   */\n  0x20\n    /* \"#utility.yul\":6091:6101   */\n  dup6\n    /* \"#utility.yul\":6088:6106   */\n  lt\n    /* \"#utility.yul\":6085:6134   */\n  iszero\n  tag_116\n  jumpi\n    /* \"#utility.yul\":6124:6132   */\n  dup2\n    /* \"#utility.yul\":6109:6132   */\n  swap1\n  pop\n    /* \"#utility.yul\":6085:6134   */\ntag_116:\n    /* \"#utility.yul\":6147:6227   */\n  tag_117\n    /* \"#utility.yul\":6203:6225   */\n  tag_118\n    /* \"#utility.yul\":6221:6224   */\n  dup6\n    /* \"#utility.yul\":6203:6225   */\n  tag_26\n  jump\t// in\ntag_118:\n    /* \"#utility.yul\":6193:6201   */\n  dup4\n    /* \"#utility.yul\":6189:6226   */\n  add\n    /* \"#utility.yul\":6176:6187   */\n  dup3\n    /* \"#utility.yul\":6147:6227   */\n  tag_36\n  jump\t// in\ntag_117:\n    /* \"#utility.yul\":5806:6237   */\n  pop\n  pop\n    /* \"#utility.yul\":5791:6237   */\ntag_113:\n    /* \"#utility.yul\":5701:6244   */\n  pop\n  pop\n  pop\n  jump\t// out\n    /* \"#utility.yul\":6250:6367   */\ntag_38:\n    /* \"#utility.yul\":6304:6312   */\n  0x00\n    /* \"#utility.yul\":6354:6359   */\n  dup3\n    /* \"#utility.yul\":6348:6352   */\n  dup3\n    /* \"#utility.yul\":6344:6360   */\n  shr\n    /* \"#utility.yul\":6323:6360   */\n  swap1\n  pop\n    /* \"#utility.yul\":6250:6367   */\n  swap3\n  swap2\n  pop\n  pop\n  jump\t// out\n    /* \"#utility.yul\":6373:6542   */\ntag_39:\n    /* \"#utility.yul\":6417:6423   */\n  0x00\n    /* \"#utility.yul\":6450:6501   */\n  tag_121\n    /* \"#utility.yul\":6498:6499   */\n  0x00\n    /* \"#utility.yul\":6494:6500   */\n  not\n    /* \"#utility.yul\":6486:6491   */\n  dup5\n    /* \"#utility.yul\":6483:6484   */\n  0x08\n    /* \"#utility.yul\":6479:6492   */\n  mul\n    /* \"#utility.yul\":6450:6501   */\n  tag_38\n  jump\t// in\ntag_121:\n    /* \"#utility.yul\":6446:6502   */\n  not\n    /* \"#utility.yul\":6531:6535   */\n  dup1\n    /* \"#utility.yul\":6525:6529   */\n  dup4\n    /* \"#utility.yul\":6521:6536   */\n  and\n    /* \"#utility.yul\":6511:6536   */\n  swap2\n  pop\n    /* \"#utility.yul\":6424:6542   */\n  pop\n    /* \"#utility.yul\":6373:6542   */\n  swap3\n  swap2\n  pop\n  pop\n  jump\t// out\n    /* \"#utility.yul\":6547:6842   */\ntag_40:\n    /* \"#utility.yul\":6623:6627   */\n  0x00\n    /* \"#utility.yul\":6769:6798   */\n  tag_123\n    /* \"#utility.yul\":6794:6797   */\n  dup4\n    /* \"#utility.yul\":6788:6792   */\n  dup4\n    /* \"#utility.yul\":6769:6798   */\n  tag_39\n  jump\t// in\ntag_123:\n    /* \"#utility.yul\":6761:6798   */\n  swap2\n  pop\n    /* \"#utility.yul\":6831:6834   */\n  dup3\n    /* \"#utility.yul\":6828:6829   */\n  0x02\n    /* \"#utility.yul\":6824:6835   */\n  mul\n    /* \"#utility.yul\":6818:6822   */\n  dup3\n    /* \"#utility.yul\":6815:6836   */\n  or\n    /* \"#utility.yul\":6807:6836   */\n  swap1\n  pop\n    /* \"#utility.yul\":6547:6842   */\n  swap3\n  swap2\n  pop\n  pop\n  jump\t// out\n    /* \"#utility.yul\":6847:8242   */\ntag_7:\n    /* \"#utility.yul\":6964:7001   */\n  tag_125\n    /* \"#utility.yul\":6997:7000   */\n  dup3\n    /* \"#utility.yul\":6964:7001   */\n  tag_22\n  jump\t// in\ntag_125:\n    /* \"#utility.yul\":7066:7084   */\n  0xffffffffffffffff\n    /* \"#utility.yul\":7058:7064   */\n  dup2\n    /* \"#utility.yul\":7055:7085   */\n  gt\n    /* \"#utility.yul\":7052:7108   */\n  iszero\n  tag_126\n  jumpi\n    /* \"#utility.yul\":7088:7106   */\n  tag_127\n  tag_15\n  jump\t// in\ntag_127:\n    /* \"#utility.yul\":7052:7108   */\ntag_126:\n    /* \"#utility.yul\":7132:7170   */\n  tag_128\n    /* \"#utility.yul\":7164:7168   */\n  dup3\n    /* \"#utility.yul\":7158:7169   */\n  sload\n    /* \"#utility.yul\":7132:7170   */\n  tag_24\n  jump\t// in\ntag_128:\n    /* \"#utility.yul\":7217:7284   */\n  tag_129\n    /* \"#utility.yul\":7277:7283   */\n  dup3\n    /* \"#utility.yul\":7269:7275   */\n  dup3\n    /* \"#utility.yul\":7263:7267   */\n  dup6\n    /* \"#utility.yul\":7217:7284   */\n  tag_37\n  jump\t// in\ntag_129:\n    /* \"#utility.yul\":7311:7312   */\n  0x00\n    /* \"#utility.yul\":7335:7339   */\n  0x20\n    /* \"#utility.yul\":7322:7339   */\n  swap1\n  pop\n    /* \"#utility.yul\":7367:7369   */\n  0x1f\n    /* \"#utility.yul\":7359:7365   */\n  dup4\n    /* \"#utility.yul\":7356:7370   */\n  gt\n    /* \"#utility.yul\":7384:7385   */\n  0x01\n    /* \"#utility.yul\":7379:7997   */\n  dup2\n  eq\n  tag_131\n  jumpi\n    /* \"#utility.yul\":8041:8042   */\n  0x00\n    /* \"#utility.yul\":8058:8064   */\n  dup5\n    /* \"#utility.yul\":8055:8132   */\n  iszero\n  tag_132\n  jumpi\n    /* \"#utility.yul\":8107:8116   */\n  dup3\n    /* \"#utility.yul\":8102:8105   */\n  dup8\n    /* \"#utility.yul\":8098:8117   */\n  add\n    /* \"#utility.yul\":8092:8118   */\n  mload\n    /* \"#utility.yul\":8083:8118   */\n  swap1\n  pop\n    /* \"#utility.yul\":8055:8132   */\ntag_132:\n    /* \"#utility.yul\":8158:8225   */\n  tag_133\n    /* \"#utility.yul\":8218:8224   */\n  dup6\n    /* \"#utility.yul\":8211:8216   */\n  dup3\n    /* \"#utility.yul\":8158:8225   */\n  tag_40\n  jump\t// in\ntag_133:\n    /* \"#utility.yul\":8152:8156   */\n  dup7\n    /* \"#utility.yul\":8145:8226   */\n  sstore\n    /* \"#utility.yul\":8014:8236   */\n  pop\n    /* \"#utility.yul\":7349:8236   */\n  jump(tag_130)\n    /* \"#utility.yul\":7379:7997   */\ntag_131:\n    /* \"#utility.yul\":7431:7435   */\n  0x1f\n    /* \"#utility.yul\":7427:7436   */\n  not\n    /* \"#utility.yul\":7419:7425   */\n  dup5\n    /* \"#utility.yul\":7415:7437   */\n  and\n    /* \"#utility.yul\":7465:7502   */\n  tag_134\n    /* \"#utility.yul\":7497:7501   */\n  dup7\n    /* \"#utility.yul\":7465:7502   */\n  tag_25\n  jump\t// in\ntag_134:\n    /* \"#utility.yul\":7524:7525   */\n  0x00\n    /* \"#utility.yul\":7538:7746   */\ntag_135:\n    /* \"#utility.yul\":7552:7559   */\n  dup3\n    /* \"#utility.yul\":7549:7550   */\n  dup2\n    /* \"#utility.yul\":7546:7560   */\n  lt\n    /* \"#utility.yul\":7538:7746   */\n  iszero\n  tag_137\n  jumpi\n    /* \"#utility.yul\":7631:7640   */\n  dup5\n    /* \"#utility.yul\":7626:7629   */\n  dup10\n    /* \"#utility.yul\":7622:7641   */\n  add\n    /* \"#utility.yul\":7616:7642   */\n  mload\n    /* \"#utility.yul\":7608:7614   */\n  dup3\n    /* \"#utility.yul\":7601:7643   */\n  sstore\n    /* \"#utility.yul\":7682:7683   */\n  0x01\n    /* \"#utility.yul\":7674:7680   */\n  dup3\n    /* \"#utility.yul\":7670:7684   */\n  add\n    /* \"#utility.yul\":7660:7684   */\n  swap2\n  pop\n    /* \"#utility.yul\":7729:7731   */\n  0x20\n    /* \"#utility.yul\":7718:7727   */\n  dup6\n    /* \"#utility.yul\":7714:7732   */\n  add\n    /* \"#utility.yul\":7701:7732   */\n  swap5\n  pop\n    /* \"#utility.yul\":7575:7579   */\n  0x20\n    /* \"#utility.yul\":7572:7573   */\n  dup2\n    /* \"#utility.yul\":7568:7580   */\n  add\n    /* \"#utility.yul\":7563:7580   */\n  swap1\n  pop\n    /* \"#utility.yul\":7538:7746   */\n  jump(tag_135)\ntag_137:\n    /* \"#utility.yul\":7774:7780   */\n  dup7\n    /* \"#utility.yul\":7765:7772   */\n  dup4\n    /* \"#utility.yul\":7762:7781   */\n  lt\n    /* \"#utility.yul\":7759:7938   */\n  iszero\n  tag_138\n  jumpi\n    /* \"#utility.yul\":7832:7841   */\n  dup5\n    /* \"#utility.yul\":7827:7830   */\n  dup10\n    /* \"#utility.yul\":7823:7842   */\n  add\n    /* \"#utility.yul\":7817:7843   */\n  mload\n    /* \"#utility.yul\":7875:7923   */\n  tag_139\n    /* \"#utility.yul\":7917:7921   */\n  0x1f\n    /* \"#utility.yul\":7909:7915   */\n  dup10\n    /* \"#utility.yul\":7905:7922   */\n  and\n    /* \"#utility.yul\":7894:7903   */\n  dup3\n    /* \"#utility.yul\":7875:7923   */\n  tag_39\n  jump\t// in\ntag_139:\n    /* \"#utility.yul\":7867:7873   */\n  dup4\n    /* \"#utility.yul\":7860:7924   */\n  sstore\n    /* \"#utility.yul\":7782:7938   */\n  pop\n    /* \"#utility.yul\":7759:7938   */\ntag_138:\n    /* \"#utility.yul\":7984:7985   */\n  0x01\n    /* \"#utility.yul\":7980:7981   */\n  0x02\n    /* \"#utility.yul\":7972:7978   */\n  dup9\n    /* \"#utility.yul\":7968:7982   */\n  mul\n    /* \"#utility.yul\":7964:7986   */\n  add\n    /* \"#utility.yul\":7958:7962   */\n  dup9\n    /* \"#utility.yul\":7951:7987   */\n  sstore\n    /* \"#utility.yul\":7386:7997   */\n  pop\n  pop\n  pop\n    /* \"#utility.yul\":7349:8236   */\ntag_130:\n  pop\n    /* \"#utility.yul\":6939:8242   */\n  pop\n  pop\n  pop\n    /* \"#utility.yul\":6847:8242   */\n  pop\n  pop\n  jump\t// out\n    /* \"contracts/calls/multicall/Mutlicall.sol\":66:752  contract Erc20 {... */\ntag_8:\n  dataSize(sub_0)\n  dup1\n  dataOffset(sub_0)\n  0x00\n  codecopy\n  0x00\n  return\nstop\n\nsub_0: assembly {\n        /* \"contracts/calls/multicall/Mutlicall.sol\":66:752  contract Erc20 {... */\n      mstore(0x40, 0x80)\n      callvalue\n      dup1\n      iszero\n      tag_1\n      jumpi\n      0x00\n      dup1\n      revert\n    tag_1:\n      pop\n      jumpi(tag_2, lt(calldatasize, 0x04))\n      shr(0xe0, calldataload(0x00))\n      dup1\n      0x70a08231\n      eq\n      tag_3\n      jumpi\n      dup1\n      0x8ee58c98\n      eq\n      tag_4\n      jumpi\n      dup1\n      0xa9059cbb\n      eq\n      tag_5\n      jumpi\n    tag_2:\n      0x00\n      dup1\n      revert\n        /* \"contracts/calls/multicall/Mutlicall.sol\":304:435  function balanceOf(address _addr) view external returns (uint256, uint) {... */\n    tag_3:\n      tag_6\n      0x04\n      dup1\n      calldatasize\n      sub\n      dup2\n      add\n      swap1\n      tag_7\n      swap2\n      swap1\n      tag_8\n      jump\t// in\n    tag_7:\n      tag_9\n      jump\t// in\n    tag_6:\n      mload(0x40)\n      tag_10\n      swap3\n      swap2\n      swap1\n      tag_11\n      jump\t// in\n    tag_10:\n      mload(0x40)\n      dup1\n      swap2\n      sub\n      swap1\n      return\n        /* \"contracts/calls/multicall/Mutlicall.sol\":598:750  function getInputData(address _addr) external pure returns (bytes memory) {... */\n    tag_4:\n      tag_12\n      0x04\n      dup1\n      calldatasize\n      sub\n      dup2\n      add\n      swap1\n      tag_13\n      swap2\n      swap1\n      tag_8\n      jump\t// in\n    tag_13:\n      tag_14\n      jump\t// in\n    tag_12:\n      mload(0x40)\n      tag_15\n      swap2\n      swap1\n      tag_16\n      jump\t// in\n    tag_15:\n      mload(0x40)\n      dup1\n      swap2\n      sub\n      swap1\n      return\n        /* \"contracts/calls/multicall/Mutlicall.sol\":441:592  function transfer(address _addr, uint256 amount) external {... */\n    tag_5:\n      tag_17\n      0x04\n      dup1\n      calldatasize\n      sub\n      dup2\n      add\n      swap1\n      tag_18\n      swap2\n      swap1\n      tag_19\n      jump\t// in\n    tag_18:\n      tag_20\n      jump\t// in\n    tag_17:\n      stop\n        /* \"contracts/calls/multicall/Mutlicall.sol\":304:435  function balanceOf(address _addr) view external returns (uint256, uint) {... */\n    tag_9:\n        /* \"contracts/calls/multicall/Mutlicall.sol\":361:368  uint256 */\n      0x00\n        /* \"contracts/calls/multicall/Mutlicall.sol\":370:374  uint */\n      dup1\n        /* \"contracts/calls/multicall/Mutlicall.sol\":394:403  _balances */\n      0x00\n        /* \"contracts/calls/multicall/Mutlicall.sol\":394:410  _balances[_addr] */\n      dup1\n        /* \"contracts/calls/multicall/Mutlicall.sol\":404:409  _addr */\n      dup5\n        /* \"contracts/calls/multicall/Mutlicall.sol\":394:410  _balances[_addr] */\n      0xffffffffffffffffffffffffffffffffffffffff\n      and\n      0xffffffffffffffffffffffffffffffffffffffff\n      and\n      dup2\n      mstore\n      0x20\n      add\n      swap1\n      dup2\n      mstore\n      0x20\n      add\n      0x00\n      keccak256\n      sload\n        /* \"contracts/calls/multicall/Mutlicall.sol\":412:427  block.timestamp */\n      timestamp\n        /* \"contracts/calls/multicall/Mutlicall.sol\":386:428  return (_balances[_addr], block.timestamp) */\n      swap2\n      pop\n      swap2\n      pop\n        /* \"contracts/calls/multicall/Mutlicall.sol\":304:435  function balanceOf(address _addr) view external returns (uint256, uint) {... */\n      swap2\n      pop\n      swap2\n      jump\t// out\n        /* \"contracts/calls/multicall/Mutlicall.sol\":598:750  function getInputData(address _addr) external pure returns (bytes memory) {... */\n    tag_14:\n        /* \"contracts/calls/multicall/Mutlicall.sol\":658:670  bytes memory */\n      0x60\n        /* \"contracts/calls/multicall/Mutlicall.sol\":712:735  this.balanceOf.selector */\n      shl(0xe0, 0x70a08231)\n        /* \"contracts/calls/multicall/Mutlicall.sol\":737:742  _addr */\n      dup3\n        /* \"contracts/calls/multicall/Mutlicall.sol\":689:743  abi.encodeWithSelector(this.balanceOf.selector, _addr) */\n      add(0x24, mload(0x40))\n      tag_23\n      swap2\n      swap1\n      tag_24\n      jump\t// in\n    tag_23:\n      mload(0x40)\n      0x20\n      dup2\n      dup4\n      sub\n      sub\n      dup2\n      mstore\n      swap1\n      0x40\n      mstore\n      swap1\n      not(0xffffffffffffffffffffffffffffffffffffffffffffffffffffffff)\n      and\n      0x20\n      dup3\n      add\n      dup1\n      mload\n      0xffffffffffffffffffffffffffffffffffffffffffffffffffffffff\n      dup4\n      dup2\n      dup4\n      and\n      or\n      dup4\n      mstore\n      pop\n      pop\n      pop\n      pop\n        /* \"contracts/calls/multicall/Mutlicall.sol\":682:743  return abi.encodeWithSelector(this.balanceOf.selector, _addr) */\n      swap1\n      pop\n        /* \"contracts/calls/multicall/Mutlicall.sol\":598:750  function getInputData(address _addr) external pure returns (bytes memory) {... */\n      swap2\n      swap1\n      pop\n      jump\t// out\n        /* \"contracts/calls/multicall/Mutlicall.sol\":441:592  function transfer(address _addr, uint256 amount) external {... */\n    tag_20:\n        /* \"contracts/calls/multicall/Mutlicall.sol\":529:535  amount */\n      dup1\n        /* \"contracts/calls/multicall/Mutlicall.sol\":509:518  _balances */\n      0x00\n        /* \"contracts/calls/multicall/Mutlicall.sol\":509:525  _balances[_addr] */\n      dup1\n        /* \"contracts/calls/multicall/Mutlicall.sol\":519:524  _addr */\n      dup5\n        /* \"contracts/calls/multicall/Mutlicall.sol\":509:525  _balances[_addr] */\n      0xffffffffffffffffffffffffffffffffffffffff\n      and\n      0xffffffffffffffffffffffffffffffffffffffff\n      and\n      dup2\n      mstore\n      0x20\n      add\n      swap1\n      dup2\n      mstore\n      0x20\n      add\n      0x00\n      keccak256\n      0x00\n        /* \"contracts/calls/multicall/Mutlicall.sol\":509:535  _balances[_addr] += amount */\n      dup3\n      dup3\n      sload\n      tag_26\n      swap2\n      swap1\n      tag_27\n      jump\t// in\n    tag_26:\n      swap3\n      pop\n      pop\n      dup2\n      swap1\n      sstore\n      pop\n        /* \"contracts/calls/multicall/Mutlicall.sol\":550:585  Transfer(msg.sender, _addr, amount) */\n      0xddf252ad1be2c89b69c2b068fc378daa952ba7f163c4a11628f55a4df523b3ef\n        /* \"contracts/calls/multicall/Mutlicall.sol\":559:569  msg.sender */\n      caller\n        /* \"contracts/calls/multicall/Mutlicall.sol\":571:576  _addr */\n      dup4\n        /* \"contracts/calls/multicall/Mutlicall.sol\":578:584  amount */\n      dup4\n        /* \"contracts/calls/multicall/Mutlicall.sol\":550:585  Transfer(msg.sender, _addr, amount) */\n      mload(0x40)\n      tag_28\n      swap4\n      swap3\n      swap2\n      swap1\n      tag_29\n      jump\t// in\n    tag_28:\n      mload(0x40)\n      dup1\n      swap2\n      sub\n      swap1\n      log1\n        /* \"contracts/calls/multicall/Mutlicall.sol\":441:592  function transfer(address _addr, uint256 amount) external {... */\n      pop\n      pop\n      jump\t// out\n        /* \"#utility.yul\":88:205   */\n    tag_31:\n        /* \"#utility.yul\":197:198   */\n      0x00\n        /* \"#utility.yul\":194:195   */\n      dup1\n        /* \"#utility.yul\":187:199   */\n      revert\n        /* \"#utility.yul\":334:460   */\n    tag_33:\n        /* \"#utility.yul\":371:378   */\n      0x00\n        /* \"#utility.yul\":411:453   */\n      0xffffffffffffffffffffffffffffffffffffffff\n        /* \"#utility.yul\":404:409   */\n      dup3\n        /* \"#utility.yul\":400:454   */\n      and\n        /* \"#utility.yul\":389:454   */\n      swap1\n      pop\n        /* \"#utility.yul\":334:460   */\n      swap2\n      swap1\n      pop\n      jump\t// out\n        /* \"#utility.yul\":466:562   */\n    tag_34:\n        /* \"#utility.yul\":503:510   */\n      0x00\n        /* \"#utility.yul\":532:556   */\n      tag_54\n        /* \"#utility.yul\":550:555   */\n      dup3\n        /* \"#utility.yul\":532:556   */\n      tag_33\n      jump\t// in\n    tag_54:\n        /* \"#utility.yul\":521:556   */\n      swap1\n      pop\n        /* \"#utility.yul\":466:562   */\n      swap2\n      swap1\n      pop\n      jump\t// out\n        /* \"#utility.yul\":568:690   */\n    tag_35:\n        /* \"#utility.yul\":641:665   */\n      tag_56\n        /* \"#utility.yul\":659:664   */\n      dup2\n        /* \"#utility.yul\":641:665   */\n      tag_34\n      jump\t// in\n    tag_56:\n        /* \"#utility.yul\":634:639   */\n      dup2\n        /* \"#utility.yul\":631:666   */\n      eq\n        /* \"#utility.yul\":621:684   */\n      tag_57\n      jumpi\n        /* \"#utility.yul\":680:681   */\n      0x00\n        /* \"#utility.yul\":677:678   */\n      dup1\n        /* \"#utility.yul\":670:682   */\n      revert\n        /* \"#utility.yul\":621:684   */\n    tag_57:\n        /* \"#utility.yul\":568:690   */\n      pop\n      jump\t// out\n        /* \"#utility.yul\":696:835   */\n    tag_36:\n        /* \"#utility.yul\":742:747   */\n      0x00\n        /* \"#utility.yul\":780:786   */\n      dup2\n        /* \"#utility.yul\":767:787   */\n      calldataload\n        /* \"#utility.yul\":758:787   */\n      swap1\n      pop\n        /* \"#utility.yul\":796:829   */\n      tag_59\n        /* \"#utility.yul\":823:828   */\n      dup2\n        /* \"#utility.yul\":796:829   */\n      tag_35\n      jump\t// in\n    tag_59:\n        /* \"#utility.yul\":696:835   */\n      swap3\n      swap2\n      pop\n      pop\n      jump\t// out\n        /* \"#utility.yul\":841:1170   */\n    tag_8:\n        /* \"#utility.yul\":900:906   */\n      0x00\n        /* \"#utility.yul\":949:951   */\n      0x20\n        /* \"#utility.yul\":937:946   */\n      dup3\n        /* \"#utility.yul\":928:935   */\n      dup5\n        /* \"#utility.yul\":924:947   */\n      sub\n        /* \"#utility.yul\":920:952   */\n      slt\n        /* \"#utility.yul\":917:1036   */\n      iszero\n      tag_61\n      jumpi\n        /* \"#utility.yul\":955:1034   */\n      tag_62\n      tag_31\n      jump\t// in\n    tag_62:\n        /* \"#utility.yul\":917:1036   */\n    tag_61:\n        /* \"#utility.yul\":1075:1076   */\n      0x00\n        /* \"#utility.yul\":1100:1153   */\n      tag_63\n        /* \"#utility.yul\":1145:1152   */\n      dup5\n        /* \"#utility.yul\":1136:1142   */\n      dup3\n        /* \"#utility.yul\":1125:1134   */\n      dup6\n        /* \"#utility.yul\":1121:1143   */\n      add\n        /* \"#utility.yul\":1100:1153   */\n      tag_36\n      jump\t// in\n    tag_63:\n        /* \"#utility.yul\":1090:1153   */\n      swap2\n      pop\n        /* \"#utility.yul\":1046:1163   */\n      pop\n        /* \"#utility.yul\":841:1170   */\n      swap3\n      swap2\n      pop\n      pop\n      jump\t// out\n        /* \"#utility.yul\":1176:1253   */\n    tag_37:\n        /* \"#utility.yul\":1213:1220   */\n      0x00\n        /* \"#utility.yul\":1242:1247   */\n      dup2\n        /* \"#utility.yul\":1231:1247   */\n      swap1\n      pop\n        /* \"#utility.yul\":1176:1253   */\n      swap2\n      swap1\n      pop\n      jump\t// out\n        /* \"#utility.yul\":1259:1377   */\n    tag_38:\n        /* \"#utility.yul\":1346:1370   */\n      tag_66\n        /* \"#utility.yul\":1364:1369   */\n      dup2\n        /* \"#utility.yul\":1346:1370   */\n      tag_37\n      jump\t// in\n    tag_66:\n        /* \"#utility.yul\":1341:1344   */\n      dup3\n        /* \"#utility.yul\":1334:1371   */\n      mstore\n        /* \"#utility.yul\":1259:1377   */\n      pop\n      pop\n      jump\t// out\n        /* \"#utility.yul\":1383:1715   */\n    tag_11:\n        /* \"#utility.yul\":1504:1508   */\n      0x00\n        /* \"#utility.yul\":1542:1544   */\n      0x40\n        /* \"#utility.yul\":1531:1540   */\n      dup3\n        /* \"#utility.yul\":1527:1545   */\n      add\n        /* \"#utility.yul\":1519:1545   */\n      swap1\n      pop\n        /* \"#utility.yul\":1555:1626   */\n      tag_68\n        /* \"#utility.yul\":1623:1624   */\n      0x00\n        /* \"#utility.yul\":1612:1621   */\n      dup4\n        /* \"#utility.yul\":1608:1625   */\n      add\n        /* \"#utility.yul\":1599:1605   */\n      dup6\n        /* \"#utility.yul\":1555:1626   */\n      tag_38\n      jump\t// in\n    tag_68:\n        /* \"#utility.yul\":1636:1708   */\n      tag_69\n        /* \"#utility.yul\":1704:1706   */\n      0x20\n        /* \"#utility.yul\":1693:1702   */\n      dup4\n        /* \"#utility.yul\":1689:1707   */\n      add\n        /* \"#utility.yul\":1680:1686   */\n      dup5\n        /* \"#utility.yul\":1636:1708   */\n      tag_38\n      jump\t// in\n    tag_69:\n        /* \"#utility.yul\":1383:1715   */\n      swap4\n      swap3\n      pop\n      pop\n      pop\n      jump\t// out\n        /* \"#utility.yul\":1721:1819   */\n    tag_39:\n        /* \"#utility.yul\":1772:1778   */\n      0x00\n        /* \"#utility.yul\":1806:1811   */\n      dup2\n        /* \"#utility.yul\":1800:1812   */\n      mload\n        /* \"#utility.yul\":1790:1812   */\n      swap1\n      pop\n        /* \"#utility.yul\":1721:1819   */\n      swap2\n      swap1\n      pop\n      jump\t// out\n        /* \"#utility.yul\":1825:1993   */\n    tag_40:\n        /* \"#utility.yul\":1908:1919   */\n      0x00\n        /* \"#utility.yul\":1942:1948   */\n      dup3\n        /* \"#utility.yul\":1937:1940   */\n      dup3\n        /* \"#utility.yul\":1930:1949   */\n      mstore\n        /* \"#utility.yul\":1982:1986   */\n      0x20\n        /* \"#utility.yul\":1977:1980   */\n      dup3\n        /* \"#utility.yul\":1973:1987   */\n      add\n        /* \"#utility.yul\":1958:1987   */\n      swap1\n      pop\n        /* \"#utility.yul\":1825:1993   */\n      swap3\n      swap2\n      pop\n      pop\n      jump\t// out\n        /* \"#utility.yul\":1999:2245   */\n    tag_41:\n        /* \"#utility.yul\":2080:2081   */\n      0x00\n        /* \"#utility.yul\":2090:2203   */\n    tag_73:\n        /* \"#utility.yul\":2104:2110   */\n      dup4\n        /* \"#utility.yul\":2101:2102   */\n      dup2\n        /* \"#utility.yul\":2098:2111   */\n      lt\n        /* \"#utility.yul\":2090:2203   */\n      iszero\n      tag_75\n      jumpi\n        /* \"#utility.yul\":2189:2190   */\n      dup1\n        /* \"#utility.yul\":2184:2187   */\n      dup3\n        /* \"#utility.yul\":2180:2191   */\n      add\n        /* \"#utility.yul\":2174:2192   */\n      mload\n        /* \"#utility.yul\":2170:2171   */\n      dup2\n        /* \"#utility.yul\":2165:2168   */\n      dup5\n        /* \"#utility.yul\":2161:2172   */\n      add\n        /* \"#utility.yul\":2154:2193   */\n      mstore\n        /* \"#utility.yul\":2126:2128   */\n      0x20\n        /* \"#utility.yul\":2123:2124   */\n      dup2\n        /* \"#utility.yul\":2119:2129   */\n      add\n        /* \"#utility.yul\":2114:2129   */\n      swap1\n      pop\n        /* \"#utility.yul\":2090:2203   */\n      jump(tag_73)\n    tag_75:\n        /* \"#utility.yul\":2237:2238   */\n      0x00\n        /* \"#utility.yul\":2228:2234   */\n      dup5\n        /* \"#utility.yul\":2223:2226   */\n      dup5\n        /* \"#utility.yul\":2219:2235   */\n      add\n        /* \"#utility.yul\":2212:2239   */\n      mstore\n        /* \"#utility.yul\":2061:2245   */\n      pop\n        /* \"#utility.yul\":1999:2245   */\n      pop\n      pop\n      pop\n      jump\t// out\n        /* \"#utility.yul\":2251:2353   */\n    tag_42:\n        /* \"#utility.yul\":2292:2298   */\n      0x00\n        /* \"#utility.yul\":2343:2345   */\n      0x1f\n        /* \"#utility.yul\":2339:2346   */\n      not\n        /* \"#utility.yul\":2334:2336   */\n      0x1f\n        /* \"#utility.yul\":2327:2332   */\n      dup4\n        /* \"#utility.yul\":2323:2337   */\n      add\n        /* \"#utility.yul\":2319:2347   */\n      and\n        /* \"#utility.yul\":2309:2347   */\n      swap1\n      pop\n        /* \"#utility.yul\":2251:2353   */\n      swap2\n      swap1\n      pop\n      jump\t// out\n        /* \"#utility.yul\":2359:2732   */\n    tag_43:\n        /* \"#utility.yul\":2445:2448   */\n      0x00\n        /* \"#utility.yul\":2473:2511   */\n      tag_78\n        /* \"#utility.yul\":2505:2510   */\n      dup3\n        /* \"#utility.yul\":2473:2511   */\n      tag_39\n      jump\t// in\n    tag_78:\n        /* \"#utility.yul\":2527:2597   */\n      tag_79\n        /* \"#utility.yul\":2590:2596   */\n      dup2\n        /* \"#utility.yul\":2585:2588   */\n      dup6\n        /* \"#utility.yul\":2527:2597   */\n      tag_40\n      jump\t// in\n    tag_79:\n        /* \"#utility.yul\":2520:2597   */\n      swap4\n      pop\n        /* \"#utility.yul\":2606:2671   */\n      tag_80\n        /* \"#utility.yul\":2664:2670   */\n      dup2\n        /* \"#utility.yul\":2659:2662   */\n      dup6\n        /* \"#utility.yul\":2652:2656   */\n      0x20\n        /* \"#utility.yul\":2645:2650   */\n      dup7\n        /* \"#utility.yul\":2641:2657   */\n      add\n        /* \"#utility.yul\":2606:2671   */\n      tag_41\n      jump\t// in\n    tag_80:\n        /* \"#utility.yul\":2696:2725   */\n      tag_81\n        /* \"#utility.yul\":2718:2724   */\n      dup2\n        /* \"#utility.yul\":2696:2725   */\n      tag_42\n      jump\t// in\n    tag_81:\n        /* \"#utility.yul\":2691:2694   */\n      dup5\n        /* \"#utility.yul\":2687:2726   */\n      add\n        /* \"#utility.yul\":2680:2726   */\n      swap2\n      pop\n        /* \"#utility.yul\":2449:2732   */\n      pop\n        /* \"#utility.yul\":2359:2732   */\n      swap3\n      swap2\n      pop\n      pop\n      jump\t// out\n        /* \"#utility.yul\":2738:3047   */\n    tag_16:\n        /* \"#utility.yul\":2849:2853   */\n      0x00\n        /* \"#utility.yul\":2887:2889   */\n      0x20\n        /* \"#utility.yul\":2876:2885   */\n      dup3\n        /* \"#utility.yul\":2872:2890   */\n      add\n        /* \"#utility.yul\":2864:2890   */\n      swap1\n      pop\n        /* \"#utility.yul\":2936:2945   */\n      dup2\n        /* \"#utility.yul\":2930:2934   */\n      dup2\n        /* \"#utility.yul\":2926:2946   */\n      sub\n        /* \"#utility.yul\":2922:2923   */\n      0x00\n        /* \"#utility.yul\":2911:2920   */\n      dup4\n        /* \"#utility.yul\":2907:2924   */\n      add\n        /* \"#utility.yul\":2900:2947   */\n      mstore\n        /* \"#utility.yul\":2964:3040   */\n      tag_83\n        /* \"#utility.yul\":3035:3039   */\n      dup2\n        /* \"#utility.yul\":3026:3032   */\n      dup5\n        /* \"#utility.yul\":2964:3040   */\n      tag_43\n      jump\t// in\n    tag_83:\n        /* \"#utility.yul\":2956:3040   */\n      swap1\n      pop\n        /* \"#utility.yul\":2738:3047   */\n      swap3\n      swap2\n      pop\n      pop\n      jump\t// out\n        /* \"#utility.yul\":3053:3175   */\n    tag_44:\n        /* \"#utility.yul\":3126:3150   */\n      tag_85\n        /* \"#utility.yul\":3144:3149   */\n      dup2\n        /* \"#utility.yul\":3126:3150   */\n      tag_37\n      jump\t// in\n    tag_85:\n        /* \"#utility.yul\":3119:3124   */\n      dup2\n        /* \"#utility.yul\":3116:3151   */\n      eq\n        /* \"#utility.yul\":3106:3169   */\n      tag_86\n      jumpi\n        /* \"#utility.yul\":3165:3166   */\n      0x00\n        /* \"#utility.yul\":3162:3163   */\n      dup1\n        /* \"#utility.yul\":3155:3167   */\n      revert\n        /* \"#utility.yul\":3106:3169   */\n    tag_86:\n        /* \"#utility.yul\":3053:3175   */\n      pop\n      jump\t// out\n        /* \"#utility.yul\":3181:3320   */\n    tag_45:\n        /* \"#utility.yul\":3227:3232   */\n      0x00\n        /* \"#utility.yul\":3265:3271   */\n      dup2\n        /* \"#utility.yul\":3252:3272   */\n      calldataload\n        /* \"#utility.yul\":3243:3272   */\n      swap1\n      pop\n        /* \"#utility.yul\":3281:3314   */\n      tag_88\n        /* \"#utility.yul\":3308:3313   */\n      dup2\n        /* \"#utility.yul\":3281:3314   */\n      tag_44\n      jump\t// in\n    tag_88:\n        /* \"#utility.yul\":3181:3320   */\n      swap3\n      swap2\n      pop\n      pop\n      jump\t// out\n        /* \"#utility.yul\":3326:3800   */\n    tag_19:\n        /* \"#utility.yul\":3394:3400   */\n      0x00\n        /* \"#utility.yul\":3402:3408   */\n      dup1\n        /* \"#utility.yul\":3451:3453   */\n      0x40\n        /* \"#utility.yul\":3439:3448   */\n      dup4\n        /* \"#utility.yul\":3430:3437   */\n      dup6\n        /* \"#utility.yul\":3426:3449   */\n      sub\n        /* \"#utility.yul\":3422:3454   */\n      slt\n        /* \"#utility.yul\":3419:3538   */\n      iszero\n      tag_90\n      jumpi\n        /* \"#utility.yul\":3457:3536   */\n      tag_91\n      tag_31\n      jump\t// in\n    tag_91:\n        /* \"#utility.yul\":3419:3538   */\n    tag_90:\n        /* \"#utility.yul\":3577:3578   */\n      0x00\n        /* \"#utility.yul\":3602:3655   */\n      tag_92\n        /* \"#utility.yul\":3647:3654   */\n      dup6\n        /* \"#utility.yul\":3638:3644   */\n      dup3\n        /* \"#utility.yul\":3627:3636   */\n      dup7\n        /* \"#utility.yul\":3623:3645   */\n      add\n        /* \"#utility.yul\":3602:3655   */\n      tag_36\n      jump\t// in\n    tag_92:\n        /* \"#utility.yul\":3592:3655   */\n      swap3\n      pop\n        /* \"#utility.yul\":3548:3665   */\n      pop\n        /* \"#utility.yul\":3704:3706   */\n      0x20\n        /* \"#utility.yul\":3730:3783   */\n      tag_93\n        /* \"#utility.yul\":3775:3782   */\n      dup6\n        /* \"#utility.yul\":3766:3772   */\n      dup3\n        /* \"#utility.yul\":3755:3764   */\n      dup7\n        /* \"#utility.yul\":3751:3773   */\n      add\n        /* \"#utility.yul\":3730:3783   */\n      tag_45\n      jump\t// in\n    tag_93:\n        /* \"#utility.yul\":3720:3783   */\n      swap2\n      pop\n        /* \"#utility.yul\":3675:3793   */\n      pop\n        /* \"#utility.yul\":3326:3800   */\n      swap3\n      pop\n      swap3\n      swap1\n      pop\n      jump\t// out\n        /* \"#utility.yul\":3806:3924   */\n    tag_46:\n        /* \"#utility.yul\":3893:3917   */\n      tag_95\n        /* \"#utility.yul\":3911:3916   */\n      dup2\n        /* \"#utility.yul\":3893:3917   */\n      tag_34\n      jump\t// in\n    tag_95:\n        /* \"#utility.yul\":3888:3891   */\n      dup3\n        /* \"#utility.yul\":3881:3918   */\n      mstore\n        /* \"#utility.yul\":3806:3924   */\n      pop\n      pop\n      jump\t// out\n        /* \"#utility.yul\":3930:4152   */\n    tag_24:\n        /* \"#utility.yul\":4023:4027   */\n      0x00\n        /* \"#utility.yul\":4061:4063   */\n      0x20\n        /* \"#utility.yul\":4050:4059   */\n      dup3\n        /* \"#utility.yul\":4046:4064   */\n      add\n        /* \"#utility.yul\":4038:4064   */\n      swap1\n      pop\n        /* \"#utility.yul\":4074:4145   */\n      tag_97\n        /* \"#utility.yul\":4142:4143   */\n      0x00\n        /* \"#utility.yul\":4131:4140   */\n      dup4\n        /* \"#utility.yul\":4127:4144   */\n      add\n        /* \"#utility.yul\":4118:4124   */\n      dup5\n        /* \"#utility.yul\":4074:4145   */\n      tag_46\n      jump\t// in\n    tag_97:\n        /* \"#utility.yul\":3930:4152   */\n      swap3\n      swap2\n      pop\n      pop\n      jump\t// out\n        /* \"#utility.yul\":4158:4338   */\n    tag_47:\n        /* \"#utility.yul\":4206:4283   */\n      0x4e487b7100000000000000000000000000000000000000000000000000000000\n        /* \"#utility.yul\":4203:4204   */\n      0x00\n        /* \"#utility.yul\":4196:4284   */\n      mstore\n        /* \"#utility.yul\":4303:4307   */\n      0x11\n        /* \"#utility.yul\":4300:4301   */\n      0x04\n        /* \"#utility.yul\":4293:4308   */\n      mstore\n        /* \"#utility.yul\":4327:4331   */\n      0x24\n        /* \"#utility.yul\":4324:4325   */\n      0x00\n        /* \"#utility.yul\":4317:4332   */\n      revert\n        /* \"#utility.yul\":4344:4535   */\n    tag_27:\n        /* \"#utility.yul\":4384:4387   */\n      0x00\n        /* \"#utility.yul\":4403:4423   */\n      tag_100\n        /* \"#utility.yul\":4421:4422   */\n      dup3\n        /* \"#utility.yul\":4403:4423   */\n      tag_37\n      jump\t// in\n    tag_100:\n        /* \"#utility.yul\":4398:4423   */\n      swap2\n      pop\n        /* \"#utility.yul\":4437:4457   */\n      tag_101\n        /* \"#utility.yul\":4455:4456   */\n      dup4\n        /* \"#utility.yul\":4437:4457   */\n      tag_37\n      jump\t// in\n    tag_101:\n        /* \"#utility.yul\":4432:4457   */\n      swap3\n      pop\n        /* \"#utility.yul\":4480:4481   */\n      dup3\n        /* \"#utility.yul\":4477:4478   */\n      dup3\n        /* \"#utility.yul\":4473:4482   */\n      add\n        /* \"#utility.yul\":4466:4482   */\n      swap1\n      pop\n        /* \"#utility.yul\":4501:4504   */\n      dup1\n        /* \"#utility.yul\":4498:4499   */\n      dup3\n        /* \"#utility.yul\":4495:4505   */\n      gt\n        /* \"#utility.yul\":4492:4528   */\n      iszero\n      tag_102\n      jumpi\n        /* \"#utility.yul\":4508:4526   */\n      tag_103\n      tag_47\n      jump\t// in\n    tag_103:\n        /* \"#utility.yul\":4492:4528   */\n    tag_102:\n        /* \"#utility.yul\":4344:4535   */\n      swap3\n      swap2\n      pop\n      pop\n      jump\t// out\n        /* \"#utility.yul\":4541:4983   */\n    tag_29:\n        /* \"#utility.yul\":4690:4694   */\n      0x00\n        /* \"#utility.yul\":4728:4730   */\n      0x60\n        /* \"#utility.yul\":4717:4726   */\n      dup3\n        /* \"#utility.yul\":4713:4731   */\n      add\n        /* \"#utility.yul\":4705:4731   */\n      swap1\n      pop\n        /* \"#utility.yul\":4741:4812   */\n      tag_105\n        /* \"#utility.yul\":4809:4810   */\n      0x00\n        /* \"#utility.yul\":4798:4807   */\n      dup4\n        /* \"#utility.yul\":4794:4811   */\n      add\n        /* \"#utility.yul\":4785:4791   */\n      dup7\n        /* \"#utility.yul\":4741:4812   */\n      tag_46\n      jump\t// in\n    tag_105:\n        /* \"#utility.yul\":4822:4894   */\n      tag_106\n        /* \"#utility.yul\":4890:4892   */\n      0x20\n        /* \"#utility.yul\":4879:4888   */\n      dup4\n        /* \"#utility.yul\":4875:4893   */\n      add\n        /* \"#utility.yul\":4866:4872   */\n      dup6\n        /* \"#utility.yul\":4822:4894   */\n      tag_46\n      jump\t// in\n    tag_106:\n        /* \"#utility.yul\":4904:4976   */\n      tag_107\n        /* \"#utility.yul\":4972:4974   */\n      0x40\n        /* \"#utility.yul\":4961:4970   */\n      dup4\n        /* \"#utility.yul\":4957:4975   */\n      add\n        /* \"#utility.yul\":4948:4954   */\n      dup5\n        /* \"#utility.yul\":4904:4976   */\n      tag_38\n      jump\t// in\n    tag_107:\n        /* \"#utility.yul\":4541:4983   */\n      swap5\n      swap4\n      pop\n      pop\n      pop\n      pop\n      jump\t// out\n\n    auxdata: 0xa26469706673582212207b7aede0c91b0d1fd033d75d677f0351ff3f81f0df1ed635ee095c645259260a64736f6c63430008180033\n}\n",
				"bytecode": {
					"linkReferences": {},
					"object": "608060405234801562000010575f80fd5b5060405162000a3238038062000a328339818101604052810190620000369190620001d4565b80600190816200004791906200045a565b50506200053e565b5f604051905090565b5f80fd5b5f80fd5b5f80fd5b5f80fd5b5f601f19601f8301169050919050565b7f4e487b71000000000000000000000000000000000000000000000000000000005f52604160045260245ffd5b620000b08262000068565b810181811067ffffffffffffffff82111715620000d257620000d162000078565b5b80604052505050565b5f620000e66200004f565b9050620000f48282620000a5565b919050565b5f67ffffffffffffffff82111562000116576200011562000078565b5b620001218262000068565b9050602081019050919050565b5f5b838110156200014d57808201518184015260208101905062000130565b5f8484015250505050565b5f6200016e6200016884620000f9565b620000db565b9050828152602081018484840111156200018d576200018c62000064565b5b6200019a8482856200012e565b509392505050565b5f82601f830112620001b957620001b862000060565b5b8151620001cb84826020860162000158565b91505092915050565b5f60208284031215620001ec57620001eb62000058565b5b5f82015167ffffffffffffffff8111156200020c576200020b6200005c565b5b6200021a84828501620001a2565b91505092915050565b5f81519050919050565b7f4e487b71000000000000000000000000000000000000000000000000000000005f52602260045260245ffd5b5f60028204905060018216806200027257607f821691505b6020821081036200028857620002876200022d565b5b50919050565b5f819050815f5260205f209050919050565b5f6020601f8301049050919050565b5f82821b905092915050565b5f60088302620002ec7fffffffffffffffffffffffffffffffffffffffffffffffffffffffffffffffff82620002af565b620002f88683620002af565b95508019841693508086168417925050509392505050565b5f819050919050565b5f819050919050565b5f620003426200033c620003368462000310565b62000319565b62000310565b9050919050565b5f819050919050565b6200035d8362000322565b620003756200036c8262000349565b848454620002bb565b825550505050565b5f90565b6200038b6200037d565b6200039881848462000352565b505050565b5b81811015620003bf57620003b35f8262000381565b6001810190506200039e565b5050565b601f8211156200040e57620003d8816200028e565b620003e384620002a0565b81016020851015620003f3578190505b6200040b6200040285620002a0565b8301826200039d565b50505b505050565b5f82821c905092915050565b5f620004305f198460080262000413565b1980831691505092915050565b5f6200044a83836200041f565b9150826002028217905092915050565b620004658262000223565b67ffffffffffffffff81111562000481576200048062000078565b5b6200048d82546200025a565b6200049a828285620003c3565b5f60209050601f831160018114620004d0575f8415620004bb578287015190505b620004c785826200043d565b86555062000536565b601f198416620004e0866200028e565b5f5b828110156200050957848901518255600182019150602085019450602081019050620004e2565b8683101562000529578489015162000525601f8916826200041f565b8355505b6001600288020188555050505b505050505050565b6104e6806200054c5f395ff3fe608060405234801561000f575f80fd5b506004361061003f575f3560e01c806370a08231146100435780638ee58c9814610074578063a9059cbb146100a4575b5f80fd5b61005d60048036038101906100589190610277565b6100c0565b60405161006b9291906102ba565b60405180910390f35b61008e60048036038101906100899190610277565b610109565b60405161009b919061036b565b60405180910390f35b6100be60048036038101906100b991906103b5565b610188565b005b5f805f808473ffffffffffffffffffffffffffffffffffffffff1673ffffffffffffffffffffffffffffffffffffffff1681526020019081526020015f20544291509150915091565b60606370a0823160e01b826040516024016101249190610402565b604051602081830303815290604052907bffffffffffffffffffffffffffffffffffffffffffffffffffffffff19166020820180517bffffffffffffffffffffffffffffffffffffffffffffffffffffffff83818316178352505050509050919050565b805f808473ffffffffffffffffffffffffffffffffffffffff1673ffffffffffffffffffffffffffffffffffffffff1681526020019081526020015f205f8282546101d39190610448565b925050819055507fddf252ad1be2c89b69c2b068fc378daa952ba7f163c4a11628f55a4df523b3ef33838360405161020d9392919061047b565b60405180910390a15050565b5f80fd5b5f73ffffffffffffffffffffffffffffffffffffffff82169050919050565b5f6102468261021d565b9050919050565b6102568161023c565b8114610260575f80fd5b50565b5f813590506102718161024d565b92915050565b5f6020828403121561028c5761028b610219565b5b5f61029984828501610263565b91505092915050565b5f819050919050565b6102b4816102a2565b82525050565b5f6040820190506102cd5f8301856102ab565b6102da60208301846102ab565b9392505050565b5f81519050919050565b5f82825260208201905092915050565b5f5b838110156103185780820151818401526020810190506102fd565b5f8484015250505050565b5f601f19601f8301169050919050565b5f61033d826102e1565b61034781856102eb565b93506103578185602086016102fb565b61036081610323565b840191505092915050565b5f6020820190508181035f8301526103838184610333565b905092915050565b610394816102a2565b811461039e575f80fd5b50565b5f813590506103af8161038b565b92915050565b5f80604083850312156103cb576103ca610219565b5b5f6103d885828601610263565b92505060206103e9858286016103a1565b9150509250929050565b6103fc8161023c565b82525050565b5f6020820190506104155f8301846103f3565b92915050565b7f4e487b71000000000000000000000000000000000000000000000000000000005f52601160045260245ffd5b5f610452826102a2565b915061045d836102a2565b92508282019050808211156104755761047461041b565b5b92915050565b5f60608201905061048e5f8301866103f3565b61049b60208301856103f3565b6104a860408301846102ab565b94935050505056fea26469706673582212207b7aede0c91b0d1fd033d75d677f0351ff3f81f0df1ed635ee095c645259260a64736f6c63430008180033",
					"opcodes": "PUSH1 0x80 PUSH1 0x40 MSTORE CALLVALUE DUP1 ISZERO PUSH3 0x10 JUMPI PUSH0 DUP1 REVERT JUMPDEST POP PUSH1 0x40 MLOAD PUSH3 0xA32 CODESIZE SUB DUP1 PUSH3 0xA32 DUP4 CODECOPY DUP2 DUP2 ADD PUSH1 0x40 MSTORE DUP2 ADD SWAP1 PUSH3 0x36 SWAP2 SWAP1 PUSH3 0x1D4 JUMP JUMPDEST DUP1 PUSH1 0x1 SWAP1 DUP2 PUSH3 0x47 SWAP2 SWAP1 PUSH3 0x45A JUMP JUMPDEST POP POP PUSH3 0x53E JUMP JUMPDEST PUSH0 PUSH1 0x40 MLOAD SWAP1 POP SWAP1 JUMP JUMPDEST PUSH0 DUP1 REVERT JUMPDEST PUSH0 DUP1 REVERT JUMPDEST PUSH0 DUP1 REVERT JUMPDEST PUSH0 DUP1 REVERT JUMPDEST PUSH0 PUSH1 0x1F NOT PUSH1 0x1F DUP4 ADD AND SWAP1 POP SWAP2 SWAP1 POP JUMP JUMPDEST PUSH32 0x4E487B7100000000000000000000000000000000000000000000000000000000 PUSH0 MSTORE PUSH1 0x41 PUSH1 0x4 MSTORE PUSH1 0x24 PUSH0 REVERT JUMPDEST PUSH3 0xB0 DUP3 PUSH3 0x68 JUMP JUMPDEST DUP2 ADD DUP2 DUP2 LT PUSH8 0xFFFFFFFFFFFFFFFF DUP3 GT OR ISZERO PUSH3 0xD2 JUMPI PUSH3 0xD1 PUSH3 0x78 JUMP JUMPDEST JUMPDEST DUP1 PUSH1 0x40 MSTORE POP POP POP JUMP JUMPDEST PUSH0 PUSH3 0xE6 PUSH3 0x4F JUMP JUMPDEST SWAP1 POP PUSH3 0xF4 DUP3 DUP3 PUSH3 0xA5 JUMP JUMPDEST SWAP2 SWAP1 POP JUMP JUMPDEST PUSH0 PUSH8 0xFFFFFFFFFFFFFFFF DUP3 GT ISZERO PUSH3 0x116 JUMPI PUSH3 0x115 PUSH3 0x78 JUMP JUMPDEST JUMPDEST PUSH3 0x121 DUP3 PUSH3 0x68 JUMP JUMPDEST SWAP1 POP PUSH1 0x20 DUP2 ADD SWAP1 POP SWAP2 SWAP1 POP JUMP JUMPDEST PUSH0 JUMPDEST DUP4 DUP2 LT ISZERO PUSH3 0x14D JUMPI DUP1 DUP3 ADD MLOAD DUP2 DUP5 ADD MSTORE PUSH1 0x20 DUP2 ADD SWAP1 POP PUSH3 0x130 JUMP JUMPDEST PUSH0 DUP5 DUP5 ADD MSTORE POP POP POP POP JUMP JUMPDEST PUSH0 PUSH3 0x16E PUSH3 0x168 DUP5 PUSH3 0xF9 JUMP JUMPDEST PUSH3 0xDB JUMP JUMPDEST SWAP1 POP DUP3 DUP2 MSTORE PUSH1 0x20 DUP2 ADD DUP5 DUP5 DUP5 ADD GT ISZERO PUSH3 0x18D JUMPI PUSH3 0x18C PUSH3 0x64 JUMP JUMPDEST JUMPDEST PUSH3 0x19A DUP5 DUP3 DUP6 PUSH3 0x12E JUMP JUMPDEST POP SWAP4 SWAP3 POP POP POP JUMP JUMPDEST PUSH0 DUP3 PUSH1 0x1F DUP4 ADD SLT PUSH3 0x1B9 JUMPI PUSH3 0x1B8 PUSH3 0x60 JUMP JUMPDEST JUMPDEST DUP2 MLOAD PUSH3 0x1CB DUP5 DUP3 PUSH1 0x20 DUP7 ADD PUSH3 0x158 JUMP JUMPDEST SWAP2 POP POP SWAP3 SWAP2 POP POP JUMP JUMPDEST PUSH0 PUSH1 0x20 DUP3 DUP5 SUB SLT ISZERO PUSH3 0x1EC JUMPI PUSH3 0x1EB PUSH3 0x58 JUMP JUMPDEST JUMPDEST PUSH0 DUP3 ADD MLOAD PUSH8 0xFFFFFFFFFFFFFFFF DUP2 GT ISZERO PUSH3 0x20C JUMPI PUSH3 0x20B PUSH3 0x5C JUMP JUMPDEST JUMPDEST PUSH3 0x21A DUP5 DUP3 DUP6 ADD PUSH3 0x1A2 JUMP JUMPDEST SWAP2 POP POP SWAP3 SWAP2 POP POP JUMP JUMPDEST PUSH0 DUP2 MLOAD SWAP1 POP SWAP2 SWAP1 POP JUMP JUMPDEST PUSH32 0x4E487B7100000000000000000000000000000000000000000000000000000000 PUSH0 MSTORE PUSH1 0x22 PUSH1 0x4 MSTORE PUSH1 0x24 PUSH0 REVERT JUMPDEST PUSH0 PUSH1 0x2 DUP3 DIV SWAP1 POP PUSH1 0x1 DUP3 AND DUP1 PUSH3 0x272 JUMPI PUSH1 0x7F DUP3 AND SWAP2 POP JUMPDEST PUSH1 0x20 DUP3 LT DUP2 SUB PUSH3 0x288 JUMPI PUSH3 0x287 PUSH3 0x22D JUMP JUMPDEST JUMPDEST POP SWAP2 SWAP1 POP JUMP JUMPDEST PUSH0 DUP2 SWAP1 POP DUP2 PUSH0 MSTORE PUSH1 0x20 PUSH0 KECCAK256 SWAP1 POP SWAP2 SWAP1 POP JUMP JUMPDEST PUSH0 PUSH1 0x20 PUSH1 0x1F DUP4 ADD DIV SWAP1 POP SWAP2 SWAP1 POP JUMP JUMPDEST PUSH0 DUP3 DUP3 SHL SWAP1 POP SWAP3 SWAP2 POP POP JUMP JUMPDEST PUSH0 PUSH1 0x8 DUP4 MUL PUSH3 0x2EC PUSH32 0xFFFFFFFFFFFFFFFFFFFFFFFFFFFFFFFFFFFFFFFFFFFFFFFFFFFFFFFFFFFFFFFF DUP3 PUSH3 0x2AF JUMP JUMPDEST PUSH3 0x2F8 DUP7 DUP4 PUSH3 0x2AF JUMP JUMPDEST SWAP6 POP DUP1 NOT DUP5 AND SWAP4 POP DUP1 DUP7 AND DUP5 OR SWAP3 POP POP POP SWAP4 SWAP3 POP POP POP JUMP JUMPDEST PUSH0 DUP2 SWAP1 POP SWAP2 SWAP1 POP JUMP JUMPDEST PUSH0 DUP2 SWAP1 POP SWAP2 SWAP1 POP JUMP JUMPDEST PUSH0 PUSH3 0x342 PUSH3 0x33C PUSH3 0x336 DUP5 PUSH3 0x310 JUMP JUMPDEST PUSH3 0x319 JUMP JUMPDEST PUSH3 0x310 JUMP JUMPDEST SWAP1 POP SWAP2 SWAP1 POP JUMP JUMPDEST PUSH0 DUP2 SWAP1 POP SWAP2 SWAP1 POP JUMP JUMPDEST PUSH3 0x35D DUP4 PUSH3 0x322 JUMP JUMPDEST PUSH3 0x375 PUSH3 0x36C DUP3 PUSH3 0x349 JUMP JUMPDEST DUP5 DUP5 SLOAD PUSH3 0x2BB JUMP JUMPDEST DUP3 SSTORE POP POP POP POP JUMP JUMPDEST PUSH0 SWAP1 JUMP JUMPDEST PUSH3 0x38B PUSH3 0x37D JUMP JUMPDEST PUSH3 0x398 DUP2 DUP5 DUP5 PUSH3 0x352 JUMP JUMPDEST POP POP POP JUMP JUMPDEST JUMPDEST DUP2 DUP2 LT ISZERO PUSH3 0x3BF JUMPI PUSH3 0x3B3 PUSH0 DUP3 PUSH3 0x381 JUMP JUMPDEST PUSH1 0x1 DUP2 ADD SWAP1 POP PUSH3 0x39E JUMP JUMPDEST POP POP JUMP JUMPDEST PUSH1 0x1F DUP3 GT ISZERO PUSH3 0x40E JUMPI PUSH3 0x3D8 DUP2 PUSH3 0x28E JUMP JUMPDEST PUSH3 0x3E3 DUP5 PUSH3 0x2A0 JUMP JUMPDEST DUP2 ADD PUSH1 0x20 DUP6 LT ISZERO PUSH3 0x3F3 JUMPI DUP2 SWAP1 POP JUMPDEST PUSH3 0x40B PUSH3 0x402 DUP6 PUSH3 0x2A0 JUMP JUMPDEST DUP4 ADD DUP3 PUSH3 0x39D JUMP JUMPDEST POP POP JUMPDEST POP POP POP JUMP JUMPDEST PUSH0 DUP3 DUP3 SHR SWAP1 POP SWAP3 SWAP2 POP POP JUMP JUMPDEST PUSH0 PUSH3 0x430 PUSH0 NOT DUP5 PUSH1 0x8 MUL PUSH3 0x413 JUMP JUMPDEST NOT DUP1 DUP4 AND SWAP2 POP POP SWAP3 SWAP2 POP POP JUMP JUMPDEST PUSH0 PUSH3 0x44A DUP4 DUP4 PUSH3 0x41F JUMP JUMPDEST SWAP2 POP DUP3 PUSH1 0x2 MUL DUP3 OR SWAP1 POP SWAP3 SWAP2 POP POP JUMP JUMPDEST PUSH3 0x465 DUP3 PUSH3 0x223 JUMP JUMPDEST PUSH8 0xFFFFFFFFFFFFFFFF DUP2 GT ISZERO PUSH3 0x481 JUMPI PUSH3 0x480 PUSH3 0x78 JUMP JUMPDEST JUMPDEST PUSH3 0x48D DUP3 SLOAD PUSH3 0x25A JUMP JUMPDEST PUSH3 0x49A DUP3 DUP3 DUP6 PUSH3 0x3C3 JUMP JUMPDEST PUSH0 PUSH1 0x20 SWAP1 POP PUSH1 0x1F DUP4 GT PUSH1 0x1 DUP2 EQ PUSH3 0x4D0 JUMPI PUSH0 DUP5 ISZERO PUSH3 0x4BB JUMPI DUP3 DUP8 ADD MLOAD SWAP1 POP JUMPDEST PUSH3 0x4C7 DUP6 DUP3 PUSH3 0x43D JUMP JUMPDEST DUP7 SSTORE POP PUSH3 0x536 JUMP JUMPDEST PUSH1 0x1F NOT DUP5 AND PUSH3 0x4E0 DUP7 PUSH3 0x28E JUMP JUMPDEST PUSH0 JUMPDEST DUP3 DUP2 LT ISZERO PUSH3 0x509 JUMPI DUP5 DUP10 ADD MLOAD DUP3 SSTORE PUSH1 0x1 DUP3 ADD SWAP2 POP PUSH1 0x20 DUP6 ADD SWAP5 POP PUSH1 0x20 DUP2 ADD SWAP1 POP PUSH3 0x4E2 JUMP JUMPDEST DUP7 DUP4 LT ISZERO PUSH3 0x529 JUMPI DUP5 DUP10 ADD MLOAD PUSH3 0x525 PUSH1 0x1F DUP10 AND DUP3 PUSH3 0x41F JUMP JUMPDEST DUP4 SSTORE POP JUMPDEST PUSH1 0x1 PUSH1 0x2 DUP9 MUL ADD DUP9 SSTORE POP POP POP JUMPDEST POP POP POP POP POP POP JUMP JUMPDEST PUSH2 0x4E6 DUP1 PUSH3 0x54C PUSH0 CODECOPY PUSH0 RETURN INVALID PUSH1 0x80 PUSH1 0x40 MSTORE CALLVALUE DUP1 ISZERO PUSH2 0xF JUMPI PUSH0 DUP1 REVERT JUMPDEST POP PUSH1 0x4 CALLDATASIZE LT PUSH2 0x3F JUMPI PUSH0 CALLDATALOAD PUSH1 0xE0 SHR DUP1 PUSH4 0x70A08231 EQ PUSH2 0x43 JUMPI DUP1 PUSH4 0x8EE58C98 EQ PUSH2 0x74 JUMPI DUP1 PUSH4 0xA9059CBB EQ PUSH2 0xA4 JUMPI JUMPDEST PUSH0 DUP1 REVERT JUMPDEST PUSH2 0x5D PUSH1 0x4 DUP1 CALLDATASIZE SUB DUP2 ADD SWAP1 PUSH2 0x58 SWAP2 SWAP1 PUSH2 0x277 JUMP JUMPDEST PUSH2 0xC0 JUMP JUMPDEST PUSH1 0x40 MLOAD PUSH2 0x6B SWAP3 SWAP2 SWAP1 PUSH2 0x2BA JUMP JUMPDEST PUSH1 0x40 MLOAD DUP1 SWAP2 SUB SWAP1 RETURN JUMPDEST PUSH2 0x8E PUSH1 0x4 DUP1 CALLDATASIZE SUB DUP2 ADD SWAP1 PUSH2 0x89 SWAP2 SWAP1 PUSH2 0x277 JUMP JUMPDEST PUSH2 0x109 JUMP JUMPDEST PUSH1 0x40 MLOAD PUSH2 0x9B SWAP2 SWAP1 PUSH2 0x36B JUMP JUMPDEST PUSH1 0x40 MLOAD DUP1 SWAP2 SUB SWAP1 RETURN JUMPDEST PUSH2 0xBE PUSH1 0x4 DUP1 CALLDATASIZE SUB DUP2 ADD SWAP1 PUSH2 0xB9 SWAP2 SWAP1 PUSH2 0x3B5 JUMP JUMPDEST PUSH2 0x188 JUMP JUMPDEST STOP JUMPDEST PUSH0 DUP1 PUSH0 DUP1 DUP5 PUSH20 0xFFFFFFFFFFFFFFFFFFFFFFFFFFFFFFFFFFFFFFFF AND PUSH20 0xFFFFFFFFFFFFFFFFFFFFFFFFFFFFFFFFFFFFFFFF AND DUP2 MSTORE PUSH1 0x20 ADD SWAP1 DUP2 MSTORE PUSH1 0x20 ADD PUSH0 KECCAK256 SLOAD TIMESTAMP SWAP2 POP SWAP2 POP SWAP2 POP SWAP2 JUMP JUMPDEST PUSH1 0x60 PUSH4 0x70A08231 PUSH1 0xE0 SHL DUP3 PUSH1 0x40 MLOAD PUSH1 0x24 ADD PUSH2 0x124 SWAP2 SWAP1 PUSH2 0x402 JUMP JUMPDEST PUSH1 0x40 MLOAD PUSH1 0x20 DUP2 DUP4 SUB SUB DUP2 MSTORE SWAP1 PUSH1 0x40 MSTORE SWAP1 PUSH28 0xFFFFFFFFFFFFFFFFFFFFFFFFFFFFFFFFFFFFFFFFFFFFFFFFFFFFFFFF NOT AND PUSH1 0x20 DUP3 ADD DUP1 MLOAD PUSH28 0xFFFFFFFFFFFFFFFFFFFFFFFFFFFFFFFFFFFFFFFFFFFFFFFFFFFFFFFF DUP4 DUP2 DUP4 AND OR DUP4 MSTORE POP POP POP POP SWAP1 POP SWAP2 SWAP1 POP JUMP JUMPDEST DUP1 PUSH0 DUP1 DUP5 PUSH20 0xFFFFFFFFFFFFFFFFFFFFFFFFFFFFFFFFFFFFFFFF AND PUSH20 0xFFFFFFFFFFFFFFFFFFFFFFFFFFFFFFFFFFFFFFFF AND DUP2 MSTORE PUSH1 0x20 ADD SWAP1 DUP2 MSTORE PUSH1 0x20 ADD PUSH0 KECCAK256 PUSH0 DUP3 DUP3 SLOAD PUSH2 0x1D3 SWAP2 SWAP1 PUSH2 0x448 JUMP JUMPDEST SWAP3 POP POP DUP2 SWAP1 SSTORE POP PUSH32 0xDDF252AD1BE2C89B69C2B068FC378DAA952BA7F163C4A11628F55A4DF523B3EF CALLER DUP4 DUP4 PUSH1 0x40 MLOAD PUSH2 0x20D SWAP4 SWAP3 SWAP2 SWAP1 PUSH2 0x47B JUMP JUMPDEST PUSH1 0x40 MLOAD DUP1 SWAP2 SUB SWAP1 LOG1 POP POP JUMP JUMPDEST PUSH0 DUP1 REVERT JUMPDEST PUSH0 PUSH20 0xFFFFFFFFFFFFFFFFFFFFFFFFFFFFFFFFFFFFFFFF DUP3 AND SWAP1 POP SWAP2 SWAP1 POP JUMP JUMPDEST PUSH0 PUSH2 0x246 DUP3 PUSH2 0x21D JUMP JUMPDEST SWAP1 POP SWAP2 SWAP1 POP JUMP JUMPDEST PUSH2 0x256 DUP2 PUSH2 0x23C JUMP JUMPDEST DUP2 EQ PUSH2 0x260 JUMPI PUSH0 DUP1 REVERT JUMPDEST POP JUMP JUMPDEST PUSH0 DUP2 CALLDATALOAD SWAP1 POP PUSH2 0x271 DUP2 PUSH2 0x24D JUMP JUMPDEST SWAP3 SWAP2 POP POP JUMP JUMPDEST PUSH0 PUSH1 0x20 DUP3 DUP5 SUB SLT ISZERO PUSH2 0x28C JUMPI PUSH2 0x28B PUSH2 0x219 JUMP JUMPDEST JUMPDEST PUSH0 PUSH2 0x299 DUP5 DUP3 DUP6 ADD PUSH2 0x263 JUMP JUMPDEST SWAP2 POP POP SWAP3 SWAP2 POP POP JUMP JUMPDEST PUSH0 DUP2 SWAP1 POP SWAP2 SWAP1 POP JUMP JUMPDEST PUSH2 0x2B4 DUP2 PUSH2 0x2A2 JUMP JUMPDEST DUP3 MSTORE POP POP JUMP JUMPDEST PUSH0 PUSH1 0x40 DUP3 ADD SWAP1 POP PUSH2 0x2CD PUSH0 DUP4 ADD DUP6 PUSH2 0x2AB JUMP JUMPDEST PUSH2 0x2DA PUSH1 0x20 DUP4 ADD DUP5 PUSH2 0x2AB JUMP JUMPDEST SWAP4 SWAP3 POP POP POP JUMP JUMPDEST PUSH0 DUP2 MLOAD SWAP1 POP SWAP2 SWAP1 POP JUMP JUMPDEST PUSH0 DUP3 DUP3 MSTORE PUSH1 0x20 DUP3 ADD SWAP1 POP SWAP3 SWAP2 POP POP JUMP JUMPDEST PUSH0 JUMPDEST DUP4 DUP2 LT ISZERO PUSH2 0x318 JUMPI DUP1 DUP3 ADD MLOAD DUP2 DUP5 ADD MSTORE PUSH1 0x20 DUP2 ADD SWAP1 POP PUSH2 0x2FD JUMP JUMPDEST PUSH0 DUP5 DUP5 ADD MSTORE POP POP POP POP JUMP JUMPDEST PUSH0 PUSH1 0x1F NOT PUSH1 0x1F DUP4 ADD AND SWAP1 POP SWAP2 SWAP1 POP JUMP JUMPDEST PUSH0 PUSH2 0x33D DUP3 PUSH2 0x2E1 JUMP JUMPDEST PUSH2 0x347 DUP2 DUP6 PUSH2 0x2EB JUMP JUMPDEST SWAP4 POP PUSH2 0x357 DUP2 DUP6 PUSH1 0x20 DUP7 ADD PUSH2 0x2FB JUMP JUMPDEST PUSH2 0x360 DUP2 PUSH2 0x323 JUMP JUMPDEST DUP5 ADD SWAP2 POP POP SWAP3 SWAP2 POP POP JUMP JUMPDEST PUSH0 PUSH1 0x20 DUP3 ADD SWAP1 POP DUP2 DUP2 SUB PUSH0 DUP4 ADD MSTORE PUSH2 0x383 DUP2 DUP5 PUSH2 0x333 JUMP JUMPDEST SWAP1 POP SWAP3 SWAP2 POP POP JUMP JUMPDEST PUSH2 0x394 DUP2 PUSH2 0x2A2 JUMP JUMPDEST DUP2 EQ PUSH2 0x39E JUMPI PUSH0 DUP1 REVERT JUMPDEST POP JUMP JUMPDEST PUSH0 DUP2 CALLDATALOAD SWAP1 POP PUSH2 0x3AF DUP2 PUSH2 0x38B JUMP JUMPDEST SWAP3 SWAP2 POP POP JUMP JUMPDEST PUSH0 DUP1 PUSH1 0x40 DUP4 DUP6 SUB SLT ISZERO PUSH2 0x3CB JUMPI PUSH2 0x3CA PUSH2 0x219 JUMP JUMPDEST JUMPDEST PUSH0 PUSH2 0x3D8 DUP6 DUP3 DUP7 ADD PUSH2 0x263 JUMP JUMPDEST SWAP3 POP POP PUSH1 0x20 PUSH2 0x3E9 DUP6 DUP3 DUP7 ADD PUSH2 0x3A1 JUMP JUMPDEST SWAP2 POP POP SWAP3 POP SWAP3 SWAP1 POP JUMP JUMPDEST PUSH2 0x3FC DUP2 PUSH2 0x23C JUMP JUMPDEST DUP3 MSTORE POP POP JUMP JUMPDEST PUSH0 PUSH1 0x20 DUP3 ADD SWAP1 POP PUSH2 0x415 PUSH0 DUP4 ADD DUP5 PUSH2 0x3F3 JUMP JUMPDEST SWAP3 SWAP2 POP POP JUMP JUMPDEST PUSH32 0x4E487B7100000000000000000000000000000000000000000000000000000000 PUSH0 MSTORE PUSH1 0x11 PUSH1 0x4 MSTORE PUSH1 0x24 PUSH0 REVERT JUMPDEST PUSH0 PUSH2 0x452 DUP3 PUSH2 0x2A2 JUMP JUMPDEST SWAP2 POP PUSH2 0x45D DUP4 PUSH2 0x2A2 JUMP JUMPDEST SWAP3 POP DUP3 DUP3 ADD SWAP1 POP DUP1 DUP3 GT ISZERO PUSH2 0x475 JUMPI PUSH2 0x474 PUSH2 0x41B JUMP JUMPDEST JUMPDEST SWAP3 SWAP2 POP POP JUMP JUMPDEST PUSH0 PUSH1 0x60 DUP3 ADD SWAP1 POP PUSH2 0x48E PUSH0 DUP4 ADD DUP7 PUSH2 0x3F3 JUMP JUMPDEST PUSH2 0x49B PUSH1 0x20 DUP4 ADD DUP6 PUSH2 0x3F3 JUMP JUMPDEST PUSH2 0x4A8 PUSH1 0x40 DUP4 ADD DUP5 PUSH2 0x2AB JUMP JUMPDEST SWAP5 SWAP4 POP POP POP POP JUMP INVALID LOG2 PUSH5 0x6970667358 0x22 SLT KECCAK256 PUSH28 0x7AEDE0C91B0D1FD033D75D677F0351FF3F81F0DF1ED635EE095C6452 MSIZE 0x26 EXP PUSH5 0x736F6C6343 STOP ADDMOD XOR STOP CALLER "
				},
				"gasEstimates": {
					"creation": {
						"codeDepositCost": "250800",
						"executionCost": "infinite",
						"totalCost": "infinite"
					},
					"external": {
						"balanceOf(address)": "infinite",
						"getInputData(address)": "infinite",
						"transfer(address,uint256)": "infinite"
					}
				},
				"methodIdentifiers": {
					"balanceOf(address)": "70a08231",
					"getInputData(address)": "8ee58c98",
					"transfer(address,uint256)": "a9059cbb"
				}
			},
			"storageLayout": {
				"storage": [
					{
						"astId": 5,
						"contract": "contracts/calls/multicall/Mutlicall.sol:Erc20",
						"label": "_balances",
						"offset": 0,
						"slot": "0",
						"type": "t_mapping(t_address,t_uint256)"
					},
					{
						"astId": 7,
						"contract": "contracts/calls/multicall/Mutlicall.sol:Erc20",
						"label": "symbol",
						"offset": 0,
						"slot": "1",
						"type": "t_string_storage"
					}
				],
				"types": {
					"t_address": {
						"encoding": "inplace",
						"label": "address",
						"numberOfBytes": "20"
					},
					"t_mapping(t_address,t_uint256)": {
						"encoding": "mapping",
						"key": "t_address",
						"label": "mapping(address => uint256)",
						"numberOfBytes": "32",
						"value": "t_uint256"
					},
					"t_string_storage": {
						"encoding": "bytes",
						"label": "string",
						"numberOfBytes": "32"
					},
					"t_uint256": {
						"encoding": "inplace",
						"label": "uint256",
						"numberOfBytes": "32"
					}
				}
			},
			"userdoc": {
				"kind": "user",
				"methods": {},
				"version": 1
			}
		}
	}
}