{
	"data": {
		"bytecode": {
			"linkReferences": {},
			"object": "608060405234801561000f575f80fd5b506106bd8061001d5f395ff3fe608060405260043610610033575f3560e01c80630e5a8fd114610037578063147ab7b814610067578063415565b014610091575b5f80fd5b610051600480360381019061004c91906103f4565b6100c1565b60405161005e9190610474565b60405180910390f35b348015610072575f80fd5b5061007b610197565b60405161008891906104c7565b60405180910390f35b6100ab60048036038101906100a691906105a0565b6101a5565b6040516100b89190610474565b60405180910390f35b5f60018585905011610108576040517f08c379a00000000000000000000000000000000000000000000000000000000081526004016100ff90610669565b60405180910390fd5b5f831161014a576040517f08c379a000000000000000000000000000000000000000000000000000000000815260040161014190610669565b60405180910390fd5b5f821161018c576040517f08c379a000000000000000000000000000000000000000000000000000000000815260040161018390610669565b60405180910390fd5b5f9050949350505050565b5f63415565b060e01b905090565b5f8073ffffffffffffffffffffffffffffffffffffffff168773ffffffffffffffffffffffffffffffffffffffff1603610214576040517f08c379a000000000000000000000000000000000000000000000000000000000815260040161020b90610669565b60405180910390fd5b5f73ffffffffffffffffffffffffffffffffffffffff168673ffffffffffffffffffffffffffffffffffffffff1603610282576040517f08c379a000000000000000000000000000000000000000000000000000000000815260040161027990610669565b60405180910390fd5b5f85116102c4576040517f08c379a00000000000000000000000000000000000000000000000000000000081526004016102bb90610669565b60405180910390fd5b5f8411610306576040517f08c379a00000000000000000000000000000000000000000000000000000000081526004016102fd90610669565b60405180910390fd5b5f838390501161034b576040517f08c379a000000000000000000000000000000000000000000000000000000000815260040161034290610669565b60405180910390fd5b5f90509695505050505050565b5f80fd5b5f80fd5b5f80fd5b5f80fd5b5f80fd5b5f8083601f84011261038157610380610360565b5b8235905067ffffffffffffffff81111561039e5761039d610364565b5b6020830191508360208202830111156103ba576103b9610368565b5b9250929050565b5f819050919050565b6103d3816103c1565b81146103dd575f80fd5b50565b5f813590506103ee816103ca565b92915050565b5f805f806060858703121561040c5761040b610358565b5b5f85013567ffffffffffffffff8111156104295761042861035c565b5b6104358782880161036c565b94509450506020610448878288016103e0565b9250506040610459878288016103e0565b91505092959194509250565b61046e816103c1565b82525050565b5f6020820190506104875f830184610465565b92915050565b5f7fffffffff0000000000000000000000000000000000000000000000000000000082169050919050565b6104c18161048d565b82525050565b5f6020820190506104da5f8301846104b8565b92915050565b5f73ffffffffffffffffffffffffffffffffffffffff82169050919050565b5f610509826104e0565b9050919050565b5f61051a826104ff565b9050919050565b61052a81610510565b8114610534575f80fd5b50565b5f8135905061054581610521565b92915050565b5f8083601f8401126105605761055f610360565b5b8235905067ffffffffffffffff81111561057d5761057c610364565b5b60208301915083602082028301111561059957610598610368565b5b9250929050565b5f805f805f8060a087890312156105ba576105b9610358565b5b5f6105c789828a01610537565b96505060206105d889828a01610537565b95505060406105e989828a016103e0565b94505060606105fa89828a016103e0565b935050608087013567ffffffffffffffff81111561061b5761061a61035c565b5b61062789828a0161054b565b92509250509295509295509295565b5f82825260208201905092915050565b50565b5f6106545f83610636565b915061065f82610646565b5f82019050919050565b5f6020820190508181035f83015261068081610649565b905091905056fea2646970667358221220045893d7a5d1cb8bc36c8979ffa572a1a883e799d0b451254a05ff09e347365764736f6c63430008180033",
			"opcodes": "PUSH1 0x80 PUSH1 0x40 MSTORE CALLVALUE DUP1 ISZERO PUSH2 0xF JUMPI PUSH0 DUP1 REVERT JUMPDEST POP PUSH2 0x6BD DUP1 PUSH2 0x1D PUSH0 CODECOPY PUSH0 RETURN INVALID PUSH1 0x80 PUSH1 0x40 MSTORE PUSH1 0x4 CALLDATASIZE LT PUSH2 0x33 JUMPI PUSH0 CALLDATALOAD PUSH1 0xE0 SHR DUP1 PUSH4 0xE5A8FD1 EQ PUSH2 0x37 JUMPI DUP1 PUSH4 0x147AB7B8 EQ PUSH2 0x67 JUMPI DUP1 PUSH4 0x415565B0 EQ PUSH2 0x91 JUMPI JUMPDEST PUSH0 DUP1 REVERT JUMPDEST PUSH2 0x51 PUSH1 0x4 DUP1 CALLDATASIZE SUB DUP2 ADD SWAP1 PUSH2 0x4C SWAP2 SWAP1 PUSH2 0x3F4 JUMP JUMPDEST PUSH2 0xC1 JUMP JUMPDEST PUSH1 0x40 MLOAD PUSH2 0x5E SWAP2 SWAP1 PUSH2 0x474 JUMP JUMPDEST PUSH1 0x40 MLOAD DUP1 SWAP2 SUB SWAP1 RETURN JUMPDEST CALLVALUE DUP1 ISZERO PUSH2 0x72 JUMPI PUSH0 DUP1 REVERT JUMPDEST POP PUSH2 0x7B PUSH2 0x197 JUMP JUMPDEST PUSH1 0x40 MLOAD PUSH2 0x88 SWAP2 SWAP1 PUSH2 0x4C7 JUMP JUMPDEST PUSH1 0x40 MLOAD DUP1 SWAP2 SUB SWAP1 RETURN JUMPDEST PUSH2 0xAB PUSH1 0x4 DUP1 CALLDATASIZE SUB DUP2 ADD SWAP1 PUSH2 0xA6 SWAP2 SWAP1 PUSH2 0x5A0 JUMP JUMPDEST PUSH2 0x1A5 JUMP JUMPDEST PUSH1 0x40 MLOAD PUSH2 0xB8 SWAP2 SWAP1 PUSH2 0x474 JUMP JUMPDEST PUSH1 0x40 MLOAD DUP1 SWAP2 SUB SWAP1 RETURN JUMPDEST PUSH0 PUSH1 0x1 DUP6 DUP6 SWAP1 POP GT PUSH2 0x108 JUMPI PUSH1 0x40 MLOAD PUSH32 0x8C379A000000000000000000000000000000000000000000000000000000000 DUP2 MSTORE PUSH1 0x4 ADD PUSH2 0xFF SWAP1 PUSH2 0x669 JUMP JUMPDEST PUSH1 0x40 MLOAD DUP1 SWAP2 SUB SWAP1 REVERT JUMPDEST PUSH0 DUP4 GT PUSH2 0x14A JUMPI PUSH1 0x40 MLOAD PUSH32 0x8C379A000000000000000000000000000000000000000000000000000000000 DUP2 MSTORE PUSH1 0x4 ADD PUSH2 0x141 SWAP1 PUSH2 0x669 JUMP JUMPDEST PUSH1 0x40 MLOAD DUP1 SWAP2 SUB SWAP1 REVERT JUMPDEST PUSH0 DUP3 GT PUSH2 0x18C JUMPI PUSH1 0x40 MLOAD PUSH32 0x8C379A000000000000000000000000000000000000000000000000000000000 DUP2 MSTORE PUSH1 0x4 ADD PUSH2 0x183 SWAP1 PUSH2 0x669 JUMP JUMPDEST PUSH1 0x40 MLOAD DUP1 SWAP2 SUB SWAP1 REVERT JUMPDEST PUSH0 SWAP1 POP SWAP5 SWAP4 POP POP POP POP JUMP JUMPDEST PUSH0 PUSH4 0x415565B0 PUSH1 0xE0 SHL SWAP1 POP SWAP1 JUMP JUMPDEST PUSH0 DUP1 PUSH20 0xFFFFFFFFFFFFFFFFFFFFFFFFFFFFFFFFFFFFFFFF AND DUP8 PUSH20 0xFFFFFFFFFFFFFFFFFFFFFFFFFFFFFFFFFFFFFFFF AND SUB PUSH2 0x214 JUMPI PUSH1 0x40 MLOAD PUSH32 0x8C379A000000000000000000000000000000000000000000000000000000000 DUP2 MSTORE PUSH1 0x4 ADD PUSH2 0x20B SWAP1 PUSH2 0x669 JUMP JUMPDEST PUSH1 0x40 MLOAD DUP1 SWAP2 SUB SWAP1 REVERT JUMPDEST PUSH0 PUSH20 0xFFFFFFFFFFFFFFFFFFFFFFFFFFFFFFFFFFFFFFFF AND DUP7 PUSH20 0xFFFFFFFFFFFFFFFFFFFFFFFFFFFFFFFFFFFFFFFF AND SUB PUSH2 0x282 JUMPI PUSH1 0x40 MLOAD PUSH32 0x8C379A000000000000000000000000000000000000000000000000000000000 DUP2 MSTORE PUSH1 0x4 ADD PUSH2 0x279 SWAP1 PUSH2 0x669 JUMP JUMPDEST PUSH1 0x40 MLOAD DUP1 SWAP2 SUB SWAP1 REVERT JUMPDEST PUSH0 DUP6 GT PUSH2 0x2C4 JUMPI PUSH1 0x40 MLOAD PUSH32 0x8C379A000000000000000000000000000000000000000000000000000000000 DUP2 MSTORE PUSH1 0x4 ADD PUSH2 0x2BB SWAP1 PUSH2 0x669 JUMP JUMPDEST PUSH1 0x40 MLOAD DUP1 SWAP2 SUB SWAP1 REVERT JUMPDEST PUSH0 DUP5 GT PUSH2 0x306 JUMPI PUSH1 0x40 MLOAD PUSH32 0x8C379A000000000000000000000000000000000000000000000000000000000 DUP2 MSTORE PUSH1 0x4 ADD PUSH2 0x2FD SWAP1 PUSH2 0x669 JUMP JUMPDEST PUSH1 0x40 MLOAD DUP1 SWAP2 SUB SWAP1 REVERT JUMPDEST PUSH0 DUP4 DUP4 SWAP1 POP GT PUSH2 0x34B JUMPI PUSH1 0x40 MLOAD PUSH32 0x8C379A000000000000000000000000000000000000000000000000000000000 DUP2 MSTORE PUSH1 0x4 ADD PUSH2 0x342 SWAP1 PUSH2 0x669 JUMP JUMPDEST PUSH1 0x40 MLOAD DUP1 SWAP2 SUB SWAP1 REVERT JUMPDEST PUSH0 SWAP1 POP SWAP7 SWAP6 POP POP POP POP POP POP JUMP JUMPDEST PUSH0 DUP1 REVERT JUMPDEST PUSH0 DUP1 REVERT JUMPDEST PUSH0 DUP1 REVERT JUMPDEST PUSH0 DUP1 REVERT JUMPDEST PUSH0 DUP1 REVERT JUMPDEST PUSH0 DUP1 DUP4 PUSH1 0x1F DUP5 ADD SLT PUSH2 0x381 JUMPI PUSH2 0x380 PUSH2 0x360 JUMP JUMPDEST JUMPDEST DUP3 CALLDATALOAD SWAP1 POP PUSH8 0xFFFFFFFFFFFFFFFF DUP2 GT ISZERO PUSH2 0x39E JUMPI PUSH2 0x39D PUSH2 0x364 JUMP JUMPDEST JUMPDEST PUSH1 0x20 DUP4 ADD SWAP2 POP DUP4 PUSH1 0x20 DUP3 MUL DUP4 ADD GT ISZERO PUSH2 0x3BA JUMPI PUSH2 0x3B9 PUSH2 0x368 JUMP JUMPDEST JUMPDEST SWAP3 POP SWAP3 SWAP1 POP JUMP JUMPDEST PUSH0 DUP2 SWAP1 POP SWAP2 SWAP1 POP JUMP JUMPDEST PUSH2 0x3D3 DUP2 PUSH2 0x3C1 JUMP JUMPDEST DUP2 EQ PUSH2 0x3DD JUMPI PUSH0 DUP1 REVERT JUMPDEST POP JUMP JUMPDEST PUSH0 DUP2 CALLDATALOAD SWAP1 POP PUSH2 0x3EE DUP2 PUSH2 0x3CA JUMP JUMPDEST SWAP3 SWAP2 POP POP JUMP JUMPDEST PUSH0 DUP1 PUSH0 DUP1 PUSH1 0x60 DUP6 DUP8 SUB SLT ISZERO PUSH2 0x40C JUMPI PUSH2 0x40B PUSH2 0x358 JUMP JUMPDEST JUMPDEST PUSH0 DUP6 ADD CALLDATALOAD PUSH8 0xFFFFFFFFFFFFFFFF DUP2 GT ISZERO PUSH2 0x429 JUMPI PUSH2 0x428 PUSH2 0x35C JUMP JUMPDEST JUMPDEST PUSH2 0x435 DUP8 DUP3 DUP9 ADD PUSH2 0x36C JUMP JUMPDEST SWAP5 POP SWAP5 POP POP PUSH1 0x20 PUSH2 0x448 DUP8 DUP3 DUP9 ADD PUSH2 0x3E0 JUMP JUMPDEST SWAP3 POP POP PUSH1 0x40 PUSH2 0x459 DUP8 DUP3 DUP9 ADD PUSH2 0x3E0 JUMP JUMPDEST SWAP2 POP POP SWAP3 SWAP6 SWAP2 SWAP5 POP SWAP3 POP JUMP JUMPDEST PUSH2 0x46E DUP2 PUSH2 0x3C1 JUMP JUMPDEST DUP3 MSTORE POP POP JUMP JUMPDEST PUSH0 PUSH1 0x20 DUP3 ADD SWAP1 POP PUSH2 0x487 PUSH0 DUP4 ADD DUP5 PUSH2 0x465 JUMP JUMPDEST SWAP3 SWAP2 POP POP JUMP JUMPDEST PUSH0 PUSH32 0xFFFFFFFF00000000000000000000000000000000000000000000000000000000 DUP3 AND SWAP1 POP SWAP2 SWAP1 POP JUMP JUMPDEST PUSH2 0x4C1 DUP2 PUSH2 0x48D JUMP JUMPDEST DUP3 MSTORE POP POP JUMP JUMPDEST PUSH0 PUSH1 0x20 DUP3 ADD SWAP1 POP PUSH2 0x4DA PUSH0 DUP4 ADD DUP5 PUSH2 0x4B8 JUMP JUMPDEST SWAP3 SWAP2 POP POP JUMP JUMPDEST PUSH0 PUSH20 0xFFFFFFFFFFFFFFFFFFFFFFFFFFFFFFFFFFFFFFFF DUP3 AND SWAP1 POP SWAP2 SWAP1 POP JUMP JUMPDEST PUSH0 PUSH2 0x509 DUP3 PUSH2 0x4E0 JUMP JUMPDEST SWAP1 POP SWAP2 SWAP1 POP JUMP JUMPDEST PUSH0 PUSH2 0x51A DUP3 PUSH2 0x4FF JUMP JUMPDEST SWAP1 POP SWAP2 SWAP1 POP JUMP JUMPDEST PUSH2 0x52A DUP2 PUSH2 0x510 JUMP JUMPDEST DUP2 EQ PUSH2 0x534 JUMPI PUSH0 DUP1 REVERT JUMPDEST POP JUMP JUMPDEST PUSH0 DUP2 CALLDATALOAD SWAP1 POP PUSH2 0x545 DUP2 PUSH2 0x521 JUMP JUMPDEST SWAP3 SWAP2 POP POP JUMP JUMPDEST PUSH0 DUP1 DUP4 PUSH1 0x1F DUP5 ADD SLT PUSH2 0x560 JUMPI PUSH2 0x55F PUSH2 0x360 JUMP JUMPDEST JUMPDEST DUP3 CALLDATALOAD SWAP1 POP PUSH8 0xFFFFFFFFFFFFFFFF DUP2 GT ISZERO PUSH2 0x57D JUMPI PUSH2 0x57C PUSH2 0x364 JUMP JUMPDEST JUMPDEST PUSH1 0x20 DUP4 ADD SWAP2 POP DUP4 PUSH1 0x20 DUP3 MUL DUP4 ADD GT ISZERO PUSH2 0x599 JUMPI PUSH2 0x598 PUSH2 0x368 JUMP JUMPDEST JUMPDEST SWAP3 POP SWAP3 SWAP1 POP JUMP JUMPDEST PUSH0 DUP1 PUSH0 DUP1 PUSH0 DUP1 PUSH1 0xA0 DUP8 DUP10 SUB SLT ISZERO PUSH2 0x5BA JUMPI PUSH2 0x5B9 PUSH2 0x358 JUMP JUMPDEST JUMPDEST PUSH0 PUSH2 0x5C7 DUP10 DUP3 DUP11 ADD PUSH2 0x537 JUMP JUMPDEST SWAP7 POP POP PUSH1 0x20 PUSH2 0x5D8 DUP10 DUP3 DUP11 ADD PUSH2 0x537 JUMP JUMPDEST SWAP6 POP POP PUSH1 0x40 PUSH2 0x5E9 DUP10 DUP3 DUP11 ADD PUSH2 0x3E0 JUMP JUMPDEST SWAP5 POP POP PUSH1 0x60 PUSH2 0x5FA DUP10 DUP3 DUP11 ADD PUSH2 0x3E0 JUMP JUMPDEST SWAP4 POP POP PUSH1 0x80 DUP8 ADD CALLDATALOAD PUSH8 0xFFFFFFFFFFFFFFFF DUP2 GT ISZERO PUSH2 0x61B JUMPI PUSH2 0x61A PUSH2 0x35C JUMP JUMPDEST JUMPDEST PUSH2 0x627 DUP10 DUP3 DUP11 ADD PUSH2 0x54B JUMP JUMPDEST SWAP3 POP SWAP3 POP POP SWAP3 SWAP6 POP SWAP3 SWAP6 POP SWAP3 SWAP6 JUMP JUMPDEST PUSH0 DUP3 DUP3 MSTORE PUSH1 0x20 DUP3 ADD SWAP1 POP SWAP3 SWAP2 POP POP JUMP JUMPDEST POP JUMP JUMPDEST PUSH0 PUSH2 0x654 PUSH0 DUP4 PUSH2 0x636 JUMP JUMPDEST SWAP2 POP PUSH2 0x65F DUP3 PUSH2 0x646 JUMP JUMPDEST PUSH0 DUP3 ADD SWAP1 POP SWAP2 SWAP1 POP JUMP JUMPDEST PUSH0 PUSH1 0x20 DUP3 ADD SWAP1 POP DUP2 DUP2 SUB PUSH0 DUP4 ADD MSTORE PUSH2 0x680 DUP2 PUSH2 0x649 JUMP JUMPDEST SWAP1 POP SWAP2 SWAP1 POP JUMP INVALID LOG2 PUSH5 0x6970667358 0x22 SLT KECCAK256 DIV PC SWAP4 0xD7 0xA5 0xD1 0xCB DUP12 0xC3 PUSH13 0x8979FFA572A1A883E799D0B451 0x25 BLOBBASEFEE SDIV SELFDESTRUCT MULMOD 0xE3 SELFBALANCE CALLDATASIZE JUMPI PUSH5 0x736F6C6343 STOP ADDMOD XOR STOP CALLER "
		},
		"gasEstimates": {
			"creation": {
				"codeDepositCost": "345000",
				"executionCost": "378",
				"totalCost": "345378"
			},
			"external": {
				"getTransformERC20Selector()": "344",
				"sellToPancakeSwap(address[],uint256,uint256)": "infinite",
				"transformERC20(address,address,uint256,uint256,(uint32,bytes)[])": "infinite"
			}
		},
		"methodIdentifiers": {
			"getTransformERC20Selector()": "147ab7b8",
			"sellToPancakeSwap(address[],uint256,uint256)": "0e5a8fd1",
			"transformERC20(address,address,uint256,uint256,(uint32,bytes)[])": "415565b0"
		}
	},
	"abi": [
		{
			"inputs": [],
			"name": "getTransformERC20Selector",
			"outputs": [
				{
					"internalType": "bytes4",
					"name": "",
					"type": "bytes4"
				}
			],
			"stateMutability": "pure",
			"type": "function"
		},
		{
			"inputs": [
				{
					"internalType": "contract IERC20Token[]",
					"name": "tokens",
					"type": "address[]"
				},
				{
					"internalType": "uint256",
					"name": "sellAmount",
					"type": "uint256"
				},
				{
					"internalType": "uint256",
					"name": "minBuyAmount",
					"type": "uint256"
				}
			],
			"name": "sellToPancakeSwap",
			"outputs": [
				{
					"internalType": "uint256",
					"name": "buyAmount",
					"type": "uint256"
				}
			],
			"stateMutability": "payable",
			"type": "function"
		},
		{
			"inputs": [
				{
					"internalType": "contract IERC20Token",
					"name": "inputToken",
					"type": "address"
				},
				{
					"internalType": "contract IERC20Token",
					"name": "outputToken",
					"type": "address"
				},
				{
					"internalType": "uint256",
					"name": "inputTokenAmount",
					"type": "uint256"
				},
				{
					"internalType": "uint256",
					"name": "minOutputTokenAmount",
					"type": "uint256"
				},
				{
					"components": [
						{
							"internalType": "uint32",
							"name": "deploymentNonce",
							"type": "uint32"
						},
						{
							"internalType": "bytes",
							"name": "data",
							"type": "bytes"
						}
					],
					"internalType": "struct Test20.Transformation[]",
					"name": "transformations",
					"type": "tuple[]"
				}
			],
			"name": "transformERC20",
			"outputs": [
				{
					"internalType": "uint256",
					"name": "outputTokenAmount",
					"type": "uint256"
				}
			],
			"stateMutability": "payable",
			"type": "function"
		}
	]
}