{
	"contracts/signature/Verify.sol": {
		"VerifySignature": {
			"abi": [
				{
					"inputs": [
						{
							"internalType": "string",
							"name": "_message",
							"type": "string"
						}
					],
					"name": "getMessageHash",
					"outputs": [
						{
							"internalType": "bytes32",
							"name": "",
							"type": "bytes32"
						}
					],
					"stateMutability": "pure",
					"type": "function"
				},
				{
					"inputs": [
						{
							"internalType": "string",
							"name": "_message",
							"type": "string"
						}
					],
					"name": "getSignedEncodePacked",
					"outputs": [
						{
							"internalType": "bytes",
							"name": "",
							"type": "bytes"
						}
					],
					"stateMutability": "pure",
					"type": "function"
				},
				{
					"inputs": [
						{
							"internalType": "bytes32",
							"name": "_messageHash",
							"type": "bytes32"
						}
					],
					"name": "getSignedMessageHash",
					"outputs": [
						{
							"internalType": "bytes32",
							"name": "",
							"type": "bytes32"
						}
					],
					"stateMutability": "pure",
					"type": "function"
				},
				{
					"inputs": [
						{
							"internalType": "bytes32",
							"name": "_signedMessageHash",
							"type": "bytes32"
						},
						{
							"internalType": "bytes",
							"name": "_signature",
							"type": "bytes"
						}
					],
					"name": "recover",
					"outputs": [
						{
							"internalType": "address",
							"name": "",
							"type": "address"
						}
					],
					"stateMutability": "pure",
					"type": "function"
				},
				{
					"inputs": [
						{
							"internalType": "address",
							"name": "_signer",
							"type": "address"
						},
						{
							"internalType": "string",
							"name": "_message",
							"type": "string"
						},
						{
							"internalType": "bytes",
							"name": "_signature",
							"type": "bytes"
						}
					],
					"name": "verify",
					"outputs": [
						{
							"internalType": "bool",
							"name": "",
							"type": "bool"
						}
					],
					"stateMutability": "pure",
					"type": "function"
				}
			],
			"devdoc": {
				"kind": "dev",
				"methods": {},
				"version": 1
			},
			"evm": {
				"assembly": "    /* \"contracts/signature/Verify.sol\":66:1623  contract VerifySignature {... */\n  mstore(0x40, 0x80)\n  callvalue\n  dup1\n  iszero\n  tag_1\n  jumpi\n  0x00\n  dup1\n  revert\ntag_1:\n  pop\n  dataSize(sub_0)\n  dup1\n  dataOffset(sub_0)\n  0x00\n  codecopy\n  0x00\n  return\nstop\n\nsub_0: assembly {\n        /* \"contracts/signature/Verify.sol\":66:1623  contract VerifySignature {... */\n      mstore(0x40, 0x80)\n      callvalue\n      dup1\n      iszero\n      tag_1\n      jumpi\n      0x00\n      dup1\n      revert\n    tag_1:\n      pop\n      jumpi(tag_2, lt(calldatasize, 0x04))\n      shr(0xe0, calldataload(0x00))\n      dup1\n      0x19045a25\n      eq\n      tag_3\n      jumpi\n      dup1\n      0x2dd34f0f\n      eq\n      tag_4\n      jumpi\n      dup1\n      0x519d4e60\n      eq\n      tag_5\n      jumpi\n      dup1\n      0xb446f3b2\n      eq\n      tag_6\n      jumpi\n      dup1\n      0xe832d2d7\n      eq\n      tag_7\n      jumpi\n    tag_2:\n      0x00\n      dup1\n      revert\n        /* \"contracts/signature/Verify.sol\":1033:1265  function recover(bytes32 _signedMessageHash, bytes memory _signature) public pure returns (address) {... */\n    tag_3:\n      tag_8\n      0x04\n      dup1\n      calldatasize\n      sub\n      dup2\n      add\n      swap1\n      tag_9\n      swap2\n      swap1\n      tag_10\n      jump\t// in\n    tag_9:\n      tag_11\n      jump\t// in\n    tag_8:\n      mload(0x40)\n      tag_12\n      swap2\n      swap1\n      tag_13\n      jump\t// in\n    tag_12:\n      mload(0x40)\n      dup1\n      swap2\n      sub\n      swap1\n      return\n        /* \"contracts/signature/Verify.sol\":98:422  function verify(address _signer, string memory _message, bytes memory _signature)... */\n    tag_4:\n      tag_14\n      0x04\n      dup1\n      calldatasize\n      sub\n      dup2\n      add\n      swap1\n      tag_15\n      swap2\n      swap1\n      tag_16\n      jump\t// in\n    tag_15:\n      tag_17\n      jump\t// in\n    tag_14:\n      mload(0x40)\n      tag_18\n      swap2\n      swap1\n      tag_19\n      jump\t// in\n    tag_18:\n      mload(0x40)\n      dup1\n      swap2\n      sub\n      swap1\n      return\n        /* \"contracts/signature/Verify.sol\":573:810  function getSignedEncodePacked(string memory _message) public pure returns (bytes memory) {... */\n    tag_5:\n      tag_20\n      0x04\n      dup1\n      calldatasize\n      sub\n      dup2\n      add\n      swap1\n      tag_21\n      swap2\n      swap1\n      tag_22\n      jump\t// in\n    tag_21:\n      tag_23\n      jump\t// in\n    tag_20:\n      mload(0x40)\n      tag_24\n      swap2\n      swap1\n      tag_25\n      jump\t// in\n    tag_24:\n      mload(0x40)\n      dup1\n      swap2\n      sub\n      swap1\n      return\n        /* \"contracts/signature/Verify.sol\":428:567  function getMessageHash(string memory _message) public pure returns (bytes32) {... */\n    tag_6:\n      tag_26\n      0x04\n      dup1\n      calldatasize\n      sub\n      dup2\n      add\n      swap1\n      tag_27\n      swap2\n      swap1\n      tag_22\n      jump\t// in\n    tag_27:\n      tag_28\n      jump\t// in\n    tag_26:\n      mload(0x40)\n      tag_29\n      swap2\n      swap1\n      tag_30\n      jump\t// in\n    tag_29:\n      mload(0x40)\n      dup1\n      swap2\n      sub\n      swap1\n      return\n        /* \"contracts/signature/Verify.sol\":816:1027  function getSignedMessageHash(bytes32 _messageHash) public pure returns (bytes32) {... */\n    tag_7:\n      tag_31\n      0x04\n      dup1\n      calldatasize\n      sub\n      dup2\n      add\n      swap1\n      tag_32\n      swap2\n      swap1\n      tag_33\n      jump\t// in\n    tag_32:\n      tag_34\n      jump\t// in\n    tag_31:\n      mload(0x40)\n      tag_35\n      swap2\n      swap1\n      tag_30\n      jump\t// in\n    tag_35:\n      mload(0x40)\n      dup1\n      swap2\n      sub\n      swap1\n      return\n        /* \"contracts/signature/Verify.sol\":1033:1265  function recover(bytes32 _signedMessageHash, bytes memory _signature) public pure returns (address) {... */\n    tag_11:\n        /* \"contracts/signature/Verify.sol\":1124:1131  address */\n      0x00\n        /* \"contracts/signature/Verify.sol\":1144:1153  bytes32 r */\n      dup1\n        /* \"contracts/signature/Verify.sol\":1155:1164  bytes32 s */\n      0x00\n        /* \"contracts/signature/Verify.sol\":1166:1173  uint8 v */\n      dup1\n        /* \"contracts/signature/Verify.sol\":1177:1203  splitSignature(_signature) */\n      tag_37\n        /* \"contracts/signature/Verify.sol\":1192:1202  _signature */\n      dup6\n        /* \"contracts/signature/Verify.sol\":1177:1191  splitSignature */\n      tag_38\n        /* \"contracts/signature/Verify.sol\":1177:1203  splitSignature(_signature) */\n      jump\t// in\n    tag_37:\n        /* \"contracts/signature/Verify.sol\":1143:1203  (bytes32 r, bytes32 s, uint8 v) = splitSignature(_signature) */\n      swap3\n      pop\n      swap3\n      pop\n      swap3\n      pop\n        /* \"contracts/signature/Verify.sol\":1220:1258  ecrecover(_signedMessageHash, v, r, s) */\n      0x01\n        /* \"contracts/signature/Verify.sol\":1230:1248  _signedMessageHash */\n      dup7\n        /* \"contracts/signature/Verify.sol\":1250:1251  v */\n      dup3\n        /* \"contracts/signature/Verify.sol\":1253:1254  r */\n      dup6\n        /* \"contracts/signature/Verify.sol\":1256:1257  s */\n      dup6\n        /* \"contracts/signature/Verify.sol\":1220:1258  ecrecover(_signedMessageHash, v, r, s) */\n      mload(0x40)\n      0x00\n      dup2\n      mstore\n      0x20\n      add\n      0x40\n      mstore\n      mload(0x40)\n      tag_39\n      swap5\n      swap4\n      swap3\n      swap2\n      swap1\n      tag_40\n      jump\t// in\n    tag_39:\n      0x20\n      mload(0x40)\n      0x20\n      dup2\n      sub\n      swap1\n      dup1\n      dup5\n      sub\n      swap1\n      dup6\n      gas\n      staticcall\n      iszero\n      dup1\n      iszero\n      tag_42\n      jumpi\n      returndatasize\n      0x00\n      dup1\n      returndatacopy\n      revert(0x00, returndatasize)\n    tag_42:\n      pop\n      pop\n      pop\n      mload(sub(mload(0x40), 0x20))\n        /* \"contracts/signature/Verify.sol\":1213:1258  return ecrecover(_signedMessageHash, v, r, s) */\n      swap4\n      pop\n      pop\n      pop\n      pop\n        /* \"contracts/signature/Verify.sol\":1033:1265  function recover(bytes32 _signedMessageHash, bytes memory _signature) public pure returns (address) {... */\n      swap3\n      swap2\n      pop\n      pop\n      jump\t// out\n        /* \"contracts/signature/Verify.sol\":98:422  function verify(address _signer, string memory _message, bytes memory _signature)... */\n    tag_17:\n        /* \"contracts/signature/Verify.sol\":209:213  bool */\n      0x00\n        /* \"contracts/signature/Verify.sol\":227:246  bytes32 messageHash */\n      dup1\n        /* \"contracts/signature/Verify.sol\":249:273  getMessageHash(_message) */\n      tag_44\n        /* \"contracts/signature/Verify.sol\":264:272  _message */\n      dup5\n        /* \"contracts/signature/Verify.sol\":249:263  getMessageHash */\n      tag_28\n        /* \"contracts/signature/Verify.sol\":249:273  getMessageHash(_message) */\n      jump\t// in\n    tag_44:\n        /* \"contracts/signature/Verify.sol\":227:273  bytes32 messageHash = getMessageHash(_message) */\n      swap1\n      pop\n        /* \"contracts/signature/Verify.sol\":285:310  bytes32 signedMessageHash */\n      0x00\n        /* \"contracts/signature/Verify.sol\":313:346  getSignedMessageHash(messageHash) */\n      tag_45\n        /* \"contracts/signature/Verify.sol\":334:345  messageHash */\n      dup3\n        /* \"contracts/signature/Verify.sol\":313:333  getSignedMessageHash */\n      tag_34\n        /* \"contracts/signature/Verify.sol\":313:346  getSignedMessageHash(messageHash) */\n      jump\t// in\n    tag_45:\n        /* \"contracts/signature/Verify.sol\":285:346  bytes32 signedMessageHash = getSignedMessageHash(messageHash) */\n      swap1\n      pop\n        /* \"contracts/signature/Verify.sol\":408:415  _signer */\n      dup6\n        /* \"contracts/signature/Verify.sol\":366:415  recover(signedMessageHash, _signature) == _signer */\n      0xffffffffffffffffffffffffffffffffffffffff\n      and\n        /* \"contracts/signature/Verify.sol\":366:404  recover(signedMessageHash, _signature) */\n      tag_46\n        /* \"contracts/signature/Verify.sol\":374:391  signedMessageHash */\n      dup3\n        /* \"contracts/signature/Verify.sol\":393:403  _signature */\n      dup7\n        /* \"contracts/signature/Verify.sol\":366:373  recover */\n      tag_11\n        /* \"contracts/signature/Verify.sol\":366:404  recover(signedMessageHash, _signature) */\n      jump\t// in\n    tag_46:\n        /* \"contracts/signature/Verify.sol\":366:415  recover(signedMessageHash, _signature) == _signer */\n      0xffffffffffffffffffffffffffffffffffffffff\n      and\n      eq\n        /* \"contracts/signature/Verify.sol\":359:415  return recover(signedMessageHash, _signature) == _signer */\n      swap3\n      pop\n      pop\n      pop\n        /* \"contracts/signature/Verify.sol\":98:422  function verify(address _signer, string memory _message, bytes memory _signature)... */\n      swap4\n      swap3\n      pop\n      pop\n      pop\n      jump\t// out\n        /* \"contracts/signature/Verify.sol\":573:810  function getSignedEncodePacked(string memory _message) public pure returns (bytes memory) {... */\n    tag_23:\n        /* \"contracts/signature/Verify.sol\":649:661  bytes memory */\n      0x60\n        /* \"contracts/signature/Verify.sol\":673:693  bytes32 _messageHash */\n      0x00\n        /* \"contracts/signature/Verify.sol\":696:720  getMessageHash(_message) */\n      tag_48\n        /* \"contracts/signature/Verify.sol\":711:719  _message */\n      dup4\n        /* \"contracts/signature/Verify.sol\":696:710  getMessageHash */\n      tag_28\n        /* \"contracts/signature/Verify.sol\":696:720  getMessageHash(_message) */\n      jump\t// in\n    tag_48:\n        /* \"contracts/signature/Verify.sol\":673:720  bytes32 _messageHash = getMessageHash(_message) */\n      swap1\n      pop\n        /* \"contracts/signature/Verify.sol\":790:802  _messageHash */\n      dup1\n        /* \"contracts/signature/Verify.sol\":737:803  abi.encodePacked(\"\\x19Ethereum Signed Message:\\n32\", _messageHash) */\n      add(0x20, mload(0x40))\n      tag_49\n      swap2\n      swap1\n      tag_50\n      jump\t// in\n    tag_49:\n      mload(0x40)\n      0x20\n      dup2\n      dup4\n      sub\n      sub\n      dup2\n      mstore\n      swap1\n      0x40\n      mstore\n        /* \"contracts/signature/Verify.sol\":730:803  return abi.encodePacked(\"\\x19Ethereum Signed Message:\\n32\", _messageHash) */\n      swap2\n      pop\n      pop\n        /* \"contracts/signature/Verify.sol\":573:810  function getSignedEncodePacked(string memory _message) public pure returns (bytes memory) {... */\n      swap2\n      swap1\n      pop\n      jump\t// out\n        /* \"contracts/signature/Verify.sol\":428:567  function getMessageHash(string memory _message) public pure returns (bytes32) {... */\n    tag_28:\n        /* \"contracts/signature/Verify.sol\":497:504  bytes32 */\n      0x00\n        /* \"contracts/signature/Verify.sol\":550:558  _message */\n      dup2\n        /* \"contracts/signature/Verify.sol\":533:559  abi.encodePacked(_message) */\n      add(0x20, mload(0x40))\n      tag_52\n      swap2\n      swap1\n      tag_53\n      jump\t// in\n    tag_52:\n      mload(0x40)\n      0x20\n      dup2\n      dup4\n      sub\n      sub\n      dup2\n      mstore\n      swap1\n      0x40\n      mstore\n        /* \"contracts/signature/Verify.sol\":523:560  keccak256(abi.encodePacked(_message)) */\n      dup1\n      mload\n      swap1\n      0x20\n      add\n      keccak256\n        /* \"contracts/signature/Verify.sol\":516:560  return keccak256(abi.encodePacked(_message)) */\n      swap1\n      pop\n        /* \"contracts/signature/Verify.sol\":428:567  function getMessageHash(string memory _message) public pure returns (bytes32) {... */\n      swap2\n      swap1\n      pop\n      jump\t// out\n        /* \"contracts/signature/Verify.sol\":816:1027  function getSignedMessageHash(bytes32 _messageHash) public pure returns (bytes32) {... */\n    tag_34:\n        /* \"contracts/signature/Verify.sol\":889:896  bytes32 */\n      0x00\n        /* \"contracts/signature/Verify.sol\":908:922  bytes memory p */\n      dup1\n        /* \"contracts/signature/Verify.sol\":978:990  _messageHash */\n      dup3\n        /* \"contracts/signature/Verify.sol\":925:991  abi.encodePacked(\"\\x19Ethereum Signed Message:\\n32\", _messageHash) */\n      add(0x20, mload(0x40))\n      tag_55\n      swap2\n      swap1\n      tag_50\n      jump\t// in\n    tag_55:\n      mload(0x40)\n      0x20\n      dup2\n      dup4\n      sub\n      sub\n      dup2\n      mstore\n      swap1\n      0x40\n      mstore\n        /* \"contracts/signature/Verify.sol\":908:991  bytes memory p = abi.encodePacked(\"\\x19Ethereum Signed Message:\\n32\", _messageHash) */\n      swap1\n      pop\n        /* \"contracts/signature/Verify.sol\":1018:1019  p */\n      dup1\n        /* \"contracts/signature/Verify.sol\":1008:1020  keccak256(p) */\n      dup1\n      mload\n      swap1\n      0x20\n      add\n      keccak256\n        /* \"contracts/signature/Verify.sol\":1001:1020  return keccak256(p) */\n      swap2\n      pop\n      pop\n        /* \"contracts/signature/Verify.sol\":816:1027  function getSignedMessageHash(bytes32 _messageHash) public pure returns (bytes32) {... */\n      swap2\n      swap1\n      pop\n      jump\t// out\n        /* \"contracts/signature/Verify.sol\":1271:1621  function splitSignature(bytes memory _signature) private pure returns (bytes32 r, bytes32 s, uint8 v) {... */\n    tag_38:\n        /* \"contracts/signature/Verify.sol\":1342:1351  bytes32 r */\n      0x00\n        /* \"contracts/signature/Verify.sol\":1353:1362  bytes32 s */\n      dup1\n        /* \"contracts/signature/Verify.sol\":1364:1371  uint8 v */\n      0x00\n        /* \"contracts/signature/Verify.sol\":1412:1414  65 */\n      0x41\n        /* \"contracts/signature/Verify.sol\":1391:1401  _signature */\n      dup5\n        /* \"contracts/signature/Verify.sol\":1391:1408  _signature.length */\n      mload\n        /* \"contracts/signature/Verify.sol\":1391:1414  _signature.length == 65 */\n      eq\n        /* \"contracts/signature/Verify.sol\":1383:1443  require(_signature.length == 65, \"invalid signature length\") */\n      tag_57\n      jumpi\n      mload(0x40)\n      0x08c379a000000000000000000000000000000000000000000000000000000000\n      dup2\n      mstore\n      0x04\n      add\n      tag_58\n      swap1\n      tag_59\n      jump\t// in\n    tag_58:\n      mload(0x40)\n      dup1\n      swap2\n      sub\n      swap1\n      revert\n    tag_57:\n        /* \"contracts/signature/Verify.sol\":1504:1506  32 */\n      0x20\n        /* \"contracts/signature/Verify.sol\":1492:1502  _signature */\n      dup5\n        /* \"contracts/signature/Verify.sol\":1488:1507  add(_signature, 32) */\n      add\n        /* \"contracts/signature/Verify.sol\":1482:1508  mload(add(_signature, 32)) */\n      mload\n        /* \"contracts/signature/Verify.sol\":1477:1508  r := mload(add(_signature, 32)) */\n      swap3\n      pop\n        /* \"contracts/signature/Verify.sol\":1548:1550  64 */\n      0x40\n        /* \"contracts/signature/Verify.sol\":1536:1546  _signature */\n      dup5\n        /* \"contracts/signature/Verify.sol\":1532:1551  add(_signature, 64) */\n      add\n        /* \"contracts/signature/Verify.sol\":1526:1552  mload(add(_signature, 64)) */\n      mload\n        /* \"contracts/signature/Verify.sol\":1521:1552  s := mload(add(_signature, 64)) */\n      swap2\n      pop\n        /* \"contracts/signature/Verify.sol\":1600:1602  96 */\n      0x60\n        /* \"contracts/signature/Verify.sol\":1588:1598  _signature */\n      dup5\n        /* \"contracts/signature/Verify.sol\":1584:1603  add(_signature, 96) */\n      add\n        /* \"contracts/signature/Verify.sol\":1578:1604  mload(add(_signature, 96)) */\n      mload\n        /* \"contracts/signature/Verify.sol\":1575:1576  0 */\n      0x00\n        /* \"contracts/signature/Verify.sol\":1570:1605  byte(0, mload(add(_signature, 96))) */\n      byte\n        /* \"contracts/signature/Verify.sol\":1565:1605  v := byte(0, mload(add(_signature, 96))) */\n      swap1\n      pop\n        /* \"contracts/signature/Verify.sol\":1271:1621  function splitSignature(bytes memory _signature) private pure returns (bytes32 r, bytes32 s, uint8 v) {... */\n      swap2\n      swap4\n      swap1\n      swap3\n      pop\n      jump\t// out\n        /* \"#utility.yul\":7:82   */\n    tag_60:\n        /* \"#utility.yul\":40:46   */\n      0x00\n        /* \"#utility.yul\":73:75   */\n      0x40\n        /* \"#utility.yul\":67:76   */\n      mload\n        /* \"#utility.yul\":57:76   */\n      swap1\n      pop\n        /* \"#utility.yul\":7:82   */\n      swap1\n      jump\t// out\n        /* \"#utility.yul\":88:205   */\n    tag_61:\n        /* \"#utility.yul\":197:198   */\n      0x00\n        /* \"#utility.yul\":194:195   */\n      dup1\n        /* \"#utility.yul\":187:199   */\n      revert\n        /* \"#utility.yul\":211:328   */\n    tag_62:\n        /* \"#utility.yul\":320:321   */\n      0x00\n        /* \"#utility.yul\":317:318   */\n      dup1\n        /* \"#utility.yul\":310:322   */\n      revert\n        /* \"#utility.yul\":334:411   */\n    tag_63:\n        /* \"#utility.yul\":371:378   */\n      0x00\n        /* \"#utility.yul\":400:405   */\n      dup2\n        /* \"#utility.yul\":389:405   */\n      swap1\n      pop\n        /* \"#utility.yul\":334:411   */\n      swap2\n      swap1\n      pop\n      jump\t// out\n        /* \"#utility.yul\":417:539   */\n    tag_64:\n        /* \"#utility.yul\":490:514   */\n      tag_109\n        /* \"#utility.yul\":508:513   */\n      dup2\n        /* \"#utility.yul\":490:514   */\n      tag_63\n      jump\t// in\n    tag_109:\n        /* \"#utility.yul\":483:488   */\n      dup2\n        /* \"#utility.yul\":480:515   */\n      eq\n        /* \"#utility.yul\":470:533   */\n      tag_110\n      jumpi\n        /* \"#utility.yul\":529:530   */\n      0x00\n        /* \"#utility.yul\":526:527   */\n      dup1\n        /* \"#utility.yul\":519:531   */\n      revert\n        /* \"#utility.yul\":470:533   */\n    tag_110:\n        /* \"#utility.yul\":417:539   */\n      pop\n      jump\t// out\n        /* \"#utility.yul\":545:684   */\n    tag_65:\n        /* \"#utility.yul\":591:596   */\n      0x00\n        /* \"#utility.yul\":629:635   */\n      dup2\n        /* \"#utility.yul\":616:636   */\n      calldataload\n        /* \"#utility.yul\":607:636   */\n      swap1\n      pop\n        /* \"#utility.yul\":645:678   */\n      tag_112\n        /* \"#utility.yul\":672:677   */\n      dup2\n        /* \"#utility.yul\":645:678   */\n      tag_64\n      jump\t// in\n    tag_112:\n        /* \"#utility.yul\":545:684   */\n      swap3\n      swap2\n      pop\n      pop\n      jump\t// out\n        /* \"#utility.yul\":690:807   */\n    tag_66:\n        /* \"#utility.yul\":799:800   */\n      0x00\n        /* \"#utility.yul\":796:797   */\n      dup1\n        /* \"#utility.yul\":789:801   */\n      revert\n        /* \"#utility.yul\":813:930   */\n    tag_67:\n        /* \"#utility.yul\":922:923   */\n      0x00\n        /* \"#utility.yul\":919:920   */\n      dup1\n        /* \"#utility.yul\":912:924   */\n      revert\n        /* \"#utility.yul\":936:1038   */\n    tag_68:\n        /* \"#utility.yul\":977:983   */\n      0x00\n        /* \"#utility.yul\":1028:1030   */\n      0x1f\n        /* \"#utility.yul\":1024:1031   */\n      not\n        /* \"#utility.yul\":1019:1021   */\n      0x1f\n        /* \"#utility.yul\":1012:1017   */\n      dup4\n        /* \"#utility.yul\":1008:1022   */\n      add\n        /* \"#utility.yul\":1004:1032   */\n      and\n        /* \"#utility.yul\":994:1032   */\n      swap1\n      pop\n        /* \"#utility.yul\":936:1038   */\n      swap2\n      swap1\n      pop\n      jump\t// out\n        /* \"#utility.yul\":1044:1224   */\n    tag_69:\n        /* \"#utility.yul\":1092:1169   */\n      0x4e487b7100000000000000000000000000000000000000000000000000000000\n        /* \"#utility.yul\":1089:1090   */\n      0x00\n        /* \"#utility.yul\":1082:1170   */\n      mstore\n        /* \"#utility.yul\":1189:1193   */\n      0x41\n        /* \"#utility.yul\":1186:1187   */\n      0x04\n        /* \"#utility.yul\":1179:1194   */\n      mstore\n        /* \"#utility.yul\":1213:1217   */\n      0x24\n        /* \"#utility.yul\":1210:1211   */\n      0x00\n        /* \"#utility.yul\":1203:1218   */\n      revert\n        /* \"#utility.yul\":1230:1511   */\n    tag_70:\n        /* \"#utility.yul\":1313:1340   */\n      tag_118\n        /* \"#utility.yul\":1335:1339   */\n      dup3\n        /* \"#utility.yul\":1313:1340   */\n      tag_68\n      jump\t// in\n    tag_118:\n        /* \"#utility.yul\":1305:1311   */\n      dup2\n        /* \"#utility.yul\":1301:1341   */\n      add\n        /* \"#utility.yul\":1443:1449   */\n      dup2\n        /* \"#utility.yul\":1431:1441   */\n      dup2\n        /* \"#utility.yul\":1428:1450   */\n      lt\n        /* \"#utility.yul\":1407:1425   */\n      0xffffffffffffffff\n        /* \"#utility.yul\":1395:1405   */\n      dup3\n        /* \"#utility.yul\":1392:1426   */\n      gt\n        /* \"#utility.yul\":1389:1451   */\n      or\n        /* \"#utility.yul\":1386:1474   */\n      iszero\n      tag_119\n      jumpi\n        /* \"#utility.yul\":1454:1472   */\n      tag_120\n      tag_69\n      jump\t// in\n    tag_120:\n        /* \"#utility.yul\":1386:1474   */\n    tag_119:\n        /* \"#utility.yul\":1494:1504   */\n      dup1\n        /* \"#utility.yul\":1490:1492   */\n      0x40\n        /* \"#utility.yul\":1483:1505   */\n      mstore\n        /* \"#utility.yul\":1273:1511   */\n      pop\n        /* \"#utility.yul\":1230:1511   */\n      pop\n      pop\n      jump\t// out\n        /* \"#utility.yul\":1517:1646   */\n    tag_71:\n        /* \"#utility.yul\":1551:1557   */\n      0x00\n        /* \"#utility.yul\":1578:1598   */\n      tag_122\n      tag_60\n      jump\t// in\n    tag_122:\n        /* \"#utility.yul\":1568:1598   */\n      swap1\n      pop\n        /* \"#utility.yul\":1607:1640   */\n      tag_123\n        /* \"#utility.yul\":1635:1639   */\n      dup3\n        /* \"#utility.yul\":1627:1633   */\n      dup3\n        /* \"#utility.yul\":1607:1640   */\n      tag_70\n      jump\t// in\n    tag_123:\n        /* \"#utility.yul\":1517:1646   */\n      swap2\n      swap1\n      pop\n      jump\t// out\n        /* \"#utility.yul\":1652:1959   */\n    tag_72:\n        /* \"#utility.yul\":1713:1717   */\n      0x00\n        /* \"#utility.yul\":1803:1821   */\n      0xffffffffffffffff\n        /* \"#utility.yul\":1795:1801   */\n      dup3\n        /* \"#utility.yul\":1792:1822   */\n      gt\n        /* \"#utility.yul\":1789:1845   */\n      iszero\n      tag_125\n      jumpi\n        /* \"#utility.yul\":1825:1843   */\n      tag_126\n      tag_69\n      jump\t// in\n    tag_126:\n        /* \"#utility.yul\":1789:1845   */\n    tag_125:\n        /* \"#utility.yul\":1863:1892   */\n      tag_127\n        /* \"#utility.yul\":1885:1891   */\n      dup3\n        /* \"#utility.yul\":1863:1892   */\n      tag_68\n      jump\t// in\n    tag_127:\n        /* \"#utility.yul\":1855:1892   */\n      swap1\n      pop\n        /* \"#utility.yul\":1947:1951   */\n      0x20\n        /* \"#utility.yul\":1941:1945   */\n      dup2\n        /* \"#utility.yul\":1937:1952   */\n      add\n        /* \"#utility.yul\":1929:1952   */\n      swap1\n      pop\n        /* \"#utility.yul\":1652:1959   */\n      swap2\n      swap1\n      pop\n      jump\t// out\n        /* \"#utility.yul\":1965:2111   */\n    tag_73:\n        /* \"#utility.yul\":2062:2068   */\n      dup3\n        /* \"#utility.yul\":2057:2060   */\n      dup2\n        /* \"#utility.yul\":2052:2055   */\n      dup4\n        /* \"#utility.yul\":2039:2069   */\n      calldatacopy\n        /* \"#utility.yul\":2103:2104   */\n      0x00\n        /* \"#utility.yul\":2094:2100   */\n      dup4\n        /* \"#utility.yul\":2089:2092   */\n      dup4\n        /* \"#utility.yul\":2085:2101   */\n      add\n        /* \"#utility.yul\":2078:2105   */\n      mstore\n        /* \"#utility.yul\":1965:2111   */\n      pop\n      pop\n      pop\n      jump\t// out\n        /* \"#utility.yul\":2117:2540   */\n    tag_74:\n        /* \"#utility.yul\":2194:2199   */\n      0x00\n        /* \"#utility.yul\":2219:2284   */\n      tag_130\n        /* \"#utility.yul\":2235:2283   */\n      tag_131\n        /* \"#utility.yul\":2276:2282   */\n      dup5\n        /* \"#utility.yul\":2235:2283   */\n      tag_72\n      jump\t// in\n    tag_131:\n        /* \"#utility.yul\":2219:2284   */\n      tag_71\n      jump\t// in\n    tag_130:\n        /* \"#utility.yul\":2210:2284   */\n      swap1\n      pop\n        /* \"#utility.yul\":2307:2313   */\n      dup3\n        /* \"#utility.yul\":2300:2305   */\n      dup2\n        /* \"#utility.yul\":2293:2314   */\n      mstore\n        /* \"#utility.yul\":2345:2349   */\n      0x20\n        /* \"#utility.yul\":2338:2343   */\n      dup2\n        /* \"#utility.yul\":2334:2350   */\n      add\n        /* \"#utility.yul\":2383:2386   */\n      dup5\n        /* \"#utility.yul\":2374:2380   */\n      dup5\n        /* \"#utility.yul\":2369:2372   */\n      dup5\n        /* \"#utility.yul\":2365:2381   */\n      add\n        /* \"#utility.yul\":2362:2387   */\n      gt\n        /* \"#utility.yul\":2359:2471   */\n      iszero\n      tag_132\n      jumpi\n        /* \"#utility.yul\":2390:2469   */\n      tag_133\n      tag_67\n      jump\t// in\n    tag_133:\n        /* \"#utility.yul\":2359:2471   */\n    tag_132:\n        /* \"#utility.yul\":2480:2534   */\n      tag_134\n        /* \"#utility.yul\":2527:2533   */\n      dup5\n        /* \"#utility.yul\":2522:2525   */\n      dup3\n        /* \"#utility.yul\":2517:2520   */\n      dup6\n        /* \"#utility.yul\":2480:2534   */\n      tag_73\n      jump\t// in\n    tag_134:\n        /* \"#utility.yul\":2200:2540   */\n      pop\n        /* \"#utility.yul\":2117:2540   */\n      swap4\n      swap3\n      pop\n      pop\n      pop\n      jump\t// out\n        /* \"#utility.yul\":2559:2897   */\n    tag_75:\n        /* \"#utility.yul\":2614:2619   */\n      0x00\n        /* \"#utility.yul\":2663:2666   */\n      dup3\n        /* \"#utility.yul\":2656:2660   */\n      0x1f\n        /* \"#utility.yul\":2648:2654   */\n      dup4\n        /* \"#utility.yul\":2644:2661   */\n      add\n        /* \"#utility.yul\":2640:2667   */\n      slt\n        /* \"#utility.yul\":2630:2752   */\n      tag_136\n      jumpi\n        /* \"#utility.yul\":2671:2750   */\n      tag_137\n      tag_66\n      jump\t// in\n    tag_137:\n        /* \"#utility.yul\":2630:2752   */\n    tag_136:\n        /* \"#utility.yul\":2788:2794   */\n      dup2\n        /* \"#utility.yul\":2775:2795   */\n      calldataload\n        /* \"#utility.yul\":2813:2891   */\n      tag_138\n        /* \"#utility.yul\":2887:2890   */\n      dup5\n        /* \"#utility.yul\":2879:2885   */\n      dup3\n        /* \"#utility.yul\":2872:2876   */\n      0x20\n        /* \"#utility.yul\":2864:2870   */\n      dup7\n        /* \"#utility.yul\":2860:2877   */\n      add\n        /* \"#utility.yul\":2813:2891   */\n      tag_74\n      jump\t// in\n    tag_138:\n        /* \"#utility.yul\":2804:2891   */\n      swap2\n      pop\n        /* \"#utility.yul\":2620:2897   */\n      pop\n        /* \"#utility.yul\":2559:2897   */\n      swap3\n      swap2\n      pop\n      pop\n      jump\t// out\n        /* \"#utility.yul\":2903:3555   */\n    tag_10:\n        /* \"#utility.yul\":2980:2986   */\n      0x00\n        /* \"#utility.yul\":2988:2994   */\n      dup1\n        /* \"#utility.yul\":3037:3039   */\n      0x40\n        /* \"#utility.yul\":3025:3034   */\n      dup4\n        /* \"#utility.yul\":3016:3023   */\n      dup6\n        /* \"#utility.yul\":3012:3035   */\n      sub\n        /* \"#utility.yul\":3008:3040   */\n      slt\n        /* \"#utility.yul\":3005:3124   */\n      iszero\n      tag_140\n      jumpi\n        /* \"#utility.yul\":3043:3122   */\n      tag_141\n      tag_61\n      jump\t// in\n    tag_141:\n        /* \"#utility.yul\":3005:3124   */\n    tag_140:\n        /* \"#utility.yul\":3163:3164   */\n      0x00\n        /* \"#utility.yul\":3188:3241   */\n      tag_142\n        /* \"#utility.yul\":3233:3240   */\n      dup6\n        /* \"#utility.yul\":3224:3230   */\n      dup3\n        /* \"#utility.yul\":3213:3222   */\n      dup7\n        /* \"#utility.yul\":3209:3231   */\n      add\n        /* \"#utility.yul\":3188:3241   */\n      tag_65\n      jump\t// in\n    tag_142:\n        /* \"#utility.yul\":3178:3241   */\n      swap3\n      pop\n        /* \"#utility.yul\":3134:3251   */\n      pop\n        /* \"#utility.yul\":3318:3320   */\n      0x20\n        /* \"#utility.yul\":3307:3316   */\n      dup4\n        /* \"#utility.yul\":3303:3321   */\n      add\n        /* \"#utility.yul\":3290:3322   */\n      calldataload\n        /* \"#utility.yul\":3349:3367   */\n      0xffffffffffffffff\n        /* \"#utility.yul\":3341:3347   */\n      dup2\n        /* \"#utility.yul\":3338:3368   */\n      gt\n        /* \"#utility.yul\":3335:3452   */\n      iszero\n      tag_143\n      jumpi\n        /* \"#utility.yul\":3371:3450   */\n      tag_144\n      tag_62\n      jump\t// in\n    tag_144:\n        /* \"#utility.yul\":3335:3452   */\n    tag_143:\n        /* \"#utility.yul\":3476:3538   */\n      tag_145\n        /* \"#utility.yul\":3530:3537   */\n      dup6\n        /* \"#utility.yul\":3521:3527   */\n      dup3\n        /* \"#utility.yul\":3510:3519   */\n      dup7\n        /* \"#utility.yul\":3506:3528   */\n      add\n        /* \"#utility.yul\":3476:3538   */\n      tag_75\n      jump\t// in\n    tag_145:\n        /* \"#utility.yul\":3466:3538   */\n      swap2\n      pop\n        /* \"#utility.yul\":3261:3548   */\n      pop\n        /* \"#utility.yul\":2903:3555   */\n      swap3\n      pop\n      swap3\n      swap1\n      pop\n      jump\t// out\n        /* \"#utility.yul\":3561:3687   */\n    tag_76:\n        /* \"#utility.yul\":3598:3605   */\n      0x00\n        /* \"#utility.yul\":3638:3680   */\n      0xffffffffffffffffffffffffffffffffffffffff\n        /* \"#utility.yul\":3631:3636   */\n      dup3\n        /* \"#utility.yul\":3627:3681   */\n      and\n        /* \"#utility.yul\":3616:3681   */\n      swap1\n      pop\n        /* \"#utility.yul\":3561:3687   */\n      swap2\n      swap1\n      pop\n      jump\t// out\n        /* \"#utility.yul\":3693:3789   */\n    tag_77:\n        /* \"#utility.yul\":3730:3737   */\n      0x00\n        /* \"#utility.yul\":3759:3783   */\n      tag_148\n        /* \"#utility.yul\":3777:3782   */\n      dup3\n        /* \"#utility.yul\":3759:3783   */\n      tag_76\n      jump\t// in\n    tag_148:\n        /* \"#utility.yul\":3748:3783   */\n      swap1\n      pop\n        /* \"#utility.yul\":3693:3789   */\n      swap2\n      swap1\n      pop\n      jump\t// out\n        /* \"#utility.yul\":3795:3913   */\n    tag_78:\n        /* \"#utility.yul\":3882:3906   */\n      tag_150\n        /* \"#utility.yul\":3900:3905   */\n      dup2\n        /* \"#utility.yul\":3882:3906   */\n      tag_77\n      jump\t// in\n    tag_150:\n        /* \"#utility.yul\":3877:3880   */\n      dup3\n        /* \"#utility.yul\":3870:3907   */\n      mstore\n        /* \"#utility.yul\":3795:3913   */\n      pop\n      pop\n      jump\t// out\n        /* \"#utility.yul\":3919:4141   */\n    tag_13:\n        /* \"#utility.yul\":4012:4016   */\n      0x00\n        /* \"#utility.yul\":4050:4052   */\n      0x20\n        /* \"#utility.yul\":4039:4048   */\n      dup3\n        /* \"#utility.yul\":4035:4053   */\n      add\n        /* \"#utility.yul\":4027:4053   */\n      swap1\n      pop\n        /* \"#utility.yul\":4063:4134   */\n      tag_152\n        /* \"#utility.yul\":4131:4132   */\n      0x00\n        /* \"#utility.yul\":4120:4129   */\n      dup4\n        /* \"#utility.yul\":4116:4133   */\n      add\n        /* \"#utility.yul\":4107:4113   */\n      dup5\n        /* \"#utility.yul\":4063:4134   */\n      tag_78\n      jump\t// in\n    tag_152:\n        /* \"#utility.yul\":3919:4141   */\n      swap3\n      swap2\n      pop\n      pop\n      jump\t// out\n        /* \"#utility.yul\":4147:4269   */\n    tag_79:\n        /* \"#utility.yul\":4220:4244   */\n      tag_154\n        /* \"#utility.yul\":4238:4243   */\n      dup2\n        /* \"#utility.yul\":4220:4244   */\n      tag_77\n      jump\t// in\n    tag_154:\n        /* \"#utility.yul\":4213:4218   */\n      dup2\n        /* \"#utility.yul\":4210:4245   */\n      eq\n        /* \"#utility.yul\":4200:4263   */\n      tag_155\n      jumpi\n        /* \"#utility.yul\":4259:4260   */\n      0x00\n        /* \"#utility.yul\":4256:4257   */\n      dup1\n        /* \"#utility.yul\":4249:4261   */\n      revert\n        /* \"#utility.yul\":4200:4263   */\n    tag_155:\n        /* \"#utility.yul\":4147:4269   */\n      pop\n      jump\t// out\n        /* \"#utility.yul\":4275:4414   */\n    tag_80:\n        /* \"#utility.yul\":4321:4326   */\n      0x00\n        /* \"#utility.yul\":4359:4365   */\n      dup2\n        /* \"#utility.yul\":4346:4366   */\n      calldataload\n        /* \"#utility.yul\":4337:4366   */\n      swap1\n      pop\n        /* \"#utility.yul\":4375:4408   */\n      tag_157\n        /* \"#utility.yul\":4402:4407   */\n      dup2\n        /* \"#utility.yul\":4375:4408   */\n      tag_79\n      jump\t// in\n    tag_157:\n        /* \"#utility.yul\":4275:4414   */\n      swap3\n      swap2\n      pop\n      pop\n      jump\t// out\n        /* \"#utility.yul\":4420:4728   */\n    tag_81:\n        /* \"#utility.yul\":4482:4486   */\n      0x00\n        /* \"#utility.yul\":4572:4590   */\n      0xffffffffffffffff\n        /* \"#utility.yul\":4564:4570   */\n      dup3\n        /* \"#utility.yul\":4561:4591   */\n      gt\n        /* \"#utility.yul\":4558:4614   */\n      iszero\n      tag_159\n      jumpi\n        /* \"#utility.yul\":4594:4612   */\n      tag_160\n      tag_69\n      jump\t// in\n    tag_160:\n        /* \"#utility.yul\":4558:4614   */\n    tag_159:\n        /* \"#utility.yul\":4632:4661   */\n      tag_161\n        /* \"#utility.yul\":4654:4660   */\n      dup3\n        /* \"#utility.yul\":4632:4661   */\n      tag_68\n      jump\t// in\n    tag_161:\n        /* \"#utility.yul\":4624:4661   */\n      swap1\n      pop\n        /* \"#utility.yul\":4716:4720   */\n      0x20\n        /* \"#utility.yul\":4710:4714   */\n      dup2\n        /* \"#utility.yul\":4706:4721   */\n      add\n        /* \"#utility.yul\":4698:4721   */\n      swap1\n      pop\n        /* \"#utility.yul\":4420:4728   */\n      swap2\n      swap1\n      pop\n      jump\t// out\n        /* \"#utility.yul\":4734:5159   */\n    tag_82:\n        /* \"#utility.yul\":4812:4817   */\n      0x00\n        /* \"#utility.yul\":4837:4903   */\n      tag_163\n        /* \"#utility.yul\":4853:4902   */\n      tag_164\n        /* \"#utility.yul\":4895:4901   */\n      dup5\n        /* \"#utility.yul\":4853:4902   */\n      tag_81\n      jump\t// in\n    tag_164:\n        /* \"#utility.yul\":4837:4903   */\n      tag_71\n      jump\t// in\n    tag_163:\n        /* \"#utility.yul\":4828:4903   */\n      swap1\n      pop\n        /* \"#utility.yul\":4926:4932   */\n      dup3\n        /* \"#utility.yul\":4919:4924   */\n      dup2\n        /* \"#utility.yul\":4912:4933   */\n      mstore\n        /* \"#utility.yul\":4964:4968   */\n      0x20\n        /* \"#utility.yul\":4957:4962   */\n      dup2\n        /* \"#utility.yul\":4953:4969   */\n      add\n        /* \"#utility.yul\":5002:5005   */\n      dup5\n        /* \"#utility.yul\":4993:4999   */\n      dup5\n        /* \"#utility.yul\":4988:4991   */\n      dup5\n        /* \"#utility.yul\":4984:5000   */\n      add\n        /* \"#utility.yul\":4981:5006   */\n      gt\n        /* \"#utility.yul\":4978:5090   */\n      iszero\n      tag_165\n      jumpi\n        /* \"#utility.yul\":5009:5088   */\n      tag_166\n      tag_67\n      jump\t// in\n    tag_166:\n        /* \"#utility.yul\":4978:5090   */\n    tag_165:\n        /* \"#utility.yul\":5099:5153   */\n      tag_167\n        /* \"#utility.yul\":5146:5152   */\n      dup5\n        /* \"#utility.yul\":5141:5144   */\n      dup3\n        /* \"#utility.yul\":5136:5139   */\n      dup6\n        /* \"#utility.yul\":5099:5153   */\n      tag_73\n      jump\t// in\n    tag_167:\n        /* \"#utility.yul\":4818:5159   */\n      pop\n        /* \"#utility.yul\":4734:5159   */\n      swap4\n      swap3\n      pop\n      pop\n      pop\n      jump\t// out\n        /* \"#utility.yul\":5179:5519   */\n    tag_83:\n        /* \"#utility.yul\":5235:5240   */\n      0x00\n        /* \"#utility.yul\":5284:5287   */\n      dup3\n        /* \"#utility.yul\":5277:5281   */\n      0x1f\n        /* \"#utility.yul\":5269:5275   */\n      dup4\n        /* \"#utility.yul\":5265:5282   */\n      add\n        /* \"#utility.yul\":5261:5288   */\n      slt\n        /* \"#utility.yul\":5251:5373   */\n      tag_169\n      jumpi\n        /* \"#utility.yul\":5292:5371   */\n      tag_170\n      tag_66\n      jump\t// in\n    tag_170:\n        /* \"#utility.yul\":5251:5373   */\n    tag_169:\n        /* \"#utility.yul\":5409:5415   */\n      dup2\n        /* \"#utility.yul\":5396:5416   */\n      calldataload\n        /* \"#utility.yul\":5434:5513   */\n      tag_171\n        /* \"#utility.yul\":5509:5512   */\n      dup5\n        /* \"#utility.yul\":5501:5507   */\n      dup3\n        /* \"#utility.yul\":5494:5498   */\n      0x20\n        /* \"#utility.yul\":5486:5492   */\n      dup7\n        /* \"#utility.yul\":5482:5499   */\n      add\n        /* \"#utility.yul\":5434:5513   */\n      tag_82\n      jump\t// in\n    tag_171:\n        /* \"#utility.yul\":5425:5513   */\n      swap2\n      pop\n        /* \"#utility.yul\":5241:5519   */\n      pop\n        /* \"#utility.yul\":5179:5519   */\n      swap3\n      swap2\n      pop\n      pop\n      jump\t// out\n        /* \"#utility.yul\":5525:6502   */\n    tag_16:\n        /* \"#utility.yul\":5621:5627   */\n      0x00\n        /* \"#utility.yul\":5629:5635   */\n      dup1\n        /* \"#utility.yul\":5637:5643   */\n      0x00\n        /* \"#utility.yul\":5686:5688   */\n      0x60\n        /* \"#utility.yul\":5674:5683   */\n      dup5\n        /* \"#utility.yul\":5665:5672   */\n      dup7\n        /* \"#utility.yul\":5661:5684   */\n      sub\n        /* \"#utility.yul\":5657:5689   */\n      slt\n        /* \"#utility.yul\":5654:5773   */\n      iszero\n      tag_173\n      jumpi\n        /* \"#utility.yul\":5692:5771   */\n      tag_174\n      tag_61\n      jump\t// in\n    tag_174:\n        /* \"#utility.yul\":5654:5773   */\n    tag_173:\n        /* \"#utility.yul\":5812:5813   */\n      0x00\n        /* \"#utility.yul\":5837:5890   */\n      tag_175\n        /* \"#utility.yul\":5882:5889   */\n      dup7\n        /* \"#utility.yul\":5873:5879   */\n      dup3\n        /* \"#utility.yul\":5862:5871   */\n      dup8\n        /* \"#utility.yul\":5858:5880   */\n      add\n        /* \"#utility.yul\":5837:5890   */\n      tag_80\n      jump\t// in\n    tag_175:\n        /* \"#utility.yul\":5827:5890   */\n      swap4\n      pop\n        /* \"#utility.yul\":5783:5900   */\n      pop\n        /* \"#utility.yul\":5967:5969   */\n      0x20\n        /* \"#utility.yul\":5956:5965   */\n      dup5\n        /* \"#utility.yul\":5952:5970   */\n      add\n        /* \"#utility.yul\":5939:5971   */\n      calldataload\n        /* \"#utility.yul\":5998:6016   */\n      0xffffffffffffffff\n        /* \"#utility.yul\":5990:5996   */\n      dup2\n        /* \"#utility.yul\":5987:6017   */\n      gt\n        /* \"#utility.yul\":5984:6101   */\n      iszero\n      tag_176\n      jumpi\n        /* \"#utility.yul\":6020:6099   */\n      tag_177\n      tag_62\n      jump\t// in\n    tag_177:\n        /* \"#utility.yul\":5984:6101   */\n    tag_176:\n        /* \"#utility.yul\":6125:6188   */\n      tag_178\n        /* \"#utility.yul\":6180:6187   */\n      dup7\n        /* \"#utility.yul\":6171:6177   */\n      dup3\n        /* \"#utility.yul\":6160:6169   */\n      dup8\n        /* \"#utility.yul\":6156:6178   */\n      add\n        /* \"#utility.yul\":6125:6188   */\n      tag_83\n      jump\t// in\n    tag_178:\n        /* \"#utility.yul\":6115:6188   */\n      swap3\n      pop\n        /* \"#utility.yul\":5910:6198   */\n      pop\n        /* \"#utility.yul\":6265:6267   */\n      0x40\n        /* \"#utility.yul\":6254:6263   */\n      dup5\n        /* \"#utility.yul\":6250:6268   */\n      add\n        /* \"#utility.yul\":6237:6269   */\n      calldataload\n        /* \"#utility.yul\":6296:6314   */\n      0xffffffffffffffff\n        /* \"#utility.yul\":6288:6294   */\n      dup2\n        /* \"#utility.yul\":6285:6315   */\n      gt\n        /* \"#utility.yul\":6282:6399   */\n      iszero\n      tag_179\n      jumpi\n        /* \"#utility.yul\":6318:6397   */\n      tag_180\n      tag_62\n      jump\t// in\n    tag_180:\n        /* \"#utility.yul\":6282:6399   */\n    tag_179:\n        /* \"#utility.yul\":6423:6485   */\n      tag_181\n        /* \"#utility.yul\":6477:6484   */\n      dup7\n        /* \"#utility.yul\":6468:6474   */\n      dup3\n        /* \"#utility.yul\":6457:6466   */\n      dup8\n        /* \"#utility.yul\":6453:6475   */\n      add\n        /* \"#utility.yul\":6423:6485   */\n      tag_75\n      jump\t// in\n    tag_181:\n        /* \"#utility.yul\":6413:6485   */\n      swap2\n      pop\n        /* \"#utility.yul\":6208:6495   */\n      pop\n        /* \"#utility.yul\":5525:6502   */\n      swap3\n      pop\n      swap3\n      pop\n      swap3\n      jump\t// out\n        /* \"#utility.yul\":6508:6598   */\n    tag_84:\n        /* \"#utility.yul\":6542:6549   */\n      0x00\n        /* \"#utility.yul\":6585:6590   */\n      dup2\n        /* \"#utility.yul\":6578:6591   */\n      iszero\n        /* \"#utility.yul\":6571:6592   */\n      iszero\n        /* \"#utility.yul\":6560:6592   */\n      swap1\n      pop\n        /* \"#utility.yul\":6508:6598   */\n      swap2\n      swap1\n      pop\n      jump\t// out\n        /* \"#utility.yul\":6604:6713   */\n    tag_85:\n        /* \"#utility.yul\":6685:6706   */\n      tag_184\n        /* \"#utility.yul\":6700:6705   */\n      dup2\n        /* \"#utility.yul\":6685:6706   */\n      tag_84\n      jump\t// in\n    tag_184:\n        /* \"#utility.yul\":6680:6683   */\n      dup3\n        /* \"#utility.yul\":6673:6707   */\n      mstore\n        /* \"#utility.yul\":6604:6713   */\n      pop\n      pop\n      jump\t// out\n        /* \"#utility.yul\":6719:6929   */\n    tag_19:\n        /* \"#utility.yul\":6806:6810   */\n      0x00\n        /* \"#utility.yul\":6844:6846   */\n      0x20\n        /* \"#utility.yul\":6833:6842   */\n      dup3\n        /* \"#utility.yul\":6829:6847   */\n      add\n        /* \"#utility.yul\":6821:6847   */\n      swap1\n      pop\n        /* \"#utility.yul\":6857:6922   */\n      tag_186\n        /* \"#utility.yul\":6919:6920   */\n      0x00\n        /* \"#utility.yul\":6908:6917   */\n      dup4\n        /* \"#utility.yul\":6904:6921   */\n      add\n        /* \"#utility.yul\":6895:6901   */\n      dup5\n        /* \"#utility.yul\":6857:6922   */\n      tag_85\n      jump\t// in\n    tag_186:\n        /* \"#utility.yul\":6719:6929   */\n      swap3\n      swap2\n      pop\n      pop\n      jump\t// out\n        /* \"#utility.yul\":6935:7444   */\n    tag_22:\n        /* \"#utility.yul\":7004:7010   */\n      0x00\n        /* \"#utility.yul\":7053:7055   */\n      0x20\n        /* \"#utility.yul\":7041:7050   */\n      dup3\n        /* \"#utility.yul\":7032:7039   */\n      dup5\n        /* \"#utility.yul\":7028:7051   */\n      sub\n        /* \"#utility.yul\":7024:7056   */\n      slt\n        /* \"#utility.yul\":7021:7140   */\n      iszero\n      tag_188\n      jumpi\n        /* \"#utility.yul\":7059:7138   */\n      tag_189\n      tag_61\n      jump\t// in\n    tag_189:\n        /* \"#utility.yul\":7021:7140   */\n    tag_188:\n        /* \"#utility.yul\":7207:7208   */\n      0x00\n        /* \"#utility.yul\":7196:7205   */\n      dup3\n        /* \"#utility.yul\":7192:7209   */\n      add\n        /* \"#utility.yul\":7179:7210   */\n      calldataload\n        /* \"#utility.yul\":7237:7255   */\n      0xffffffffffffffff\n        /* \"#utility.yul\":7229:7235   */\n      dup2\n        /* \"#utility.yul\":7226:7256   */\n      gt\n        /* \"#utility.yul\":7223:7340   */\n      iszero\n      tag_190\n      jumpi\n        /* \"#utility.yul\":7259:7338   */\n      tag_191\n      tag_62\n      jump\t// in\n    tag_191:\n        /* \"#utility.yul\":7223:7340   */\n    tag_190:\n        /* \"#utility.yul\":7364:7427   */\n      tag_192\n        /* \"#utility.yul\":7419:7426   */\n      dup5\n        /* \"#utility.yul\":7410:7416   */\n      dup3\n        /* \"#utility.yul\":7399:7408   */\n      dup6\n        /* \"#utility.yul\":7395:7417   */\n      add\n        /* \"#utility.yul\":7364:7427   */\n      tag_83\n      jump\t// in\n    tag_192:\n        /* \"#utility.yul\":7354:7427   */\n      swap2\n      pop\n        /* \"#utility.yul\":7150:7437   */\n      pop\n        /* \"#utility.yul\":6935:7444   */\n      swap3\n      swap2\n      pop\n      pop\n      jump\t// out\n        /* \"#utility.yul\":7450:7548   */\n    tag_86:\n        /* \"#utility.yul\":7501:7507   */\n      0x00\n        /* \"#utility.yul\":7535:7540   */\n      dup2\n        /* \"#utility.yul\":7529:7541   */\n      mload\n        /* \"#utility.yul\":7519:7541   */\n      swap1\n      pop\n        /* \"#utility.yul\":7450:7548   */\n      swap2\n      swap1\n      pop\n      jump\t// out\n        /* \"#utility.yul\":7554:7722   */\n    tag_87:\n        /* \"#utility.yul\":7637:7648   */\n      0x00\n        /* \"#utility.yul\":7671:7677   */\n      dup3\n        /* \"#utility.yul\":7666:7669   */\n      dup3\n        /* \"#utility.yul\":7659:7678   */\n      mstore\n        /* \"#utility.yul\":7711:7715   */\n      0x20\n        /* \"#utility.yul\":7706:7709   */\n      dup3\n        /* \"#utility.yul\":7702:7716   */\n      add\n        /* \"#utility.yul\":7687:7716   */\n      swap1\n      pop\n        /* \"#utility.yul\":7554:7722   */\n      swap3\n      swap2\n      pop\n      pop\n      jump\t// out\n        /* \"#utility.yul\":7728:7974   */\n    tag_88:\n        /* \"#utility.yul\":7809:7810   */\n      0x00\n        /* \"#utility.yul\":7819:7932   */\n    tag_196:\n        /* \"#utility.yul\":7833:7839   */\n      dup4\n        /* \"#utility.yul\":7830:7831   */\n      dup2\n        /* \"#utility.yul\":7827:7840   */\n      lt\n        /* \"#utility.yul\":7819:7932   */\n      iszero\n      tag_198\n      jumpi\n        /* \"#utility.yul\":7918:7919   */\n      dup1\n        /* \"#utility.yul\":7913:7916   */\n      dup3\n        /* \"#utility.yul\":7909:7920   */\n      add\n        /* \"#utility.yul\":7903:7921   */\n      mload\n        /* \"#utility.yul\":7899:7900   */\n      dup2\n        /* \"#utility.yul\":7894:7897   */\n      dup5\n        /* \"#utility.yul\":7890:7901   */\n      add\n        /* \"#utility.yul\":7883:7922   */\n      mstore\n        /* \"#utility.yul\":7855:7857   */\n      0x20\n        /* \"#utility.yul\":7852:7853   */\n      dup2\n        /* \"#utility.yul\":7848:7858   */\n      add\n        /* \"#utility.yul\":7843:7858   */\n      swap1\n      pop\n        /* \"#utility.yul\":7819:7932   */\n      jump(tag_196)\n    tag_198:\n        /* \"#utility.yul\":7966:7967   */\n      0x00\n        /* \"#utility.yul\":7957:7963   */\n      dup5\n        /* \"#utility.yul\":7952:7955   */\n      dup5\n        /* \"#utility.yul\":7948:7964   */\n      add\n        /* \"#utility.yul\":7941:7968   */\n      mstore\n        /* \"#utility.yul\":7790:7974   */\n      pop\n        /* \"#utility.yul\":7728:7974   */\n      pop\n      pop\n      pop\n      jump\t// out\n        /* \"#utility.yul\":7980:8353   */\n    tag_89:\n        /* \"#utility.yul\":8066:8069   */\n      0x00\n        /* \"#utility.yul\":8094:8132   */\n      tag_200\n        /* \"#utility.yul\":8126:8131   */\n      dup3\n        /* \"#utility.yul\":8094:8132   */\n      tag_86\n      jump\t// in\n    tag_200:\n        /* \"#utility.yul\":8148:8218   */\n      tag_201\n        /* \"#utility.yul\":8211:8217   */\n      dup2\n        /* \"#utility.yul\":8206:8209   */\n      dup6\n        /* \"#utility.yul\":8148:8218   */\n      tag_87\n      jump\t// in\n    tag_201:\n        /* \"#utility.yul\":8141:8218   */\n      swap4\n      pop\n        /* \"#utility.yul\":8227:8292   */\n      tag_202\n        /* \"#utility.yul\":8285:8291   */\n      dup2\n        /* \"#utility.yul\":8280:8283   */\n      dup6\n        /* \"#utility.yul\":8273:8277   */\n      0x20\n        /* \"#utility.yul\":8266:8271   */\n      dup7\n        /* \"#utility.yul\":8262:8278   */\n      add\n        /* \"#utility.yul\":8227:8292   */\n      tag_88\n      jump\t// in\n    tag_202:\n        /* \"#utility.yul\":8317:8346   */\n      tag_203\n        /* \"#utility.yul\":8339:8345   */\n      dup2\n        /* \"#utility.yul\":8317:8346   */\n      tag_68\n      jump\t// in\n    tag_203:\n        /* \"#utility.yul\":8312:8315   */\n      dup5\n        /* \"#utility.yul\":8308:8347   */\n      add\n        /* \"#utility.yul\":8301:8347   */\n      swap2\n      pop\n        /* \"#utility.yul\":8070:8353   */\n      pop\n        /* \"#utility.yul\":7980:8353   */\n      swap3\n      swap2\n      pop\n      pop\n      jump\t// out\n        /* \"#utility.yul\":8359:8668   */\n    tag_25:\n        /* \"#utility.yul\":8470:8474   */\n      0x00\n        /* \"#utility.yul\":8508:8510   */\n      0x20\n        /* \"#utility.yul\":8497:8506   */\n      dup3\n        /* \"#utility.yul\":8493:8511   */\n      add\n        /* \"#utility.yul\":8485:8511   */\n      swap1\n      pop\n        /* \"#utility.yul\":8557:8566   */\n      dup2\n        /* \"#utility.yul\":8551:8555   */\n      dup2\n        /* \"#utility.yul\":8547:8567   */\n      sub\n        /* \"#utility.yul\":8543:8544   */\n      0x00\n        /* \"#utility.yul\":8532:8541   */\n      dup4\n        /* \"#utility.yul\":8528:8545   */\n      add\n        /* \"#utility.yul\":8521:8568   */\n      mstore\n        /* \"#utility.yul\":8585:8661   */\n      tag_205\n        /* \"#utility.yul\":8656:8660   */\n      dup2\n        /* \"#utility.yul\":8647:8653   */\n      dup5\n        /* \"#utility.yul\":8585:8661   */\n      tag_89\n      jump\t// in\n    tag_205:\n        /* \"#utility.yul\":8577:8661   */\n      swap1\n      pop\n        /* \"#utility.yul\":8359:8668   */\n      swap3\n      swap2\n      pop\n      pop\n      jump\t// out\n        /* \"#utility.yul\":8674:8792   */\n    tag_90:\n        /* \"#utility.yul\":8761:8785   */\n      tag_207\n        /* \"#utility.yul\":8779:8784   */\n      dup2\n        /* \"#utility.yul\":8761:8785   */\n      tag_63\n      jump\t// in\n    tag_207:\n        /* \"#utility.yul\":8756:8759   */\n      dup3\n        /* \"#utility.yul\":8749:8786   */\n      mstore\n        /* \"#utility.yul\":8674:8792   */\n      pop\n      pop\n      jump\t// out\n        /* \"#utility.yul\":8798:9020   */\n    tag_30:\n        /* \"#utility.yul\":8891:8895   */\n      0x00\n        /* \"#utility.yul\":8929:8931   */\n      0x20\n        /* \"#utility.yul\":8918:8927   */\n      dup3\n        /* \"#utility.yul\":8914:8932   */\n      add\n        /* \"#utility.yul\":8906:8932   */\n      swap1\n      pop\n        /* \"#utility.yul\":8942:9013   */\n      tag_209\n        /* \"#utility.yul\":9010:9011   */\n      0x00\n        /* \"#utility.yul\":8999:9008   */\n      dup4\n        /* \"#utility.yul\":8995:9012   */\n      add\n        /* \"#utility.yul\":8986:8992   */\n      dup5\n        /* \"#utility.yul\":8942:9013   */\n      tag_90\n      jump\t// in\n    tag_209:\n        /* \"#utility.yul\":8798:9020   */\n      swap3\n      swap2\n      pop\n      pop\n      jump\t// out\n        /* \"#utility.yul\":9026:9355   */\n    tag_33:\n        /* \"#utility.yul\":9085:9091   */\n      0x00\n        /* \"#utility.yul\":9134:9136   */\n      0x20\n        /* \"#utility.yul\":9122:9131   */\n      dup3\n        /* \"#utility.yul\":9113:9120   */\n      dup5\n        /* \"#utility.yul\":9109:9132   */\n      sub\n        /* \"#utility.yul\":9105:9137   */\n      slt\n        /* \"#utility.yul\":9102:9221   */\n      iszero\n      tag_211\n      jumpi\n        /* \"#utility.yul\":9140:9219   */\n      tag_212\n      tag_61\n      jump\t// in\n    tag_212:\n        /* \"#utility.yul\":9102:9221   */\n    tag_211:\n        /* \"#utility.yul\":9260:9261   */\n      0x00\n        /* \"#utility.yul\":9285:9338   */\n      tag_213\n        /* \"#utility.yul\":9330:9337   */\n      dup5\n        /* \"#utility.yul\":9321:9327   */\n      dup3\n        /* \"#utility.yul\":9310:9319   */\n      dup6\n        /* \"#utility.yul\":9306:9328   */\n      add\n        /* \"#utility.yul\":9285:9338   */\n      tag_65\n      jump\t// in\n    tag_213:\n        /* \"#utility.yul\":9275:9338   */\n      swap2\n      pop\n        /* \"#utility.yul\":9231:9348   */\n      pop\n        /* \"#utility.yul\":9026:9355   */\n      swap3\n      swap2\n      pop\n      pop\n      jump\t// out\n        /* \"#utility.yul\":9361:9447   */\n    tag_91:\n        /* \"#utility.yul\":9396:9403   */\n      0x00\n        /* \"#utility.yul\":9436:9440   */\n      0xff\n        /* \"#utility.yul\":9429:9434   */\n      dup3\n        /* \"#utility.yul\":9425:9441   */\n      and\n        /* \"#utility.yul\":9414:9441   */\n      swap1\n      pop\n        /* \"#utility.yul\":9361:9447   */\n      swap2\n      swap1\n      pop\n      jump\t// out\n        /* \"#utility.yul\":9453:9565   */\n    tag_92:\n        /* \"#utility.yul\":9536:9558   */\n      tag_216\n        /* \"#utility.yul\":9552:9557   */\n      dup2\n        /* \"#utility.yul\":9536:9558   */\n      tag_91\n      jump\t// in\n    tag_216:\n        /* \"#utility.yul\":9531:9534   */\n      dup3\n        /* \"#utility.yul\":9524:9559   */\n      mstore\n        /* \"#utility.yul\":9453:9565   */\n      pop\n      pop\n      jump\t// out\n        /* \"#utility.yul\":9571:10116   */\n    tag_40:\n        /* \"#utility.yul\":9744:9748   */\n      0x00\n        /* \"#utility.yul\":9782:9785   */\n      0x80\n        /* \"#utility.yul\":9771:9780   */\n      dup3\n        /* \"#utility.yul\":9767:9786   */\n      add\n        /* \"#utility.yul\":9759:9786   */\n      swap1\n      pop\n        /* \"#utility.yul\":9796:9867   */\n      tag_218\n        /* \"#utility.yul\":9864:9865   */\n      0x00\n        /* \"#utility.yul\":9853:9862   */\n      dup4\n        /* \"#utility.yul\":9849:9866   */\n      add\n        /* \"#utility.yul\":9840:9846   */\n      dup8\n        /* \"#utility.yul\":9796:9867   */\n      tag_90\n      jump\t// in\n    tag_218:\n        /* \"#utility.yul\":9877:9945   */\n      tag_219\n        /* \"#utility.yul\":9941:9943   */\n      0x20\n        /* \"#utility.yul\":9930:9939   */\n      dup4\n        /* \"#utility.yul\":9926:9944   */\n      add\n        /* \"#utility.yul\":9917:9923   */\n      dup7\n        /* \"#utility.yul\":9877:9945   */\n      tag_92\n      jump\t// in\n    tag_219:\n        /* \"#utility.yul\":9955:10027   */\n      tag_220\n        /* \"#utility.yul\":10023:10025   */\n      0x40\n        /* \"#utility.yul\":10012:10021   */\n      dup4\n        /* \"#utility.yul\":10008:10026   */\n      add\n        /* \"#utility.yul\":9999:10005   */\n      dup6\n        /* \"#utility.yul\":9955:10027   */\n      tag_90\n      jump\t// in\n    tag_220:\n        /* \"#utility.yul\":10037:10109   */\n      tag_221\n        /* \"#utility.yul\":10105:10107   */\n      0x60\n        /* \"#utility.yul\":10094:10103   */\n      dup4\n        /* \"#utility.yul\":10090:10108   */\n      add\n        /* \"#utility.yul\":10081:10087   */\n      dup5\n        /* \"#utility.yul\":10037:10109   */\n      tag_90\n      jump\t// in\n    tag_221:\n        /* \"#utility.yul\":9571:10116   */\n      swap6\n      swap5\n      pop\n      pop\n      pop\n      pop\n      pop\n      jump\t// out\n        /* \"#utility.yul\":10122:10270   */\n    tag_93:\n        /* \"#utility.yul\":10224:10235   */\n      0x00\n        /* \"#utility.yul\":10261:10264   */\n      dup2\n        /* \"#utility.yul\":10246:10264   */\n      swap1\n      pop\n        /* \"#utility.yul\":10122:10270   */\n      swap3\n      swap2\n      pop\n      pop\n      jump\t// out\n        /* \"#utility.yul\":10276:10490   */\n    tag_94:\n        /* \"#utility.yul\":10416:10482   */\n      0x19457468657265756d205369676e6564204d6573736167653a0a333200000000\n        /* \"#utility.yul\":10412:10413   */\n      0x00\n        /* \"#utility.yul\":10404:10410   */\n      dup3\n        /* \"#utility.yul\":10400:10414   */\n      add\n        /* \"#utility.yul\":10393:10483   */\n      mstore\n        /* \"#utility.yul\":10276:10490   */\n      pop\n      jump\t// out\n        /* \"#utility.yul\":10496:10898   */\n    tag_95:\n        /* \"#utility.yul\":10656:10659   */\n      0x00\n        /* \"#utility.yul\":10677:10762   */\n      tag_225\n        /* \"#utility.yul\":10759:10761   */\n      0x1c\n        /* \"#utility.yul\":10754:10757   */\n      dup4\n        /* \"#utility.yul\":10677:10762   */\n      tag_93\n      jump\t// in\n    tag_225:\n        /* \"#utility.yul\":10670:10762   */\n      swap2\n      pop\n        /* \"#utility.yul\":10771:10864   */\n      tag_226\n        /* \"#utility.yul\":10860:10863   */\n      dup3\n        /* \"#utility.yul\":10771:10864   */\n      tag_94\n      jump\t// in\n    tag_226:\n        /* \"#utility.yul\":10889:10891   */\n      0x1c\n        /* \"#utility.yul\":10884:10887   */\n      dup3\n        /* \"#utility.yul\":10880:10892   */\n      add\n        /* \"#utility.yul\":10873:10892   */\n      swap1\n      pop\n        /* \"#utility.yul\":10496:10898   */\n      swap2\n      swap1\n      pop\n      jump\t// out\n        /* \"#utility.yul\":10904:10983   */\n    tag_96:\n        /* \"#utility.yul\":10943:10950   */\n      0x00\n        /* \"#utility.yul\":10972:10977   */\n      dup2\n        /* \"#utility.yul\":10961:10977   */\n      swap1\n      pop\n        /* \"#utility.yul\":10904:10983   */\n      swap2\n      swap1\n      pop\n      jump\t// out\n        /* \"#utility.yul\":10989:11146   */\n    tag_97:\n        /* \"#utility.yul\":11094:11139   */\n      tag_229\n        /* \"#utility.yul\":11114:11138   */\n      tag_230\n        /* \"#utility.yul\":11132:11137   */\n      dup3\n        /* \"#utility.yul\":11114:11138   */\n      tag_63\n      jump\t// in\n    tag_230:\n        /* \"#utility.yul\":11094:11139   */\n      tag_96\n      jump\t// in\n    tag_229:\n        /* \"#utility.yul\":11089:11092   */\n      dup3\n        /* \"#utility.yul\":11082:11140   */\n      mstore\n        /* \"#utility.yul\":10989:11146   */\n      pop\n      pop\n      jump\t// out\n        /* \"#utility.yul\":11152:11674   */\n    tag_50:\n        /* \"#utility.yul\":11365:11368   */\n      0x00\n        /* \"#utility.yul\":11387:11535   */\n      tag_232\n        /* \"#utility.yul\":11531:11534   */\n      dup3\n        /* \"#utility.yul\":11387:11535   */\n      tag_95\n      jump\t// in\n    tag_232:\n        /* \"#utility.yul\":11380:11535   */\n      swap2\n      pop\n        /* \"#utility.yul\":11545:11620   */\n      tag_233\n        /* \"#utility.yul\":11616:11619   */\n      dup3\n        /* \"#utility.yul\":11607:11613   */\n      dup5\n        /* \"#utility.yul\":11545:11620   */\n      tag_97\n      jump\t// in\n    tag_233:\n        /* \"#utility.yul\":11645:11647   */\n      0x20\n        /* \"#utility.yul\":11640:11643   */\n      dup3\n        /* \"#utility.yul\":11636:11648   */\n      add\n        /* \"#utility.yul\":11629:11648   */\n      swap2\n      pop\n        /* \"#utility.yul\":11665:11668   */\n      dup2\n        /* \"#utility.yul\":11658:11668   */\n      swap1\n      pop\n        /* \"#utility.yul\":11152:11674   */\n      swap3\n      swap2\n      pop\n      pop\n      jump\t// out\n        /* \"#utility.yul\":11680:11779   */\n    tag_98:\n        /* \"#utility.yul\":11732:11738   */\n      0x00\n        /* \"#utility.yul\":11766:11771   */\n      dup2\n        /* \"#utility.yul\":11760:11772   */\n      mload\n        /* \"#utility.yul\":11750:11772   */\n      swap1\n      pop\n        /* \"#utility.yul\":11680:11779   */\n      swap2\n      swap1\n      pop\n      jump\t// out\n        /* \"#utility.yul\":11785:12175   */\n    tag_99:\n        /* \"#utility.yul\":11891:11894   */\n      0x00\n        /* \"#utility.yul\":11919:11958   */\n      tag_236\n        /* \"#utility.yul\":11952:11957   */\n      dup3\n        /* \"#utility.yul\":11919:11958   */\n      tag_98\n      jump\t// in\n    tag_236:\n        /* \"#utility.yul\":11974:12063   */\n      tag_237\n        /* \"#utility.yul\":12056:12062   */\n      dup2\n        /* \"#utility.yul\":12051:12054   */\n      dup6\n        /* \"#utility.yul\":11974:12063   */\n      tag_93\n      jump\t// in\n    tag_237:\n        /* \"#utility.yul\":11967:12063   */\n      swap4\n      pop\n        /* \"#utility.yul\":12072:12137   */\n      tag_238\n        /* \"#utility.yul\":12130:12136   */\n      dup2\n        /* \"#utility.yul\":12125:12128   */\n      dup6\n        /* \"#utility.yul\":12118:12122   */\n      0x20\n        /* \"#utility.yul\":12111:12116   */\n      dup7\n        /* \"#utility.yul\":12107:12123   */\n      add\n        /* \"#utility.yul\":12072:12137   */\n      tag_88\n      jump\t// in\n    tag_238:\n        /* \"#utility.yul\":12162:12168   */\n      dup1\n        /* \"#utility.yul\":12157:12160   */\n      dup5\n        /* \"#utility.yul\":12153:12169   */\n      add\n        /* \"#utility.yul\":12146:12169   */\n      swap2\n      pop\n        /* \"#utility.yul\":11895:12175   */\n      pop\n        /* \"#utility.yul\":11785:12175   */\n      swap3\n      swap2\n      pop\n      pop\n      jump\t// out\n        /* \"#utility.yul\":12181:12456   */\n    tag_53:\n        /* \"#utility.yul\":12313:12316   */\n      0x00\n        /* \"#utility.yul\":12335:12430   */\n      tag_240\n        /* \"#utility.yul\":12426:12429   */\n      dup3\n        /* \"#utility.yul\":12417:12423   */\n      dup5\n        /* \"#utility.yul\":12335:12430   */\n      tag_99\n      jump\t// in\n    tag_240:\n        /* \"#utility.yul\":12328:12430   */\n      swap2\n      pop\n        /* \"#utility.yul\":12447:12450   */\n      dup2\n        /* \"#utility.yul\":12440:12450   */\n      swap1\n      pop\n        /* \"#utility.yul\":12181:12456   */\n      swap3\n      swap2\n      pop\n      pop\n      jump\t// out\n        /* \"#utility.yul\":12462:12631   */\n    tag_100:\n        /* \"#utility.yul\":12546:12557   */\n      0x00\n        /* \"#utility.yul\":12580:12586   */\n      dup3\n        /* \"#utility.yul\":12575:12578   */\n      dup3\n        /* \"#utility.yul\":12568:12587   */\n      mstore\n        /* \"#utility.yul\":12620:12624   */\n      0x20\n        /* \"#utility.yul\":12615:12618   */\n      dup3\n        /* \"#utility.yul\":12611:12625   */\n      add\n        /* \"#utility.yul\":12596:12625   */\n      swap1\n      pop\n        /* \"#utility.yul\":12462:12631   */\n      swap3\n      swap2\n      pop\n      pop\n      jump\t// out\n        /* \"#utility.yul\":12637:12811   */\n    tag_101:\n        /* \"#utility.yul\":12777:12803   */\n      0x696e76616c6964207369676e6174757265206c656e6774680000000000000000\n        /* \"#utility.yul\":12773:12774   */\n      0x00\n        /* \"#utility.yul\":12765:12771   */\n      dup3\n        /* \"#utility.yul\":12761:12775   */\n      add\n        /* \"#utility.yul\":12754:12804   */\n      mstore\n        /* \"#utility.yul\":12637:12811   */\n      pop\n      jump\t// out\n        /* \"#utility.yul\":12817:13183   */\n    tag_102:\n        /* \"#utility.yul\":12959:12962   */\n      0x00\n        /* \"#utility.yul\":12980:13047   */\n      tag_244\n        /* \"#utility.yul\":13044:13046   */\n      0x18\n        /* \"#utility.yul\":13039:13042   */\n      dup4\n        /* \"#utility.yul\":12980:13047   */\n      tag_100\n      jump\t// in\n    tag_244:\n        /* \"#utility.yul\":12973:13047   */\n      swap2\n      pop\n        /* \"#utility.yul\":13056:13149   */\n      tag_245\n        /* \"#utility.yul\":13145:13148   */\n      dup3\n        /* \"#utility.yul\":13056:13149   */\n      tag_101\n      jump\t// in\n    tag_245:\n        /* \"#utility.yul\":13174:13176   */\n      0x20\n        /* \"#utility.yul\":13169:13172   */\n      dup3\n        /* \"#utility.yul\":13165:13177   */\n      add\n        /* \"#utility.yul\":13158:13177   */\n      swap1\n      pop\n        /* \"#utility.yul\":12817:13183   */\n      swap2\n      swap1\n      pop\n      jump\t// out\n        /* \"#utility.yul\":13189:13608   */\n    tag_59:\n        /* \"#utility.yul\":13355:13359   */\n      0x00\n        /* \"#utility.yul\":13393:13395   */\n      0x20\n        /* \"#utility.yul\":13382:13391   */\n      dup3\n        /* \"#utility.yul\":13378:13396   */\n      add\n        /* \"#utility.yul\":13370:13396   */\n      swap1\n      pop\n        /* \"#utility.yul\":13442:13451   */\n      dup2\n        /* \"#utility.yul\":13436:13440   */\n      dup2\n        /* \"#utility.yul\":13432:13452   */\n      sub\n        /* \"#utility.yul\":13428:13429   */\n      0x00\n        /* \"#utility.yul\":13417:13426   */\n      dup4\n        /* \"#utility.yul\":13413:13430   */\n      add\n        /* \"#utility.yul\":13406:13453   */\n      mstore\n        /* \"#utility.yul\":13470:13601   */\n      tag_247\n        /* \"#utility.yul\":13596:13600   */\n      dup2\n        /* \"#utility.yul\":13470:13601   */\n      tag_102\n      jump\t// in\n    tag_247:\n        /* \"#utility.yul\":13462:13601   */\n      swap1\n      pop\n        /* \"#utility.yul\":13189:13608   */\n      swap2\n      swap1\n      pop\n      jump\t// out\n\n    auxdata: 0xa2646970667358221220ce2d4bc212087416b00247e8bf563c7541d869cb7f12cb7480077f4c5233c66564736f6c63430008120033\n}\n",
				"bytecode": {
					"linkReferences": {},
					"object": "608060405234801561001057600080fd5b50610a39806100206000396000f3fe608060405234801561001057600080fd5b50600436106100575760003560e01c806319045a251461005c5780632dd34f0f1461008c578063519d4e60146100bc578063b446f3b2146100ec578063e832d2d71461011c575b600080fd5b610076600480360381019061007191906104ad565b61014c565b604051610083919061054a565b60405180910390f35b6100a660048036038101906100a19190610632565b6101bb565b6040516100b391906106d8565b60405180910390f35b6100d660048036038101906100d191906106f3565b610219565b6040516100e391906107bb565b60405180910390f35b610106600480360381019061010191906106f3565b610250565b60405161011391906107ec565b60405180910390f35b61013660048036038101906101319190610807565b610280565b60405161014391906107ec565b60405180910390f35b60008060008061015b856102b5565b925092509250600186828585604051600081526020016040526040516101849493929190610850565b6020604051602081039080840390855afa1580156101a6573d6000803e3d6000fd5b50505060206040510351935050505092915050565b6000806101c784610250565b905060006101d482610280565b90508573ffffffffffffffffffffffffffffffffffffffff166101f7828661014c565b73ffffffffffffffffffffffffffffffffffffffff1614925050509392505050565b6060600061022683610250565b905080604051602001610239919061090d565b604051602081830303815290604052915050919050565b600081604051602001610263919061096f565b604051602081830303815290604052805190602001209050919050565b60008082604051602001610294919061090d565b60405160208183030381529060405290508080519060200120915050919050565b600080600060418451146102fe576040517f08c379a00000000000000000000000000000000000000000000000000000000081526004016102f5906109e3565b60405180910390fd5b6020840151925060408401519150606084015160001a90509193909250565b6000604051905090565b600080fd5b600080fd5b6000819050919050565b61034481610331565b811461034f57600080fd5b50565b6000813590506103618161033b565b92915050565b600080fd5b600080fd5b6000601f19601f8301169050919050565b7f4e487b7100000000000000000000000000000000000000000000000000000000600052604160045260246000fd5b6103ba82610371565b810181811067ffffffffffffffff821117156103d9576103d8610382565b5b80604052505050565b60006103ec61031d565b90506103f882826103b1565b919050565b600067ffffffffffffffff82111561041857610417610382565b5b61042182610371565b9050602081019050919050565b82818337600083830152505050565b600061045061044b846103fd565b6103e2565b90508281526020810184848401111561046c5761046b61036c565b5b61047784828561042e565b509392505050565b600082601f83011261049457610493610367565b5b81356104a484826020860161043d565b91505092915050565b600080604083850312156104c4576104c3610327565b5b60006104d285828601610352565b925050602083013567ffffffffffffffff8111156104f3576104f261032c565b5b6104ff8582860161047f565b9150509250929050565b600073ffffffffffffffffffffffffffffffffffffffff82169050919050565b600061053482610509565b9050919050565b61054481610529565b82525050565b600060208201905061055f600083018461053b565b92915050565b61056e81610529565b811461057957600080fd5b50565b60008135905061058b81610565565b92915050565b600067ffffffffffffffff8211156105ac576105ab610382565b5b6105b582610371565b9050602081019050919050565b60006105d56105d084610591565b6103e2565b9050828152602081018484840111156105f1576105f061036c565b5b6105fc84828561042e565b509392505050565b600082601f83011261061957610618610367565b5b81356106298482602086016105c2565b91505092915050565b60008060006060848603121561064b5761064a610327565b5b60006106598682870161057c565b935050602084013567ffffffffffffffff81111561067a5761067961032c565b5b61068686828701610604565b925050604084013567ffffffffffffffff8111156106a7576106a661032c565b5b6106b38682870161047f565b9150509250925092565b60008115159050919050565b6106d2816106bd565b82525050565b60006020820190506106ed60008301846106c9565b92915050565b60006020828403121561070957610708610327565b5b600082013567ffffffffffffffff8111156107275761072661032c565b5b61073384828501610604565b91505092915050565b600081519050919050565b600082825260208201905092915050565b60005b8381101561077657808201518184015260208101905061075b565b60008484015250505050565b600061078d8261073c565b6107978185610747565b93506107a7818560208601610758565b6107b081610371565b840191505092915050565b600060208201905081810360008301526107d58184610782565b905092915050565b6107e681610331565b82525050565b600060208201905061080160008301846107dd565b92915050565b60006020828403121561081d5761081c610327565b5b600061082b84828501610352565b91505092915050565b600060ff82169050919050565b61084a81610834565b82525050565b600060808201905061086560008301876107dd565b6108726020830186610841565b61087f60408301856107dd565b61088c60608301846107dd565b95945050505050565b600081905092915050565b7f19457468657265756d205369676e6564204d6573736167653a0a333200000000600082015250565b60006108d6601c83610895565b91506108e1826108a0565b601c82019050919050565b6000819050919050565b61090761090282610331565b6108ec565b82525050565b6000610918826108c9565b915061092482846108f6565b60208201915081905092915050565b600081519050919050565b600061094982610933565b6109538185610895565b9350610963818560208601610758565b80840191505092915050565b600061097b828461093e565b915081905092915050565b600082825260208201905092915050565b7f696e76616c6964207369676e6174757265206c656e6774680000000000000000600082015250565b60006109cd601883610986565b91506109d882610997565b602082019050919050565b600060208201905081810360008301526109fc816109c0565b905091905056fea2646970667358221220ce2d4bc212087416b00247e8bf563c7541d869cb7f12cb7480077f4c5233c66564736f6c63430008120033",
					"opcodes": "PUSH1 0x80 PUSH1 0x40 MSTORE CALLVALUE DUP1 ISZERO PUSH2 0x10 JUMPI PUSH1 0x0 DUP1 REVERT JUMPDEST POP PUSH2 0xA39 DUP1 PUSH2 0x20 PUSH1 0x0 CODECOPY PUSH1 0x0 RETURN INVALID PUSH1 0x80 PUSH1 0x40 MSTORE CALLVALUE DUP1 ISZERO PUSH2 0x10 JUMPI PUSH1 0x0 DUP1 REVERT JUMPDEST POP PUSH1 0x4 CALLDATASIZE LT PUSH2 0x57 JUMPI PUSH1 0x0 CALLDATALOAD PUSH1 0xE0 SHR DUP1 PUSH4 0x19045A25 EQ PUSH2 0x5C JUMPI DUP1 PUSH4 0x2DD34F0F EQ PUSH2 0x8C JUMPI DUP1 PUSH4 0x519D4E60 EQ PUSH2 0xBC JUMPI DUP1 PUSH4 0xB446F3B2 EQ PUSH2 0xEC JUMPI DUP1 PUSH4 0xE832D2D7 EQ PUSH2 0x11C JUMPI JUMPDEST PUSH1 0x0 DUP1 REVERT JUMPDEST PUSH2 0x76 PUSH1 0x4 DUP1 CALLDATASIZE SUB DUP2 ADD SWAP1 PUSH2 0x71 SWAP2 SWAP1 PUSH2 0x4AD JUMP JUMPDEST PUSH2 0x14C JUMP JUMPDEST PUSH1 0x40 MLOAD PUSH2 0x83 SWAP2 SWAP1 PUSH2 0x54A JUMP JUMPDEST PUSH1 0x40 MLOAD DUP1 SWAP2 SUB SWAP1 RETURN JUMPDEST PUSH2 0xA6 PUSH1 0x4 DUP1 CALLDATASIZE SUB DUP2 ADD SWAP1 PUSH2 0xA1 SWAP2 SWAP1 PUSH2 0x632 JUMP JUMPDEST PUSH2 0x1BB JUMP JUMPDEST PUSH1 0x40 MLOAD PUSH2 0xB3 SWAP2 SWAP1 PUSH2 0x6D8 JUMP JUMPDEST PUSH1 0x40 MLOAD DUP1 SWAP2 SUB SWAP1 RETURN JUMPDEST PUSH2 0xD6 PUSH1 0x4 DUP1 CALLDATASIZE SUB DUP2 ADD SWAP1 PUSH2 0xD1 SWAP2 SWAP1 PUSH2 0x6F3 JUMP JUMPDEST PUSH2 0x219 JUMP JUMPDEST PUSH1 0x40 MLOAD PUSH2 0xE3 SWAP2 SWAP1 PUSH2 0x7BB JUMP JUMPDEST PUSH1 0x40 MLOAD DUP1 SWAP2 SUB SWAP1 RETURN JUMPDEST PUSH2 0x106 PUSH1 0x4 DUP1 CALLDATASIZE SUB DUP2 ADD SWAP1 PUSH2 0x101 SWAP2 SWAP1 PUSH2 0x6F3 JUMP JUMPDEST PUSH2 0x250 JUMP JUMPDEST PUSH1 0x40 MLOAD PUSH2 0x113 SWAP2 SWAP1 PUSH2 0x7EC JUMP JUMPDEST PUSH1 0x40 MLOAD DUP1 SWAP2 SUB SWAP1 RETURN JUMPDEST PUSH2 0x136 PUSH1 0x4 DUP1 CALLDATASIZE SUB DUP2 ADD SWAP1 PUSH2 0x131 SWAP2 SWAP1 PUSH2 0x807 JUMP JUMPDEST PUSH2 0x280 JUMP JUMPDEST PUSH1 0x40 MLOAD PUSH2 0x143 SWAP2 SWAP1 PUSH2 0x7EC JUMP JUMPDEST PUSH1 0x40 MLOAD DUP1 SWAP2 SUB SWAP1 RETURN JUMPDEST PUSH1 0x0 DUP1 PUSH1 0x0 DUP1 PUSH2 0x15B DUP6 PUSH2 0x2B5 JUMP JUMPDEST SWAP3 POP SWAP3 POP SWAP3 POP PUSH1 0x1 DUP7 DUP3 DUP6 DUP6 PUSH1 0x40 MLOAD PUSH1 0x0 DUP2 MSTORE PUSH1 0x20 ADD PUSH1 0x40 MSTORE PUSH1 0x40 MLOAD PUSH2 0x184 SWAP5 SWAP4 SWAP3 SWAP2 SWAP1 PUSH2 0x850 JUMP JUMPDEST PUSH1 0x20 PUSH1 0x40 MLOAD PUSH1 0x20 DUP2 SUB SWAP1 DUP1 DUP5 SUB SWAP1 DUP6 GAS STATICCALL ISZERO DUP1 ISZERO PUSH2 0x1A6 JUMPI RETURNDATASIZE PUSH1 0x0 DUP1 RETURNDATACOPY RETURNDATASIZE PUSH1 0x0 REVERT JUMPDEST POP POP POP PUSH1 0x20 PUSH1 0x40 MLOAD SUB MLOAD SWAP4 POP POP POP POP SWAP3 SWAP2 POP POP JUMP JUMPDEST PUSH1 0x0 DUP1 PUSH2 0x1C7 DUP5 PUSH2 0x250 JUMP JUMPDEST SWAP1 POP PUSH1 0x0 PUSH2 0x1D4 DUP3 PUSH2 0x280 JUMP JUMPDEST SWAP1 POP DUP6 PUSH20 0xFFFFFFFFFFFFFFFFFFFFFFFFFFFFFFFFFFFFFFFF AND PUSH2 0x1F7 DUP3 DUP7 PUSH2 0x14C JUMP JUMPDEST PUSH20 0xFFFFFFFFFFFFFFFFFFFFFFFFFFFFFFFFFFFFFFFF AND EQ SWAP3 POP POP POP SWAP4 SWAP3 POP POP POP JUMP JUMPDEST PUSH1 0x60 PUSH1 0x0 PUSH2 0x226 DUP4 PUSH2 0x250 JUMP JUMPDEST SWAP1 POP DUP1 PUSH1 0x40 MLOAD PUSH1 0x20 ADD PUSH2 0x239 SWAP2 SWAP1 PUSH2 0x90D JUMP JUMPDEST PUSH1 0x40 MLOAD PUSH1 0x20 DUP2 DUP4 SUB SUB DUP2 MSTORE SWAP1 PUSH1 0x40 MSTORE SWAP2 POP POP SWAP2 SWAP1 POP JUMP JUMPDEST PUSH1 0x0 DUP2 PUSH1 0x40 MLOAD PUSH1 0x20 ADD PUSH2 0x263 SWAP2 SWAP1 PUSH2 0x96F JUMP JUMPDEST PUSH1 0x40 MLOAD PUSH1 0x20 DUP2 DUP4 SUB SUB DUP2 MSTORE SWAP1 PUSH1 0x40 MSTORE DUP1 MLOAD SWAP1 PUSH1 0x20 ADD KECCAK256 SWAP1 POP SWAP2 SWAP1 POP JUMP JUMPDEST PUSH1 0x0 DUP1 DUP3 PUSH1 0x40 MLOAD PUSH1 0x20 ADD PUSH2 0x294 SWAP2 SWAP1 PUSH2 0x90D JUMP JUMPDEST PUSH1 0x40 MLOAD PUSH1 0x20 DUP2 DUP4 SUB SUB DUP2 MSTORE SWAP1 PUSH1 0x40 MSTORE SWAP1 POP DUP1 DUP1 MLOAD SWAP1 PUSH1 0x20 ADD KECCAK256 SWAP2 POP POP SWAP2 SWAP1 POP JUMP JUMPDEST PUSH1 0x0 DUP1 PUSH1 0x0 PUSH1 0x41 DUP5 MLOAD EQ PUSH2 0x2FE JUMPI PUSH1 0x40 MLOAD PUSH32 0x8C379A000000000000000000000000000000000000000000000000000000000 DUP2 MSTORE PUSH1 0x4 ADD PUSH2 0x2F5 SWAP1 PUSH2 0x9E3 JUMP JUMPDEST PUSH1 0x40 MLOAD DUP1 SWAP2 SUB SWAP1 REVERT JUMPDEST PUSH1 0x20 DUP5 ADD MLOAD SWAP3 POP PUSH1 0x40 DUP5 ADD MLOAD SWAP2 POP PUSH1 0x60 DUP5 ADD MLOAD PUSH1 0x0 BYTE SWAP1 POP SWAP2 SWAP4 SWAP1 SWAP3 POP JUMP JUMPDEST PUSH1 0x0 PUSH1 0x40 MLOAD SWAP1 POP SWAP1 JUMP JUMPDEST PUSH1 0x0 DUP1 REVERT JUMPDEST PUSH1 0x0 DUP1 REVERT JUMPDEST PUSH1 0x0 DUP2 SWAP1 POP SWAP2 SWAP1 POP JUMP JUMPDEST PUSH2 0x344 DUP2 PUSH2 0x331 JUMP JUMPDEST DUP2 EQ PUSH2 0x34F JUMPI PUSH1 0x0 DUP1 REVERT JUMPDEST POP JUMP JUMPDEST PUSH1 0x0 DUP2 CALLDATALOAD SWAP1 POP PUSH2 0x361 DUP2 PUSH2 0x33B JUMP JUMPDEST SWAP3 SWAP2 POP POP JUMP JUMPDEST PUSH1 0x0 DUP1 REVERT JUMPDEST PUSH1 0x0 DUP1 REVERT JUMPDEST PUSH1 0x0 PUSH1 0x1F NOT PUSH1 0x1F DUP4 ADD AND SWAP1 POP SWAP2 SWAP1 POP JUMP JUMPDEST PUSH32 0x4E487B7100000000000000000000000000000000000000000000000000000000 PUSH1 0x0 MSTORE PUSH1 0x41 PUSH1 0x4 MSTORE PUSH1 0x24 PUSH1 0x0 REVERT JUMPDEST PUSH2 0x3BA DUP3 PUSH2 0x371 JUMP JUMPDEST DUP2 ADD DUP2 DUP2 LT PUSH8 0xFFFFFFFFFFFFFFFF DUP3 GT OR ISZERO PUSH2 0x3D9 JUMPI PUSH2 0x3D8 PUSH2 0x382 JUMP JUMPDEST JUMPDEST DUP1 PUSH1 0x40 MSTORE POP POP POP JUMP JUMPDEST PUSH1 0x0 PUSH2 0x3EC PUSH2 0x31D JUMP JUMPDEST SWAP1 POP PUSH2 0x3F8 DUP3 DUP3 PUSH2 0x3B1 JUMP JUMPDEST SWAP2 SWAP1 POP JUMP JUMPDEST PUSH1 0x0 PUSH8 0xFFFFFFFFFFFFFFFF DUP3 GT ISZERO PUSH2 0x418 JUMPI PUSH2 0x417 PUSH2 0x382 JUMP JUMPDEST JUMPDEST PUSH2 0x421 DUP3 PUSH2 0x371 JUMP JUMPDEST SWAP1 POP PUSH1 0x20 DUP2 ADD SWAP1 POP SWAP2 SWAP1 POP JUMP JUMPDEST DUP3 DUP2 DUP4 CALLDATACOPY PUSH1 0x0 DUP4 DUP4 ADD MSTORE POP POP POP JUMP JUMPDEST PUSH1 0x0 PUSH2 0x450 PUSH2 0x44B DUP5 PUSH2 0x3FD JUMP JUMPDEST PUSH2 0x3E2 JUMP JUMPDEST SWAP1 POP DUP3 DUP2 MSTORE PUSH1 0x20 DUP2 ADD DUP5 DUP5 DUP5 ADD GT ISZERO PUSH2 0x46C JUMPI PUSH2 0x46B PUSH2 0x36C JUMP JUMPDEST JUMPDEST PUSH2 0x477 DUP5 DUP3 DUP6 PUSH2 0x42E JUMP JUMPDEST POP SWAP4 SWAP3 POP POP POP JUMP JUMPDEST PUSH1 0x0 DUP3 PUSH1 0x1F DUP4 ADD SLT PUSH2 0x494 JUMPI PUSH2 0x493 PUSH2 0x367 JUMP JUMPDEST JUMPDEST DUP2 CALLDATALOAD PUSH2 0x4A4 DUP5 DUP3 PUSH1 0x20 DUP7 ADD PUSH2 0x43D JUMP JUMPDEST SWAP2 POP POP SWAP3 SWAP2 POP POP JUMP JUMPDEST PUSH1 0x0 DUP1 PUSH1 0x40 DUP4 DUP6 SUB SLT ISZERO PUSH2 0x4C4 JUMPI PUSH2 0x4C3 PUSH2 0x327 JUMP JUMPDEST JUMPDEST PUSH1 0x0 PUSH2 0x4D2 DUP6 DUP3 DUP7 ADD PUSH2 0x352 JUMP JUMPDEST SWAP3 POP POP PUSH1 0x20 DUP4 ADD CALLDATALOAD PUSH8 0xFFFFFFFFFFFFFFFF DUP2 GT ISZERO PUSH2 0x4F3 JUMPI PUSH2 0x4F2 PUSH2 0x32C JUMP JUMPDEST JUMPDEST PUSH2 0x4FF DUP6 DUP3 DUP7 ADD PUSH2 0x47F JUMP JUMPDEST SWAP2 POP POP SWAP3 POP SWAP3 SWAP1 POP JUMP JUMPDEST PUSH1 0x0 PUSH20 0xFFFFFFFFFFFFFFFFFFFFFFFFFFFFFFFFFFFFFFFF DUP3 AND SWAP1 POP SWAP2 SWAP1 POP JUMP JUMPDEST PUSH1 0x0 PUSH2 0x534 DUP3 PUSH2 0x509 JUMP JUMPDEST SWAP1 POP SWAP2 SWAP1 POP JUMP JUMPDEST PUSH2 0x544 DUP2 PUSH2 0x529 JUMP JUMPDEST DUP3 MSTORE POP POP JUMP JUMPDEST PUSH1 0x0 PUSH1 0x20 DUP3 ADD SWAP1 POP PUSH2 0x55F PUSH1 0x0 DUP4 ADD DUP5 PUSH2 0x53B JUMP JUMPDEST SWAP3 SWAP2 POP POP JUMP JUMPDEST PUSH2 0x56E DUP2 PUSH2 0x529 JUMP JUMPDEST DUP2 EQ PUSH2 0x579 JUMPI PUSH1 0x0 DUP1 REVERT JUMPDEST POP JUMP JUMPDEST PUSH1 0x0 DUP2 CALLDATALOAD SWAP1 POP PUSH2 0x58B DUP2 PUSH2 0x565 JUMP JUMPDEST SWAP3 SWAP2 POP POP JUMP JUMPDEST PUSH1 0x0 PUSH8 0xFFFFFFFFFFFFFFFF DUP3 GT ISZERO PUSH2 0x5AC JUMPI PUSH2 0x5AB PUSH2 0x382 JUMP JUMPDEST JUMPDEST PUSH2 0x5B5 DUP3 PUSH2 0x371 JUMP JUMPDEST SWAP1 POP PUSH1 0x20 DUP2 ADD SWAP1 POP SWAP2 SWAP1 POP JUMP JUMPDEST PUSH1 0x0 PUSH2 0x5D5 PUSH2 0x5D0 DUP5 PUSH2 0x591 JUMP JUMPDEST PUSH2 0x3E2 JUMP JUMPDEST SWAP1 POP DUP3 DUP2 MSTORE PUSH1 0x20 DUP2 ADD DUP5 DUP5 DUP5 ADD GT ISZERO PUSH2 0x5F1 JUMPI PUSH2 0x5F0 PUSH2 0x36C JUMP JUMPDEST JUMPDEST PUSH2 0x5FC DUP5 DUP3 DUP6 PUSH2 0x42E JUMP JUMPDEST POP SWAP4 SWAP3 POP POP POP JUMP JUMPDEST PUSH1 0x0 DUP3 PUSH1 0x1F DUP4 ADD SLT PUSH2 0x619 JUMPI PUSH2 0x618 PUSH2 0x367 JUMP JUMPDEST JUMPDEST DUP2 CALLDATALOAD PUSH2 0x629 DUP5 DUP3 PUSH1 0x20 DUP7 ADD PUSH2 0x5C2 JUMP JUMPDEST SWAP2 POP POP SWAP3 SWAP2 POP POP JUMP JUMPDEST PUSH1 0x0 DUP1 PUSH1 0x0 PUSH1 0x60 DUP5 DUP7 SUB SLT ISZERO PUSH2 0x64B JUMPI PUSH2 0x64A PUSH2 0x327 JUMP JUMPDEST JUMPDEST PUSH1 0x0 PUSH2 0x659 DUP7 DUP3 DUP8 ADD PUSH2 0x57C JUMP JUMPDEST SWAP4 POP POP PUSH1 0x20 DUP5 ADD CALLDATALOAD PUSH8 0xFFFFFFFFFFFFFFFF DUP2 GT ISZERO PUSH2 0x67A JUMPI PUSH2 0x679 PUSH2 0x32C JUMP JUMPDEST JUMPDEST PUSH2 0x686 DUP7 DUP3 DUP8 ADD PUSH2 0x604 JUMP JUMPDEST SWAP3 POP POP PUSH1 0x40 DUP5 ADD CALLDATALOAD PUSH8 0xFFFFFFFFFFFFFFFF DUP2 GT ISZERO PUSH2 0x6A7 JUMPI PUSH2 0x6A6 PUSH2 0x32C JUMP JUMPDEST JUMPDEST PUSH2 0x6B3 DUP7 DUP3 DUP8 ADD PUSH2 0x47F JUMP JUMPDEST SWAP2 POP POP SWAP3 POP SWAP3 POP SWAP3 JUMP JUMPDEST PUSH1 0x0 DUP2 ISZERO ISZERO SWAP1 POP SWAP2 SWAP1 POP JUMP JUMPDEST PUSH2 0x6D2 DUP2 PUSH2 0x6BD JUMP JUMPDEST DUP3 MSTORE POP POP JUMP JUMPDEST PUSH1 0x0 PUSH1 0x20 DUP3 ADD SWAP1 POP PUSH2 0x6ED PUSH1 0x0 DUP4 ADD DUP5 PUSH2 0x6C9 JUMP JUMPDEST SWAP3 SWAP2 POP POP JUMP JUMPDEST PUSH1 0x0 PUSH1 0x20 DUP3 DUP5 SUB SLT ISZERO PUSH2 0x709 JUMPI PUSH2 0x708 PUSH2 0x327 JUMP JUMPDEST JUMPDEST PUSH1 0x0 DUP3 ADD CALLDATALOAD PUSH8 0xFFFFFFFFFFFFFFFF DUP2 GT ISZERO PUSH2 0x727 JUMPI PUSH2 0x726 PUSH2 0x32C JUMP JUMPDEST JUMPDEST PUSH2 0x733 DUP5 DUP3 DUP6 ADD PUSH2 0x604 JUMP JUMPDEST SWAP2 POP POP SWAP3 SWAP2 POP POP JUMP JUMPDEST PUSH1 0x0 DUP2 MLOAD SWAP1 POP SWAP2 SWAP1 POP JUMP JUMPDEST PUSH1 0x0 DUP3 DUP3 MSTORE PUSH1 0x20 DUP3 ADD SWAP1 POP SWAP3 SWAP2 POP POP JUMP JUMPDEST PUSH1 0x0 JUMPDEST DUP4 DUP2 LT ISZERO PUSH2 0x776 JUMPI DUP1 DUP3 ADD MLOAD DUP2 DUP5 ADD MSTORE PUSH1 0x20 DUP2 ADD SWAP1 POP PUSH2 0x75B JUMP JUMPDEST PUSH1 0x0 DUP5 DUP5 ADD MSTORE POP POP POP POP JUMP JUMPDEST PUSH1 0x0 PUSH2 0x78D DUP3 PUSH2 0x73C JUMP JUMPDEST PUSH2 0x797 DUP2 DUP6 PUSH2 0x747 JUMP JUMPDEST SWAP4 POP PUSH2 0x7A7 DUP2 DUP6 PUSH1 0x20 DUP7 ADD PUSH2 0x758 JUMP JUMPDEST PUSH2 0x7B0 DUP2 PUSH2 0x371 JUMP JUMPDEST DUP5 ADD SWAP2 POP POP SWAP3 SWAP2 POP POP JUMP JUMPDEST PUSH1 0x0 PUSH1 0x20 DUP3 ADD SWAP1 POP DUP2 DUP2 SUB PUSH1 0x0 DUP4 ADD MSTORE PUSH2 0x7D5 DUP2 DUP5 PUSH2 0x782 JUMP JUMPDEST SWAP1 POP SWAP3 SWAP2 POP POP JUMP JUMPDEST PUSH2 0x7E6 DUP2 PUSH2 0x331 JUMP JUMPDEST DUP3 MSTORE POP POP JUMP JUMPDEST PUSH1 0x0 PUSH1 0x20 DUP3 ADD SWAP1 POP PUSH2 0x801 PUSH1 0x0 DUP4 ADD DUP5 PUSH2 0x7DD JUMP JUMPDEST SWAP3 SWAP2 POP POP JUMP JUMPDEST PUSH1 0x0 PUSH1 0x20 DUP3 DUP5 SUB SLT ISZERO PUSH2 0x81D JUMPI PUSH2 0x81C PUSH2 0x327 JUMP JUMPDEST JUMPDEST PUSH1 0x0 PUSH2 0x82B DUP5 DUP3 DUP6 ADD PUSH2 0x352 JUMP JUMPDEST SWAP2 POP POP SWAP3 SWAP2 POP POP JUMP JUMPDEST PUSH1 0x0 PUSH1 0xFF DUP3 AND SWAP1 POP SWAP2 SWAP1 POP JUMP JUMPDEST PUSH2 0x84A DUP2 PUSH2 0x834 JUMP JUMPDEST DUP3 MSTORE POP POP JUMP JUMPDEST PUSH1 0x0 PUSH1 0x80 DUP3 ADD SWAP1 POP PUSH2 0x865 PUSH1 0x0 DUP4 ADD DUP8 PUSH2 0x7DD JUMP JUMPDEST PUSH2 0x872 PUSH1 0x20 DUP4 ADD DUP7 PUSH2 0x841 JUMP JUMPDEST PUSH2 0x87F PUSH1 0x40 DUP4 ADD DUP6 PUSH2 0x7DD JUMP JUMPDEST PUSH2 0x88C PUSH1 0x60 DUP4 ADD DUP5 PUSH2 0x7DD JUMP JUMPDEST SWAP6 SWAP5 POP POP POP POP POP JUMP JUMPDEST PUSH1 0x0 DUP2 SWAP1 POP SWAP3 SWAP2 POP POP JUMP JUMPDEST PUSH32 0x19457468657265756D205369676E6564204D6573736167653A0A333200000000 PUSH1 0x0 DUP3 ADD MSTORE POP JUMP JUMPDEST PUSH1 0x0 PUSH2 0x8D6 PUSH1 0x1C DUP4 PUSH2 0x895 JUMP JUMPDEST SWAP2 POP PUSH2 0x8E1 DUP3 PUSH2 0x8A0 JUMP JUMPDEST PUSH1 0x1C DUP3 ADD SWAP1 POP SWAP2 SWAP1 POP JUMP JUMPDEST PUSH1 0x0 DUP2 SWAP1 POP SWAP2 SWAP1 POP JUMP JUMPDEST PUSH2 0x907 PUSH2 0x902 DUP3 PUSH2 0x331 JUMP JUMPDEST PUSH2 0x8EC JUMP JUMPDEST DUP3 MSTORE POP POP JUMP JUMPDEST PUSH1 0x0 PUSH2 0x918 DUP3 PUSH2 0x8C9 JUMP JUMPDEST SWAP2 POP PUSH2 0x924 DUP3 DUP5 PUSH2 0x8F6 JUMP JUMPDEST PUSH1 0x20 DUP3 ADD SWAP2 POP DUP2 SWAP1 POP SWAP3 SWAP2 POP POP JUMP JUMPDEST PUSH1 0x0 DUP2 MLOAD SWAP1 POP SWAP2 SWAP1 POP JUMP JUMPDEST PUSH1 0x0 PUSH2 0x949 DUP3 PUSH2 0x933 JUMP JUMPDEST PUSH2 0x953 DUP2 DUP6 PUSH2 0x895 JUMP JUMPDEST SWAP4 POP PUSH2 0x963 DUP2 DUP6 PUSH1 0x20 DUP7 ADD PUSH2 0x758 JUMP JUMPDEST DUP1 DUP5 ADD SWAP2 POP POP SWAP3 SWAP2 POP POP JUMP JUMPDEST PUSH1 0x0 PUSH2 0x97B DUP3 DUP5 PUSH2 0x93E JUMP JUMPDEST SWAP2 POP DUP2 SWAP1 POP SWAP3 SWAP2 POP POP JUMP JUMPDEST PUSH1 0x0 DUP3 DUP3 MSTORE PUSH1 0x20 DUP3 ADD SWAP1 POP SWAP3 SWAP2 POP POP JUMP JUMPDEST PUSH32 0x696E76616C6964207369676E6174757265206C656E6774680000000000000000 PUSH1 0x0 DUP3 ADD MSTORE POP JUMP JUMPDEST PUSH1 0x0 PUSH2 0x9CD PUSH1 0x18 DUP4 PUSH2 0x986 JUMP JUMPDEST SWAP2 POP PUSH2 0x9D8 DUP3 PUSH2 0x997 JUMP JUMPDEST PUSH1 0x20 DUP3 ADD SWAP1 POP SWAP2 SWAP1 POP JUMP JUMPDEST PUSH1 0x0 PUSH1 0x20 DUP3 ADD SWAP1 POP DUP2 DUP2 SUB PUSH1 0x0 DUP4 ADD MSTORE PUSH2 0x9FC DUP2 PUSH2 0x9C0 JUMP JUMPDEST SWAP1 POP SWAP2 SWAP1 POP JUMP INVALID LOG2 PUSH5 0x6970667358 0x22 SLT KECCAK256 0xCE 0x2D 0x4B 0xC2 SLT ADDMOD PUSH21 0x16B00247E8BF563C7541D869CB7F12CB7480077F4C MSTORE CALLER 0xC6 PUSH6 0x64736F6C6343 STOP ADDMOD SLT STOP CALLER "
				},
				"gasEstimates": {
					"creation": {
						"codeDepositCost": "523400",
						"executionCost": "556",
						"totalCost": "523956"
					},
					"external": {
						"getMessageHash(string)": "infinite",
						"getSignedEncodePacked(string)": "infinite",
						"getSignedMessageHash(bytes32)": "infinite",
						"recover(bytes32,bytes)": "infinite",
						"verify(address,string,bytes)": "infinite"
					},
					"internal": {
						"splitSignature(bytes memory)": "infinite"
					}
				},
				"methodIdentifiers": {
					"getMessageHash(string)": "b446f3b2",
					"getSignedEncodePacked(string)": "519d4e60",
					"getSignedMessageHash(bytes32)": "e832d2d7",
					"recover(bytes32,bytes)": "19045a25",
					"verify(address,string,bytes)": "2dd34f0f"
				}
			},
			"storageLayout": {
				"storage": [],
				"types": null
			},
			"userdoc": {
				"kind": "user",
				"methods": {},
				"version": 1
			}
		}
	}
}