{
	"data": {
		"bytecode": {
			"linkReferences": {},
			"object": "608060405234801561001057600080fd5b50610cae806100206000396000f3fe608060405234801561001057600080fd5b50600436106100365760003560e01c80637049e0871461003b578063e5c5e9a31461006b575b600080fd5b6100556004803603810190610050919061027b565b61009e565b60405161006291906103af565b60405180910390f35b61008560048036038101906100809190610427565b6100d3565b6040516100959493929190610666565b60405180910390f35b606085858585856040516020016100b995949392919061083b565b604051602081830303815290604052905095945050505050565b60008060606100e0610108565b85858101906100ef9190610bd9565b8094508195508296508397505050505092959194509250565b604051806040016040528060608152602001610122610128565b81525090565b6040518060400160405280600290602082028036833780820191505090505090565b6000604051905090565b600080fd5b600080fd5b6000819050919050565b6101718161015e565b811461017c57600080fd5b50565b60008135905061018e81610168565b92915050565b600073ffffffffffffffffffffffffffffffffffffffff82169050919050565b60006101bf82610194565b9050919050565b6101cf816101b4565b81146101da57600080fd5b50565b6000813590506101ec816101c6565b92915050565b600080fd5b600080fd5b600080fd5b60008083601f840112610217576102166101f2565b5b8235905067ffffffffffffffff811115610234576102336101f7565b5b6020830191508360208202830111156102505761024f6101fc565b5b9250929050565b600080fd5b60006060828403121561027257610271610257565b5b81905092915050565b60008060008060006080868803121561029757610296610154565b5b60006102a58882890161017f565b95505060206102b6888289016101dd565b945050604086013567ffffffffffffffff8111156102d7576102d6610159565b5b6102e388828901610201565b9350935050606086013567ffffffffffffffff81111561030657610305610159565b5b6103128882890161025c565b9150509295509295909350565b600081519050919050565b600082825260208201905092915050565b60005b8381101561035957808201518184015260208101905061033e565b60008484015250505050565b6000601f19601f8301169050919050565b60006103818261031f565b61038b818561032a565b935061039b81856020860161033b565b6103a481610365565b840191505092915050565b600060208201905081810360008301526103c98184610376565b905092915050565b60008083601f8401126103e7576103e66101f2565b5b8235905067ffffffffffffffff811115610404576104036101f7565b5b6020830191508360018202830111156104205761041f6101fc565b5b9250929050565b6000806020838503121561043e5761043d610154565b5b600083013567ffffffffffffffff81111561045c5761045b610159565b5b610468858286016103d1565b92509250509250929050565b61047d8161015e565b82525050565b61048c816101b4565b82525050565b600081519050919050565b600082825260208201905092915050565b6000819050602082019050919050565b6104c78161015e565b82525050565b60006104d983836104be565b60208301905092915050565b6000602082019050919050565b60006104fd82610492565b610507818561049d565b9350610512836104ae565b8060005b8381101561054357815161052a88826104cd565b9750610535836104e5565b925050600181019050610516565b5085935050505092915050565b600081519050919050565b600082825260208201905092915050565b600061057782610550565b610581818561055b565b935061059181856020860161033b565b61059a81610365565b840191505092915050565b600060029050919050565b600081905092915050565b6000819050919050565b6000602082019050919050565b6105db816105a5565b6105e581846105b0565b92506105f0826105bb565b8060005b8381101561062157815161060887826104cd565b9650610613836105c5565b9250506001810190506105f4565b505050505050565b60006060830160008301518482036000860152610646828261056c565b915050602083015161065b60208601826105d2565b508091505092915050565b600060808201905061067b6000830187610474565b6106886020830186610483565b818103604083015261069a81856104f2565b905081810360608301526106ae8184610629565b905095945050505050565b600080fd5b82818337505050565b60006106d3838561049d565b93507f07ffffffffffffffffffffffffffffffffffffffffffffffffffffffffffffff831115610706576107056106b9565b5b6020830292506107178385846106be565b82840190509392505050565b600080fd5b600080fd5b600080fd5b6000808335600160200384360303811261074f5761074e61072d565b5b83810192508235915060208301925067ffffffffffffffff82111561077757610776610723565b5b60018202360383131561078d5761078c610728565b5b509250929050565b82818337600083830152505050565b60006107b0838561055b565b93506107bd838584610795565b6107c683610365565b840190509392505050565b600082905092915050565b6107e8604083836106be565b5050565b6000606083016107ff6000840184610732565b85830360008701526108128382846107a4565b9250505061082360208401846107d1565b61083060208601826107dc565b508091505092915050565b60006080820190506108506000830188610474565b61085d6020830187610483565b81810360408301526108708185876106c7565b9050818103606083015261088481846107ec565b90509695505050505050565b600061089b82610194565b9050919050565b6108ab81610890565b81146108b657600080fd5b50565b6000813590506108c8816108a2565b92915050565b7f4e487b7100000000000000000000000000000000000000000000000000000000600052604160045260246000fd5b61090682610365565b810181811067ffffffffffffffff82111715610925576109246108ce565b5b80604052505050565b600061093861014a565b905061094482826108fd565b919050565b600067ffffffffffffffff821115610964576109636108ce565b5b602082029050602081019050919050565b600061098861098384610949565b61092e565b905080838252602082019050602084028301858111156109ab576109aa6101fc565b5b835b818110156109d457806109c0888261017f565b8452602084019350506020810190506109ad565b5050509392505050565b600082601f8301126109f3576109f26101f2565b5b8135610a03848260208601610975565b91505092915050565b600080fd5b600080fd5b600080fd5b600067ffffffffffffffff821115610a3657610a356108ce565b5b610a3f82610365565b9050602081019050919050565b6000610a5f610a5a84610a1b565b61092e565b905082815260208101848484011115610a7b57610a7a610a16565b5b610a86848285610795565b509392505050565b600082601f830112610aa357610aa26101f2565b5b8135610ab3848260208601610a4c565b91505092915050565b600067ffffffffffffffff821115610ad757610ad66108ce565b5b602082029050919050565b6000610af5610af084610abc565b61092e565b90508060208402830185811115610b0f57610b0e6101fc565b5b835b81811015610b385780610b24888261017f565b845260208401935050602081019050610b11565b5050509392505050565b600082601f830112610b5757610b566101f2565b5b6002610b64848285610ae2565b91505092915050565b600060608284031215610b8357610b82610a0c565b5b610b8d604061092e565b9050600082013567ffffffffffffffff811115610bad57610bac610a11565b5b610bb984828501610a8e565b6000830152506020610bcd84828501610b42565b60208301525092915050565b60008060008060808587031215610bf357610bf2610154565b5b6000610c018782880161017f565b9450506020610c12878288016108b9565b935050604085013567ffffffffffffffff811115610c3357610c32610159565b5b610c3f878288016109de565b925050606085013567ffffffffffffffff811115610c6057610c5f610159565b5b610c6c87828801610b6d565b9150509295919450925056fea26469706673582212207dd0405070b8d3b6630175f95174bf662cccd79cfe535a20ad66a44a5d9c56b164736f6c63430008120033",
			"opcodes": "PUSH1 0x80 PUSH1 0x40 MSTORE CALLVALUE DUP1 ISZERO PUSH2 0x10 JUMPI PUSH1 0x0 DUP1 REVERT JUMPDEST POP PUSH2 0xCAE DUP1 PUSH2 0x20 PUSH1 0x0 CODECOPY PUSH1 0x0 RETURN INVALID PUSH1 0x80 PUSH1 0x40 MSTORE CALLVALUE DUP1 ISZERO PUSH2 0x10 JUMPI PUSH1 0x0 DUP1 REVERT JUMPDEST POP PUSH1 0x4 CALLDATASIZE LT PUSH2 0x36 JUMPI PUSH1 0x0 CALLDATALOAD PUSH1 0xE0 SHR DUP1 PUSH4 0x7049E087 EQ PUSH2 0x3B JUMPI DUP1 PUSH4 0xE5C5E9A3 EQ PUSH2 0x6B JUMPI JUMPDEST PUSH1 0x0 DUP1 REVERT JUMPDEST PUSH2 0x55 PUSH1 0x4 DUP1 CALLDATASIZE SUB DUP2 ADD SWAP1 PUSH2 0x50 SWAP2 SWAP1 PUSH2 0x27B JUMP JUMPDEST PUSH2 0x9E JUMP JUMPDEST PUSH1 0x40 MLOAD PUSH2 0x62 SWAP2 SWAP1 PUSH2 0x3AF JUMP JUMPDEST PUSH1 0x40 MLOAD DUP1 SWAP2 SUB SWAP1 RETURN JUMPDEST PUSH2 0x85 PUSH1 0x4 DUP1 CALLDATASIZE SUB DUP2 ADD SWAP1 PUSH2 0x80 SWAP2 SWAP1 PUSH2 0x427 JUMP JUMPDEST PUSH2 0xD3 JUMP JUMPDEST PUSH1 0x40 MLOAD PUSH2 0x95 SWAP5 SWAP4 SWAP3 SWAP2 SWAP1 PUSH2 0x666 JUMP JUMPDEST PUSH1 0x40 MLOAD DUP1 SWAP2 SUB SWAP1 RETURN JUMPDEST PUSH1 0x60 DUP6 DUP6 DUP6 DUP6 DUP6 PUSH1 0x40 MLOAD PUSH1 0x20 ADD PUSH2 0xB9 SWAP6 SWAP5 SWAP4 SWAP3 SWAP2 SWAP1 PUSH2 0x83B JUMP JUMPDEST PUSH1 0x40 MLOAD PUSH1 0x20 DUP2 DUP4 SUB SUB DUP2 MSTORE SWAP1 PUSH1 0x40 MSTORE SWAP1 POP SWAP6 SWAP5 POP POP POP POP POP JUMP JUMPDEST PUSH1 0x0 DUP1 PUSH1 0x60 PUSH2 0xE0 PUSH2 0x108 JUMP JUMPDEST DUP6 DUP6 DUP2 ADD SWAP1 PUSH2 0xEF SWAP2 SWAP1 PUSH2 0xBD9 JUMP JUMPDEST DUP1 SWAP5 POP DUP2 SWAP6 POP DUP3 SWAP7 POP DUP4 SWAP8 POP POP POP POP POP SWAP3 SWAP6 SWAP2 SWAP5 POP SWAP3 POP JUMP JUMPDEST PUSH1 0x40 MLOAD DUP1 PUSH1 0x40 ADD PUSH1 0x40 MSTORE DUP1 PUSH1 0x60 DUP2 MSTORE PUSH1 0x20 ADD PUSH2 0x122 PUSH2 0x128 JUMP JUMPDEST DUP2 MSTORE POP SWAP1 JUMP JUMPDEST PUSH1 0x40 MLOAD DUP1 PUSH1 0x40 ADD PUSH1 0x40 MSTORE DUP1 PUSH1 0x2 SWAP1 PUSH1 0x20 DUP3 MUL DUP1 CALLDATASIZE DUP4 CALLDATACOPY DUP1 DUP3 ADD SWAP2 POP POP SWAP1 POP POP SWAP1 JUMP JUMPDEST PUSH1 0x0 PUSH1 0x40 MLOAD SWAP1 POP SWAP1 JUMP JUMPDEST PUSH1 0x0 DUP1 REVERT JUMPDEST PUSH1 0x0 DUP1 REVERT JUMPDEST PUSH1 0x0 DUP2 SWAP1 POP SWAP2 SWAP1 POP JUMP JUMPDEST PUSH2 0x171 DUP2 PUSH2 0x15E JUMP JUMPDEST DUP2 EQ PUSH2 0x17C JUMPI PUSH1 0x0 DUP1 REVERT JUMPDEST POP JUMP JUMPDEST PUSH1 0x0 DUP2 CALLDATALOAD SWAP1 POP PUSH2 0x18E DUP2 PUSH2 0x168 JUMP JUMPDEST SWAP3 SWAP2 POP POP JUMP JUMPDEST PUSH1 0x0 PUSH20 0xFFFFFFFFFFFFFFFFFFFFFFFFFFFFFFFFFFFFFFFF DUP3 AND SWAP1 POP SWAP2 SWAP1 POP JUMP JUMPDEST PUSH1 0x0 PUSH2 0x1BF DUP3 PUSH2 0x194 JUMP JUMPDEST SWAP1 POP SWAP2 SWAP1 POP JUMP JUMPDEST PUSH2 0x1CF DUP2 PUSH2 0x1B4 JUMP JUMPDEST DUP2 EQ PUSH2 0x1DA JUMPI PUSH1 0x0 DUP1 REVERT JUMPDEST POP JUMP JUMPDEST PUSH1 0x0 DUP2 CALLDATALOAD SWAP1 POP PUSH2 0x1EC DUP2 PUSH2 0x1C6 JUMP JUMPDEST SWAP3 SWAP2 POP POP JUMP JUMPDEST PUSH1 0x0 DUP1 REVERT JUMPDEST PUSH1 0x0 DUP1 REVERT JUMPDEST PUSH1 0x0 DUP1 REVERT JUMPDEST PUSH1 0x0 DUP1 DUP4 PUSH1 0x1F DUP5 ADD SLT PUSH2 0x217 JUMPI PUSH2 0x216 PUSH2 0x1F2 JUMP JUMPDEST JUMPDEST DUP3 CALLDATALOAD SWAP1 POP PUSH8 0xFFFFFFFFFFFFFFFF DUP2 GT ISZERO PUSH2 0x234 JUMPI PUSH2 0x233 PUSH2 0x1F7 JUMP JUMPDEST JUMPDEST PUSH1 0x20 DUP4 ADD SWAP2 POP DUP4 PUSH1 0x20 DUP3 MUL DUP4 ADD GT ISZERO PUSH2 0x250 JUMPI PUSH2 0x24F PUSH2 0x1FC JUMP JUMPDEST JUMPDEST SWAP3 POP SWAP3 SWAP1 POP JUMP JUMPDEST PUSH1 0x0 DUP1 REVERT JUMPDEST PUSH1 0x0 PUSH1 0x60 DUP3 DUP5 SUB SLT ISZERO PUSH2 0x272 JUMPI PUSH2 0x271 PUSH2 0x257 JUMP JUMPDEST JUMPDEST DUP2 SWAP1 POP SWAP3 SWAP2 POP POP JUMP JUMPDEST PUSH1 0x0 DUP1 PUSH1 0x0 DUP1 PUSH1 0x0 PUSH1 0x80 DUP7 DUP9 SUB SLT ISZERO PUSH2 0x297 JUMPI PUSH2 0x296 PUSH2 0x154 JUMP JUMPDEST JUMPDEST PUSH1 0x0 PUSH2 0x2A5 DUP9 DUP3 DUP10 ADD PUSH2 0x17F JUMP JUMPDEST SWAP6 POP POP PUSH1 0x20 PUSH2 0x2B6 DUP9 DUP3 DUP10 ADD PUSH2 0x1DD JUMP JUMPDEST SWAP5 POP POP PUSH1 0x40 DUP7 ADD CALLDATALOAD PUSH8 0xFFFFFFFFFFFFFFFF DUP2 GT ISZERO PUSH2 0x2D7 JUMPI PUSH2 0x2D6 PUSH2 0x159 JUMP JUMPDEST JUMPDEST PUSH2 0x2E3 DUP9 DUP3 DUP10 ADD PUSH2 0x201 JUMP JUMPDEST SWAP4 POP SWAP4 POP POP PUSH1 0x60 DUP7 ADD CALLDATALOAD PUSH8 0xFFFFFFFFFFFFFFFF DUP2 GT ISZERO PUSH2 0x306 JUMPI PUSH2 0x305 PUSH2 0x159 JUMP JUMPDEST JUMPDEST PUSH2 0x312 DUP9 DUP3 DUP10 ADD PUSH2 0x25C JUMP JUMPDEST SWAP2 POP POP SWAP3 SWAP6 POP SWAP3 SWAP6 SWAP1 SWAP4 POP JUMP JUMPDEST PUSH1 0x0 DUP2 MLOAD SWAP1 POP SWAP2 SWAP1 POP JUMP JUMPDEST PUSH1 0x0 DUP3 DUP3 MSTORE PUSH1 0x20 DUP3 ADD SWAP1 POP SWAP3 SWAP2 POP POP JUMP JUMPDEST PUSH1 0x0 JUMPDEST DUP4 DUP2 LT ISZERO PUSH2 0x359 JUMPI DUP1 DUP3 ADD MLOAD DUP2 DUP5 ADD MSTORE PUSH1 0x20 DUP2 ADD SWAP1 POP PUSH2 0x33E JUMP JUMPDEST PUSH1 0x0 DUP5 DUP5 ADD MSTORE POP POP POP POP JUMP JUMPDEST PUSH1 0x0 PUSH1 0x1F NOT PUSH1 0x1F DUP4 ADD AND SWAP1 POP SWAP2 SWAP1 POP JUMP JUMPDEST PUSH1 0x0 PUSH2 0x381 DUP3 PUSH2 0x31F JUMP JUMPDEST PUSH2 0x38B DUP2 DUP6 PUSH2 0x32A JUMP JUMPDEST SWAP4 POP PUSH2 0x39B DUP2 DUP6 PUSH1 0x20 DUP7 ADD PUSH2 0x33B JUMP JUMPDEST PUSH2 0x3A4 DUP2 PUSH2 0x365 JUMP JUMPDEST DUP5 ADD SWAP2 POP POP SWAP3 SWAP2 POP POP JUMP JUMPDEST PUSH1 0x0 PUSH1 0x20 DUP3 ADD SWAP1 POP DUP2 DUP2 SUB PUSH1 0x0 DUP4 ADD MSTORE PUSH2 0x3C9 DUP2 DUP5 PUSH2 0x376 JUMP JUMPDEST SWAP1 POP SWAP3 SWAP2 POP POP JUMP JUMPDEST PUSH1 0x0 DUP1 DUP4 PUSH1 0x1F DUP5 ADD SLT PUSH2 0x3E7 JUMPI PUSH2 0x3E6 PUSH2 0x1F2 JUMP JUMPDEST JUMPDEST DUP3 CALLDATALOAD SWAP1 POP PUSH8 0xFFFFFFFFFFFFFFFF DUP2 GT ISZERO PUSH2 0x404 JUMPI PUSH2 0x403 PUSH2 0x1F7 JUMP JUMPDEST JUMPDEST PUSH1 0x20 DUP4 ADD SWAP2 POP DUP4 PUSH1 0x1 DUP3 MUL DUP4 ADD GT ISZERO PUSH2 0x420 JUMPI PUSH2 0x41F PUSH2 0x1FC JUMP JUMPDEST JUMPDEST SWAP3 POP SWAP3 SWAP1 POP JUMP JUMPDEST PUSH1 0x0 DUP1 PUSH1 0x20 DUP4 DUP6 SUB SLT ISZERO PUSH2 0x43E JUMPI PUSH2 0x43D PUSH2 0x154 JUMP JUMPDEST JUMPDEST PUSH1 0x0 DUP4 ADD CALLDATALOAD PUSH8 0xFFFFFFFFFFFFFFFF DUP2 GT ISZERO PUSH2 0x45C JUMPI PUSH2 0x45B PUSH2 0x159 JUMP JUMPDEST JUMPDEST PUSH2 0x468 DUP6 DUP3 DUP7 ADD PUSH2 0x3D1 JUMP JUMPDEST SWAP3 POP SWAP3 POP POP SWAP3 POP SWAP3 SWAP1 POP JUMP JUMPDEST PUSH2 0x47D DUP2 PUSH2 0x15E JUMP JUMPDEST DUP3 MSTORE POP POP JUMP JUMPDEST PUSH2 0x48C DUP2 PUSH2 0x1B4 JUMP JUMPDEST DUP3 MSTORE POP POP JUMP JUMPDEST PUSH1 0x0 DUP2 MLOAD SWAP1 POP SWAP2 SWAP1 POP JUMP JUMPDEST PUSH1 0x0 DUP3 DUP3 MSTORE PUSH1 0x20 DUP3 ADD SWAP1 POP SWAP3 SWAP2 POP POP JUMP JUMPDEST PUSH1 0x0 DUP2 SWAP1 POP PUSH1 0x20 DUP3 ADD SWAP1 POP SWAP2 SWAP1 POP JUMP JUMPDEST PUSH2 0x4C7 DUP2 PUSH2 0x15E JUMP JUMPDEST DUP3 MSTORE POP POP JUMP JUMPDEST PUSH1 0x0 PUSH2 0x4D9 DUP4 DUP4 PUSH2 0x4BE JUMP JUMPDEST PUSH1 0x20 DUP4 ADD SWAP1 POP SWAP3 SWAP2 POP POP JUMP JUMPDEST PUSH1 0x0 PUSH1 0x20 DUP3 ADD SWAP1 POP SWAP2 SWAP1 POP JUMP JUMPDEST PUSH1 0x0 PUSH2 0x4FD DUP3 PUSH2 0x492 JUMP JUMPDEST PUSH2 0x507 DUP2 DUP6 PUSH2 0x49D JUMP JUMPDEST SWAP4 POP PUSH2 0x512 DUP4 PUSH2 0x4AE JUMP JUMPDEST DUP1 PUSH1 0x0 JUMPDEST DUP4 DUP2 LT ISZERO PUSH2 0x543 JUMPI DUP2 MLOAD PUSH2 0x52A DUP9 DUP3 PUSH2 0x4CD JUMP JUMPDEST SWAP8 POP PUSH2 0x535 DUP4 PUSH2 0x4E5 JUMP JUMPDEST SWAP3 POP POP PUSH1 0x1 DUP2 ADD SWAP1 POP PUSH2 0x516 JUMP JUMPDEST POP DUP6 SWAP4 POP POP POP POP SWAP3 SWAP2 POP POP JUMP JUMPDEST PUSH1 0x0 DUP2 MLOAD SWAP1 POP SWAP2 SWAP1 POP JUMP JUMPDEST PUSH1 0x0 DUP3 DUP3 MSTORE PUSH1 0x20 DUP3 ADD SWAP1 POP SWAP3 SWAP2 POP POP JUMP JUMPDEST PUSH1 0x0 PUSH2 0x577 DUP3 PUSH2 0x550 JUMP JUMPDEST PUSH2 0x581 DUP2 DUP6 PUSH2 0x55B JUMP JUMPDEST SWAP4 POP PUSH2 0x591 DUP2 DUP6 PUSH1 0x20 DUP7 ADD PUSH2 0x33B JUMP JUMPDEST PUSH2 0x59A DUP2 PUSH2 0x365 JUMP JUMPDEST DUP5 ADD SWAP2 POP POP SWAP3 SWAP2 POP POP JUMP JUMPDEST PUSH1 0x0 PUSH1 0x2 SWAP1 POP SWAP2 SWAP1 POP JUMP JUMPDEST PUSH1 0x0 DUP2 SWAP1 POP SWAP3 SWAP2 POP POP JUMP JUMPDEST PUSH1 0x0 DUP2 SWAP1 POP SWAP2 SWAP1 POP JUMP JUMPDEST PUSH1 0x0 PUSH1 0x20 DUP3 ADD SWAP1 POP SWAP2 SWAP1 POP JUMP JUMPDEST PUSH2 0x5DB DUP2 PUSH2 0x5A5 JUMP JUMPDEST PUSH2 0x5E5 DUP2 DUP5 PUSH2 0x5B0 JUMP JUMPDEST SWAP3 POP PUSH2 0x5F0 DUP3 PUSH2 0x5BB JUMP JUMPDEST DUP1 PUSH1 0x0 JUMPDEST DUP4 DUP2 LT ISZERO PUSH2 0x621 JUMPI DUP2 MLOAD PUSH2 0x608 DUP8 DUP3 PUSH2 0x4CD JUMP JUMPDEST SWAP7 POP PUSH2 0x613 DUP4 PUSH2 0x5C5 JUMP JUMPDEST SWAP3 POP POP PUSH1 0x1 DUP2 ADD SWAP1 POP PUSH2 0x5F4 JUMP JUMPDEST POP POP POP POP POP POP JUMP JUMPDEST PUSH1 0x0 PUSH1 0x60 DUP4 ADD PUSH1 0x0 DUP4 ADD MLOAD DUP5 DUP3 SUB PUSH1 0x0 DUP7 ADD MSTORE PUSH2 0x646 DUP3 DUP3 PUSH2 0x56C JUMP JUMPDEST SWAP2 POP POP PUSH1 0x20 DUP4 ADD MLOAD PUSH2 0x65B PUSH1 0x20 DUP7 ADD DUP3 PUSH2 0x5D2 JUMP JUMPDEST POP DUP1 SWAP2 POP POP SWAP3 SWAP2 POP POP JUMP JUMPDEST PUSH1 0x0 PUSH1 0x80 DUP3 ADD SWAP1 POP PUSH2 0x67B PUSH1 0x0 DUP4 ADD DUP8 PUSH2 0x474 JUMP JUMPDEST PUSH2 0x688 PUSH1 0x20 DUP4 ADD DUP7 PUSH2 0x483 JUMP JUMPDEST DUP2 DUP2 SUB PUSH1 0x40 DUP4 ADD MSTORE PUSH2 0x69A DUP2 DUP6 PUSH2 0x4F2 JUMP JUMPDEST SWAP1 POP DUP2 DUP2 SUB PUSH1 0x60 DUP4 ADD MSTORE PUSH2 0x6AE DUP2 DUP5 PUSH2 0x629 JUMP JUMPDEST SWAP1 POP SWAP6 SWAP5 POP POP POP POP POP JUMP JUMPDEST PUSH1 0x0 DUP1 REVERT JUMPDEST DUP3 DUP2 DUP4 CALLDATACOPY POP POP POP JUMP JUMPDEST PUSH1 0x0 PUSH2 0x6D3 DUP4 DUP6 PUSH2 0x49D JUMP JUMPDEST SWAP4 POP PUSH32 0x7FFFFFFFFFFFFFFFFFFFFFFFFFFFFFFFFFFFFFFFFFFFFFFFFFFFFFFFFFFFFFF DUP4 GT ISZERO PUSH2 0x706 JUMPI PUSH2 0x705 PUSH2 0x6B9 JUMP JUMPDEST JUMPDEST PUSH1 0x20 DUP4 MUL SWAP3 POP PUSH2 0x717 DUP4 DUP6 DUP5 PUSH2 0x6BE JUMP JUMPDEST DUP3 DUP5 ADD SWAP1 POP SWAP4 SWAP3 POP POP POP JUMP JUMPDEST PUSH1 0x0 DUP1 REVERT JUMPDEST PUSH1 0x0 DUP1 REVERT JUMPDEST PUSH1 0x0 DUP1 REVERT JUMPDEST PUSH1 0x0 DUP1 DUP4 CALLDATALOAD PUSH1 0x1 PUSH1 0x20 SUB DUP5 CALLDATASIZE SUB SUB DUP2 SLT PUSH2 0x74F JUMPI PUSH2 0x74E PUSH2 0x72D JUMP JUMPDEST JUMPDEST DUP4 DUP2 ADD SWAP3 POP DUP3 CALLDATALOAD SWAP2 POP PUSH1 0x20 DUP4 ADD SWAP3 POP PUSH8 0xFFFFFFFFFFFFFFFF DUP3 GT ISZERO PUSH2 0x777 JUMPI PUSH2 0x776 PUSH2 0x723 JUMP JUMPDEST JUMPDEST PUSH1 0x1 DUP3 MUL CALLDATASIZE SUB DUP4 SGT ISZERO PUSH2 0x78D JUMPI PUSH2 0x78C PUSH2 0x728 JUMP JUMPDEST JUMPDEST POP SWAP3 POP SWAP3 SWAP1 POP JUMP JUMPDEST DUP3 DUP2 DUP4 CALLDATACOPY PUSH1 0x0 DUP4 DUP4 ADD MSTORE POP POP POP JUMP JUMPDEST PUSH1 0x0 PUSH2 0x7B0 DUP4 DUP6 PUSH2 0x55B JUMP JUMPDEST SWAP4 POP PUSH2 0x7BD DUP4 DUP6 DUP5 PUSH2 0x795 JUMP JUMPDEST PUSH2 0x7C6 DUP4 PUSH2 0x365 JUMP JUMPDEST DUP5 ADD SWAP1 POP SWAP4 SWAP3 POP POP POP JUMP JUMPDEST PUSH1 0x0 DUP3 SWAP1 POP SWAP3 SWAP2 POP POP JUMP JUMPDEST PUSH2 0x7E8 PUSH1 0x40 DUP4 DUP4 PUSH2 0x6BE JUMP JUMPDEST POP POP JUMP JUMPDEST PUSH1 0x0 PUSH1 0x60 DUP4 ADD PUSH2 0x7FF PUSH1 0x0 DUP5 ADD DUP5 PUSH2 0x732 JUMP JUMPDEST DUP6 DUP4 SUB PUSH1 0x0 DUP8 ADD MSTORE PUSH2 0x812 DUP4 DUP3 DUP5 PUSH2 0x7A4 JUMP JUMPDEST SWAP3 POP POP POP PUSH2 0x823 PUSH1 0x20 DUP5 ADD DUP5 PUSH2 0x7D1 JUMP JUMPDEST PUSH2 0x830 PUSH1 0x20 DUP7 ADD DUP3 PUSH2 0x7DC JUMP JUMPDEST POP DUP1 SWAP2 POP POP SWAP3 SWAP2 POP POP JUMP JUMPDEST PUSH1 0x0 PUSH1 0x80 DUP3 ADD SWAP1 POP PUSH2 0x850 PUSH1 0x0 DUP4 ADD DUP9 PUSH2 0x474 JUMP JUMPDEST PUSH2 0x85D PUSH1 0x20 DUP4 ADD DUP8 PUSH2 0x483 JUMP JUMPDEST DUP2 DUP2 SUB PUSH1 0x40 DUP4 ADD MSTORE PUSH2 0x870 DUP2 DUP6 DUP8 PUSH2 0x6C7 JUMP JUMPDEST SWAP1 POP DUP2 DUP2 SUB PUSH1 0x60 DUP4 ADD MSTORE PUSH2 0x884 DUP2 DUP5 PUSH2 0x7EC JUMP JUMPDEST SWAP1 POP SWAP7 SWAP6 POP POP POP POP POP POP JUMP JUMPDEST PUSH1 0x0 PUSH2 0x89B DUP3 PUSH2 0x194 JUMP JUMPDEST SWAP1 POP SWAP2 SWAP1 POP JUMP JUMPDEST PUSH2 0x8AB DUP2 PUSH2 0x890 JUMP JUMPDEST DUP2 EQ PUSH2 0x8B6 JUMPI PUSH1 0x0 DUP1 REVERT JUMPDEST POP JUMP JUMPDEST PUSH1 0x0 DUP2 CALLDATALOAD SWAP1 POP PUSH2 0x8C8 DUP2 PUSH2 0x8A2 JUMP JUMPDEST SWAP3 SWAP2 POP POP JUMP JUMPDEST PUSH32 0x4E487B7100000000000000000000000000000000000000000000000000000000 PUSH1 0x0 MSTORE PUSH1 0x41 PUSH1 0x4 MSTORE PUSH1 0x24 PUSH1 0x0 REVERT JUMPDEST PUSH2 0x906 DUP3 PUSH2 0x365 JUMP JUMPDEST DUP2 ADD DUP2 DUP2 LT PUSH8 0xFFFFFFFFFFFFFFFF DUP3 GT OR ISZERO PUSH2 0x925 JUMPI PUSH2 0x924 PUSH2 0x8CE JUMP JUMPDEST JUMPDEST DUP1 PUSH1 0x40 MSTORE POP POP POP JUMP JUMPDEST PUSH1 0x0 PUSH2 0x938 PUSH2 0x14A JUMP JUMPDEST SWAP1 POP PUSH2 0x944 DUP3 DUP3 PUSH2 0x8FD JUMP JUMPDEST SWAP2 SWAP1 POP JUMP JUMPDEST PUSH1 0x0 PUSH8 0xFFFFFFFFFFFFFFFF DUP3 GT ISZERO PUSH2 0x964 JUMPI PUSH2 0x963 PUSH2 0x8CE JUMP JUMPDEST JUMPDEST PUSH1 0x20 DUP3 MUL SWAP1 POP PUSH1 0x20 DUP2 ADD SWAP1 POP SWAP2 SWAP1 POP JUMP JUMPDEST PUSH1 0x0 PUSH2 0x988 PUSH2 0x983 DUP5 PUSH2 0x949 JUMP JUMPDEST PUSH2 0x92E JUMP JUMPDEST SWAP1 POP DUP1 DUP4 DUP3 MSTORE PUSH1 0x20 DUP3 ADD SWAP1 POP PUSH1 0x20 DUP5 MUL DUP4 ADD DUP6 DUP2 GT ISZERO PUSH2 0x9AB JUMPI PUSH2 0x9AA PUSH2 0x1FC JUMP JUMPDEST JUMPDEST DUP4 JUMPDEST DUP2 DUP2 LT ISZERO PUSH2 0x9D4 JUMPI DUP1 PUSH2 0x9C0 DUP9 DUP3 PUSH2 0x17F JUMP JUMPDEST DUP5 MSTORE PUSH1 0x20 DUP5 ADD SWAP4 POP POP PUSH1 0x20 DUP2 ADD SWAP1 POP PUSH2 0x9AD JUMP JUMPDEST POP POP POP SWAP4 SWAP3 POP POP POP JUMP JUMPDEST PUSH1 0x0 DUP3 PUSH1 0x1F DUP4 ADD SLT PUSH2 0x9F3 JUMPI PUSH2 0x9F2 PUSH2 0x1F2 JUMP JUMPDEST JUMPDEST DUP2 CALLDATALOAD PUSH2 0xA03 DUP5 DUP3 PUSH1 0x20 DUP7 ADD PUSH2 0x975 JUMP JUMPDEST SWAP2 POP POP SWAP3 SWAP2 POP POP JUMP JUMPDEST PUSH1 0x0 DUP1 REVERT JUMPDEST PUSH1 0x0 DUP1 REVERT JUMPDEST PUSH1 0x0 DUP1 REVERT JUMPDEST PUSH1 0x0 PUSH8 0xFFFFFFFFFFFFFFFF DUP3 GT ISZERO PUSH2 0xA36 JUMPI PUSH2 0xA35 PUSH2 0x8CE JUMP JUMPDEST JUMPDEST PUSH2 0xA3F DUP3 PUSH2 0x365 JUMP JUMPDEST SWAP1 POP PUSH1 0x20 DUP2 ADD SWAP1 POP SWAP2 SWAP1 POP JUMP JUMPDEST PUSH1 0x0 PUSH2 0xA5F PUSH2 0xA5A DUP5 PUSH2 0xA1B JUMP JUMPDEST PUSH2 0x92E JUMP JUMPDEST SWAP1 POP DUP3 DUP2 MSTORE PUSH1 0x20 DUP2 ADD DUP5 DUP5 DUP5 ADD GT ISZERO PUSH2 0xA7B JUMPI PUSH2 0xA7A PUSH2 0xA16 JUMP JUMPDEST JUMPDEST PUSH2 0xA86 DUP5 DUP3 DUP6 PUSH2 0x795 JUMP JUMPDEST POP SWAP4 SWAP3 POP POP POP JUMP JUMPDEST PUSH1 0x0 DUP3 PUSH1 0x1F DUP4 ADD SLT PUSH2 0xAA3 JUMPI PUSH2 0xAA2 PUSH2 0x1F2 JUMP JUMPDEST JUMPDEST DUP2 CALLDATALOAD PUSH2 0xAB3 DUP5 DUP3 PUSH1 0x20 DUP7 ADD PUSH2 0xA4C JUMP JUMPDEST SWAP2 POP POP SWAP3 SWAP2 POP POP JUMP JUMPDEST PUSH1 0x0 PUSH8 0xFFFFFFFFFFFFFFFF DUP3 GT ISZERO PUSH2 0xAD7 JUMPI PUSH2 0xAD6 PUSH2 0x8CE JUMP JUMPDEST JUMPDEST PUSH1 0x20 DUP3 MUL SWAP1 POP SWAP2 SWAP1 POP JUMP JUMPDEST PUSH1 0x0 PUSH2 0xAF5 PUSH2 0xAF0 DUP5 PUSH2 0xABC JUMP JUMPDEST PUSH2 0x92E JUMP JUMPDEST SWAP1 POP DUP1 PUSH1 0x20 DUP5 MUL DUP4 ADD DUP6 DUP2 GT ISZERO PUSH2 0xB0F JUMPI PUSH2 0xB0E PUSH2 0x1FC JUMP JUMPDEST JUMPDEST DUP4 JUMPDEST DUP2 DUP2 LT ISZERO PUSH2 0xB38 JUMPI DUP1 PUSH2 0xB24 DUP9 DUP3 PUSH2 0x17F JUMP JUMPDEST DUP5 MSTORE PUSH1 0x20 DUP5 ADD SWAP4 POP POP PUSH1 0x20 DUP2 ADD SWAP1 POP PUSH2 0xB11 JUMP JUMPDEST POP POP POP SWAP4 SWAP3 POP POP POP JUMP JUMPDEST PUSH1 0x0 DUP3 PUSH1 0x1F DUP4 ADD SLT PUSH2 0xB57 JUMPI PUSH2 0xB56 PUSH2 0x1F2 JUMP JUMPDEST JUMPDEST PUSH1 0x2 PUSH2 0xB64 DUP5 DUP3 DUP6 PUSH2 0xAE2 JUMP JUMPDEST SWAP2 POP POP SWAP3 SWAP2 POP POP JUMP JUMPDEST PUSH1 0x0 PUSH1 0x60 DUP3 DUP5 SUB SLT ISZERO PUSH2 0xB83 JUMPI PUSH2 0xB82 PUSH2 0xA0C JUMP JUMPDEST JUMPDEST PUSH2 0xB8D PUSH1 0x40 PUSH2 0x92E JUMP JUMPDEST SWAP1 POP PUSH1 0x0 DUP3 ADD CALLDATALOAD PUSH8 0xFFFFFFFFFFFFFFFF DUP2 GT ISZERO PUSH2 0xBAD JUMPI PUSH2 0xBAC PUSH2 0xA11 JUMP JUMPDEST JUMPDEST PUSH2 0xBB9 DUP5 DUP3 DUP6 ADD PUSH2 0xA8E JUMP JUMPDEST PUSH1 0x0 DUP4 ADD MSTORE POP PUSH1 0x20 PUSH2 0xBCD DUP5 DUP3 DUP6 ADD PUSH2 0xB42 JUMP JUMPDEST PUSH1 0x20 DUP4 ADD MSTORE POP SWAP3 SWAP2 POP POP JUMP JUMPDEST PUSH1 0x0 DUP1 PUSH1 0x0 DUP1 PUSH1 0x80 DUP6 DUP8 SUB SLT ISZERO PUSH2 0xBF3 JUMPI PUSH2 0xBF2 PUSH2 0x154 JUMP JUMPDEST JUMPDEST PUSH1 0x0 PUSH2 0xC01 DUP8 DUP3 DUP9 ADD PUSH2 0x17F JUMP JUMPDEST SWAP5 POP POP PUSH1 0x20 PUSH2 0xC12 DUP8 DUP3 DUP9 ADD PUSH2 0x8B9 JUMP JUMPDEST SWAP4 POP POP PUSH1 0x40 DUP6 ADD CALLDATALOAD PUSH8 0xFFFFFFFFFFFFFFFF DUP2 GT ISZERO PUSH2 0xC33 JUMPI PUSH2 0xC32 PUSH2 0x159 JUMP JUMPDEST JUMPDEST PUSH2 0xC3F DUP8 DUP3 DUP9 ADD PUSH2 0x9DE JUMP JUMPDEST SWAP3 POP POP PUSH1 0x60 DUP6 ADD CALLDATALOAD PUSH8 0xFFFFFFFFFFFFFFFF DUP2 GT ISZERO PUSH2 0xC60 JUMPI PUSH2 0xC5F PUSH2 0x159 JUMP JUMPDEST JUMPDEST PUSH2 0xC6C DUP8 DUP3 DUP9 ADD PUSH2 0xB6D JUMP JUMPDEST SWAP2 POP POP SWAP3 SWAP6 SWAP2 SWAP5 POP SWAP3 POP JUMP INVALID LOG2 PUSH5 0x6970667358 0x22 SLT KECCAK256 PUSH30 0xD0405070B8D3B6630175F95174BF662CCCD79CFE535A20AD66A44A5D9C56 0xB1 PUSH5 0x736F6C6343 STOP ADDMOD SLT STOP CALLER "
		},
		"gasEstimates": {
			"creation": {
				"codeDepositCost": "649200",
				"executionCost": "683",
				"totalCost": "649883"
			},
			"external": {
				"decode(bytes)": "infinite",
				"encode(uint256,address,uint256[],(string,uint256[2]))": "infinite"
			}
		},
		"methodIdentifiers": {
			"decode(bytes)": "e5c5e9a3",
			"encode(uint256,address,uint256[],(string,uint256[2]))": "7049e087"
		}
	},
	"abi": [
		{
			"inputs": [
				{
					"internalType": "bytes",
					"name": "data",
					"type": "bytes"
				}
			],
			"name": "decode",
			"outputs": [
				{
					"internalType": "uint256",
					"name": "x",
					"type": "uint256"
				},
				{
					"internalType": "address",
					"name": "addr",
					"type": "address"
				},
				{
					"internalType": "uint256[]",
					"name": "arr",
					"type": "uint256[]"
				},
				{
					"components": [
						{
							"internalType": "string",
							"name": "symbol",
							"type": "string"
						},
						{
							"internalType": "uint256[2]",
							"name": "sidePrice",
							"type": "uint256[2]"
						}
					],
					"internalType": "struct EncodeAndDecode.Price",
					"name": "p",
					"type": "tuple"
				}
			],
			"stateMutability": "pure",
			"type": "function"
		},
		{
			"inputs": [
				{
					"internalType": "uint256",
					"name": "x",
					"type": "uint256"
				},
				{
					"internalType": "address",
					"name": "addr",
					"type": "address"
				},
				{
					"internalType": "uint256[]",
					"name": "arr",
					"type": "uint256[]"
				},
				{
					"components": [
						{
							"internalType": "string",
							"name": "symbol",
							"type": "string"
						},
						{
							"internalType": "uint256[2]",
							"name": "sidePrice",
							"type": "uint256[2]"
						}
					],
					"internalType": "struct EncodeAndDecode.Price",
					"name": "p",
					"type": "tuple"
				}
			],
			"name": "encode",
			"outputs": [
				{
					"internalType": "bytes",
					"name": "",
					"type": "bytes"
				}
			],
			"stateMutability": "pure",
			"type": "function"
		}
	]
}