{
	"data": {
		"bytecode": {
			"linkReferences": {},
			"object": "608060405234801561000f575f80fd5b506108038061001d5f395ff3fe608060405234801561000f575f80fd5b5060043610610055575f3560e01c806317fe2da2146100595780631bfd420f1461008957806335704580146100b95780635dda416e146100e9578063892e5d0114610119575b5f80fd5b610073600480360381019061006e9190610362565b610149565b6040516100809190610452565b60405180910390f35b6100a3600480360381019061009e9190610472565b610175565b6040516100b091906104d1565b60405180910390f35b6100d360048036038101906100ce9190610472565b6101a4565b6040516100e09190610524565b60405180910390f35b61010360048036038101906100fe91906105ca565b6101b4565b60405161011091906104d1565b60405180910390f35b610133600480360381019061012e9190610362565b6101e9565b6040516101409190610452565b60405180910390f35b6060828260405160200161015e929190610688565b604051602081830303815290604052905092915050565b5f8160405160200161018791906106f7565b604051602081830303815290604052805190602001209050919050565b5f81805190602001209050919050565b5f8383836040516020016101ca93929190610772565b6040516020818303038152906040528051906020012090509392505050565b606082826040516020016101fe9291906107aa565b604051602081830303815290604052905092915050565b5f604051905090565b5f80fd5b5f80fd5b5f80fd5b5f80fd5b5f601f19601f8301169050919050565b7f4e487b71000000000000000000000000000000000000000000000000000000005f52604160045260245ffd5b6102748261022e565b810181811067ffffffffffffffff821117156102935761029261023e565b5b80604052505050565b5f6102a5610215565b90506102b1828261026b565b919050565b5f67ffffffffffffffff8211156102d0576102cf61023e565b5b6102d98261022e565b9050602081019050919050565b828183375f83830152505050565b5f610306610301846102b6565b61029c565b9050828152602081018484840111156103225761032161022a565b5b61032d8482856102e6565b509392505050565b5f82601f83011261034957610348610226565b5b81356103598482602086016102f4565b91505092915050565b5f80604083850312156103785761037761021e565b5b5f83013567ffffffffffffffff81111561039557610394610222565b5b6103a185828601610335565b925050602083013567ffffffffffffffff8111156103c2576103c1610222565b5b6103ce85828601610335565b9150509250929050565b5f81519050919050565b5f82825260208201905092915050565b5f5b8381101561040f5780820151818401526020810190506103f4565b5f8484015250505050565b5f610424826103d8565b61042e81856103e2565b935061043e8185602086016103f2565b6104478161022e565b840191505092915050565b5f6020820190508181035f83015261046a818461041a565b905092915050565b5f602082840312156104875761048661021e565b5b5f82013567ffffffffffffffff8111156104a4576104a3610222565b5b6104b084828501610335565b91505092915050565b5f819050919050565b6104cb816104b9565b82525050565b5f6020820190506104e45f8301846104c2565b92915050565b5f7fffffffff0000000000000000000000000000000000000000000000000000000082169050919050565b61051e816104ea565b82525050565b5f6020820190506105375f830184610515565b92915050565b5f819050919050565b61054f8161053d565b8114610559575f80fd5b50565b5f8135905061056a81610546565b92915050565b5f73ffffffffffffffffffffffffffffffffffffffff82169050919050565b5f61059982610570565b9050919050565b6105a98161058f565b81146105b3575f80fd5b50565b5f813590506105c4816105a0565b92915050565b5f805f606084860312156105e1576105e061021e565b5b5f84013567ffffffffffffffff8111156105fe576105fd610222565b5b61060a86828701610335565b935050602061061b8682870161055c565b925050604061062c868287016105b6565b9150509250925092565b5f81519050919050565b5f82825260208201905092915050565b5f61065a82610636565b6106648185610640565b93506106748185602086016103f2565b61067d8161022e565b840191505092915050565b5f6040820190508181035f8301526106a08185610650565b905081810360208301526106b48184610650565b90509392505050565b5f81905092915050565b5f6106d182610636565b6106db81856106bd565b93506106eb8185602086016103f2565b80840191505092915050565b5f61070282846106c7565b915081905092915050565b5f819050919050565b6107276107228261053d565b61070d565b82525050565b5f8160601b9050919050565b5f6107438261072d565b9050919050565b5f61075482610739565b9050919050565b61076c6107678261058f565b61074a565b82525050565b5f61077d82866106c7565b91506107898285610716565b602082019150610799828461075b565b601482019150819050949350505050565b5f6107b582856106c7565b91506107c182846106c7565b9150819050939250505056fea26469706673582212207bd9500737574a4f9498e3746225eae7f6674e52fa8009dfd4df21b38fa8666464736f6c63430008160033",
			"opcodes": "PUSH1 0x80 PUSH1 0x40 MSTORE CALLVALUE DUP1 ISZERO PUSH2 0xF JUMPI PUSH0 DUP1 REVERT JUMPDEST POP PUSH2 0x803 DUP1 PUSH2 0x1D PUSH0 CODECOPY PUSH0 RETURN INVALID PUSH1 0x80 PUSH1 0x40 MSTORE CALLVALUE DUP1 ISZERO PUSH2 0xF JUMPI PUSH0 DUP1 REVERT JUMPDEST POP PUSH1 0x4 CALLDATASIZE LT PUSH2 0x55 JUMPI PUSH0 CALLDATALOAD PUSH1 0xE0 SHR DUP1 PUSH4 0x17FE2DA2 EQ PUSH2 0x59 JUMPI DUP1 PUSH4 0x1BFD420F EQ PUSH2 0x89 JUMPI DUP1 PUSH4 0x35704580 EQ PUSH2 0xB9 JUMPI DUP1 PUSH4 0x5DDA416E EQ PUSH2 0xE9 JUMPI DUP1 PUSH4 0x892E5D01 EQ PUSH2 0x119 JUMPI JUMPDEST PUSH0 DUP1 REVERT JUMPDEST PUSH2 0x73 PUSH1 0x4 DUP1 CALLDATASIZE SUB DUP2 ADD SWAP1 PUSH2 0x6E SWAP2 SWAP1 PUSH2 0x362 JUMP JUMPDEST PUSH2 0x149 JUMP JUMPDEST PUSH1 0x40 MLOAD PUSH2 0x80 SWAP2 SWAP1 PUSH2 0x452 JUMP JUMPDEST PUSH1 0x40 MLOAD DUP1 SWAP2 SUB SWAP1 RETURN JUMPDEST PUSH2 0xA3 PUSH1 0x4 DUP1 CALLDATASIZE SUB DUP2 ADD SWAP1 PUSH2 0x9E SWAP2 SWAP1 PUSH2 0x472 JUMP JUMPDEST PUSH2 0x175 JUMP JUMPDEST PUSH1 0x40 MLOAD PUSH2 0xB0 SWAP2 SWAP1 PUSH2 0x4D1 JUMP JUMPDEST PUSH1 0x40 MLOAD DUP1 SWAP2 SUB SWAP1 RETURN JUMPDEST PUSH2 0xD3 PUSH1 0x4 DUP1 CALLDATASIZE SUB DUP2 ADD SWAP1 PUSH2 0xCE SWAP2 SWAP1 PUSH2 0x472 JUMP JUMPDEST PUSH2 0x1A4 JUMP JUMPDEST PUSH1 0x40 MLOAD PUSH2 0xE0 SWAP2 SWAP1 PUSH2 0x524 JUMP JUMPDEST PUSH1 0x40 MLOAD DUP1 SWAP2 SUB SWAP1 RETURN JUMPDEST PUSH2 0x103 PUSH1 0x4 DUP1 CALLDATASIZE SUB DUP2 ADD SWAP1 PUSH2 0xFE SWAP2 SWAP1 PUSH2 0x5CA JUMP JUMPDEST PUSH2 0x1B4 JUMP JUMPDEST PUSH1 0x40 MLOAD PUSH2 0x110 SWAP2 SWAP1 PUSH2 0x4D1 JUMP JUMPDEST PUSH1 0x40 MLOAD DUP1 SWAP2 SUB SWAP1 RETURN JUMPDEST PUSH2 0x133 PUSH1 0x4 DUP1 CALLDATASIZE SUB DUP2 ADD SWAP1 PUSH2 0x12E SWAP2 SWAP1 PUSH2 0x362 JUMP JUMPDEST PUSH2 0x1E9 JUMP JUMPDEST PUSH1 0x40 MLOAD PUSH2 0x140 SWAP2 SWAP1 PUSH2 0x452 JUMP JUMPDEST PUSH1 0x40 MLOAD DUP1 SWAP2 SUB SWAP1 RETURN JUMPDEST PUSH1 0x60 DUP3 DUP3 PUSH1 0x40 MLOAD PUSH1 0x20 ADD PUSH2 0x15E SWAP3 SWAP2 SWAP1 PUSH2 0x688 JUMP JUMPDEST PUSH1 0x40 MLOAD PUSH1 0x20 DUP2 DUP4 SUB SUB DUP2 MSTORE SWAP1 PUSH1 0x40 MSTORE SWAP1 POP SWAP3 SWAP2 POP POP JUMP JUMPDEST PUSH0 DUP2 PUSH1 0x40 MLOAD PUSH1 0x20 ADD PUSH2 0x187 SWAP2 SWAP1 PUSH2 0x6F7 JUMP JUMPDEST PUSH1 0x40 MLOAD PUSH1 0x20 DUP2 DUP4 SUB SUB DUP2 MSTORE SWAP1 PUSH1 0x40 MSTORE DUP1 MLOAD SWAP1 PUSH1 0x20 ADD KECCAK256 SWAP1 POP SWAP2 SWAP1 POP JUMP JUMPDEST PUSH0 DUP2 DUP1 MLOAD SWAP1 PUSH1 0x20 ADD KECCAK256 SWAP1 POP SWAP2 SWAP1 POP JUMP JUMPDEST PUSH0 DUP4 DUP4 DUP4 PUSH1 0x40 MLOAD PUSH1 0x20 ADD PUSH2 0x1CA SWAP4 SWAP3 SWAP2 SWAP1 PUSH2 0x772 JUMP JUMPDEST PUSH1 0x40 MLOAD PUSH1 0x20 DUP2 DUP4 SUB SUB DUP2 MSTORE SWAP1 PUSH1 0x40 MSTORE DUP1 MLOAD SWAP1 PUSH1 0x20 ADD KECCAK256 SWAP1 POP SWAP4 SWAP3 POP POP POP JUMP JUMPDEST PUSH1 0x60 DUP3 DUP3 PUSH1 0x40 MLOAD PUSH1 0x20 ADD PUSH2 0x1FE SWAP3 SWAP2 SWAP1 PUSH2 0x7AA JUMP JUMPDEST PUSH1 0x40 MLOAD PUSH1 0x20 DUP2 DUP4 SUB SUB DUP2 MSTORE SWAP1 PUSH1 0x40 MSTORE SWAP1 POP SWAP3 SWAP2 POP POP JUMP JUMPDEST PUSH0 PUSH1 0x40 MLOAD SWAP1 POP SWAP1 JUMP JUMPDEST PUSH0 DUP1 REVERT JUMPDEST PUSH0 DUP1 REVERT JUMPDEST PUSH0 DUP1 REVERT JUMPDEST PUSH0 DUP1 REVERT JUMPDEST PUSH0 PUSH1 0x1F NOT PUSH1 0x1F DUP4 ADD AND SWAP1 POP SWAP2 SWAP1 POP JUMP JUMPDEST PUSH32 0x4E487B7100000000000000000000000000000000000000000000000000000000 PUSH0 MSTORE PUSH1 0x41 PUSH1 0x4 MSTORE PUSH1 0x24 PUSH0 REVERT JUMPDEST PUSH2 0x274 DUP3 PUSH2 0x22E JUMP JUMPDEST DUP2 ADD DUP2 DUP2 LT PUSH8 0xFFFFFFFFFFFFFFFF DUP3 GT OR ISZERO PUSH2 0x293 JUMPI PUSH2 0x292 PUSH2 0x23E JUMP JUMPDEST JUMPDEST DUP1 PUSH1 0x40 MSTORE POP POP POP JUMP JUMPDEST PUSH0 PUSH2 0x2A5 PUSH2 0x215 JUMP JUMPDEST SWAP1 POP PUSH2 0x2B1 DUP3 DUP3 PUSH2 0x26B JUMP JUMPDEST SWAP2 SWAP1 POP JUMP JUMPDEST PUSH0 PUSH8 0xFFFFFFFFFFFFFFFF DUP3 GT ISZERO PUSH2 0x2D0 JUMPI PUSH2 0x2CF PUSH2 0x23E JUMP JUMPDEST JUMPDEST PUSH2 0x2D9 DUP3 PUSH2 0x22E JUMP JUMPDEST SWAP1 POP PUSH1 0x20 DUP2 ADD SWAP1 POP SWAP2 SWAP1 POP JUMP JUMPDEST DUP3 DUP2 DUP4 CALLDATACOPY PUSH0 DUP4 DUP4 ADD MSTORE POP POP POP JUMP JUMPDEST PUSH0 PUSH2 0x306 PUSH2 0x301 DUP5 PUSH2 0x2B6 JUMP JUMPDEST PUSH2 0x29C JUMP JUMPDEST SWAP1 POP DUP3 DUP2 MSTORE PUSH1 0x20 DUP2 ADD DUP5 DUP5 DUP5 ADD GT ISZERO PUSH2 0x322 JUMPI PUSH2 0x321 PUSH2 0x22A JUMP JUMPDEST JUMPDEST PUSH2 0x32D DUP5 DUP3 DUP6 PUSH2 0x2E6 JUMP JUMPDEST POP SWAP4 SWAP3 POP POP POP JUMP JUMPDEST PUSH0 DUP3 PUSH1 0x1F DUP4 ADD SLT PUSH2 0x349 JUMPI PUSH2 0x348 PUSH2 0x226 JUMP JUMPDEST JUMPDEST DUP2 CALLDATALOAD PUSH2 0x359 DUP5 DUP3 PUSH1 0x20 DUP7 ADD PUSH2 0x2F4 JUMP JUMPDEST SWAP2 POP POP SWAP3 SWAP2 POP POP JUMP JUMPDEST PUSH0 DUP1 PUSH1 0x40 DUP4 DUP6 SUB SLT ISZERO PUSH2 0x378 JUMPI PUSH2 0x377 PUSH2 0x21E JUMP JUMPDEST JUMPDEST PUSH0 DUP4 ADD CALLDATALOAD PUSH8 0xFFFFFFFFFFFFFFFF DUP2 GT ISZERO PUSH2 0x395 JUMPI PUSH2 0x394 PUSH2 0x222 JUMP JUMPDEST JUMPDEST PUSH2 0x3A1 DUP6 DUP3 DUP7 ADD PUSH2 0x335 JUMP JUMPDEST SWAP3 POP POP PUSH1 0x20 DUP4 ADD CALLDATALOAD PUSH8 0xFFFFFFFFFFFFFFFF DUP2 GT ISZERO PUSH2 0x3C2 JUMPI PUSH2 0x3C1 PUSH2 0x222 JUMP JUMPDEST JUMPDEST PUSH2 0x3CE DUP6 DUP3 DUP7 ADD PUSH2 0x335 JUMP JUMPDEST SWAP2 POP POP SWAP3 POP SWAP3 SWAP1 POP JUMP JUMPDEST PUSH0 DUP2 MLOAD SWAP1 POP SWAP2 SWAP1 POP JUMP JUMPDEST PUSH0 DUP3 DUP3 MSTORE PUSH1 0x20 DUP3 ADD SWAP1 POP SWAP3 SWAP2 POP POP JUMP JUMPDEST PUSH0 JUMPDEST DUP4 DUP2 LT ISZERO PUSH2 0x40F JUMPI DUP1 DUP3 ADD MLOAD DUP2 DUP5 ADD MSTORE PUSH1 0x20 DUP2 ADD SWAP1 POP PUSH2 0x3F4 JUMP JUMPDEST PUSH0 DUP5 DUP5 ADD MSTORE POP POP POP POP JUMP JUMPDEST PUSH0 PUSH2 0x424 DUP3 PUSH2 0x3D8 JUMP JUMPDEST PUSH2 0x42E DUP2 DUP6 PUSH2 0x3E2 JUMP JUMPDEST SWAP4 POP PUSH2 0x43E DUP2 DUP6 PUSH1 0x20 DUP7 ADD PUSH2 0x3F2 JUMP JUMPDEST PUSH2 0x447 DUP2 PUSH2 0x22E JUMP JUMPDEST DUP5 ADD SWAP2 POP POP SWAP3 SWAP2 POP POP JUMP JUMPDEST PUSH0 PUSH1 0x20 DUP3 ADD SWAP1 POP DUP2 DUP2 SUB PUSH0 DUP4 ADD MSTORE PUSH2 0x46A DUP2 DUP5 PUSH2 0x41A JUMP JUMPDEST SWAP1 POP SWAP3 SWAP2 POP POP JUMP JUMPDEST PUSH0 PUSH1 0x20 DUP3 DUP5 SUB SLT ISZERO PUSH2 0x487 JUMPI PUSH2 0x486 PUSH2 0x21E JUMP JUMPDEST JUMPDEST PUSH0 DUP3 ADD CALLDATALOAD PUSH8 0xFFFFFFFFFFFFFFFF DUP2 GT ISZERO PUSH2 0x4A4 JUMPI PUSH2 0x4A3 PUSH2 0x222 JUMP JUMPDEST JUMPDEST PUSH2 0x4B0 DUP5 DUP3 DUP6 ADD PUSH2 0x335 JUMP JUMPDEST SWAP2 POP POP SWAP3 SWAP2 POP POP JUMP JUMPDEST PUSH0 DUP2 SWAP1 POP SWAP2 SWAP1 POP JUMP JUMPDEST PUSH2 0x4CB DUP2 PUSH2 0x4B9 JUMP JUMPDEST DUP3 MSTORE POP POP JUMP JUMPDEST PUSH0 PUSH1 0x20 DUP3 ADD SWAP1 POP PUSH2 0x4E4 PUSH0 DUP4 ADD DUP5 PUSH2 0x4C2 JUMP JUMPDEST SWAP3 SWAP2 POP POP JUMP JUMPDEST PUSH0 PUSH32 0xFFFFFFFF00000000000000000000000000000000000000000000000000000000 DUP3 AND SWAP1 POP SWAP2 SWAP1 POP JUMP JUMPDEST PUSH2 0x51E DUP2 PUSH2 0x4EA JUMP JUMPDEST DUP3 MSTORE POP POP JUMP JUMPDEST PUSH0 PUSH1 0x20 DUP3 ADD SWAP1 POP PUSH2 0x537 PUSH0 DUP4 ADD DUP5 PUSH2 0x515 JUMP JUMPDEST SWAP3 SWAP2 POP POP JUMP JUMPDEST PUSH0 DUP2 SWAP1 POP SWAP2 SWAP1 POP JUMP JUMPDEST PUSH2 0x54F DUP2 PUSH2 0x53D JUMP JUMPDEST DUP2 EQ PUSH2 0x559 JUMPI PUSH0 DUP1 REVERT JUMPDEST POP JUMP JUMPDEST PUSH0 DUP2 CALLDATALOAD SWAP1 POP PUSH2 0x56A DUP2 PUSH2 0x546 JUMP JUMPDEST SWAP3 SWAP2 POP POP JUMP JUMPDEST PUSH0 PUSH20 0xFFFFFFFFFFFFFFFFFFFFFFFFFFFFFFFFFFFFFFFF DUP3 AND SWAP1 POP SWAP2 SWAP1 POP JUMP JUMPDEST PUSH0 PUSH2 0x599 DUP3 PUSH2 0x570 JUMP JUMPDEST SWAP1 POP SWAP2 SWAP1 POP JUMP JUMPDEST PUSH2 0x5A9 DUP2 PUSH2 0x58F JUMP JUMPDEST DUP2 EQ PUSH2 0x5B3 JUMPI PUSH0 DUP1 REVERT JUMPDEST POP JUMP JUMPDEST PUSH0 DUP2 CALLDATALOAD SWAP1 POP PUSH2 0x5C4 DUP2 PUSH2 0x5A0 JUMP JUMPDEST SWAP3 SWAP2 POP POP JUMP JUMPDEST PUSH0 DUP1 PUSH0 PUSH1 0x60 DUP5 DUP7 SUB SLT ISZERO PUSH2 0x5E1 JUMPI PUSH2 0x5E0 PUSH2 0x21E JUMP JUMPDEST JUMPDEST PUSH0 DUP5 ADD CALLDATALOAD PUSH8 0xFFFFFFFFFFFFFFFF DUP2 GT ISZERO PUSH2 0x5FE JUMPI PUSH2 0x5FD PUSH2 0x222 JUMP JUMPDEST JUMPDEST PUSH2 0x60A DUP7 DUP3 DUP8 ADD PUSH2 0x335 JUMP JUMPDEST SWAP4 POP POP PUSH1 0x20 PUSH2 0x61B DUP7 DUP3 DUP8 ADD PUSH2 0x55C JUMP JUMPDEST SWAP3 POP POP PUSH1 0x40 PUSH2 0x62C DUP7 DUP3 DUP8 ADD PUSH2 0x5B6 JUMP JUMPDEST SWAP2 POP POP SWAP3 POP SWAP3 POP SWAP3 JUMP JUMPDEST PUSH0 DUP2 MLOAD SWAP1 POP SWAP2 SWAP1 POP JUMP JUMPDEST PUSH0 DUP3 DUP3 MSTORE PUSH1 0x20 DUP3 ADD SWAP1 POP SWAP3 SWAP2 POP POP JUMP JUMPDEST PUSH0 PUSH2 0x65A DUP3 PUSH2 0x636 JUMP JUMPDEST PUSH2 0x664 DUP2 DUP6 PUSH2 0x640 JUMP JUMPDEST SWAP4 POP PUSH2 0x674 DUP2 DUP6 PUSH1 0x20 DUP7 ADD PUSH2 0x3F2 JUMP JUMPDEST PUSH2 0x67D DUP2 PUSH2 0x22E JUMP JUMPDEST DUP5 ADD SWAP2 POP POP SWAP3 SWAP2 POP POP JUMP JUMPDEST PUSH0 PUSH1 0x40 DUP3 ADD SWAP1 POP DUP2 DUP2 SUB PUSH0 DUP4 ADD MSTORE PUSH2 0x6A0 DUP2 DUP6 PUSH2 0x650 JUMP JUMPDEST SWAP1 POP DUP2 DUP2 SUB PUSH1 0x20 DUP4 ADD MSTORE PUSH2 0x6B4 DUP2 DUP5 PUSH2 0x650 JUMP JUMPDEST SWAP1 POP SWAP4 SWAP3 POP POP POP JUMP JUMPDEST PUSH0 DUP2 SWAP1 POP SWAP3 SWAP2 POP POP JUMP JUMPDEST PUSH0 PUSH2 0x6D1 DUP3 PUSH2 0x636 JUMP JUMPDEST PUSH2 0x6DB DUP2 DUP6 PUSH2 0x6BD JUMP JUMPDEST SWAP4 POP PUSH2 0x6EB DUP2 DUP6 PUSH1 0x20 DUP7 ADD PUSH2 0x3F2 JUMP JUMPDEST DUP1 DUP5 ADD SWAP2 POP POP SWAP3 SWAP2 POP POP JUMP JUMPDEST PUSH0 PUSH2 0x702 DUP3 DUP5 PUSH2 0x6C7 JUMP JUMPDEST SWAP2 POP DUP2 SWAP1 POP SWAP3 SWAP2 POP POP JUMP JUMPDEST PUSH0 DUP2 SWAP1 POP SWAP2 SWAP1 POP JUMP JUMPDEST PUSH2 0x727 PUSH2 0x722 DUP3 PUSH2 0x53D JUMP JUMPDEST PUSH2 0x70D JUMP JUMPDEST DUP3 MSTORE POP POP JUMP JUMPDEST PUSH0 DUP2 PUSH1 0x60 SHL SWAP1 POP SWAP2 SWAP1 POP JUMP JUMPDEST PUSH0 PUSH2 0x743 DUP3 PUSH2 0x72D JUMP JUMPDEST SWAP1 POP SWAP2 SWAP1 POP JUMP JUMPDEST PUSH0 PUSH2 0x754 DUP3 PUSH2 0x739 JUMP JUMPDEST SWAP1 POP SWAP2 SWAP1 POP JUMP JUMPDEST PUSH2 0x76C PUSH2 0x767 DUP3 PUSH2 0x58F JUMP JUMPDEST PUSH2 0x74A JUMP JUMPDEST DUP3 MSTORE POP POP JUMP JUMPDEST PUSH0 PUSH2 0x77D DUP3 DUP7 PUSH2 0x6C7 JUMP JUMPDEST SWAP2 POP PUSH2 0x789 DUP3 DUP6 PUSH2 0x716 JUMP JUMPDEST PUSH1 0x20 DUP3 ADD SWAP2 POP PUSH2 0x799 DUP3 DUP5 PUSH2 0x75B JUMP JUMPDEST PUSH1 0x14 DUP3 ADD SWAP2 POP DUP2 SWAP1 POP SWAP5 SWAP4 POP POP POP POP JUMP JUMPDEST PUSH0 PUSH2 0x7B5 DUP3 DUP6 PUSH2 0x6C7 JUMP JUMPDEST SWAP2 POP PUSH2 0x7C1 DUP3 DUP5 PUSH2 0x6C7 JUMP JUMPDEST SWAP2 POP DUP2 SWAP1 POP SWAP4 SWAP3 POP POP POP JUMP INVALID LOG2 PUSH5 0x6970667358 0x22 SLT KECCAK256 PUSH28 0xD9500737574A4F9498E3746225EAE7F6674E52FA8009DFD4DF21B38F 0xA8 PUSH7 0x6464736F6C6343 STOP ADDMOD AND STOP CALLER "
		},
		"gasEstimates": {
			"creation": {
				"codeDepositCost": "410200",
				"executionCost": "447",
				"totalCost": "410647"
			},
			"external": {
				"encode(string,string)": "infinite",
				"encodePacked(string,string)": "infinite",
				"hash(string,uint256,address)": "infinite",
				"methodSelector(string)": "infinite",
				"methodSignature(string)": "infinite"
			}
		},
		"methodIdentifiers": {
			"encode(string,string)": "17fe2da2",
			"encodePacked(string,string)": "892e5d01",
			"hash(string,uint256,address)": "5dda416e",
			"methodSelector(string)": "35704580",
			"methodSignature(string)": "1bfd420f"
		}
	},
	"abi": [
		{
			"inputs": [
				{
					"internalType": "string",
					"name": "_text1",
					"type": "string"
				},
				{
					"internalType": "string",
					"name": "_text2",
					"type": "string"
				}
			],
			"name": "encode",
			"outputs": [
				{
					"internalType": "bytes",
					"name": "",
					"type": "bytes"
				}
			],
			"stateMutability": "pure",
			"type": "function"
		},
		{
			"inputs": [
				{
					"internalType": "string",
					"name": "_text1",
					"type": "string"
				},
				{
					"internalType": "string",
					"name": "_text2",
					"type": "string"
				}
			],
			"name": "encodePacked",
			"outputs": [
				{
					"internalType": "bytes",
					"name": "",
					"type": "bytes"
				}
			],
			"stateMutability": "pure",
			"type": "function"
		},
		{
			"inputs": [
				{
					"internalType": "string",
					"name": "_text",
					"type": "string"
				},
				{
					"internalType": "uint256",
					"name": "_num",
					"type": "uint256"
				},
				{
					"internalType": "address",
					"name": "_addr",
					"type": "address"
				}
			],
			"name": "hash",
			"outputs": [
				{
					"internalType": "bytes32",
					"name": "",
					"type": "bytes32"
				}
			],
			"stateMutability": "pure",
			"type": "function"
		},
		{
			"inputs": [
				{
					"internalType": "string",
					"name": "_func",
					"type": "string"
				}
			],
			"name": "methodSelector",
			"outputs": [
				{
					"internalType": "bytes4",
					"name": "",
					"type": "bytes4"
				}
			],
			"stateMutability": "pure",
			"type": "function"
		},
		{
			"inputs": [
				{
					"internalType": "string",
					"name": "func",
					"type": "string"
				}
			],
			"name": "methodSignature",
			"outputs": [
				{
					"internalType": "bytes32",
					"name": "",
					"type": "bytes32"
				}
			],
			"stateMutability": "pure",
			"type": "function"
		}
	]
}