{
	"data": {
		"bytecode": {
			"linkReferences": {},
			"object": "608060405234801561001057600080fd5b5061045a806100206000396000f3fe6080604052600436106100435760003560e01c806312065fe01461005c5780631865c57d1461008757806319ded53a146100b25780634d2301cc146100ce57610052565b366100525761005061010b565b005b61005a61010b565b005b34801561006857600080fd5b5061007161019c565b60405161007e919061025c565b60405180910390f35b34801561009357600080fd5b5061009c6101a4565b6040516100a9919061025c565b60405180910390f35b6100cc60048036038101906100c791906102a8565b6101ad565b005b3480156100da57600080fd5b506100f560048036038101906100f09190610333565b6101fa565b604051610102919061025c565b60405180910390f35b34600160003373ffffffffffffffffffffffffffffffffffffffff1673ffffffffffffffffffffffffffffffffffffffff168152602001908152602001600020600082825461015a919061038f565b925050819055507f5a0205dc1ab3e05b4e31995f673c114abe791cfb56ea1bdbf13b1472fdca41c433346040516101929291906103d2565b60405180910390a1565b600047905090565b60008054905090565b8060008190555060003411156101f7577fbd0faddf87043dd749c1b9d4dca8a12589b8cb5e2106832111ce23f219b14367345a6040516101ee9291906103fb565b60405180910390a15b50565b6000600160008373ffffffffffffffffffffffffffffffffffffffff1673ffffffffffffffffffffffffffffffffffffffff168152602001908152602001600020549050919050565b6000819050919050565b61025681610243565b82525050565b6000602082019050610271600083018461024d565b92915050565b600080fd5b61028581610243565b811461029057600080fd5b50565b6000813590506102a28161027c565b92915050565b6000602082840312156102be576102bd610277565b5b60006102cc84828501610293565b91505092915050565b600073ffffffffffffffffffffffffffffffffffffffff82169050919050565b6000610300826102d5565b9050919050565b610310816102f5565b811461031b57600080fd5b50565b60008135905061032d81610307565b92915050565b60006020828403121561034957610348610277565b5b60006103578482850161031e565b91505092915050565b7f4e487b7100000000000000000000000000000000000000000000000000000000600052601160045260246000fd5b600061039a82610243565b91506103a583610243565b92508282019050808211156103bd576103bc610360565b5b92915050565b6103cc816102f5565b82525050565b60006040820190506103e760008301856103c3565b6103f4602083018461024d565b9392505050565b6000604082019050610410600083018561024d565b61041d602083018461024d565b939250505056fea2646970667358221220298df5a2dbb32fff4f2db6fa963e6260bb2c5fe9ceaab482404ed43f930a452f64736f6c63430008120033",
			"opcodes": "PUSH1 0x80 PUSH1 0x40 MSTORE CALLVALUE DUP1 ISZERO PUSH2 0x10 JUMPI PUSH1 0x0 DUP1 REVERT JUMPDEST POP PUSH2 0x45A DUP1 PUSH2 0x20 PUSH1 0x0 CODECOPY PUSH1 0x0 RETURN INVALID PUSH1 0x80 PUSH1 0x40 MSTORE PUSH1 0x4 CALLDATASIZE LT PUSH2 0x43 JUMPI PUSH1 0x0 CALLDATALOAD PUSH1 0xE0 SHR DUP1 PUSH4 0x12065FE0 EQ PUSH2 0x5C JUMPI DUP1 PUSH4 0x1865C57D EQ PUSH2 0x87 JUMPI DUP1 PUSH4 0x19DED53A EQ PUSH2 0xB2 JUMPI DUP1 PUSH4 0x4D2301CC EQ PUSH2 0xCE JUMPI PUSH2 0x52 JUMP JUMPDEST CALLDATASIZE PUSH2 0x52 JUMPI PUSH2 0x50 PUSH2 0x10B JUMP JUMPDEST STOP JUMPDEST PUSH2 0x5A PUSH2 0x10B JUMP JUMPDEST STOP JUMPDEST CALLVALUE DUP1 ISZERO PUSH2 0x68 JUMPI PUSH1 0x0 DUP1 REVERT JUMPDEST POP PUSH2 0x71 PUSH2 0x19C JUMP JUMPDEST PUSH1 0x40 MLOAD PUSH2 0x7E SWAP2 SWAP1 PUSH2 0x25C JUMP JUMPDEST PUSH1 0x40 MLOAD DUP1 SWAP2 SUB SWAP1 RETURN JUMPDEST CALLVALUE DUP1 ISZERO PUSH2 0x93 JUMPI PUSH1 0x0 DUP1 REVERT JUMPDEST POP PUSH2 0x9C PUSH2 0x1A4 JUMP JUMPDEST PUSH1 0x40 MLOAD PUSH2 0xA9 SWAP2 SWAP1 PUSH2 0x25C JUMP JUMPDEST PUSH1 0x40 MLOAD DUP1 SWAP2 SUB SWAP1 RETURN JUMPDEST PUSH2 0xCC PUSH1 0x4 DUP1 CALLDATASIZE SUB DUP2 ADD SWAP1 PUSH2 0xC7 SWAP2 SWAP1 PUSH2 0x2A8 JUMP JUMPDEST PUSH2 0x1AD JUMP JUMPDEST STOP JUMPDEST CALLVALUE DUP1 ISZERO PUSH2 0xDA JUMPI PUSH1 0x0 DUP1 REVERT JUMPDEST POP PUSH2 0xF5 PUSH1 0x4 DUP1 CALLDATASIZE SUB DUP2 ADD SWAP1 PUSH2 0xF0 SWAP2 SWAP1 PUSH2 0x333 JUMP JUMPDEST PUSH2 0x1FA JUMP JUMPDEST PUSH1 0x40 MLOAD PUSH2 0x102 SWAP2 SWAP1 PUSH2 0x25C JUMP JUMPDEST PUSH1 0x40 MLOAD DUP1 SWAP2 SUB SWAP1 RETURN JUMPDEST CALLVALUE PUSH1 0x1 PUSH1 0x0 CALLER PUSH20 0xFFFFFFFFFFFFFFFFFFFFFFFFFFFFFFFFFFFFFFFF AND PUSH20 0xFFFFFFFFFFFFFFFFFFFFFFFFFFFFFFFFFFFFFFFF AND DUP2 MSTORE PUSH1 0x20 ADD SWAP1 DUP2 MSTORE PUSH1 0x20 ADD PUSH1 0x0 KECCAK256 PUSH1 0x0 DUP3 DUP3 SLOAD PUSH2 0x15A SWAP2 SWAP1 PUSH2 0x38F JUMP JUMPDEST SWAP3 POP POP DUP2 SWAP1 SSTORE POP PUSH32 0x5A0205DC1AB3E05B4E31995F673C114ABE791CFB56EA1BDBF13B1472FDCA41C4 CALLER CALLVALUE PUSH1 0x40 MLOAD PUSH2 0x192 SWAP3 SWAP2 SWAP1 PUSH2 0x3D2 JUMP JUMPDEST PUSH1 0x40 MLOAD DUP1 SWAP2 SUB SWAP1 LOG1 JUMP JUMPDEST PUSH1 0x0 SELFBALANCE SWAP1 POP SWAP1 JUMP JUMPDEST PUSH1 0x0 DUP1 SLOAD SWAP1 POP SWAP1 JUMP JUMPDEST DUP1 PUSH1 0x0 DUP2 SWAP1 SSTORE POP PUSH1 0x0 CALLVALUE GT ISZERO PUSH2 0x1F7 JUMPI PUSH32 0xBD0FADDF87043DD749C1B9D4DCA8A12589B8CB5E2106832111CE23F219B14367 CALLVALUE GAS PUSH1 0x40 MLOAD PUSH2 0x1EE SWAP3 SWAP2 SWAP1 PUSH2 0x3FB JUMP JUMPDEST PUSH1 0x40 MLOAD DUP1 SWAP2 SUB SWAP1 LOG1 JUMPDEST POP JUMP JUMPDEST PUSH1 0x0 PUSH1 0x1 PUSH1 0x0 DUP4 PUSH20 0xFFFFFFFFFFFFFFFFFFFFFFFFFFFFFFFFFFFFFFFF AND PUSH20 0xFFFFFFFFFFFFFFFFFFFFFFFFFFFFFFFFFFFFFFFF AND DUP2 MSTORE PUSH1 0x20 ADD SWAP1 DUP2 MSTORE PUSH1 0x20 ADD PUSH1 0x0 KECCAK256 SLOAD SWAP1 POP SWAP2 SWAP1 POP JUMP JUMPDEST PUSH1 0x0 DUP2 SWAP1 POP SWAP2 SWAP1 POP JUMP JUMPDEST PUSH2 0x256 DUP2 PUSH2 0x243 JUMP JUMPDEST DUP3 MSTORE POP POP JUMP JUMPDEST PUSH1 0x0 PUSH1 0x20 DUP3 ADD SWAP1 POP PUSH2 0x271 PUSH1 0x0 DUP4 ADD DUP5 PUSH2 0x24D JUMP JUMPDEST SWAP3 SWAP2 POP POP JUMP JUMPDEST PUSH1 0x0 DUP1 REVERT JUMPDEST PUSH2 0x285 DUP2 PUSH2 0x243 JUMP JUMPDEST DUP2 EQ PUSH2 0x290 JUMPI PUSH1 0x0 DUP1 REVERT JUMPDEST POP JUMP JUMPDEST PUSH1 0x0 DUP2 CALLDATALOAD SWAP1 POP PUSH2 0x2A2 DUP2 PUSH2 0x27C JUMP JUMPDEST SWAP3 SWAP2 POP POP JUMP JUMPDEST PUSH1 0x0 PUSH1 0x20 DUP3 DUP5 SUB SLT ISZERO PUSH2 0x2BE JUMPI PUSH2 0x2BD PUSH2 0x277 JUMP JUMPDEST JUMPDEST PUSH1 0x0 PUSH2 0x2CC DUP5 DUP3 DUP6 ADD PUSH2 0x293 JUMP JUMPDEST SWAP2 POP POP SWAP3 SWAP2 POP POP JUMP JUMPDEST PUSH1 0x0 PUSH20 0xFFFFFFFFFFFFFFFFFFFFFFFFFFFFFFFFFFFFFFFF DUP3 AND SWAP1 POP SWAP2 SWAP1 POP JUMP JUMPDEST PUSH1 0x0 PUSH2 0x300 DUP3 PUSH2 0x2D5 JUMP JUMPDEST SWAP1 POP SWAP2 SWAP1 POP JUMP JUMPDEST PUSH2 0x310 DUP2 PUSH2 0x2F5 JUMP JUMPDEST DUP2 EQ PUSH2 0x31B JUMPI PUSH1 0x0 DUP1 REVERT JUMPDEST POP JUMP JUMPDEST PUSH1 0x0 DUP2 CALLDATALOAD SWAP1 POP PUSH2 0x32D DUP2 PUSH2 0x307 JUMP JUMPDEST SWAP3 SWAP2 POP POP JUMP JUMPDEST PUSH1 0x0 PUSH1 0x20 DUP3 DUP5 SUB SLT ISZERO PUSH2 0x349 JUMPI PUSH2 0x348 PUSH2 0x277 JUMP JUMPDEST JUMPDEST PUSH1 0x0 PUSH2 0x357 DUP5 DUP3 DUP6 ADD PUSH2 0x31E JUMP JUMPDEST SWAP2 POP POP SWAP3 SWAP2 POP POP JUMP JUMPDEST PUSH32 0x4E487B7100000000000000000000000000000000000000000000000000000000 PUSH1 0x0 MSTORE PUSH1 0x11 PUSH1 0x4 MSTORE PUSH1 0x24 PUSH1 0x0 REVERT JUMPDEST PUSH1 0x0 PUSH2 0x39A DUP3 PUSH2 0x243 JUMP JUMPDEST SWAP2 POP PUSH2 0x3A5 DUP4 PUSH2 0x243 JUMP JUMPDEST SWAP3 POP DUP3 DUP3 ADD SWAP1 POP DUP1 DUP3 GT ISZERO PUSH2 0x3BD JUMPI PUSH2 0x3BC PUSH2 0x360 JUMP JUMPDEST JUMPDEST SWAP3 SWAP2 POP POP JUMP JUMPDEST PUSH2 0x3CC DUP2 PUSH2 0x2F5 JUMP JUMPDEST DUP3 MSTORE POP POP JUMP JUMPDEST PUSH1 0x0 PUSH1 0x40 DUP3 ADD SWAP1 POP PUSH2 0x3E7 PUSH1 0x0 DUP4 ADD DUP6 PUSH2 0x3C3 JUMP JUMPDEST PUSH2 0x3F4 PUSH1 0x20 DUP4 ADD DUP5 PUSH2 0x24D JUMP JUMPDEST SWAP4 SWAP3 POP POP POP JUMP JUMPDEST PUSH1 0x0 PUSH1 0x40 DUP3 ADD SWAP1 POP PUSH2 0x410 PUSH1 0x0 DUP4 ADD DUP6 PUSH2 0x24D JUMP JUMPDEST PUSH2 0x41D PUSH1 0x20 DUP4 ADD DUP5 PUSH2 0x24D JUMP JUMPDEST SWAP4 SWAP3 POP POP POP JUMP INVALID LOG2 PUSH5 0x6970667358 0x22 SLT KECCAK256 0x29 DUP14 CREATE2 LOG2 0xDB 0xB3 0x2F SELFDESTRUCT 0x4F 0x2D 0xB6 STATICCALL SWAP7 RETURNDATACOPY PUSH3 0x60BB2C 0x5F 0xE9 0xCE 0xAA 0xB4 DUP3 BLOCKHASH 0x4E 0xD4 EXTCODEHASH SWAP4 EXP GASLIMIT 0x2F PUSH5 0x736F6C6343 STOP ADDMOD SLT STOP CALLER "
		},
		"gasEstimates": {
			"creation": {
				"codeDepositCost": "222800",
				"executionCost": "263",
				"totalCost": "223063"
			},
			"external": {
				"": "infinite",
				"getBalance()": "317",
				"getEthBalance(address)": "2885",
				"getState()": "2437",
				"setStateAndSendEth(uint256)": "infinite"
			},
			"internal": {
				"receiveEth()": "infinite"
			}
		},
		"methodIdentifiers": {
			"getBalance()": "12065fe0",
			"getEthBalance(address)": "4d2301cc",
			"getState()": "1865c57d",
			"setStateAndSendEth(uint256)": "19ded53a"
		}
	},
	"abi": [
		{
			"anonymous": false,
			"inputs": [
				{
					"indexed": false,
					"internalType": "uint256",
					"name": "amount",
					"type": "uint256"
				},
				{
					"indexed": false,
					"internalType": "uint256",
					"name": "gas",
					"type": "uint256"
				}
			],
			"name": "Log",
			"type": "event"
		},
		{
			"anonymous": false,
			"inputs": [
				{
					"indexed": false,
					"internalType": "address",
					"name": "sender",
					"type": "address"
				},
				{
					"indexed": false,
					"internalType": "uint256",
					"name": "value",
					"type": "uint256"
				}
			],
			"name": "TriggerFallback",
			"type": "event"
		},
		{
			"stateMutability": "payable",
			"type": "fallback"
		},
		{
			"inputs": [],
			"name": "getBalance",
			"outputs": [
				{
					"internalType": "uint256",
					"name": "",
					"type": "uint256"
				}
			],
			"stateMutability": "view",
			"type": "function"
		},
		{
			"inputs": [
				{
					"internalType": "address",
					"name": "_addr",
					"type": "address"
				}
			],
			"name": "getEthBalance",
			"outputs": [
				{
					"internalType": "uint256",
					"name": "value",
					"type": "uint256"
				}
			],
			"stateMutability": "view",
			"type": "function"
		},
		{
			"inputs": [],
			"name": "getState",
			"outputs": [
				{
					"internalType": "uint256",
					"name": "s",
					"type": "uint256"
				}
			],
			"stateMutability": "view",
			"type": "function"
		},
		{
			"inputs": [
				{
					"internalType": "uint256",
					"name": "_s",
					"type": "uint256"
				}
			],
			"name": "setStateAndSendEth",
			"outputs": [],
			"stateMutability": "payable",
			"type": "function"
		},
		{
			"stateMutability": "payable",
			"type": "receive"
		}
	]
}