{
	"data": {
		"bytecode": {
			"linkReferences": {},
			"object": "608060405234801561000f575f80fd5b506104378061001d5f395ff3fe608060405260043610610042575f3560e01c806312065fe01461005b5780631865c57d1461008557806319ded53a146100af5780634d2301cc146100cb57610051565b366100515761004f610107565b005b610059610107565b005b348015610066575f80fd5b5061006f610195565b60405161007c919061024d565b60405180910390f35b348015610090575f80fd5b5061009961019c565b6040516100a6919061024d565b60405180910390f35b6100c960048036038101906100c49190610294565b6101a4565b005b3480156100d6575f80fd5b506100f160048036038101906100ec9190610319565b6101ef565b6040516100fe919061024d565b60405180910390f35b3460015f3373ffffffffffffffffffffffffffffffffffffffff1673ffffffffffffffffffffffffffffffffffffffff1681526020019081526020015f205f8282546101539190610371565b925050819055507f5a0205dc1ab3e05b4e31995f673c114abe791cfb56ea1bdbf13b1472fdca41c4333460405161018b9291906103b3565b60405180910390a1565b5f47905090565b5f8054905090565b805f819055505f3411156101ec577fbd0faddf87043dd749c1b9d4dca8a12589b8cb5e2106832111ce23f219b14367345a6040516101e39291906103da565b60405180910390a15b50565b5f60015f8373ffffffffffffffffffffffffffffffffffffffff1673ffffffffffffffffffffffffffffffffffffffff1681526020019081526020015f20549050919050565b5f819050919050565b61024781610235565b82525050565b5f6020820190506102605f83018461023e565b92915050565b5f80fd5b61027381610235565b811461027d575f80fd5b50565b5f8135905061028e8161026a565b92915050565b5f602082840312156102a9576102a8610266565b5b5f6102b684828501610280565b91505092915050565b5f73ffffffffffffffffffffffffffffffffffffffff82169050919050565b5f6102e8826102bf565b9050919050565b6102f8816102de565b8114610302575f80fd5b50565b5f81359050610313816102ef565b92915050565b5f6020828403121561032e5761032d610266565b5b5f61033b84828501610305565b91505092915050565b7f4e487b71000000000000000000000000000000000000000000000000000000005f52601160045260245ffd5b5f61037b82610235565b915061038683610235565b925082820190508082111561039e5761039d610344565b5b92915050565b6103ad816102de565b82525050565b5f6040820190506103c65f8301856103a4565b6103d3602083018461023e565b9392505050565b5f6040820190506103ed5f83018561023e565b6103fa602083018461023e565b939250505056fea2646970667358221220b47b965d4afeb586ef68e5f1e046dccc9c675385d370d0cde853b78fa98d717464736f6c63430008150033",
			"opcodes": "PUSH1 0x80 PUSH1 0x40 MSTORE CALLVALUE DUP1 ISZERO PUSH2 0xF JUMPI PUSH0 DUP1 REVERT JUMPDEST POP PUSH2 0x437 DUP1 PUSH2 0x1D PUSH0 CODECOPY PUSH0 RETURN INVALID PUSH1 0x80 PUSH1 0x40 MSTORE PUSH1 0x4 CALLDATASIZE LT PUSH2 0x42 JUMPI PUSH0 CALLDATALOAD PUSH1 0xE0 SHR DUP1 PUSH4 0x12065FE0 EQ PUSH2 0x5B JUMPI DUP1 PUSH4 0x1865C57D EQ PUSH2 0x85 JUMPI DUP1 PUSH4 0x19DED53A EQ PUSH2 0xAF JUMPI DUP1 PUSH4 0x4D2301CC EQ PUSH2 0xCB JUMPI PUSH2 0x51 JUMP JUMPDEST CALLDATASIZE PUSH2 0x51 JUMPI PUSH2 0x4F PUSH2 0x107 JUMP JUMPDEST STOP JUMPDEST PUSH2 0x59 PUSH2 0x107 JUMP JUMPDEST STOP JUMPDEST CALLVALUE DUP1 ISZERO PUSH2 0x66 JUMPI PUSH0 DUP1 REVERT JUMPDEST POP PUSH2 0x6F PUSH2 0x195 JUMP JUMPDEST PUSH1 0x40 MLOAD PUSH2 0x7C SWAP2 SWAP1 PUSH2 0x24D JUMP JUMPDEST PUSH1 0x40 MLOAD DUP1 SWAP2 SUB SWAP1 RETURN JUMPDEST CALLVALUE DUP1 ISZERO PUSH2 0x90 JUMPI PUSH0 DUP1 REVERT JUMPDEST POP PUSH2 0x99 PUSH2 0x19C JUMP JUMPDEST PUSH1 0x40 MLOAD PUSH2 0xA6 SWAP2 SWAP1 PUSH2 0x24D JUMP JUMPDEST PUSH1 0x40 MLOAD DUP1 SWAP2 SUB SWAP1 RETURN JUMPDEST PUSH2 0xC9 PUSH1 0x4 DUP1 CALLDATASIZE SUB DUP2 ADD SWAP1 PUSH2 0xC4 SWAP2 SWAP1 PUSH2 0x294 JUMP JUMPDEST PUSH2 0x1A4 JUMP JUMPDEST STOP JUMPDEST CALLVALUE DUP1 ISZERO PUSH2 0xD6 JUMPI PUSH0 DUP1 REVERT JUMPDEST POP PUSH2 0xF1 PUSH1 0x4 DUP1 CALLDATASIZE SUB DUP2 ADD SWAP1 PUSH2 0xEC SWAP2 SWAP1 PUSH2 0x319 JUMP JUMPDEST PUSH2 0x1EF JUMP JUMPDEST PUSH1 0x40 MLOAD PUSH2 0xFE SWAP2 SWAP1 PUSH2 0x24D JUMP JUMPDEST PUSH1 0x40 MLOAD DUP1 SWAP2 SUB SWAP1 RETURN JUMPDEST CALLVALUE PUSH1 0x1 PUSH0 CALLER PUSH20 0xFFFFFFFFFFFFFFFFFFFFFFFFFFFFFFFFFFFFFFFF AND PUSH20 0xFFFFFFFFFFFFFFFFFFFFFFFFFFFFFFFFFFFFFFFF AND DUP2 MSTORE PUSH1 0x20 ADD SWAP1 DUP2 MSTORE PUSH1 0x20 ADD PUSH0 KECCAK256 PUSH0 DUP3 DUP3 SLOAD PUSH2 0x153 SWAP2 SWAP1 PUSH2 0x371 JUMP JUMPDEST SWAP3 POP POP DUP2 SWAP1 SSTORE POP PUSH32 0x5A0205DC1AB3E05B4E31995F673C114ABE791CFB56EA1BDBF13B1472FDCA41C4 CALLER CALLVALUE PUSH1 0x40 MLOAD PUSH2 0x18B SWAP3 SWAP2 SWAP1 PUSH2 0x3B3 JUMP JUMPDEST PUSH1 0x40 MLOAD DUP1 SWAP2 SUB SWAP1 LOG1 JUMP JUMPDEST PUSH0 SELFBALANCE SWAP1 POP SWAP1 JUMP JUMPDEST PUSH0 DUP1 SLOAD SWAP1 POP SWAP1 JUMP JUMPDEST DUP1 PUSH0 DUP2 SWAP1 SSTORE POP PUSH0 CALLVALUE GT ISZERO PUSH2 0x1EC JUMPI PUSH32 0xBD0FADDF87043DD749C1B9D4DCA8A12589B8CB5E2106832111CE23F219B14367 CALLVALUE GAS PUSH1 0x40 MLOAD PUSH2 0x1E3 SWAP3 SWAP2 SWAP1 PUSH2 0x3DA JUMP JUMPDEST PUSH1 0x40 MLOAD DUP1 SWAP2 SUB SWAP1 LOG1 JUMPDEST POP JUMP JUMPDEST PUSH0 PUSH1 0x1 PUSH0 DUP4 PUSH20 0xFFFFFFFFFFFFFFFFFFFFFFFFFFFFFFFFFFFFFFFF AND PUSH20 0xFFFFFFFFFFFFFFFFFFFFFFFFFFFFFFFFFFFFFFFF AND DUP2 MSTORE PUSH1 0x20 ADD SWAP1 DUP2 MSTORE PUSH1 0x20 ADD PUSH0 KECCAK256 SLOAD SWAP1 POP SWAP2 SWAP1 POP JUMP JUMPDEST PUSH0 DUP2 SWAP1 POP SWAP2 SWAP1 POP JUMP JUMPDEST PUSH2 0x247 DUP2 PUSH2 0x235 JUMP JUMPDEST DUP3 MSTORE POP POP JUMP JUMPDEST PUSH0 PUSH1 0x20 DUP3 ADD SWAP1 POP PUSH2 0x260 PUSH0 DUP4 ADD DUP5 PUSH2 0x23E JUMP JUMPDEST SWAP3 SWAP2 POP POP JUMP JUMPDEST PUSH0 DUP1 REVERT JUMPDEST PUSH2 0x273 DUP2 PUSH2 0x235 JUMP JUMPDEST DUP2 EQ PUSH2 0x27D JUMPI PUSH0 DUP1 REVERT JUMPDEST POP JUMP JUMPDEST PUSH0 DUP2 CALLDATALOAD SWAP1 POP PUSH2 0x28E DUP2 PUSH2 0x26A JUMP JUMPDEST SWAP3 SWAP2 POP POP JUMP JUMPDEST PUSH0 PUSH1 0x20 DUP3 DUP5 SUB SLT ISZERO PUSH2 0x2A9 JUMPI PUSH2 0x2A8 PUSH2 0x266 JUMP JUMPDEST JUMPDEST PUSH0 PUSH2 0x2B6 DUP5 DUP3 DUP6 ADD PUSH2 0x280 JUMP JUMPDEST SWAP2 POP POP SWAP3 SWAP2 POP POP JUMP JUMPDEST PUSH0 PUSH20 0xFFFFFFFFFFFFFFFFFFFFFFFFFFFFFFFFFFFFFFFF DUP3 AND SWAP1 POP SWAP2 SWAP1 POP JUMP JUMPDEST PUSH0 PUSH2 0x2E8 DUP3 PUSH2 0x2BF JUMP JUMPDEST SWAP1 POP SWAP2 SWAP1 POP JUMP JUMPDEST PUSH2 0x2F8 DUP2 PUSH2 0x2DE JUMP JUMPDEST DUP2 EQ PUSH2 0x302 JUMPI PUSH0 DUP1 REVERT JUMPDEST POP JUMP JUMPDEST PUSH0 DUP2 CALLDATALOAD SWAP1 POP PUSH2 0x313 DUP2 PUSH2 0x2EF JUMP JUMPDEST SWAP3 SWAP2 POP POP JUMP JUMPDEST PUSH0 PUSH1 0x20 DUP3 DUP5 SUB SLT ISZERO PUSH2 0x32E JUMPI PUSH2 0x32D PUSH2 0x266 JUMP JUMPDEST JUMPDEST PUSH0 PUSH2 0x33B DUP5 DUP3 DUP6 ADD PUSH2 0x305 JUMP JUMPDEST SWAP2 POP POP SWAP3 SWAP2 POP POP JUMP JUMPDEST PUSH32 0x4E487B7100000000000000000000000000000000000000000000000000000000 PUSH0 MSTORE PUSH1 0x11 PUSH1 0x4 MSTORE PUSH1 0x24 PUSH0 REVERT JUMPDEST PUSH0 PUSH2 0x37B DUP3 PUSH2 0x235 JUMP JUMPDEST SWAP2 POP PUSH2 0x386 DUP4 PUSH2 0x235 JUMP JUMPDEST SWAP3 POP DUP3 DUP3 ADD SWAP1 POP DUP1 DUP3 GT ISZERO PUSH2 0x39E JUMPI PUSH2 0x39D PUSH2 0x344 JUMP JUMPDEST JUMPDEST SWAP3 SWAP2 POP POP JUMP JUMPDEST PUSH2 0x3AD DUP2 PUSH2 0x2DE JUMP JUMPDEST DUP3 MSTORE POP POP JUMP JUMPDEST PUSH0 PUSH1 0x40 DUP3 ADD SWAP1 POP PUSH2 0x3C6 PUSH0 DUP4 ADD DUP6 PUSH2 0x3A4 JUMP JUMPDEST PUSH2 0x3D3 PUSH1 0x20 DUP4 ADD DUP5 PUSH2 0x23E JUMP JUMPDEST SWAP4 SWAP3 POP POP POP JUMP JUMPDEST PUSH0 PUSH1 0x40 DUP3 ADD SWAP1 POP PUSH2 0x3ED PUSH0 DUP4 ADD DUP6 PUSH2 0x23E JUMP JUMPDEST PUSH2 0x3FA PUSH1 0x20 DUP4 ADD DUP5 PUSH2 0x23E JUMP JUMPDEST SWAP4 SWAP3 POP POP POP JUMP INVALID LOG2 PUSH5 0x6970667358 0x22 SLT KECCAK256 0xB4 PUSH28 0x965D4AFEB586EF68E5F1E046DCCC9C675385D370D0CDE853B78FA98D PUSH18 0x7464736F6C63430008150033000000000000 "
		},
		"gasEstimates": {
			"creation": {
				"codeDepositCost": "215800",
				"executionCost": "255",
				"totalCost": "216055"
			},
			"external": {
				"": "infinite",
				"getBalance()": "312",
				"getEthBalance(address)": "2873",
				"getState()": "2432",
				"setStateAndSendEth(uint256)": "infinite"
			},
			"internal": {
				"receiveEth()": "infinite"
			}
		},
		"methodIdentifiers": {
			"getBalance()": "12065fe0",
			"getEthBalance(address)": "4d2301cc",
			"getState()": "1865c57d",
			"setStateAndSendEth(uint256)": "19ded53a"
		}
	},
	"abi": [
		{
			"anonymous": false,
			"inputs": [
				{
					"indexed": false,
					"internalType": "uint256",
					"name": "amount",
					"type": "uint256"
				},
				{
					"indexed": false,
					"internalType": "uint256",
					"name": "gas",
					"type": "uint256"
				}
			],
			"name": "Log",
			"type": "event"
		},
		{
			"anonymous": false,
			"inputs": [
				{
					"indexed": false,
					"internalType": "address",
					"name": "sender",
					"type": "address"
				},
				{
					"indexed": false,
					"internalType": "uint256",
					"name": "value",
					"type": "uint256"
				}
			],
			"name": "TriggerFallback",
			"type": "event"
		},
		{
			"stateMutability": "payable",
			"type": "fallback"
		},
		{
			"inputs": [],
			"name": "getBalance",
			"outputs": [
				{
					"internalType": "uint256",
					"name": "",
					"type": "uint256"
				}
			],
			"stateMutability": "view",
			"type": "function"
		},
		{
			"inputs": [
				{
					"internalType": "address",
					"name": "_addr",
					"type": "address"
				}
			],
			"name": "getEthBalance",
			"outputs": [
				{
					"internalType": "uint256",
					"name": "value",
					"type": "uint256"
				}
			],
			"stateMutability": "view",
			"type": "function"
		},
		{
			"inputs": [],
			"name": "getState",
			"outputs": [
				{
					"internalType": "uint256",
					"name": "s",
					"type": "uint256"
				}
			],
			"stateMutability": "view",
			"type": "function"
		},
		{
			"inputs": [
				{
					"internalType": "uint256",
					"name": "_s",
					"type": "uint256"
				}
			],
			"name": "setStateAndSendEth",
			"outputs": [],
			"stateMutability": "payable",
			"type": "function"
		},
		{
			"stateMutability": "payable",
			"type": "receive"
		}
	]
}