{
	"contracts/fallback/SendEther.sol": {
		"SendEther": {
			"abi": [
				{
					"inputs": [],
					"stateMutability": "payable",
					"type": "constructor"
				},
				{
					"anonymous": false,
					"inputs": [
						{
							"indexed": false,
							"internalType": "uint256",
							"name": "amount",
							"type": "uint256"
						},
						{
							"indexed": false,
							"internalType": "uint256",
							"name": "gas",
							"type": "uint256"
						}
					],
					"name": "LogSend",
					"type": "event"
				},
				{
					"inputs": [],
					"name": "getBalance",
					"outputs": [
						{
							"internalType": "uint256",
							"name": "",
							"type": "uint256"
						}
					],
					"stateMutability": "view",
					"type": "function"
				},
				{
					"inputs": [
						{
							"internalType": "address payable",
							"name": "_to",
							"type": "address"
						}
					],
					"name": "sendViaCall",
					"outputs": [],
					"stateMutability": "payable",
					"type": "function"
				},
				{
					"inputs": [
						{
							"internalType": "address payable",
							"name": "_to",
							"type": "address"
						}
					],
					"name": "sendViaSend",
					"outputs": [],
					"stateMutability": "payable",
					"type": "function"
				},
				{
					"inputs": [
						{
							"internalType": "address payable",
							"name": "_to",
							"type": "address"
						}
					],
					"name": "sendViaTransfer",
					"outputs": [],
					"stateMutability": "payable",
					"type": "function"
				},
				{
					"stateMutability": "payable",
					"type": "receive"
				}
			],
			"devdoc": {
				"kind": "dev",
				"methods": {},
				"version": 1
			},
			"evm": {
				"assembly": "    /* \"contracts/fallback/SendEther.sol\":66:897  contract SendEther {... */\n  mstore(0x40, 0x80)\n  dataSize(sub_0)\n  dup1\n  dataOffset(sub_0)\n  0x00\n  codecopy\n  0x00\n  return\nstop\n\nsub_0: assembly {\n        /* \"contracts/fallback/SendEther.sol\":66:897  contract SendEther {... */\n      mstore(0x40, 0x80)\n      jumpi(tag_1, lt(calldatasize, 0x04))\n      shr(0xe0, calldataload(0x00))\n      dup1\n      0x12065fe0\n      eq\n      tag_3\n      jumpi\n      dup1\n      0x636e082b\n      eq\n      tag_4\n      jumpi\n      dup1\n      0x74be4806\n      eq\n      tag_5\n      jumpi\n      dup1\n      0x830c29ae\n      eq\n      tag_6\n      jumpi\n      jump(tag_2)\n    tag_1:\n      jumpi(tag_2, calldatasize)\n      stop\n    tag_2:\n      0x00\n      dup1\n      revert\n        /* \"contracts/fallback/SendEther.sol\":227:326  function getBalance() external view returns (uint256) {... */\n    tag_3:\n      callvalue\n      dup1\n      iszero\n      tag_9\n      jumpi\n      0x00\n      dup1\n      revert\n    tag_9:\n      pop\n      tag_10\n      tag_11\n      jump\t// in\n    tag_10:\n      mload(0x40)\n      tag_12\n      swap2\n      swap1\n      tag_13\n      jump\t// in\n    tag_12:\n      mload(0x40)\n      dup1\n      swap2\n      sub\n      swap1\n      return\n        /* \"contracts/fallback/SendEther.sol\":332:506  function sendViaTransfer(address payable _to) external payable {... */\n    tag_4:\n      tag_14\n      0x04\n      dup1\n      calldatasize\n      sub\n      dup2\n      add\n      swap1\n      tag_15\n      swap2\n      swap1\n      tag_16\n      jump\t// in\n    tag_15:\n      tag_17\n      jump\t// in\n    tag_14:\n      stop\n        /* \"contracts/fallback/SendEther.sol\":512:690  function sendViaSend(address payable _to) external payable {... */\n    tag_5:\n      tag_18\n      0x04\n      dup1\n      calldatasize\n      sub\n      dup2\n      add\n      swap1\n      tag_19\n      swap2\n      swap1\n      tag_16\n      jump\t// in\n    tag_19:\n      tag_20\n      jump\t// in\n    tag_18:\n      stop\n        /* \"contracts/fallback/SendEther.sol\":696:895  function sendViaCall(address payable _to) external payable {... */\n    tag_6:\n      tag_21\n      0x04\n      dup1\n      calldatasize\n      sub\n      dup2\n      add\n      swap1\n      tag_22\n      swap2\n      swap1\n      tag_16\n      jump\t// in\n    tag_22:\n      tag_23\n      jump\t// in\n    tag_21:\n      stop\n        /* \"contracts/fallback/SendEther.sol\":227:326  function getBalance() external view returns (uint256) {... */\n    tag_11:\n        /* \"contracts/fallback/SendEther.sol\":272:279  uint256 */\n      0x00\n        /* \"contracts/fallback/SendEther.sol\":298:319  address(this).balance */\n      selfbalance\n        /* \"contracts/fallback/SendEther.sol\":291:319  return address(this).balance */\n      swap1\n      pop\n        /* \"contracts/fallback/SendEther.sol\":227:326  function getBalance() external view returns (uint256) {... */\n      swap1\n      jump\t// out\n        /* \"contracts/fallback/SendEther.sol\":332:506  function sendViaTransfer(address payable _to) external payable {... */\n    tag_17:\n        /* \"contracts/fallback/SendEther.sol\":410:433  LogSend(123, gasleft()) */\n      0xc4bdf5c325b8943bb4cdc6b9061f841f00eabad466bea4e7e81596dd5e0fa3d8\n        /* \"contracts/fallback/SendEther.sol\":418:421  123 */\n      0x7b\n        /* \"contracts/fallback/SendEther.sol\":423:432  gasleft() */\n      gas\n        /* \"contracts/fallback/SendEther.sol\":410:433  LogSend(123, gasleft()) */\n      mload(0x40)\n      tag_26\n      swap3\n      swap2\n      swap1\n      tag_27\n      jump\t// in\n    tag_26:\n      mload(0x40)\n      dup1\n      swap2\n      sub\n      swap1\n      log1\n        /* \"contracts/fallback/SendEther.sol\":444:447  _to */\n      dup1\n        /* \"contracts/fallback/SendEther.sol\":444:456  _to.transfer */\n      0xffffffffffffffffffffffffffffffffffffffff\n      and\n        /* \"contracts/fallback/SendEther.sol\":444:461  _to.transfer(123) */\n      0x08fc\n        /* \"contracts/fallback/SendEther.sol\":457:460  123 */\n      0x7b\n        /* \"contracts/fallback/SendEther.sol\":444:461  _to.transfer(123) */\n      swap1\n      dup2\n      iszero\n      mul\n      swap1\n      mload(0x40)\n      0x00\n      mload(0x40)\n      dup1\n      dup4\n      sub\n      dup2\n      dup6\n      dup9\n      dup9\n      call\n      swap4\n      pop\n      pop\n      pop\n      pop\n      iszero\n      dup1\n      iszero\n      tag_29\n      jumpi\n      returndatasize\n      0x00\n      dup1\n      returndatacopy\n      revert(0x00, returndatasize)\n    tag_29:\n      pop\n        /* \"contracts/fallback/SendEther.sol\":476:499  LogSend(123, gasleft()) */\n      0xc4bdf5c325b8943bb4cdc6b9061f841f00eabad466bea4e7e81596dd5e0fa3d8\n        /* \"contracts/fallback/SendEther.sol\":484:487  123 */\n      0x7b\n        /* \"contracts/fallback/SendEther.sol\":489:498  gasleft() */\n      gas\n        /* \"contracts/fallback/SendEther.sol\":476:499  LogSend(123, gasleft()) */\n      mload(0x40)\n      tag_30\n      swap3\n      swap2\n      swap1\n      tag_27\n      jump\t// in\n    tag_30:\n      mload(0x40)\n      dup1\n      swap2\n      sub\n      swap1\n      log1\n        /* \"contracts/fallback/SendEther.sol\":332:506  function sendViaTransfer(address payable _to) external payable {... */\n      pop\n      jump\t// out\n        /* \"contracts/fallback/SendEther.sol\":512:690  function sendViaSend(address payable _to) external payable {... */\n    tag_20:\n        /* \"contracts/fallback/SendEther.sol\":586:609  LogSend(123, gasleft()) */\n      0xc4bdf5c325b8943bb4cdc6b9061f841f00eabad466bea4e7e81596dd5e0fa3d8\n        /* \"contracts/fallback/SendEther.sol\":594:597  123 */\n      0x7b\n        /* \"contracts/fallback/SendEther.sol\":599:608  gasleft() */\n      gas\n        /* \"contracts/fallback/SendEther.sol\":586:609  LogSend(123, gasleft()) */\n      mload(0x40)\n      tag_32\n      swap3\n      swap2\n      swap1\n      tag_27\n      jump\t// in\n    tag_32:\n      mload(0x40)\n      dup1\n      swap2\n      sub\n      swap1\n      log1\n        /* \"contracts/fallback/SendEther.sol\":620:629  bool sent */\n      0x00\n        /* \"contracts/fallback/SendEther.sol\":632:635  _to */\n      dup2\n        /* \"contracts/fallback/SendEther.sol\":632:640  _to.send */\n      0xffffffffffffffffffffffffffffffffffffffff\n      and\n        /* \"contracts/fallback/SendEther.sol\":632:645  _to.send(123) */\n      0x08fc\n        /* \"contracts/fallback/SendEther.sol\":641:644  123 */\n      0x7b\n        /* \"contracts/fallback/SendEther.sol\":632:645  _to.send(123) */\n      swap1\n      dup2\n      iszero\n      mul\n      swap1\n      mload(0x40)\n      0x00\n      mload(0x40)\n      dup1\n      dup4\n      sub\n      dup2\n      dup6\n      dup9\n      dup9\n      call\n      swap4\n      pop\n      pop\n      pop\n      pop\n        /* \"contracts/fallback/SendEther.sol\":620:645  bool sent = _to.send(123) */\n      swap1\n      pop\n        /* \"contracts/fallback/SendEther.sol\":663:667  sent */\n      dup1\n        /* \"contracts/fallback/SendEther.sol\":655:683  require(sent, \"send failed\") */\n      tag_34\n      jumpi\n      mload(0x40)\n      0x08c379a000000000000000000000000000000000000000000000000000000000\n      dup2\n      mstore\n      0x04\n      add\n      tag_35\n      swap1\n      tag_36\n      jump\t// in\n    tag_35:\n      mload(0x40)\n      dup1\n      swap2\n      sub\n      swap1\n      revert\n    tag_34:\n        /* \"contracts/fallback/SendEther.sol\":571:690  {... */\n      pop\n        /* \"contracts/fallback/SendEther.sol\":512:690  function sendViaSend(address payable _to) external payable {... */\n      pop\n      jump\t// out\n        /* \"contracts/fallback/SendEther.sol\":696:895  function sendViaCall(address payable _to) external payable {... */\n    tag_23:\n        /* \"contracts/fallback/SendEther.sol\":770:793  LogSend(123, gasleft()) */\n      0xc4bdf5c325b8943bb4cdc6b9061f841f00eabad466bea4e7e81596dd5e0fa3d8\n        /* \"contracts/fallback/SendEther.sol\":778:781  123 */\n      0x7b\n        /* \"contracts/fallback/SendEther.sol\":783:792  gasleft() */\n      gas\n        /* \"contracts/fallback/SendEther.sol\":770:793  LogSend(123, gasleft()) */\n      mload(0x40)\n      tag_38\n      swap3\n      swap2\n      swap1\n      tag_27\n      jump\t// in\n    tag_38:\n      mload(0x40)\n      dup1\n      swap2\n      sub\n      swap1\n      log1\n        /* \"contracts/fallback/SendEther.sol\":805:817  bool success */\n      0x00\n        /* \"contracts/fallback/SendEther.sol\":823:826  _to */\n      dup2\n        /* \"contracts/fallback/SendEther.sol\":823:831  _to.call */\n      0xffffffffffffffffffffffffffffffffffffffff\n      and\n        /* \"contracts/fallback/SendEther.sol\":839:842  123 */\n      0x7b\n        /* \"contracts/fallback/SendEther.sol\":823:847  _to.call{value: 123}(\"\") */\n      mload(0x40)\n      tag_39\n      swap1\n      tag_40\n      jump\t// in\n    tag_39:\n      0x00\n      mload(0x40)\n      dup1\n      dup4\n      sub\n      dup2\n      dup6\n      dup8\n      gas\n      call\n      swap3\n      pop\n      pop\n      pop\n      returndatasize\n      dup1\n      0x00\n      dup2\n      eq\n      tag_43\n      jumpi\n      mload(0x40)\n      swap2\n      pop\n      and(add(returndatasize, 0x3f), not(0x1f))\n      dup3\n      add\n      0x40\n      mstore\n      returndatasize\n      dup3\n      mstore\n      returndatasize\n      0x00\n      0x20\n      dup5\n      add\n      returndatacopy\n      jump(tag_42)\n    tag_43:\n      0x60\n      swap2\n      pop\n    tag_42:\n      pop\n        /* \"contracts/fallback/SendEther.sol\":804:847  (bool success, ) = _to.call{value: 123}(\"\") */\n      pop\n      swap1\n      pop\n        /* \"contracts/fallback/SendEther.sol\":865:872  success */\n      dup1\n        /* \"contracts/fallback/SendEther.sol\":857:888  require(success, \"call failed\") */\n      tag_44\n      jumpi\n      mload(0x40)\n      0x08c379a000000000000000000000000000000000000000000000000000000000\n      dup2\n      mstore\n      0x04\n      add\n      tag_45\n      swap1\n      tag_46\n      jump\t// in\n    tag_45:\n      mload(0x40)\n      dup1\n      swap2\n      sub\n      swap1\n      revert\n    tag_44:\n        /* \"contracts/fallback/SendEther.sol\":755:895  {... */\n      pop\n        /* \"contracts/fallback/SendEther.sol\":696:895  function sendViaCall(address payable _to) external payable {... */\n      pop\n      jump\t// out\n        /* \"#utility.yul\":7:84   */\n    tag_47:\n        /* \"#utility.yul\":44:51   */\n      0x00\n        /* \"#utility.yul\":73:78   */\n      dup2\n        /* \"#utility.yul\":62:78   */\n      swap1\n      pop\n        /* \"#utility.yul\":7:84   */\n      swap2\n      swap1\n      pop\n      jump\t// out\n        /* \"#utility.yul\":90:208   */\n    tag_48:\n        /* \"#utility.yul\":177:201   */\n      tag_71\n        /* \"#utility.yul\":195:200   */\n      dup2\n        /* \"#utility.yul\":177:201   */\n      tag_47\n      jump\t// in\n    tag_71:\n        /* \"#utility.yul\":172:175   */\n      dup3\n        /* \"#utility.yul\":165:202   */\n      mstore\n        /* \"#utility.yul\":90:208   */\n      pop\n      pop\n      jump\t// out\n        /* \"#utility.yul\":214:436   */\n    tag_13:\n        /* \"#utility.yul\":307:311   */\n      0x00\n        /* \"#utility.yul\":345:347   */\n      0x20\n        /* \"#utility.yul\":334:343   */\n      dup3\n        /* \"#utility.yul\":330:348   */\n      add\n        /* \"#utility.yul\":322:348   */\n      swap1\n      pop\n        /* \"#utility.yul\":358:429   */\n      tag_73\n        /* \"#utility.yul\":426:427   */\n      0x00\n        /* \"#utility.yul\":415:424   */\n      dup4\n        /* \"#utility.yul\":411:428   */\n      add\n        /* \"#utility.yul\":402:408   */\n      dup5\n        /* \"#utility.yul\":358:429   */\n      tag_48\n      jump\t// in\n    tag_73:\n        /* \"#utility.yul\":214:436   */\n      swap3\n      swap2\n      pop\n      pop\n      jump\t// out\n        /* \"#utility.yul\":523:640   */\n    tag_50:\n        /* \"#utility.yul\":632:633   */\n      0x00\n        /* \"#utility.yul\":629:630   */\n      dup1\n        /* \"#utility.yul\":622:634   */\n      revert\n        /* \"#utility.yul\":769:895   */\n    tag_52:\n        /* \"#utility.yul\":806:813   */\n      0x00\n        /* \"#utility.yul\":846:888   */\n      0xffffffffffffffffffffffffffffffffffffffff\n        /* \"#utility.yul\":839:844   */\n      dup3\n        /* \"#utility.yul\":835:889   */\n      and\n        /* \"#utility.yul\":824:889   */\n      swap1\n      pop\n        /* \"#utility.yul\":769:895   */\n      swap2\n      swap1\n      pop\n      jump\t// out\n        /* \"#utility.yul\":901:1005   */\n    tag_53:\n        /* \"#utility.yul\":946:953   */\n      0x00\n        /* \"#utility.yul\":975:999   */\n      tag_79\n        /* \"#utility.yul\":993:998   */\n      dup3\n        /* \"#utility.yul\":975:999   */\n      tag_52\n      jump\t// in\n    tag_79:\n        /* \"#utility.yul\":964:999   */\n      swap1\n      pop\n        /* \"#utility.yul\":901:1005   */\n      swap2\n      swap1\n      pop\n      jump\t// out\n        /* \"#utility.yul\":1011:1149   */\n    tag_54:\n        /* \"#utility.yul\":1092:1124   */\n      tag_81\n        /* \"#utility.yul\":1118:1123   */\n      dup2\n        /* \"#utility.yul\":1092:1124   */\n      tag_53\n      jump\t// in\n    tag_81:\n        /* \"#utility.yul\":1085:1090   */\n      dup2\n        /* \"#utility.yul\":1082:1125   */\n      eq\n        /* \"#utility.yul\":1072:1143   */\n      tag_82\n      jumpi\n        /* \"#utility.yul\":1139:1140   */\n      0x00\n        /* \"#utility.yul\":1136:1137   */\n      dup1\n        /* \"#utility.yul\":1129:1141   */\n      revert\n        /* \"#utility.yul\":1072:1143   */\n    tag_82:\n        /* \"#utility.yul\":1011:1149   */\n      pop\n      jump\t// out\n        /* \"#utility.yul\":1155:1310   */\n    tag_55:\n        /* \"#utility.yul\":1209:1214   */\n      0x00\n        /* \"#utility.yul\":1247:1253   */\n      dup2\n        /* \"#utility.yul\":1234:1254   */\n      calldataload\n        /* \"#utility.yul\":1225:1254   */\n      swap1\n      pop\n        /* \"#utility.yul\":1263:1304   */\n      tag_84\n        /* \"#utility.yul\":1298:1303   */\n      dup2\n        /* \"#utility.yul\":1263:1304   */\n      tag_54\n      jump\t// in\n    tag_84:\n        /* \"#utility.yul\":1155:1310   */\n      swap3\n      swap2\n      pop\n      pop\n      jump\t// out\n        /* \"#utility.yul\":1316:1661   */\n    tag_16:\n        /* \"#utility.yul\":1383:1389   */\n      0x00\n        /* \"#utility.yul\":1432:1434   */\n      0x20\n        /* \"#utility.yul\":1420:1429   */\n      dup3\n        /* \"#utility.yul\":1411:1418   */\n      dup5\n        /* \"#utility.yul\":1407:1430   */\n      sub\n        /* \"#utility.yul\":1403:1435   */\n      slt\n        /* \"#utility.yul\":1400:1519   */\n      iszero\n      tag_86\n      jumpi\n        /* \"#utility.yul\":1438:1517   */\n      tag_87\n      tag_50\n      jump\t// in\n    tag_87:\n        /* \"#utility.yul\":1400:1519   */\n    tag_86:\n        /* \"#utility.yul\":1558:1559   */\n      0x00\n        /* \"#utility.yul\":1583:1644   */\n      tag_88\n        /* \"#utility.yul\":1636:1643   */\n      dup5\n        /* \"#utility.yul\":1627:1633   */\n      dup3\n        /* \"#utility.yul\":1616:1625   */\n      dup6\n        /* \"#utility.yul\":1612:1634   */\n      add\n        /* \"#utility.yul\":1583:1644   */\n      tag_55\n      jump\t// in\n    tag_88:\n        /* \"#utility.yul\":1573:1644   */\n      swap2\n      pop\n        /* \"#utility.yul\":1529:1654   */\n      pop\n        /* \"#utility.yul\":1316:1661   */\n      swap3\n      swap2\n      pop\n      pop\n      jump\t// out\n        /* \"#utility.yul\":1667:1754   */\n    tag_56:\n        /* \"#utility.yul\":1714:1721   */\n      0x00\n        /* \"#utility.yul\":1743:1748   */\n      dup2\n        /* \"#utility.yul\":1732:1748   */\n      swap1\n      pop\n        /* \"#utility.yul\":1667:1754   */\n      swap2\n      swap1\n      pop\n      jump\t// out\n        /* \"#utility.yul\":1760:1820   */\n    tag_57:\n        /* \"#utility.yul\":1788:1791   */\n      0x00\n        /* \"#utility.yul\":1809:1814   */\n      dup2\n        /* \"#utility.yul\":1802:1814   */\n      swap1\n      pop\n        /* \"#utility.yul\":1760:1820   */\n      swap2\n      swap1\n      pop\n      jump\t// out\n        /* \"#utility.yul\":1826:1988   */\n    tag_58:\n        /* \"#utility.yul\":1886:1895   */\n      0x00\n        /* \"#utility.yul\":1919:1982   */\n      tag_92\n        /* \"#utility.yul\":1937:1981   */\n      tag_93\n        /* \"#utility.yul\":1946:1980   */\n      tag_94\n        /* \"#utility.yul\":1974:1979   */\n      dup5\n        /* \"#utility.yul\":1946:1980   */\n      tag_56\n      jump\t// in\n    tag_94:\n        /* \"#utility.yul\":1937:1981   */\n      tag_57\n      jump\t// in\n    tag_93:\n        /* \"#utility.yul\":1919:1982   */\n      tag_47\n      jump\t// in\n    tag_92:\n        /* \"#utility.yul\":1906:1982   */\n      swap1\n      pop\n        /* \"#utility.yul\":1826:1988   */\n      swap2\n      swap1\n      pop\n      jump\t// out\n        /* \"#utility.yul\":1994:2145   */\n    tag_59:\n        /* \"#utility.yul\":2091:2138   */\n      tag_96\n        /* \"#utility.yul\":2132:2137   */\n      dup2\n        /* \"#utility.yul\":2091:2138   */\n      tag_58\n      jump\t// in\n    tag_96:\n        /* \"#utility.yul\":2086:2089   */\n      dup3\n        /* \"#utility.yul\":2079:2139   */\n      mstore\n        /* \"#utility.yul\":1994:2145   */\n      pop\n      pop\n      jump\t// out\n        /* \"#utility.yul\":2151:2503   */\n    tag_27:\n        /* \"#utility.yul\":2282:2286   */\n      0x00\n        /* \"#utility.yul\":2320:2322   */\n      0x40\n        /* \"#utility.yul\":2309:2318   */\n      dup3\n        /* \"#utility.yul\":2305:2323   */\n      add\n        /* \"#utility.yul\":2297:2323   */\n      swap1\n      pop\n        /* \"#utility.yul\":2333:2414   */\n      tag_98\n        /* \"#utility.yul\":2411:2412   */\n      0x00\n        /* \"#utility.yul\":2400:2409   */\n      dup4\n        /* \"#utility.yul\":2396:2413   */\n      add\n        /* \"#utility.yul\":2387:2393   */\n      dup6\n        /* \"#utility.yul\":2333:2414   */\n      tag_59\n      jump\t// in\n    tag_98:\n        /* \"#utility.yul\":2424:2496   */\n      tag_99\n        /* \"#utility.yul\":2492:2494   */\n      0x20\n        /* \"#utility.yul\":2481:2490   */\n      dup4\n        /* \"#utility.yul\":2477:2495   */\n      add\n        /* \"#utility.yul\":2468:2474   */\n      dup5\n        /* \"#utility.yul\":2424:2496   */\n      tag_48\n      jump\t// in\n    tag_99:\n        /* \"#utility.yul\":2151:2503   */\n      swap4\n      swap3\n      pop\n      pop\n      pop\n      jump\t// out\n        /* \"#utility.yul\":2509:2678   */\n    tag_60:\n        /* \"#utility.yul\":2593:2604   */\n      0x00\n        /* \"#utility.yul\":2627:2633   */\n      dup3\n        /* \"#utility.yul\":2622:2625   */\n      dup3\n        /* \"#utility.yul\":2615:2634   */\n      mstore\n        /* \"#utility.yul\":2667:2671   */\n      0x20\n        /* \"#utility.yul\":2662:2665   */\n      dup3\n        /* \"#utility.yul\":2658:2672   */\n      add\n        /* \"#utility.yul\":2643:2672   */\n      swap1\n      pop\n        /* \"#utility.yul\":2509:2678   */\n      swap3\n      swap2\n      pop\n      pop\n      jump\t// out\n        /* \"#utility.yul\":2684:2845   */\n    tag_61:\n        /* \"#utility.yul\":2824:2837   */\n      0x73656e64206661696c6564000000000000000000000000000000000000000000\n        /* \"#utility.yul\":2820:2821   */\n      0x00\n        /* \"#utility.yul\":2812:2818   */\n      dup3\n        /* \"#utility.yul\":2808:2822   */\n      add\n        /* \"#utility.yul\":2801:2838   */\n      mstore\n        /* \"#utility.yul\":2684:2845   */\n      pop\n      jump\t// out\n        /* \"#utility.yul\":2851:3217   */\n    tag_62:\n        /* \"#utility.yul\":2993:2996   */\n      0x00\n        /* \"#utility.yul\":3014:3081   */\n      tag_103\n        /* \"#utility.yul\":3078:3080   */\n      0x0b\n        /* \"#utility.yul\":3073:3076   */\n      dup4\n        /* \"#utility.yul\":3014:3081   */\n      tag_60\n      jump\t// in\n    tag_103:\n        /* \"#utility.yul\":3007:3081   */\n      swap2\n      pop\n        /* \"#utility.yul\":3090:3183   */\n      tag_104\n        /* \"#utility.yul\":3179:3182   */\n      dup3\n        /* \"#utility.yul\":3090:3183   */\n      tag_61\n      jump\t// in\n    tag_104:\n        /* \"#utility.yul\":3208:3210   */\n      0x20\n        /* \"#utility.yul\":3203:3206   */\n      dup3\n        /* \"#utility.yul\":3199:3211   */\n      add\n        /* \"#utility.yul\":3192:3211   */\n      swap1\n      pop\n        /* \"#utility.yul\":2851:3217   */\n      swap2\n      swap1\n      pop\n      jump\t// out\n        /* \"#utility.yul\":3223:3642   */\n    tag_36:\n        /* \"#utility.yul\":3389:3393   */\n      0x00\n        /* \"#utility.yul\":3427:3429   */\n      0x20\n        /* \"#utility.yul\":3416:3425   */\n      dup3\n        /* \"#utility.yul\":3412:3430   */\n      add\n        /* \"#utility.yul\":3404:3430   */\n      swap1\n      pop\n        /* \"#utility.yul\":3476:3485   */\n      dup2\n        /* \"#utility.yul\":3470:3474   */\n      dup2\n        /* \"#utility.yul\":3466:3486   */\n      sub\n        /* \"#utility.yul\":3462:3463   */\n      0x00\n        /* \"#utility.yul\":3451:3460   */\n      dup4\n        /* \"#utility.yul\":3447:3464   */\n      add\n        /* \"#utility.yul\":3440:3487   */\n      mstore\n        /* \"#utility.yul\":3504:3635   */\n      tag_106\n        /* \"#utility.yul\":3630:3634   */\n      dup2\n        /* \"#utility.yul\":3504:3635   */\n      tag_62\n      jump\t// in\n    tag_106:\n        /* \"#utility.yul\":3496:3635   */\n      swap1\n      pop\n        /* \"#utility.yul\":3223:3642   */\n      swap2\n      swap1\n      pop\n      jump\t// out\n        /* \"#utility.yul\":3648:3795   */\n    tag_63:\n        /* \"#utility.yul\":3749:3760   */\n      0x00\n        /* \"#utility.yul\":3786:3789   */\n      dup2\n        /* \"#utility.yul\":3771:3789   */\n      swap1\n      pop\n        /* \"#utility.yul\":3648:3795   */\n      swap3\n      swap2\n      pop\n      pop\n      jump\t// out\n        /* \"#utility.yul\":3801:3915   */\n    tag_64:\n      pop\n      jump\t// out\n        /* \"#utility.yul\":3921:4319   */\n    tag_65:\n        /* \"#utility.yul\":4080:4083   */\n      0x00\n        /* \"#utility.yul\":4101:4184   */\n      tag_110\n        /* \"#utility.yul\":4182:4183   */\n      0x00\n        /* \"#utility.yul\":4177:4180   */\n      dup4\n        /* \"#utility.yul\":4101:4184   */\n      tag_63\n      jump\t// in\n    tag_110:\n        /* \"#utility.yul\":4094:4184   */\n      swap2\n      pop\n        /* \"#utility.yul\":4193:4286   */\n      tag_111\n        /* \"#utility.yul\":4282:4285   */\n      dup3\n        /* \"#utility.yul\":4193:4286   */\n      tag_64\n      jump\t// in\n    tag_111:\n        /* \"#utility.yul\":4311:4312   */\n      0x00\n        /* \"#utility.yul\":4306:4309   */\n      dup3\n        /* \"#utility.yul\":4302:4313   */\n      add\n        /* \"#utility.yul\":4295:4313   */\n      swap1\n      pop\n        /* \"#utility.yul\":3921:4319   */\n      swap2\n      swap1\n      pop\n      jump\t// out\n        /* \"#utility.yul\":4325:4704   */\n    tag_40:\n        /* \"#utility.yul\":4509:4512   */\n      0x00\n        /* \"#utility.yul\":4531:4678   */\n      tag_113\n        /* \"#utility.yul\":4674:4677   */\n      dup3\n        /* \"#utility.yul\":4531:4678   */\n      tag_65\n      jump\t// in\n    tag_113:\n        /* \"#utility.yul\":4524:4678   */\n      swap2\n      pop\n        /* \"#utility.yul\":4695:4698   */\n      dup2\n        /* \"#utility.yul\":4688:4698   */\n      swap1\n      pop\n        /* \"#utility.yul\":4325:4704   */\n      swap2\n      swap1\n      pop\n      jump\t// out\n        /* \"#utility.yul\":4710:4871   */\n    tag_66:\n        /* \"#utility.yul\":4850:4863   */\n      0x63616c6c206661696c6564000000000000000000000000000000000000000000\n        /* \"#utility.yul\":4846:4847   */\n      0x00\n        /* \"#utility.yul\":4838:4844   */\n      dup3\n        /* \"#utility.yul\":4834:4848   */\n      add\n        /* \"#utility.yul\":4827:4864   */\n      mstore\n        /* \"#utility.yul\":4710:4871   */\n      pop\n      jump\t// out\n        /* \"#utility.yul\":4877:5243   */\n    tag_67:\n        /* \"#utility.yul\":5019:5022   */\n      0x00\n        /* \"#utility.yul\":5040:5107   */\n      tag_116\n        /* \"#utility.yul\":5104:5106   */\n      0x0b\n        /* \"#utility.yul\":5099:5102   */\n      dup4\n        /* \"#utility.yul\":5040:5107   */\n      tag_60\n      jump\t// in\n    tag_116:\n        /* \"#utility.yul\":5033:5107   */\n      swap2\n      pop\n        /* \"#utility.yul\":5116:5209   */\n      tag_117\n        /* \"#utility.yul\":5205:5208   */\n      dup3\n        /* \"#utility.yul\":5116:5209   */\n      tag_66\n      jump\t// in\n    tag_117:\n        /* \"#utility.yul\":5234:5236   */\n      0x20\n        /* \"#utility.yul\":5229:5232   */\n      dup3\n        /* \"#utility.yul\":5225:5237   */\n      add\n        /* \"#utility.yul\":5218:5237   */\n      swap1\n      pop\n        /* \"#utility.yul\":4877:5243   */\n      swap2\n      swap1\n      pop\n      jump\t// out\n        /* \"#utility.yul\":5249:5668   */\n    tag_46:\n        /* \"#utility.yul\":5415:5419   */\n      0x00\n        /* \"#utility.yul\":5453:5455   */\n      0x20\n        /* \"#utility.yul\":5442:5451   */\n      dup3\n        /* \"#utility.yul\":5438:5456   */\n      add\n        /* \"#utility.yul\":5430:5456   */\n      swap1\n      pop\n        /* \"#utility.yul\":5502:5511   */\n      dup2\n        /* \"#utility.yul\":5496:5500   */\n      dup2\n        /* \"#utility.yul\":5492:5512   */\n      sub\n        /* \"#utility.yul\":5488:5489   */\n      0x00\n        /* \"#utility.yul\":5477:5486   */\n      dup4\n        /* \"#utility.yul\":5473:5490   */\n      add\n        /* \"#utility.yul\":5466:5513   */\n      mstore\n        /* \"#utility.yul\":5530:5661   */\n      tag_119\n        /* \"#utility.yul\":5656:5660   */\n      dup2\n        /* \"#utility.yul\":5530:5661   */\n      tag_67\n      jump\t// in\n    tag_119:\n        /* \"#utility.yul\":5522:5661   */\n      swap1\n      pop\n        /* \"#utility.yul\":5249:5668   */\n      swap2\n      swap1\n      pop\n      jump\t// out\n\n    auxdata: 0xa2646970667358221220760fc2d062807581982894eea72f59dc7e7c2eab42b4bb1a579a55f254bfbd7864736f6c63430008120033\n}\n",
				"bytecode": {
					"linkReferences": {},
					"object": "60806040526105cf806100136000396000f3fe6080604052600436106100435760003560e01c806312065fe01461004f578063636e082b1461007a57806374be480614610096578063830c29ae146100b25761004a565b3661004a57005b600080fd5b34801561005b57600080fd5b506100646100ce565b6040516100719190610351565b60405180910390f35b610094600480360381019061008f91906103cf565b6100d6565b005b6100b060048036038101906100ab91906103cf565b610195565b005b6100cc60048036038101906100c791906103cf565b61024d565b005b600047905090565b7fc4bdf5c325b8943bb4cdc6b9061f841f00eabad466bea4e7e81596dd5e0fa3d8607b5a604051610108929190610441565b60405180910390a18073ffffffffffffffffffffffffffffffffffffffff166108fc607b9081150290604051600060405180830381858888f19350505050158015610157573d6000803e3d6000fd5b507fc4bdf5c325b8943bb4cdc6b9061f841f00eabad466bea4e7e81596dd5e0fa3d8607b5a60405161018a929190610441565b60405180910390a150565b7fc4bdf5c325b8943bb4cdc6b9061f841f00eabad466bea4e7e81596dd5e0fa3d8607b5a6040516101c7929190610441565b60405180910390a160008173ffffffffffffffffffffffffffffffffffffffff166108fc607b9081150290604051600060405180830381858888f19350505050905080610249576040517f08c379a0000000000000000000000000000000000000000000000000000000008152600401610240906104c7565b60405180910390fd5b5050565b7fc4bdf5c325b8943bb4cdc6b9061f841f00eabad466bea4e7e81596dd5e0fa3d8607b5a60405161027f929190610441565b60405180910390a160008173ffffffffffffffffffffffffffffffffffffffff16607b6040516102ae90610518565b60006040518083038185875af1925050503d80600081146102eb576040519150601f19603f3d011682016040523d82523d6000602084013e6102f0565b606091505b5050905080610334576040517f08c379a000000000000000000000000000000000000000000000000000000000815260040161032b90610579565b60405180910390fd5b5050565b6000819050919050565b61034b81610338565b82525050565b60006020820190506103666000830184610342565b92915050565b600080fd5b600073ffffffffffffffffffffffffffffffffffffffff82169050919050565b600061039c82610371565b9050919050565b6103ac81610391565b81146103b757600080fd5b50565b6000813590506103c9816103a3565b92915050565b6000602082840312156103e5576103e461036c565b5b60006103f3848285016103ba565b91505092915050565b6000819050919050565b6000819050919050565b600061042b610426610421846103fc565b610406565b610338565b9050919050565b61043b81610410565b82525050565b60006040820190506104566000830185610432565b6104636020830184610342565b9392505050565b600082825260208201905092915050565b7f73656e64206661696c6564000000000000000000000000000000000000000000600082015250565b60006104b1600b8361046a565b91506104bc8261047b565b602082019050919050565b600060208201905081810360008301526104e0816104a4565b9050919050565b600081905092915050565b50565b60006105026000836104e7565b915061050d826104f2565b600082019050919050565b6000610523826104f5565b9150819050919050565b7f63616c6c206661696c6564000000000000000000000000000000000000000000600082015250565b6000610563600b8361046a565b915061056e8261052d565b602082019050919050565b6000602082019050818103600083015261059281610556565b905091905056fea2646970667358221220760fc2d062807581982894eea72f59dc7e7c2eab42b4bb1a579a55f254bfbd7864736f6c63430008120033",
					"opcodes": "PUSH1 0x80 PUSH1 0x40 MSTORE PUSH2 0x5CF DUP1 PUSH2 0x13 PUSH1 0x0 CODECOPY PUSH1 0x0 RETURN INVALID PUSH1 0x80 PUSH1 0x40 MSTORE PUSH1 0x4 CALLDATASIZE LT PUSH2 0x43 JUMPI PUSH1 0x0 CALLDATALOAD PUSH1 0xE0 SHR DUP1 PUSH4 0x12065FE0 EQ PUSH2 0x4F JUMPI DUP1 PUSH4 0x636E082B EQ PUSH2 0x7A JUMPI DUP1 PUSH4 0x74BE4806 EQ PUSH2 0x96 JUMPI DUP1 PUSH4 0x830C29AE EQ PUSH2 0xB2 JUMPI PUSH2 0x4A JUMP JUMPDEST CALLDATASIZE PUSH2 0x4A JUMPI STOP JUMPDEST PUSH1 0x0 DUP1 REVERT JUMPDEST CALLVALUE DUP1 ISZERO PUSH2 0x5B JUMPI PUSH1 0x0 DUP1 REVERT JUMPDEST POP PUSH2 0x64 PUSH2 0xCE JUMP JUMPDEST PUSH1 0x40 MLOAD PUSH2 0x71 SWAP2 SWAP1 PUSH2 0x351 JUMP JUMPDEST PUSH1 0x40 MLOAD DUP1 SWAP2 SUB SWAP1 RETURN JUMPDEST PUSH2 0x94 PUSH1 0x4 DUP1 CALLDATASIZE SUB DUP2 ADD SWAP1 PUSH2 0x8F SWAP2 SWAP1 PUSH2 0x3CF JUMP JUMPDEST PUSH2 0xD6 JUMP JUMPDEST STOP JUMPDEST PUSH2 0xB0 PUSH1 0x4 DUP1 CALLDATASIZE SUB DUP2 ADD SWAP1 PUSH2 0xAB SWAP2 SWAP1 PUSH2 0x3CF JUMP JUMPDEST PUSH2 0x195 JUMP JUMPDEST STOP JUMPDEST PUSH2 0xCC PUSH1 0x4 DUP1 CALLDATASIZE SUB DUP2 ADD SWAP1 PUSH2 0xC7 SWAP2 SWAP1 PUSH2 0x3CF JUMP JUMPDEST PUSH2 0x24D JUMP JUMPDEST STOP JUMPDEST PUSH1 0x0 SELFBALANCE SWAP1 POP SWAP1 JUMP JUMPDEST PUSH32 0xC4BDF5C325B8943BB4CDC6B9061F841F00EABAD466BEA4E7E81596DD5E0FA3D8 PUSH1 0x7B GAS PUSH1 0x40 MLOAD PUSH2 0x108 SWAP3 SWAP2 SWAP1 PUSH2 0x441 JUMP JUMPDEST PUSH1 0x40 MLOAD DUP1 SWAP2 SUB SWAP1 LOG1 DUP1 PUSH20 0xFFFFFFFFFFFFFFFFFFFFFFFFFFFFFFFFFFFFFFFF AND PUSH2 0x8FC PUSH1 0x7B SWAP1 DUP2 ISZERO MUL SWAP1 PUSH1 0x40 MLOAD PUSH1 0x0 PUSH1 0x40 MLOAD DUP1 DUP4 SUB DUP2 DUP6 DUP9 DUP9 CALL SWAP4 POP POP POP POP ISZERO DUP1 ISZERO PUSH2 0x157 JUMPI RETURNDATASIZE PUSH1 0x0 DUP1 RETURNDATACOPY RETURNDATASIZE PUSH1 0x0 REVERT JUMPDEST POP PUSH32 0xC4BDF5C325B8943BB4CDC6B9061F841F00EABAD466BEA4E7E81596DD5E0FA3D8 PUSH1 0x7B GAS PUSH1 0x40 MLOAD PUSH2 0x18A SWAP3 SWAP2 SWAP1 PUSH2 0x441 JUMP JUMPDEST PUSH1 0x40 MLOAD DUP1 SWAP2 SUB SWAP1 LOG1 POP JUMP JUMPDEST PUSH32 0xC4BDF5C325B8943BB4CDC6B9061F841F00EABAD466BEA4E7E81596DD5E0FA3D8 PUSH1 0x7B GAS PUSH1 0x40 MLOAD PUSH2 0x1C7 SWAP3 SWAP2 SWAP1 PUSH2 0x441 JUMP JUMPDEST PUSH1 0x40 MLOAD DUP1 SWAP2 SUB SWAP1 LOG1 PUSH1 0x0 DUP2 PUSH20 0xFFFFFFFFFFFFFFFFFFFFFFFFFFFFFFFFFFFFFFFF AND PUSH2 0x8FC PUSH1 0x7B SWAP1 DUP2 ISZERO MUL SWAP1 PUSH1 0x40 MLOAD PUSH1 0x0 PUSH1 0x40 MLOAD DUP1 DUP4 SUB DUP2 DUP6 DUP9 DUP9 CALL SWAP4 POP POP POP POP SWAP1 POP DUP1 PUSH2 0x249 JUMPI PUSH1 0x40 MLOAD PUSH32 0x8C379A000000000000000000000000000000000000000000000000000000000 DUP2 MSTORE PUSH1 0x4 ADD PUSH2 0x240 SWAP1 PUSH2 0x4C7 JUMP JUMPDEST PUSH1 0x40 MLOAD DUP1 SWAP2 SUB SWAP1 REVERT JUMPDEST POP POP JUMP JUMPDEST PUSH32 0xC4BDF5C325B8943BB4CDC6B9061F841F00EABAD466BEA4E7E81596DD5E0FA3D8 PUSH1 0x7B GAS PUSH1 0x40 MLOAD PUSH2 0x27F SWAP3 SWAP2 SWAP1 PUSH2 0x441 JUMP JUMPDEST PUSH1 0x40 MLOAD DUP1 SWAP2 SUB SWAP1 LOG1 PUSH1 0x0 DUP2 PUSH20 0xFFFFFFFFFFFFFFFFFFFFFFFFFFFFFFFFFFFFFFFF AND PUSH1 0x7B PUSH1 0x40 MLOAD PUSH2 0x2AE SWAP1 PUSH2 0x518 JUMP JUMPDEST PUSH1 0x0 PUSH1 0x40 MLOAD DUP1 DUP4 SUB DUP2 DUP6 DUP8 GAS CALL SWAP3 POP POP POP RETURNDATASIZE DUP1 PUSH1 0x0 DUP2 EQ PUSH2 0x2EB JUMPI PUSH1 0x40 MLOAD SWAP2 POP PUSH1 0x1F NOT PUSH1 0x3F RETURNDATASIZE ADD AND DUP3 ADD PUSH1 0x40 MSTORE RETURNDATASIZE DUP3 MSTORE RETURNDATASIZE PUSH1 0x0 PUSH1 0x20 DUP5 ADD RETURNDATACOPY PUSH2 0x2F0 JUMP JUMPDEST PUSH1 0x60 SWAP2 POP JUMPDEST POP POP SWAP1 POP DUP1 PUSH2 0x334 JUMPI PUSH1 0x40 MLOAD PUSH32 0x8C379A000000000000000000000000000000000000000000000000000000000 DUP2 MSTORE PUSH1 0x4 ADD PUSH2 0x32B SWAP1 PUSH2 0x579 JUMP JUMPDEST PUSH1 0x40 MLOAD DUP1 SWAP2 SUB SWAP1 REVERT JUMPDEST POP POP JUMP JUMPDEST PUSH1 0x0 DUP2 SWAP1 POP SWAP2 SWAP1 POP JUMP JUMPDEST PUSH2 0x34B DUP2 PUSH2 0x338 JUMP JUMPDEST DUP3 MSTORE POP POP JUMP JUMPDEST PUSH1 0x0 PUSH1 0x20 DUP3 ADD SWAP1 POP PUSH2 0x366 PUSH1 0x0 DUP4 ADD DUP5 PUSH2 0x342 JUMP JUMPDEST SWAP3 SWAP2 POP POP JUMP JUMPDEST PUSH1 0x0 DUP1 REVERT JUMPDEST PUSH1 0x0 PUSH20 0xFFFFFFFFFFFFFFFFFFFFFFFFFFFFFFFFFFFFFFFF DUP3 AND SWAP1 POP SWAP2 SWAP1 POP JUMP JUMPDEST PUSH1 0x0 PUSH2 0x39C DUP3 PUSH2 0x371 JUMP JUMPDEST SWAP1 POP SWAP2 SWAP1 POP JUMP JUMPDEST PUSH2 0x3AC DUP2 PUSH2 0x391 JUMP JUMPDEST DUP2 EQ PUSH2 0x3B7 JUMPI PUSH1 0x0 DUP1 REVERT JUMPDEST POP JUMP JUMPDEST PUSH1 0x0 DUP2 CALLDATALOAD SWAP1 POP PUSH2 0x3C9 DUP2 PUSH2 0x3A3 JUMP JUMPDEST SWAP3 SWAP2 POP POP JUMP JUMPDEST PUSH1 0x0 PUSH1 0x20 DUP3 DUP5 SUB SLT ISZERO PUSH2 0x3E5 JUMPI PUSH2 0x3E4 PUSH2 0x36C JUMP JUMPDEST JUMPDEST PUSH1 0x0 PUSH2 0x3F3 DUP5 DUP3 DUP6 ADD PUSH2 0x3BA JUMP JUMPDEST SWAP2 POP POP SWAP3 SWAP2 POP POP JUMP JUMPDEST PUSH1 0x0 DUP2 SWAP1 POP SWAP2 SWAP1 POP JUMP JUMPDEST PUSH1 0x0 DUP2 SWAP1 POP SWAP2 SWAP1 POP JUMP JUMPDEST PUSH1 0x0 PUSH2 0x42B PUSH2 0x426 PUSH2 0x421 DUP5 PUSH2 0x3FC JUMP JUMPDEST PUSH2 0x406 JUMP JUMPDEST PUSH2 0x338 JUMP JUMPDEST SWAP1 POP SWAP2 SWAP1 POP JUMP JUMPDEST PUSH2 0x43B DUP2 PUSH2 0x410 JUMP JUMPDEST DUP3 MSTORE POP POP JUMP JUMPDEST PUSH1 0x0 PUSH1 0x40 DUP3 ADD SWAP1 POP PUSH2 0x456 PUSH1 0x0 DUP4 ADD DUP6 PUSH2 0x432 JUMP JUMPDEST PUSH2 0x463 PUSH1 0x20 DUP4 ADD DUP5 PUSH2 0x342 JUMP JUMPDEST SWAP4 SWAP3 POP POP POP JUMP JUMPDEST PUSH1 0x0 DUP3 DUP3 MSTORE PUSH1 0x20 DUP3 ADD SWAP1 POP SWAP3 SWAP2 POP POP JUMP JUMPDEST PUSH32 0x73656E64206661696C6564000000000000000000000000000000000000000000 PUSH1 0x0 DUP3 ADD MSTORE POP JUMP JUMPDEST PUSH1 0x0 PUSH2 0x4B1 PUSH1 0xB DUP4 PUSH2 0x46A JUMP JUMPDEST SWAP2 POP PUSH2 0x4BC DUP3 PUSH2 0x47B JUMP JUMPDEST PUSH1 0x20 DUP3 ADD SWAP1 POP SWAP2 SWAP1 POP JUMP JUMPDEST PUSH1 0x0 PUSH1 0x20 DUP3 ADD SWAP1 POP DUP2 DUP2 SUB PUSH1 0x0 DUP4 ADD MSTORE PUSH2 0x4E0 DUP2 PUSH2 0x4A4 JUMP JUMPDEST SWAP1 POP SWAP2 SWAP1 POP JUMP JUMPDEST PUSH1 0x0 DUP2 SWAP1 POP SWAP3 SWAP2 POP POP JUMP JUMPDEST POP JUMP JUMPDEST PUSH1 0x0 PUSH2 0x502 PUSH1 0x0 DUP4 PUSH2 0x4E7 JUMP JUMPDEST SWAP2 POP PUSH2 0x50D DUP3 PUSH2 0x4F2 JUMP JUMPDEST PUSH1 0x0 DUP3 ADD SWAP1 POP SWAP2 SWAP1 POP JUMP JUMPDEST PUSH1 0x0 PUSH2 0x523 DUP3 PUSH2 0x4F5 JUMP JUMPDEST SWAP2 POP DUP2 SWAP1 POP SWAP2 SWAP1 POP JUMP JUMPDEST PUSH32 0x63616C6C206661696C6564000000000000000000000000000000000000000000 PUSH1 0x0 DUP3 ADD MSTORE POP JUMP JUMPDEST PUSH1 0x0 PUSH2 0x563 PUSH1 0xB DUP4 PUSH2 0x46A JUMP JUMPDEST SWAP2 POP PUSH2 0x56E DUP3 PUSH2 0x52D JUMP JUMPDEST PUSH1 0x20 DUP3 ADD SWAP1 POP SWAP2 SWAP1 POP JUMP JUMPDEST PUSH1 0x0 PUSH1 0x20 DUP3 ADD SWAP1 POP DUP2 DUP2 SUB PUSH1 0x0 DUP4 ADD MSTORE PUSH2 0x592 DUP2 PUSH2 0x556 JUMP JUMPDEST SWAP1 POP SWAP2 SWAP1 POP JUMP INVALID LOG2 PUSH5 0x6970667358 0x22 SLT KECCAK256 PUSH23 0xFC2D062807581982894EEA72F59DC7E7C2EAB42B4BB1A JUMPI SWAP11 SSTORE CALLCODE SLOAD 0xBF 0xBD PUSH25 0x64736F6C634300081200330000000000000000000000000000 "
				},
				"gasEstimates": {
					"creation": {
						"codeDepositCost": "297400",
						"executionCost": "313",
						"totalCost": "297713"
					},
					"external": {
						"getBalance()": "317",
						"sendViaCall(address)": "infinite",
						"sendViaSend(address)": "infinite",
						"sendViaTransfer(address)": "infinite"
					}
				},
				"methodIdentifiers": {
					"getBalance()": "12065fe0",
					"sendViaCall(address)": "830c29ae",
					"sendViaSend(address)": "74be4806",
					"sendViaTransfer(address)": "636e082b"
				}
			},
			"storageLayout": {
				"storage": [],
				"types": null
			},
			"userdoc": {
				"kind": "user",
				"methods": {},
				"version": 1
			}
		}
	}
}