{
	"contracts/unipool/PoolAddress.sol": {
		"PoolAddress": {
			"abi": [
				{
					"anonymous": false,
					"inputs": [
						{
							"indexed": true,
							"internalType": "uint256",
							"name": "paUint256",
							"type": "uint256"
						},
						{
							"indexed": true,
							"internalType": "uint160",
							"name": "paUint160",
							"type": "uint160"
						},
						{
							"indexed": true,
							"internalType": "address",
							"name": "pa",
							"type": "address"
						}
					],
					"name": "K1",
					"type": "event"
				},
				{
					"inputs": [
						{
							"internalType": "address",
							"name": "factory",
							"type": "address"
						},
						{
							"components": [
								{
									"internalType": "address",
									"name": "token0",
									"type": "address"
								},
								{
									"internalType": "address",
									"name": "token1",
									"type": "address"
								},
								{
									"internalType": "uint24",
									"name": "fee",
									"type": "uint24"
								}
							],
							"internalType": "struct PoolAddress.PoolKey",
							"name": "key",
							"type": "tuple"
						}
					],
					"name": "computeAddress",
					"outputs": [
						{
							"internalType": "address",
							"name": "",
							"type": "address"
						}
					],
					"stateMutability": "nonpayable",
					"type": "function"
				},
				{
					"inputs": [
						{
							"internalType": "address",
							"name": "factory",
							"type": "address"
						},
						{
							"internalType": "address",
							"name": "tokenA",
							"type": "address"
						},
						{
							"internalType": "address",
							"name": "tokenB",
							"type": "address"
						},
						{
							"internalType": "uint24",
							"name": "fee",
							"type": "uint24"
						}
					],
					"name": "encodePackedPoolKey",
					"outputs": [
						{
							"internalType": "bytes",
							"name": "result",
							"type": "bytes"
						}
					],
					"stateMutability": "pure",
					"type": "function"
				},
				{
					"inputs": [
						{
							"internalType": "address",
							"name": "tokenA",
							"type": "address"
						},
						{
							"internalType": "address",
							"name": "tokenB",
							"type": "address"
						},
						{
							"internalType": "uint24",
							"name": "fee",
							"type": "uint24"
						}
					],
					"name": "encodePoolKey",
					"outputs": [
						{
							"internalType": "bytes",
							"name": "result",
							"type": "bytes"
						}
					],
					"stateMutability": "pure",
					"type": "function"
				},
				{
					"inputs": [
						{
							"internalType": "address",
							"name": "tokenA",
							"type": "address"
						},
						{
							"internalType": "address",
							"name": "tokenB",
							"type": "address"
						},
						{
							"internalType": "uint24",
							"name": "fee",
							"type": "uint24"
						}
					],
					"name": "getPoolKey",
					"outputs": [
						{
							"components": [
								{
									"internalType": "address",
									"name": "token0",
									"type": "address"
								},
								{
									"internalType": "address",
									"name": "token1",
									"type": "address"
								},
								{
									"internalType": "uint24",
									"name": "fee",
									"type": "uint24"
								}
							],
							"internalType": "struct PoolAddress.PoolKey",
							"name": "",
							"type": "tuple"
						}
					],
					"stateMutability": "pure",
					"type": "function"
				},
				{
					"inputs": [
						{
							"internalType": "address",
							"name": "factory",
							"type": "address"
						},
						{
							"internalType": "address",
							"name": "tokenA",
							"type": "address"
						},
						{
							"internalType": "address",
							"name": "tokenB",
							"type": "address"
						},
						{
							"internalType": "uint24",
							"name": "fee",
							"type": "uint24"
						}
					],
					"name": "keccak256EncodePackedPoolKey",
					"outputs": [
						{
							"internalType": "bytes32",
							"name": "result",
							"type": "bytes32"
						}
					],
					"stateMutability": "pure",
					"type": "function"
				},
				{
					"inputs": [
						{
							"internalType": "address",
							"name": "tokenA",
							"type": "address"
						},
						{
							"internalType": "address",
							"name": "tokenB",
							"type": "address"
						},
						{
							"internalType": "uint24",
							"name": "fee",
							"type": "uint24"
						}
					],
					"name": "keccak256PoolKey",
					"outputs": [
						{
							"internalType": "bytes32",
							"name": "result",
							"type": "bytes32"
						}
					],
					"stateMutability": "pure",
					"type": "function"
				}
			],
			"devdoc": {
				"kind": "dev",
				"methods": {},
				"version": 1
			},
			"evm": {
				"assembly": "    /* \"contracts/unipool/PoolAddress.sol\":66:2689  contract PoolAddress {... */\n  mstore(0x40, 0x80)\n  callvalue\n  dup1\n  iszero\n  tag_1\n  jumpi\n  0x00\n  dup1\n  revert\ntag_1:\n  pop\n  dataSize(sub_0)\n  dup1\n  dataOffset(sub_0)\n  0x00\n  codecopy\n  0x00\n  return\nstop\n\nsub_0: assembly {\n        /* \"contracts/unipool/PoolAddress.sol\":66:2689  contract PoolAddress {... */\n      mstore(0x40, 0x80)\n      callvalue\n      dup1\n      iszero\n      tag_1\n      jumpi\n      0x00\n      dup1\n      revert\n    tag_1:\n      pop\n      jumpi(tag_2, lt(calldatasize, 0x04))\n      shr(0xe0, calldataload(0x00))\n      dup1\n      0x2b6d5d8f\n      eq\n      tag_3\n      jumpi\n      dup1\n      0x4670168d\n      eq\n      tag_4\n      jumpi\n      dup1\n      0x4aa9f207\n      eq\n      tag_5\n      jumpi\n      dup1\n      0x83092a82\n      eq\n      tag_6\n      jumpi\n      dup1\n      0xbb560b08\n      eq\n      tag_7\n      jumpi\n      dup1\n      0xd80adc52\n      eq\n      tag_8\n      jumpi\n    tag_2:\n      0x00\n      dup1\n      revert\n        /* \"contracts/unipool/PoolAddress.sol\":310:582  function getPoolKey(... */\n    tag_3:\n      tag_9\n      0x04\n      dup1\n      calldatasize\n      sub\n      dup2\n      add\n      swap1\n      tag_10\n      swap2\n      swap1\n      tag_11\n      jump\t// in\n    tag_10:\n      tag_12\n      jump\t// in\n    tag_9:\n      mload(0x40)\n      tag_13\n      swap2\n      swap1\n      tag_14\n      jump\t// in\n    tag_13:\n      mload(0x40)\n      dup1\n      swap2\n      sub\n      swap1\n      return\n        /* \"contracts/unipool/PoolAddress.sol\":1078:1512  function encodePackedPoolKey(... */\n    tag_4:\n      tag_15\n      0x04\n      dup1\n      calldatasize\n      sub\n      dup2\n      add\n      swap1\n      tag_16\n      swap2\n      swap1\n      tag_17\n      jump\t// in\n    tag_16:\n      tag_18\n      jump\t// in\n    tag_15:\n      mload(0x40)\n      tag_19\n      swap2\n      swap1\n      tag_20\n      jump\t// in\n    tag_19:\n      mload(0x40)\n      dup1\n      swap2\n      sub\n      swap1\n      return\n        /* \"contracts/unipool/PoolAddress.sol\":864:1072  function keccak256PoolKey(... */\n    tag_5:\n      tag_21\n      0x04\n      dup1\n      calldatasize\n      sub\n      dup2\n      add\n      swap1\n      tag_22\n      swap2\n      swap1\n      tag_11\n      jump\t// in\n    tag_22:\n      tag_23\n      jump\t// in\n    tag_21:\n      mload(0x40)\n      tag_24\n      swap2\n      swap1\n      tag_25\n      jump\t// in\n    tag_24:\n      mload(0x40)\n      dup1\n      swap2\n      sub\n      swap1\n      return\n        /* \"contracts/unipool/PoolAddress.sol\":1785:2597  function computeAddress(address factory, PoolKey memory key) external returns (address) {... */\n    tag_6:\n      tag_26\n      0x04\n      dup1\n      calldatasize\n      sub\n      dup2\n      add\n      swap1\n      tag_27\n      swap2\n      swap1\n      tag_28\n      jump\t// in\n    tag_27:\n      tag_29\n      jump\t// in\n    tag_26:\n      mload(0x40)\n      tag_30\n      swap2\n      swap1\n      tag_31\n      jump\t// in\n    tag_30:\n      mload(0x40)\n      dup1\n      swap2\n      sub\n      swap1\n      return\n        /* \"contracts/unipool/PoolAddress.sol\":1518:1779  function keccak256EncodePackedPoolKey(... */\n    tag_7:\n      tag_32\n      0x04\n      dup1\n      calldatasize\n      sub\n      dup2\n      add\n      swap1\n      tag_33\n      swap2\n      swap1\n      tag_17\n      jump\t// in\n    tag_33:\n      tag_34\n      jump\t// in\n    tag_32:\n      mload(0x40)\n      tag_35\n      swap2\n      swap1\n      tag_25\n      jump\t// in\n    tag_35:\n      mload(0x40)\n      dup1\n      swap2\n      sub\n      swap1\n      return\n        /* \"contracts/unipool/PoolAddress.sol\":588:858  function encodePoolKey(... */\n    tag_8:\n      tag_36\n      0x04\n      dup1\n      calldatasize\n      sub\n      dup2\n      add\n      swap1\n      tag_37\n      swap2\n      swap1\n      tag_11\n      jump\t// in\n    tag_37:\n      tag_38\n      jump\t// in\n    tag_36:\n      mload(0x40)\n      tag_39\n      swap2\n      swap1\n      tag_20\n      jump\t// in\n    tag_39:\n      mload(0x40)\n      dup1\n      swap2\n      sub\n      swap1\n      return\n        /* \"contracts/unipool/PoolAddress.sol\":310:582  function getPoolKey(... */\n    tag_12:\n        /* \"contracts/unipool/PoolAddress.sol\":425:439  PoolKey memory */\n      tag_40\n      tag_41\n      jump\t// in\n    tag_40:\n        /* \"contracts/unipool/PoolAddress.sol\":464:470  tokenB */\n      dup3\n        /* \"contracts/unipool/PoolAddress.sol\":455:470  tokenA > tokenB */\n      0xffffffffffffffffffffffffffffffffffffffff\n      and\n        /* \"contracts/unipool/PoolAddress.sol\":455:461  tokenA */\n      dup5\n        /* \"contracts/unipool/PoolAddress.sol\":455:470  tokenA > tokenB */\n      0xffffffffffffffffffffffffffffffffffffffff\n      and\n      gt\n        /* \"contracts/unipool/PoolAddress.sol\":451:507  if (tokenA > tokenB) (tokenA, tokenB) = (tokenB, tokenA) */\n      iszero\n      tag_43\n      jumpi\n        /* \"contracts/unipool/PoolAddress.sol\":492:498  tokenB */\n      dup3\n        /* \"contracts/unipool/PoolAddress.sol\":500:506  tokenA */\n      dup5\n        /* \"contracts/unipool/PoolAddress.sol\":472:507  (tokenA, tokenB) = (tokenB, tokenA) */\n      dup1\n      swap5\n      pop\n      dup2\n      swap6\n      pop\n      pop\n      pop\n        /* \"contracts/unipool/PoolAddress.sol\":451:507  if (tokenA > tokenB) (tokenA, tokenB) = (tokenB, tokenA) */\n    tag_43:\n        /* \"contracts/unipool/PoolAddress.sol\":524:575  PoolKey({token0: tokenA, token1: tokenB, fee: fee}) */\n      mload(0x40)\n      dup1\n      0x60\n      add\n      0x40\n      mstore\n      dup1\n        /* \"contracts/unipool/PoolAddress.sol\":541:547  tokenA */\n      dup6\n        /* \"contracts/unipool/PoolAddress.sol\":524:575  PoolKey({token0: tokenA, token1: tokenB, fee: fee}) */\n      0xffffffffffffffffffffffffffffffffffffffff\n      and\n      dup2\n      mstore\n      0x20\n      add\n        /* \"contracts/unipool/PoolAddress.sol\":557:563  tokenB */\n      dup5\n        /* \"contracts/unipool/PoolAddress.sol\":524:575  PoolKey({token0: tokenA, token1: tokenB, fee: fee}) */\n      0xffffffffffffffffffffffffffffffffffffffff\n      and\n      dup2\n      mstore\n      0x20\n      add\n        /* \"contracts/unipool/PoolAddress.sol\":570:573  fee */\n      dup4\n        /* \"contracts/unipool/PoolAddress.sol\":524:575  PoolKey({token0: tokenA, token1: tokenB, fee: fee}) */\n      0xffffff\n      and\n      dup2\n      mstore\n      pop\n        /* \"contracts/unipool/PoolAddress.sol\":517:575  return PoolKey({token0: tokenA, token1: tokenB, fee: fee}) */\n      swap1\n      pop\n        /* \"contracts/unipool/PoolAddress.sol\":310:582  function getPoolKey(... */\n      swap4\n      swap3\n      pop\n      pop\n      pop\n      jump\t// out\n        /* \"contracts/unipool/PoolAddress.sol\":1078:1512  function encodePackedPoolKey(... */\n    tag_18:\n        /* \"contracts/unipool/PoolAddress.sol\":1228:1247  bytes memory result */\n      0x60\n        /* \"contracts/unipool/PoolAddress.sol\":1259:1269  bytes32 pk */\n      0x00\n        /* \"contracts/unipool/PoolAddress.sol\":1272:1309  keccak256PoolKey(tokenA, tokenB, fee) */\n      tag_45\n        /* \"contracts/unipool/PoolAddress.sol\":1289:1295  tokenA */\n      dup6\n        /* \"contracts/unipool/PoolAddress.sol\":1297:1303  tokenB */\n      dup6\n        /* \"contracts/unipool/PoolAddress.sol\":1305:1308  fee */\n      dup6\n        /* \"contracts/unipool/PoolAddress.sol\":1272:1288  keccak256PoolKey */\n      tag_23\n        /* \"contracts/unipool/PoolAddress.sol\":1272:1309  keccak256PoolKey(tokenA, tokenB, fee) */\n      jump\t// in\n    tag_45:\n        /* \"contracts/unipool/PoolAddress.sol\":1259:1309  bytes32 pk = keccak256PoolKey(tokenA, tokenB, fee) */\n      swap1\n      pop\n        /* \"contracts/unipool/PoolAddress.sol\":1403:1410  factory */\n      dup6\n        /* \"contracts/unipool/PoolAddress.sol\":1436:1438  pk */\n      dup2\n        /* \"contracts/unipool/PoolAddress.sol\":141:207  0xe34f199b19b2b4f47f68442619d555527d244f78a3297ea89325f843f87b8b54 */\n      0xe34f199b19b2b4f47f68442619d555527d244f78a3297ea89325f843f87b8b54\n        /* \"contracts/unipool/PoolAddress.sol\":1464:1483  POOL_INIT_CODE_HASH */\n      0x00\n      shl\n        /* \"contracts/unipool/PoolAddress.sol\":1328:1505  abi.encodePacked(... */\n      add(0x20, mload(0x40))\n      tag_46\n      swap4\n      swap3\n      swap2\n      swap1\n      tag_47\n      jump\t// in\n    tag_46:\n      mload(0x40)\n      0x20\n      dup2\n      dup4\n      sub\n      sub\n      dup2\n      mstore\n      swap1\n      0x40\n      mstore\n        /* \"contracts/unipool/PoolAddress.sol\":1319:1505  result = abi.encodePacked(... */\n      swap2\n      pop\n        /* \"contracts/unipool/PoolAddress.sol\":1249:1512  {... */\n      pop\n        /* \"contracts/unipool/PoolAddress.sol\":1078:1512  function encodePackedPoolKey(... */\n      swap5\n      swap4\n      pop\n      pop\n      pop\n      pop\n      jump\t// out\n        /* \"contracts/unipool/PoolAddress.sol\":864:1072  function keccak256PoolKey(... */\n    tag_23:\n        /* \"contracts/unipool/PoolAddress.sol\":985:999  bytes32 result */\n      0x00\n        /* \"contracts/unipool/PoolAddress.sol\":1030:1064  encodePoolKey(tokenA, tokenB, fee) */\n      tag_49\n        /* \"contracts/unipool/PoolAddress.sol\":1044:1050  tokenA */\n      dup5\n        /* \"contracts/unipool/PoolAddress.sol\":1052:1058  tokenB */\n      dup5\n        /* \"contracts/unipool/PoolAddress.sol\":1060:1063  fee */\n      dup5\n        /* \"contracts/unipool/PoolAddress.sol\":1030:1043  encodePoolKey */\n      tag_38\n        /* \"contracts/unipool/PoolAddress.sol\":1030:1064  encodePoolKey(tokenA, tokenB, fee) */\n      jump\t// in\n    tag_49:\n        /* \"contracts/unipool/PoolAddress.sol\":1020:1065  keccak256(encodePoolKey(tokenA, tokenB, fee)) */\n      dup1\n      mload\n      swap1\n      0x20\n      add\n      keccak256\n        /* \"contracts/unipool/PoolAddress.sol\":1011:1065  result = keccak256(encodePoolKey(tokenA, tokenB, fee)) */\n      swap1\n      pop\n        /* \"contracts/unipool/PoolAddress.sol\":864:1072  function keccak256PoolKey(... */\n      swap4\n      swap3\n      pop\n      pop\n      pop\n      jump\t// out\n        /* \"contracts/unipool/PoolAddress.sol\":1785:2597  function computeAddress(address factory, PoolKey memory key) external returns (address) {... */\n    tag_29:\n        /* \"contracts/unipool/PoolAddress.sol\":1864:1871  address */\n      0x00\n        /* \"contracts/unipool/PoolAddress.sol\":1904:1907  key */\n      dup2\n        /* \"contracts/unipool/PoolAddress.sol\":1904:1914  key.token1 */\n      0x20\n      add\n      mload\n        /* \"contracts/unipool/PoolAddress.sol\":1891:1914  key.token0 < key.token1 */\n      0xffffffffffffffffffffffffffffffffffffffff\n      and\n        /* \"contracts/unipool/PoolAddress.sol\":1891:1894  key */\n      dup3\n        /* \"contracts/unipool/PoolAddress.sol\":1891:1901  key.token0 */\n      0x00\n      add\n      mload\n        /* \"contracts/unipool/PoolAddress.sol\":1891:1914  key.token0 < key.token1 */\n      0xffffffffffffffffffffffffffffffffffffffff\n      and\n      lt\n        /* \"contracts/unipool/PoolAddress.sol\":1883:1915  require(key.token0 < key.token1) */\n      tag_51\n      jumpi\n      0x00\n      dup1\n      revert\n    tag_51:\n        /* \"contracts/unipool/PoolAddress.sol\":1926:1935  bytes32 k */\n      0x00\n        /* \"contracts/unipool/PoolAddress.sol\":1938:2008  keccak256EncodePackedPoolKey(factory, key.token0, key.token1, key.fee) */\n      tag_52\n        /* \"contracts/unipool/PoolAddress.sol\":1967:1974  factory */\n      dup5\n        /* \"contracts/unipool/PoolAddress.sol\":1976:1979  key */\n      dup5\n        /* \"contracts/unipool/PoolAddress.sol\":1976:1986  key.token0 */\n      0x00\n      add\n      mload\n        /* \"contracts/unipool/PoolAddress.sol\":1988:1991  key */\n      dup6\n        /* \"contracts/unipool/PoolAddress.sol\":1988:1998  key.token1 */\n      0x20\n      add\n      mload\n        /* \"contracts/unipool/PoolAddress.sol\":2000:2003  key */\n      dup7\n        /* \"contracts/unipool/PoolAddress.sol\":2000:2007  key.fee */\n      0x40\n      add\n      mload\n        /* \"contracts/unipool/PoolAddress.sol\":1938:1966  keccak256EncodePackedPoolKey */\n      tag_34\n        /* \"contracts/unipool/PoolAddress.sol\":1938:2008  keccak256EncodePackedPoolKey(factory, key.token0, key.token1, key.fee) */\n      jump\t// in\n    tag_52:\n        /* \"contracts/unipool/PoolAddress.sol\":1926:2008  bytes32 k = keccak256EncodePackedPoolKey(factory, key.token0, key.token1, key.fee) */\n      swap1\n      pop\n        /* \"contracts/unipool/PoolAddress.sol\":2398:2417  uint256 poolAddress */\n      0x00\n        /* \"contracts/unipool/PoolAddress.sol\":2428:2429  k */\n      dup2\n        /* \"contracts/unipool/PoolAddress.sol\":2420:2430  uint256(k) */\n      0x00\n      shr\n        /* \"contracts/unipool/PoolAddress.sol\":2398:2430  uint256 poolAddress = uint256(k) */\n      swap1\n      pop\n        /* \"contracts/unipool/PoolAddress.sol\":2440:2453  uint160 pa160 */\n      0x00\n        /* \"contracts/unipool/PoolAddress.sol\":2464:2475  poolAddress */\n      dup2\n        /* \"contracts/unipool/PoolAddress.sol\":2440:2476  uint160 pa160 = uint160(poolAddress) */\n      swap1\n      pop\n        /* \"contracts/unipool/PoolAddress.sol\":2495:2507  address pool */\n      0x00\n        /* \"contracts/unipool/PoolAddress.sol\":2518:2523  pa160 */\n      dup2\n        /* \"contracts/unipool/PoolAddress.sol\":2495:2524  address pool = address(pa160) */\n      swap1\n      pop\n        /* \"contracts/unipool/PoolAddress.sol\":2563:2567  pool */\n      dup1\n        /* \"contracts/unipool/PoolAddress.sol\":2540:2568  K1(poolAddress, pa160, pool) */\n      0xffffffffffffffffffffffffffffffffffffffff\n      and\n        /* \"contracts/unipool/PoolAddress.sol\":2556:2561  pa160 */\n      dup3\n        /* \"contracts/unipool/PoolAddress.sol\":2540:2568  K1(poolAddress, pa160, pool) */\n      0xffffffffffffffffffffffffffffffffffffffff\n      and\n        /* \"contracts/unipool/PoolAddress.sol\":2543:2554  poolAddress */\n      dup5\n        /* \"contracts/unipool/PoolAddress.sol\":2540:2568  K1(poolAddress, pa160, pool) */\n      0xbb10f7f9321ccf06b496ddee91a1f5f7586468a404a1b0ad959be6bda9813396\n      mload(0x40)\n      mload(0x40)\n      dup1\n      swap2\n      sub\n      swap1\n      log4\n        /* \"contracts/unipool/PoolAddress.sol\":2586:2590  pool */\n      dup1\n        /* \"contracts/unipool/PoolAddress.sol\":2579:2590  return pool */\n      swap5\n      pop\n      pop\n      pop\n      pop\n      pop\n        /* \"contracts/unipool/PoolAddress.sol\":1785:2597  function computeAddress(address factory, PoolKey memory key) external returns (address) {... */\n      swap3\n      swap2\n      pop\n      pop\n      jump\t// out\n        /* \"contracts/unipool/PoolAddress.sol\":1518:1779  function keccak256EncodePackedPoolKey(... */\n    tag_34:\n        /* \"contracts/unipool/PoolAddress.sol\":1677:1691  bytes32 result */\n      0x00\n        /* \"contracts/unipool/PoolAddress.sol\":1722:1771  encodePackedPoolKey(factory, tokenA, tokenB, fee) */\n      tag_54\n        /* \"contracts/unipool/PoolAddress.sol\":1742:1749  factory */\n      dup6\n        /* \"contracts/unipool/PoolAddress.sol\":1751:1757  tokenA */\n      dup6\n        /* \"contracts/unipool/PoolAddress.sol\":1759:1765  tokenB */\n      dup6\n        /* \"contracts/unipool/PoolAddress.sol\":1767:1770  fee */\n      dup6\n        /* \"contracts/unipool/PoolAddress.sol\":1722:1741  encodePackedPoolKey */\n      tag_18\n        /* \"contracts/unipool/PoolAddress.sol\":1722:1771  encodePackedPoolKey(factory, tokenA, tokenB, fee) */\n      jump\t// in\n    tag_54:\n        /* \"contracts/unipool/PoolAddress.sol\":1712:1772  keccak256(encodePackedPoolKey(factory, tokenA, tokenB, fee)) */\n      dup1\n      mload\n      swap1\n      0x20\n      add\n      keccak256\n        /* \"contracts/unipool/PoolAddress.sol\":1703:1772  result = keccak256(encodePackedPoolKey(factory, tokenA, tokenB, fee)) */\n      swap1\n      pop\n        /* \"contracts/unipool/PoolAddress.sol\":1518:1779  function keccak256EncodePackedPoolKey(... */\n      swap5\n      swap4\n      pop\n      pop\n      pop\n      pop\n      jump\t// out\n        /* \"contracts/unipool/PoolAddress.sol\":588:858  function encodePoolKey(... */\n    tag_38:\n        /* \"contracts/unipool/PoolAddress.sol\":706:725  bytes memory result */\n      0x60\n        /* \"contracts/unipool/PoolAddress.sol\":737:755  PoolKey memory key */\n      0x00\n        /* \"contracts/unipool/PoolAddress.sol\":758:789  getPoolKey(tokenA, tokenB, fee) */\n      tag_56\n        /* \"contracts/unipool/PoolAddress.sol\":769:775  tokenA */\n      dup6\n        /* \"contracts/unipool/PoolAddress.sol\":777:783  tokenB */\n      dup6\n        /* \"contracts/unipool/PoolAddress.sol\":785:788  fee */\n      dup6\n        /* \"contracts/unipool/PoolAddress.sol\":758:768  getPoolKey */\n      tag_12\n        /* \"contracts/unipool/PoolAddress.sol\":758:789  getPoolKey(tokenA, tokenB, fee) */\n      jump\t// in\n    tag_56:\n        /* \"contracts/unipool/PoolAddress.sol\":737:789  PoolKey memory key = getPoolKey(tokenA, tokenB, fee) */\n      swap1\n      pop\n        /* \"contracts/unipool/PoolAddress.sol\":819:822  key */\n      dup1\n        /* \"contracts/unipool/PoolAddress.sol\":819:829  key.token0 */\n      0x00\n      add\n      mload\n        /* \"contracts/unipool/PoolAddress.sol\":831:834  key */\n      dup2\n        /* \"contracts/unipool/PoolAddress.sol\":831:841  key.token1 */\n      0x20\n      add\n      mload\n        /* \"contracts/unipool/PoolAddress.sol\":843:846  key */\n      dup3\n        /* \"contracts/unipool/PoolAddress.sol\":843:850  key.fee */\n      0x40\n      add\n      mload\n        /* \"contracts/unipool/PoolAddress.sol\":808:851  abi.encode(key.token0, key.token1, key.fee) */\n      add(0x20, mload(0x40))\n      tag_57\n      swap4\n      swap3\n      swap2\n      swap1\n      tag_58\n      jump\t// in\n    tag_57:\n      mload(0x40)\n      0x20\n      dup2\n      dup4\n      sub\n      sub\n      dup2\n      mstore\n      swap1\n      0x40\n      mstore\n        /* \"contracts/unipool/PoolAddress.sol\":799:851  result = abi.encode(key.token0, key.token1, key.fee) */\n      swap2\n      pop\n        /* \"contracts/unipool/PoolAddress.sol\":727:858  {... */\n      pop\n        /* \"contracts/unipool/PoolAddress.sol\":588:858  function encodePoolKey(... */\n      swap4\n      swap3\n      pop\n      pop\n      pop\n      jump\t// out\n    tag_41:\n      mload(0x40)\n      dup1\n      0x60\n      add\n      0x40\n      mstore\n      dup1\n      and(0xffffffffffffffffffffffffffffffffffffffff, 0x00)\n      dup2\n      mstore\n      0x20\n      add\n      and(0xffffffffffffffffffffffffffffffffffffffff, 0x00)\n      dup2\n      mstore\n      0x20\n      add\n      and(0xffffff, 0x00)\n      dup2\n      mstore\n      pop\n      swap1\n      jump\t// out\n        /* \"#utility.yul\":7:82   */\n    tag_59:\n        /* \"#utility.yul\":40:46   */\n      0x00\n        /* \"#utility.yul\":73:75   */\n      0x40\n        /* \"#utility.yul\":67:76   */\n      mload\n        /* \"#utility.yul\":57:76   */\n      swap1\n      pop\n        /* \"#utility.yul\":7:82   */\n      swap1\n      jump\t// out\n        /* \"#utility.yul\":88:205   */\n    tag_60:\n        /* \"#utility.yul\":197:198   */\n      0x00\n        /* \"#utility.yul\":194:195   */\n      dup1\n        /* \"#utility.yul\":187:199   */\n      revert\n        /* \"#utility.yul\":334:460   */\n    tag_62:\n        /* \"#utility.yul\":371:378   */\n      0x00\n        /* \"#utility.yul\":411:453   */\n      0xffffffffffffffffffffffffffffffffffffffff\n        /* \"#utility.yul\":404:409   */\n      dup3\n        /* \"#utility.yul\":400:454   */\n      and\n        /* \"#utility.yul\":389:454   */\n      swap1\n      pop\n        /* \"#utility.yul\":334:460   */\n      swap2\n      swap1\n      pop\n      jump\t// out\n        /* \"#utility.yul\":466:562   */\n    tag_63:\n        /* \"#utility.yul\":503:510   */\n      0x00\n        /* \"#utility.yul\":532:556   */\n      tag_102\n        /* \"#utility.yul\":550:555   */\n      dup3\n        /* \"#utility.yul\":532:556   */\n      tag_62\n      jump\t// in\n    tag_102:\n        /* \"#utility.yul\":521:556   */\n      swap1\n      pop\n        /* \"#utility.yul\":466:562   */\n      swap2\n      swap1\n      pop\n      jump\t// out\n        /* \"#utility.yul\":568:690   */\n    tag_64:\n        /* \"#utility.yul\":641:665   */\n      tag_104\n        /* \"#utility.yul\":659:664   */\n      dup2\n        /* \"#utility.yul\":641:665   */\n      tag_63\n      jump\t// in\n    tag_104:\n        /* \"#utility.yul\":634:639   */\n      dup2\n        /* \"#utility.yul\":631:666   */\n      eq\n        /* \"#utility.yul\":621:684   */\n      tag_105\n      jumpi\n        /* \"#utility.yul\":680:681   */\n      0x00\n        /* \"#utility.yul\":677:678   */\n      dup1\n        /* \"#utility.yul\":670:682   */\n      revert\n        /* \"#utility.yul\":621:684   */\n    tag_105:\n        /* \"#utility.yul\":568:690   */\n      pop\n      jump\t// out\n        /* \"#utility.yul\":696:835   */\n    tag_65:\n        /* \"#utility.yul\":742:747   */\n      0x00\n        /* \"#utility.yul\":780:786   */\n      dup2\n        /* \"#utility.yul\":767:787   */\n      calldataload\n        /* \"#utility.yul\":758:787   */\n      swap1\n      pop\n        /* \"#utility.yul\":796:829   */\n      tag_107\n        /* \"#utility.yul\":823:828   */\n      dup2\n        /* \"#utility.yul\":796:829   */\n      tag_64\n      jump\t// in\n    tag_107:\n        /* \"#utility.yul\":696:835   */\n      swap3\n      swap2\n      pop\n      pop\n      jump\t// out\n        /* \"#utility.yul\":841:932   */\n    tag_66:\n        /* \"#utility.yul\":877:884   */\n      0x00\n        /* \"#utility.yul\":917:925   */\n      0xffffff\n        /* \"#utility.yul\":910:915   */\n      dup3\n        /* \"#utility.yul\":906:926   */\n      and\n        /* \"#utility.yul\":895:926   */\n      swap1\n      pop\n        /* \"#utility.yul\":841:932   */\n      swap2\n      swap1\n      pop\n      jump\t// out\n        /* \"#utility.yul\":938:1058   */\n    tag_67:\n        /* \"#utility.yul\":1010:1033   */\n      tag_110\n        /* \"#utility.yul\":1027:1032   */\n      dup2\n        /* \"#utility.yul\":1010:1033   */\n      tag_66\n      jump\t// in\n    tag_110:\n        /* \"#utility.yul\":1003:1008   */\n      dup2\n        /* \"#utility.yul\":1000:1034   */\n      eq\n        /* \"#utility.yul\":990:1052   */\n      tag_111\n      jumpi\n        /* \"#utility.yul\":1048:1049   */\n      0x00\n        /* \"#utility.yul\":1045:1046   */\n      dup1\n        /* \"#utility.yul\":1038:1050   */\n      revert\n        /* \"#utility.yul\":990:1052   */\n    tag_111:\n        /* \"#utility.yul\":938:1058   */\n      pop\n      jump\t// out\n        /* \"#utility.yul\":1064:1201   */\n    tag_68:\n        /* \"#utility.yul\":1109:1114   */\n      0x00\n        /* \"#utility.yul\":1147:1153   */\n      dup2\n        /* \"#utility.yul\":1134:1154   */\n      calldataload\n        /* \"#utility.yul\":1125:1154   */\n      swap1\n      pop\n        /* \"#utility.yul\":1163:1195   */\n      tag_113\n        /* \"#utility.yul\":1189:1194   */\n      dup2\n        /* \"#utility.yul\":1163:1195   */\n      tag_67\n      jump\t// in\n    tag_113:\n        /* \"#utility.yul\":1064:1201   */\n      swap3\n      swap2\n      pop\n      pop\n      jump\t// out\n        /* \"#utility.yul\":1207:1824   */\n    tag_11:\n        /* \"#utility.yul\":1283:1289   */\n      0x00\n        /* \"#utility.yul\":1291:1297   */\n      dup1\n        /* \"#utility.yul\":1299:1305   */\n      0x00\n        /* \"#utility.yul\":1348:1350   */\n      0x60\n        /* \"#utility.yul\":1336:1345   */\n      dup5\n        /* \"#utility.yul\":1327:1334   */\n      dup7\n        /* \"#utility.yul\":1323:1346   */\n      sub\n        /* \"#utility.yul\":1319:1351   */\n      slt\n        /* \"#utility.yul\":1316:1435   */\n      iszero\n      tag_115\n      jumpi\n        /* \"#utility.yul\":1354:1433   */\n      tag_116\n      tag_60\n      jump\t// in\n    tag_116:\n        /* \"#utility.yul\":1316:1435   */\n    tag_115:\n        /* \"#utility.yul\":1474:1475   */\n      0x00\n        /* \"#utility.yul\":1499:1552   */\n      tag_117\n        /* \"#utility.yul\":1544:1551   */\n      dup7\n        /* \"#utility.yul\":1535:1541   */\n      dup3\n        /* \"#utility.yul\":1524:1533   */\n      dup8\n        /* \"#utility.yul\":1520:1542   */\n      add\n        /* \"#utility.yul\":1499:1552   */\n      tag_65\n      jump\t// in\n    tag_117:\n        /* \"#utility.yul\":1489:1552   */\n      swap4\n      pop\n        /* \"#utility.yul\":1445:1562   */\n      pop\n        /* \"#utility.yul\":1601:1603   */\n      0x20\n        /* \"#utility.yul\":1627:1680   */\n      tag_118\n        /* \"#utility.yul\":1672:1679   */\n      dup7\n        /* \"#utility.yul\":1663:1669   */\n      dup3\n        /* \"#utility.yul\":1652:1661   */\n      dup8\n        /* \"#utility.yul\":1648:1670   */\n      add\n        /* \"#utility.yul\":1627:1680   */\n      tag_65\n      jump\t// in\n    tag_118:\n        /* \"#utility.yul\":1617:1680   */\n      swap3\n      pop\n        /* \"#utility.yul\":1572:1690   */\n      pop\n        /* \"#utility.yul\":1729:1731   */\n      0x40\n        /* \"#utility.yul\":1755:1807   */\n      tag_119\n        /* \"#utility.yul\":1799:1806   */\n      dup7\n        /* \"#utility.yul\":1790:1796   */\n      dup3\n        /* \"#utility.yul\":1779:1788   */\n      dup8\n        /* \"#utility.yul\":1775:1797   */\n      add\n        /* \"#utility.yul\":1755:1807   */\n      tag_68\n      jump\t// in\n    tag_119:\n        /* \"#utility.yul\":1745:1807   */\n      swap2\n      pop\n        /* \"#utility.yul\":1700:1817   */\n      pop\n        /* \"#utility.yul\":1207:1824   */\n      swap3\n      pop\n      swap3\n      pop\n      swap3\n      jump\t// out\n        /* \"#utility.yul\":1830:1938   */\n    tag_69:\n        /* \"#utility.yul\":1907:1931   */\n      tag_121\n        /* \"#utility.yul\":1925:1930   */\n      dup2\n        /* \"#utility.yul\":1907:1931   */\n      tag_63\n      jump\t// in\n    tag_121:\n        /* \"#utility.yul\":1902:1905   */\n      dup3\n        /* \"#utility.yul\":1895:1932   */\n      mstore\n        /* \"#utility.yul\":1830:1938   */\n      pop\n      pop\n      jump\t// out\n        /* \"#utility.yul\":1944:2049   */\n    tag_70:\n        /* \"#utility.yul\":2019:2042   */\n      tag_123\n        /* \"#utility.yul\":2036:2041   */\n      dup2\n        /* \"#utility.yul\":2019:2042   */\n      tag_66\n      jump\t// in\n    tag_123:\n        /* \"#utility.yul\":2014:2017   */\n      dup3\n        /* \"#utility.yul\":2007:2043   */\n      mstore\n        /* \"#utility.yul\":1944:2049   */\n      pop\n      pop\n      jump\t// out\n        /* \"#utility.yul\":2119:2797   */\n    tag_71:\n        /* \"#utility.yul\":2262:2266   */\n      0x60\n        /* \"#utility.yul\":2257:2260   */\n      dup3\n        /* \"#utility.yul\":2253:2267   */\n      add\n        /* \"#utility.yul\":2351:2355   */\n      0x00\n        /* \"#utility.yul\":2344:2349   */\n      dup3\n        /* \"#utility.yul\":2340:2356   */\n      add\n        /* \"#utility.yul\":2334:2357   */\n      mload\n        /* \"#utility.yul\":2370:2433   */\n      tag_125\n        /* \"#utility.yul\":2427:2431   */\n      0x00\n        /* \"#utility.yul\":2422:2425   */\n      dup6\n        /* \"#utility.yul\":2418:2432   */\n      add\n        /* \"#utility.yul\":2404:2416   */\n      dup3\n        /* \"#utility.yul\":2370:2433   */\n      tag_69\n      jump\t// in\n    tag_125:\n        /* \"#utility.yul\":2277:2443   */\n      pop\n        /* \"#utility.yul\":2527:2531   */\n      0x20\n        /* \"#utility.yul\":2520:2525   */\n      dup3\n        /* \"#utility.yul\":2516:2532   */\n      add\n        /* \"#utility.yul\":2510:2533   */\n      mload\n        /* \"#utility.yul\":2546:2609   */\n      tag_126\n        /* \"#utility.yul\":2603:2607   */\n      0x20\n        /* \"#utility.yul\":2598:2601   */\n      dup6\n        /* \"#utility.yul\":2594:2608   */\n      add\n        /* \"#utility.yul\":2580:2592   */\n      dup3\n        /* \"#utility.yul\":2546:2609   */\n      tag_69\n      jump\t// in\n    tag_126:\n        /* \"#utility.yul\":2453:2619   */\n      pop\n        /* \"#utility.yul\":2700:2704   */\n      0x40\n        /* \"#utility.yul\":2693:2698   */\n      dup3\n        /* \"#utility.yul\":2689:2705   */\n      add\n        /* \"#utility.yul\":2683:2706   */\n      mload\n        /* \"#utility.yul\":2719:2780   */\n      tag_127\n        /* \"#utility.yul\":2774:2778   */\n      0x40\n        /* \"#utility.yul\":2769:2772   */\n      dup6\n        /* \"#utility.yul\":2765:2779   */\n      add\n        /* \"#utility.yul\":2751:2763   */\n      dup3\n        /* \"#utility.yul\":2719:2780   */\n      tag_70\n      jump\t// in\n    tag_127:\n        /* \"#utility.yul\":2629:2790   */\n      pop\n        /* \"#utility.yul\":2231:2797   */\n      pop\n        /* \"#utility.yul\":2119:2797   */\n      pop\n      pop\n      jump\t// out\n        /* \"#utility.yul\":2803:3117   */\n    tag_14:\n        /* \"#utility.yul\":2942:2946   */\n      0x00\n        /* \"#utility.yul\":2980:2982   */\n      0x60\n        /* \"#utility.yul\":2969:2978   */\n      dup3\n        /* \"#utility.yul\":2965:2983   */\n      add\n        /* \"#utility.yul\":2957:2983   */\n      swap1\n      pop\n        /* \"#utility.yul\":2993:3110   */\n      tag_129\n        /* \"#utility.yul\":3107:3108   */\n      0x00\n        /* \"#utility.yul\":3096:3105   */\n      dup4\n        /* \"#utility.yul\":3092:3109   */\n      add\n        /* \"#utility.yul\":3083:3089   */\n      dup5\n        /* \"#utility.yul\":2993:3110   */\n      tag_71\n      jump\t// in\n    tag_129:\n        /* \"#utility.yul\":2803:3117   */\n      swap3\n      swap2\n      pop\n      pop\n      jump\t// out\n        /* \"#utility.yul\":3123:3886   */\n    tag_17:\n        /* \"#utility.yul\":3208:3214   */\n      0x00\n        /* \"#utility.yul\":3216:3222   */\n      dup1\n        /* \"#utility.yul\":3224:3230   */\n      0x00\n        /* \"#utility.yul\":3232:3238   */\n      dup1\n        /* \"#utility.yul\":3281:3284   */\n      0x80\n        /* \"#utility.yul\":3269:3278   */\n      dup6\n        /* \"#utility.yul\":3260:3267   */\n      dup8\n        /* \"#utility.yul\":3256:3279   */\n      sub\n        /* \"#utility.yul\":3252:3285   */\n      slt\n        /* \"#utility.yul\":3249:3369   */\n      iszero\n      tag_131\n      jumpi\n        /* \"#utility.yul\":3288:3367   */\n      tag_132\n      tag_60\n      jump\t// in\n    tag_132:\n        /* \"#utility.yul\":3249:3369   */\n    tag_131:\n        /* \"#utility.yul\":3408:3409   */\n      0x00\n        /* \"#utility.yul\":3433:3486   */\n      tag_133\n        /* \"#utility.yul\":3478:3485   */\n      dup8\n        /* \"#utility.yul\":3469:3475   */\n      dup3\n        /* \"#utility.yul\":3458:3467   */\n      dup9\n        /* \"#utility.yul\":3454:3476   */\n      add\n        /* \"#utility.yul\":3433:3486   */\n      tag_65\n      jump\t// in\n    tag_133:\n        /* \"#utility.yul\":3423:3486   */\n      swap5\n      pop\n        /* \"#utility.yul\":3379:3496   */\n      pop\n        /* \"#utility.yul\":3535:3537   */\n      0x20\n        /* \"#utility.yul\":3561:3614   */\n      tag_134\n        /* \"#utility.yul\":3606:3613   */\n      dup8\n        /* \"#utility.yul\":3597:3603   */\n      dup3\n        /* \"#utility.yul\":3586:3595   */\n      dup9\n        /* \"#utility.yul\":3582:3604   */\n      add\n        /* \"#utility.yul\":3561:3614   */\n      tag_65\n      jump\t// in\n    tag_134:\n        /* \"#utility.yul\":3551:3614   */\n      swap4\n      pop\n        /* \"#utility.yul\":3506:3624   */\n      pop\n        /* \"#utility.yul\":3663:3665   */\n      0x40\n        /* \"#utility.yul\":3689:3742   */\n      tag_135\n        /* \"#utility.yul\":3734:3741   */\n      dup8\n        /* \"#utility.yul\":3725:3731   */\n      dup3\n        /* \"#utility.yul\":3714:3723   */\n      dup9\n        /* \"#utility.yul\":3710:3732   */\n      add\n        /* \"#utility.yul\":3689:3742   */\n      tag_65\n      jump\t// in\n    tag_135:\n        /* \"#utility.yul\":3679:3742   */\n      swap3\n      pop\n        /* \"#utility.yul\":3634:3752   */\n      pop\n        /* \"#utility.yul\":3791:3793   */\n      0x60\n        /* \"#utility.yul\":3817:3869   */\n      tag_136\n        /* \"#utility.yul\":3861:3868   */\n      dup8\n        /* \"#utility.yul\":3852:3858   */\n      dup3\n        /* \"#utility.yul\":3841:3850   */\n      dup9\n        /* \"#utility.yul\":3837:3859   */\n      add\n        /* \"#utility.yul\":3817:3869   */\n      tag_68\n      jump\t// in\n    tag_136:\n        /* \"#utility.yul\":3807:3869   */\n      swap2\n      pop\n        /* \"#utility.yul\":3762:3879   */\n      pop\n        /* \"#utility.yul\":3123:3886   */\n      swap3\n      swap6\n      swap2\n      swap5\n      pop\n      swap3\n      pop\n      jump\t// out\n        /* \"#utility.yul\":3892:3990   */\n    tag_72:\n        /* \"#utility.yul\":3943:3949   */\n      0x00\n        /* \"#utility.yul\":3977:3982   */\n      dup2\n        /* \"#utility.yul\":3971:3983   */\n      mload\n        /* \"#utility.yul\":3961:3983   */\n      swap1\n      pop\n        /* \"#utility.yul\":3892:3990   */\n      swap2\n      swap1\n      pop\n      jump\t// out\n        /* \"#utility.yul\":3996:4164   */\n    tag_73:\n        /* \"#utility.yul\":4079:4090   */\n      0x00\n        /* \"#utility.yul\":4113:4119   */\n      dup3\n        /* \"#utility.yul\":4108:4111   */\n      dup3\n        /* \"#utility.yul\":4101:4120   */\n      mstore\n        /* \"#utility.yul\":4153:4157   */\n      0x20\n        /* \"#utility.yul\":4148:4151   */\n      dup3\n        /* \"#utility.yul\":4144:4158   */\n      add\n        /* \"#utility.yul\":4129:4158   */\n      swap1\n      pop\n        /* \"#utility.yul\":3996:4164   */\n      swap3\n      swap2\n      pop\n      pop\n      jump\t// out\n        /* \"#utility.yul\":4170:4416   */\n    tag_74:\n        /* \"#utility.yul\":4251:4252   */\n      0x00\n        /* \"#utility.yul\":4261:4374   */\n    tag_140:\n        /* \"#utility.yul\":4275:4281   */\n      dup4\n        /* \"#utility.yul\":4272:4273   */\n      dup2\n        /* \"#utility.yul\":4269:4282   */\n      lt\n        /* \"#utility.yul\":4261:4374   */\n      iszero\n      tag_142\n      jumpi\n        /* \"#utility.yul\":4360:4361   */\n      dup1\n        /* \"#utility.yul\":4355:4358   */\n      dup3\n        /* \"#utility.yul\":4351:4362   */\n      add\n        /* \"#utility.yul\":4345:4363   */\n      mload\n        /* \"#utility.yul\":4341:4342   */\n      dup2\n        /* \"#utility.yul\":4336:4339   */\n      dup5\n        /* \"#utility.yul\":4332:4343   */\n      add\n        /* \"#utility.yul\":4325:4364   */\n      mstore\n        /* \"#utility.yul\":4297:4299   */\n      0x20\n        /* \"#utility.yul\":4294:4295   */\n      dup2\n        /* \"#utility.yul\":4290:4300   */\n      add\n        /* \"#utility.yul\":4285:4300   */\n      swap1\n      pop\n        /* \"#utility.yul\":4261:4374   */\n      jump(tag_140)\n    tag_142:\n        /* \"#utility.yul\":4408:4409   */\n      0x00\n        /* \"#utility.yul\":4399:4405   */\n      dup5\n        /* \"#utility.yul\":4394:4397   */\n      dup5\n        /* \"#utility.yul\":4390:4406   */\n      add\n        /* \"#utility.yul\":4383:4410   */\n      mstore\n        /* \"#utility.yul\":4232:4416   */\n      pop\n        /* \"#utility.yul\":4170:4416   */\n      pop\n      pop\n      pop\n      jump\t// out\n        /* \"#utility.yul\":4422:4524   */\n    tag_75:\n        /* \"#utility.yul\":4463:4469   */\n      0x00\n        /* \"#utility.yul\":4514:4516   */\n      0x1f\n        /* \"#utility.yul\":4510:4517   */\n      not\n        /* \"#utility.yul\":4505:4507   */\n      0x1f\n        /* \"#utility.yul\":4498:4503   */\n      dup4\n        /* \"#utility.yul\":4494:4508   */\n      add\n        /* \"#utility.yul\":4490:4518   */\n      and\n        /* \"#utility.yul\":4480:4518   */\n      swap1\n      pop\n        /* \"#utility.yul\":4422:4524   */\n      swap2\n      swap1\n      pop\n      jump\t// out\n        /* \"#utility.yul\":4530:4903   */\n    tag_76:\n        /* \"#utility.yul\":4616:4619   */\n      0x00\n        /* \"#utility.yul\":4644:4682   */\n      tag_145\n        /* \"#utility.yul\":4676:4681   */\n      dup3\n        /* \"#utility.yul\":4644:4682   */\n      tag_72\n      jump\t// in\n    tag_145:\n        /* \"#utility.yul\":4698:4768   */\n      tag_146\n        /* \"#utility.yul\":4761:4767   */\n      dup2\n        /* \"#utility.yul\":4756:4759   */\n      dup6\n        /* \"#utility.yul\":4698:4768   */\n      tag_73\n      jump\t// in\n    tag_146:\n        /* \"#utility.yul\":4691:4768   */\n      swap4\n      pop\n        /* \"#utility.yul\":4777:4842   */\n      tag_147\n        /* \"#utility.yul\":4835:4841   */\n      dup2\n        /* \"#utility.yul\":4830:4833   */\n      dup6\n        /* \"#utility.yul\":4823:4827   */\n      0x20\n        /* \"#utility.yul\":4816:4821   */\n      dup7\n        /* \"#utility.yul\":4812:4828   */\n      add\n        /* \"#utility.yul\":4777:4842   */\n      tag_74\n      jump\t// in\n    tag_147:\n        /* \"#utility.yul\":4867:4896   */\n      tag_148\n        /* \"#utility.yul\":4889:4895   */\n      dup2\n        /* \"#utility.yul\":4867:4896   */\n      tag_75\n      jump\t// in\n    tag_148:\n        /* \"#utility.yul\":4862:4865   */\n      dup5\n        /* \"#utility.yul\":4858:4897   */\n      add\n        /* \"#utility.yul\":4851:4897   */\n      swap2\n      pop\n        /* \"#utility.yul\":4620:4903   */\n      pop\n        /* \"#utility.yul\":4530:4903   */\n      swap3\n      swap2\n      pop\n      pop\n      jump\t// out\n        /* \"#utility.yul\":4909:5218   */\n    tag_20:\n        /* \"#utility.yul\":5020:5024   */\n      0x00\n        /* \"#utility.yul\":5058:5060   */\n      0x20\n        /* \"#utility.yul\":5047:5056   */\n      dup3\n        /* \"#utility.yul\":5043:5061   */\n      add\n        /* \"#utility.yul\":5035:5061   */\n      swap1\n      pop\n        /* \"#utility.yul\":5107:5116   */\n      dup2\n        /* \"#utility.yul\":5101:5105   */\n      dup2\n        /* \"#utility.yul\":5097:5117   */\n      sub\n        /* \"#utility.yul\":5093:5094   */\n      0x00\n        /* \"#utility.yul\":5082:5091   */\n      dup4\n        /* \"#utility.yul\":5078:5095   */\n      add\n        /* \"#utility.yul\":5071:5118   */\n      mstore\n        /* \"#utility.yul\":5135:5211   */\n      tag_150\n        /* \"#utility.yul\":5206:5210   */\n      dup2\n        /* \"#utility.yul\":5197:5203   */\n      dup5\n        /* \"#utility.yul\":5135:5211   */\n      tag_76\n      jump\t// in\n    tag_150:\n        /* \"#utility.yul\":5127:5211   */\n      swap1\n      pop\n        /* \"#utility.yul\":4909:5218   */\n      swap3\n      swap2\n      pop\n      pop\n      jump\t// out\n        /* \"#utility.yul\":5224:5301   */\n    tag_77:\n        /* \"#utility.yul\":5261:5268   */\n      0x00\n        /* \"#utility.yul\":5290:5295   */\n      dup2\n        /* \"#utility.yul\":5279:5295   */\n      swap1\n      pop\n        /* \"#utility.yul\":5224:5301   */\n      swap2\n      swap1\n      pop\n      jump\t// out\n        /* \"#utility.yul\":5307:5425   */\n    tag_78:\n        /* \"#utility.yul\":5394:5418   */\n      tag_153\n        /* \"#utility.yul\":5412:5417   */\n      dup2\n        /* \"#utility.yul\":5394:5418   */\n      tag_77\n      jump\t// in\n    tag_153:\n        /* \"#utility.yul\":5389:5392   */\n      dup3\n        /* \"#utility.yul\":5382:5419   */\n      mstore\n        /* \"#utility.yul\":5307:5425   */\n      pop\n      pop\n      jump\t// out\n        /* \"#utility.yul\":5431:5653   */\n    tag_25:\n        /* \"#utility.yul\":5524:5528   */\n      0x00\n        /* \"#utility.yul\":5562:5564   */\n      0x20\n        /* \"#utility.yul\":5551:5560   */\n      dup3\n        /* \"#utility.yul\":5547:5565   */\n      add\n        /* \"#utility.yul\":5539:5565   */\n      swap1\n      pop\n        /* \"#utility.yul\":5575:5646   */\n      tag_155\n        /* \"#utility.yul\":5643:5644   */\n      0x00\n        /* \"#utility.yul\":5632:5641   */\n      dup4\n        /* \"#utility.yul\":5628:5645   */\n      add\n        /* \"#utility.yul\":5619:5625   */\n      dup5\n        /* \"#utility.yul\":5575:5646   */\n      tag_78\n      jump\t// in\n    tag_155:\n        /* \"#utility.yul\":5431:5653   */\n      swap3\n      swap2\n      pop\n      pop\n      jump\t// out\n        /* \"#utility.yul\":5659:5776   */\n    tag_79:\n        /* \"#utility.yul\":5768:5769   */\n      0x00\n        /* \"#utility.yul\":5765:5766   */\n      dup1\n        /* \"#utility.yul\":5758:5770   */\n      revert\n        /* \"#utility.yul\":5782:5962   */\n    tag_80:\n        /* \"#utility.yul\":5830:5907   */\n      0x4e487b7100000000000000000000000000000000000000000000000000000000\n        /* \"#utility.yul\":5827:5828   */\n      0x00\n        /* \"#utility.yul\":5820:5908   */\n      mstore\n        /* \"#utility.yul\":5927:5931   */\n      0x41\n        /* \"#utility.yul\":5924:5925   */\n      0x04\n        /* \"#utility.yul\":5917:5932   */\n      mstore\n        /* \"#utility.yul\":5951:5955   */\n      0x24\n        /* \"#utility.yul\":5948:5949   */\n      0x00\n        /* \"#utility.yul\":5941:5956   */\n      revert\n        /* \"#utility.yul\":5968:6249   */\n    tag_81:\n        /* \"#utility.yul\":6051:6078   */\n      tag_159\n        /* \"#utility.yul\":6073:6077   */\n      dup3\n        /* \"#utility.yul\":6051:6078   */\n      tag_75\n      jump\t// in\n    tag_159:\n        /* \"#utility.yul\":6043:6049   */\n      dup2\n        /* \"#utility.yul\":6039:6079   */\n      add\n        /* \"#utility.yul\":6181:6187   */\n      dup2\n        /* \"#utility.yul\":6169:6179   */\n      dup2\n        /* \"#utility.yul\":6166:6188   */\n      lt\n        /* \"#utility.yul\":6145:6163   */\n      0xffffffffffffffff\n        /* \"#utility.yul\":6133:6143   */\n      dup3\n        /* \"#utility.yul\":6130:6164   */\n      gt\n        /* \"#utility.yul\":6127:6189   */\n      or\n        /* \"#utility.yul\":6124:6212   */\n      iszero\n      tag_160\n      jumpi\n        /* \"#utility.yul\":6192:6210   */\n      tag_161\n      tag_80\n      jump\t// in\n    tag_161:\n        /* \"#utility.yul\":6124:6212   */\n    tag_160:\n        /* \"#utility.yul\":6232:6242   */\n      dup1\n        /* \"#utility.yul\":6228:6230   */\n      0x40\n        /* \"#utility.yul\":6221:6243   */\n      mstore\n        /* \"#utility.yul\":6011:6249   */\n      pop\n        /* \"#utility.yul\":5968:6249   */\n      pop\n      pop\n      jump\t// out\n        /* \"#utility.yul\":6255:6384   */\n    tag_82:\n        /* \"#utility.yul\":6289:6295   */\n      0x00\n        /* \"#utility.yul\":6316:6336   */\n      tag_163\n      tag_59\n      jump\t// in\n    tag_163:\n        /* \"#utility.yul\":6306:6336   */\n      swap1\n      pop\n        /* \"#utility.yul\":6345:6378   */\n      tag_164\n        /* \"#utility.yul\":6373:6377   */\n      dup3\n        /* \"#utility.yul\":6365:6371   */\n      dup3\n        /* \"#utility.yul\":6345:6378   */\n      tag_81\n      jump\t// in\n    tag_164:\n        /* \"#utility.yul\":6255:6384   */\n      swap2\n      swap1\n      pop\n      jump\t// out\n        /* \"#utility.yul\":6547:7282   */\n    tag_84:\n        /* \"#utility.yul\":6619:6624   */\n      0x00\n        /* \"#utility.yul\":6663:6667   */\n      0x60\n        /* \"#utility.yul\":6651:6660   */\n      dup3\n        /* \"#utility.yul\":6646:6649   */\n      dup5\n        /* \"#utility.yul\":6642:6661   */\n      sub\n        /* \"#utility.yul\":6638:6668   */\n      slt\n        /* \"#utility.yul\":6635:6752   */\n      iszero\n      tag_167\n      jumpi\n        /* \"#utility.yul\":6671:6750   */\n      tag_168\n      tag_79\n      jump\t// in\n    tag_168:\n        /* \"#utility.yul\":6635:6752   */\n    tag_167:\n        /* \"#utility.yul\":6770:6791   */\n      tag_169\n        /* \"#utility.yul\":6786:6790   */\n      0x60\n        /* \"#utility.yul\":6770:6791   */\n      tag_82\n      jump\t// in\n    tag_169:\n        /* \"#utility.yul\":6761:6791   */\n      swap1\n      pop\n        /* \"#utility.yul\":6852:6853   */\n      0x00\n        /* \"#utility.yul\":6892:6941   */\n      tag_170\n        /* \"#utility.yul\":6937:6940   */\n      dup5\n        /* \"#utility.yul\":6928:6934   */\n      dup3\n        /* \"#utility.yul\":6917:6926   */\n      dup6\n        /* \"#utility.yul\":6913:6935   */\n      add\n        /* \"#utility.yul\":6892:6941   */\n      tag_65\n      jump\t// in\n    tag_170:\n        /* \"#utility.yul\":6885:6889   */\n      0x00\n        /* \"#utility.yul\":6878:6883   */\n      dup4\n        /* \"#utility.yul\":6874:6890   */\n      add\n        /* \"#utility.yul\":6867:6942   */\n      mstore\n        /* \"#utility.yul\":6801:6953   */\n      pop\n        /* \"#utility.yul\":7014:7016   */\n      0x20\n        /* \"#utility.yul\":7055:7104   */\n      tag_171\n        /* \"#utility.yul\":7100:7103   */\n      dup5\n        /* \"#utility.yul\":7091:7097   */\n      dup3\n        /* \"#utility.yul\":7080:7089   */\n      dup6\n        /* \"#utility.yul\":7076:7098   */\n      add\n        /* \"#utility.yul\":7055:7104   */\n      tag_65\n      jump\t// in\n    tag_171:\n        /* \"#utility.yul\":7048:7052   */\n      0x20\n        /* \"#utility.yul\":7041:7046   */\n      dup4\n        /* \"#utility.yul\":7037:7053   */\n      add\n        /* \"#utility.yul\":7030:7105   */\n      mstore\n        /* \"#utility.yul\":6963:7116   */\n      pop\n        /* \"#utility.yul\":7174:7176   */\n      0x40\n        /* \"#utility.yul\":7215:7263   */\n      tag_172\n        /* \"#utility.yul\":7259:7262   */\n      dup5\n        /* \"#utility.yul\":7250:7256   */\n      dup3\n        /* \"#utility.yul\":7239:7248   */\n      dup6\n        /* \"#utility.yul\":7235:7257   */\n      add\n        /* \"#utility.yul\":7215:7263   */\n      tag_68\n      jump\t// in\n    tag_172:\n        /* \"#utility.yul\":7208:7212   */\n      0x40\n        /* \"#utility.yul\":7201:7206   */\n      dup4\n        /* \"#utility.yul\":7197:7213   */\n      add\n        /* \"#utility.yul\":7190:7264   */\n      mstore\n        /* \"#utility.yul\":7126:7275   */\n      pop\n        /* \"#utility.yul\":6547:7282   */\n      swap3\n      swap2\n      pop\n      pop\n      jump\t// out\n        /* \"#utility.yul\":7288:7809   */\n    tag_28:\n        /* \"#utility.yul\":7379:7385   */\n      0x00\n        /* \"#utility.yul\":7387:7393   */\n      dup1\n        /* \"#utility.yul\":7436:7439   */\n      0x80\n        /* \"#utility.yul\":7424:7433   */\n      dup4\n        /* \"#utility.yul\":7415:7422   */\n      dup6\n        /* \"#utility.yul\":7411:7434   */\n      sub\n        /* \"#utility.yul\":7407:7440   */\n      slt\n        /* \"#utility.yul\":7404:7524   */\n      iszero\n      tag_174\n      jumpi\n        /* \"#utility.yul\":7443:7522   */\n      tag_175\n      tag_60\n      jump\t// in\n    tag_175:\n        /* \"#utility.yul\":7404:7524   */\n    tag_174:\n        /* \"#utility.yul\":7563:7564   */\n      0x00\n        /* \"#utility.yul\":7588:7641   */\n      tag_176\n        /* \"#utility.yul\":7633:7640   */\n      dup6\n        /* \"#utility.yul\":7624:7630   */\n      dup3\n        /* \"#utility.yul\":7613:7622   */\n      dup7\n        /* \"#utility.yul\":7609:7631   */\n      add\n        /* \"#utility.yul\":7588:7641   */\n      tag_65\n      jump\t// in\n    tag_176:\n        /* \"#utility.yul\":7578:7641   */\n      swap3\n      pop\n        /* \"#utility.yul\":7534:7651   */\n      pop\n        /* \"#utility.yul\":7690:7692   */\n      0x20\n        /* \"#utility.yul\":7716:7792   */\n      tag_177\n        /* \"#utility.yul\":7784:7791   */\n      dup6\n        /* \"#utility.yul\":7775:7781   */\n      dup3\n        /* \"#utility.yul\":7764:7773   */\n      dup7\n        /* \"#utility.yul\":7760:7782   */\n      add\n        /* \"#utility.yul\":7716:7792   */\n      tag_84\n      jump\t// in\n    tag_177:\n        /* \"#utility.yul\":7706:7792   */\n      swap2\n      pop\n        /* \"#utility.yul\":7661:7802   */\n      pop\n        /* \"#utility.yul\":7288:7809   */\n      swap3\n      pop\n      swap3\n      swap1\n      pop\n      jump\t// out\n        /* \"#utility.yul\":7815:7933   */\n    tag_85:\n        /* \"#utility.yul\":7902:7926   */\n      tag_179\n        /* \"#utility.yul\":7920:7925   */\n      dup2\n        /* \"#utility.yul\":7902:7926   */\n      tag_63\n      jump\t// in\n    tag_179:\n        /* \"#utility.yul\":7897:7900   */\n      dup3\n        /* \"#utility.yul\":7890:7927   */\n      mstore\n        /* \"#utility.yul\":7815:7933   */\n      pop\n      pop\n      jump\t// out\n        /* \"#utility.yul\":7939:8161   */\n    tag_31:\n        /* \"#utility.yul\":8032:8036   */\n      0x00\n        /* \"#utility.yul\":8070:8072   */\n      0x20\n        /* \"#utility.yul\":8059:8068   */\n      dup3\n        /* \"#utility.yul\":8055:8073   */\n      add\n        /* \"#utility.yul\":8047:8073   */\n      swap1\n      pop\n        /* \"#utility.yul\":8083:8154   */\n      tag_181\n        /* \"#utility.yul\":8151:8152   */\n      0x00\n        /* \"#utility.yul\":8140:8149   */\n      dup4\n        /* \"#utility.yul\":8136:8153   */\n      add\n        /* \"#utility.yul\":8127:8133   */\n      dup5\n        /* \"#utility.yul\":8083:8154   */\n      tag_85\n      jump\t// in\n    tag_181:\n        /* \"#utility.yul\":7939:8161   */\n      swap3\n      swap2\n      pop\n      pop\n      jump\t// out\n        /* \"#utility.yul\":8167:8315   */\n    tag_86:\n        /* \"#utility.yul\":8269:8280   */\n      0x00\n        /* \"#utility.yul\":8306:8309   */\n      dup2\n        /* \"#utility.yul\":8291:8309   */\n      swap1\n      pop\n        /* \"#utility.yul\":8167:8315   */\n      swap3\n      swap2\n      pop\n      pop\n      jump\t// out\n        /* \"#utility.yul\":8321:8535   */\n    tag_87:\n        /* \"#utility.yul\":8461:8527   */\n      0xff00000000000000000000000000000000000000000000000000000000000000\n        /* \"#utility.yul\":8457:8458   */\n      0x00\n        /* \"#utility.yul\":8449:8455   */\n      dup3\n        /* \"#utility.yul\":8445:8459   */\n      add\n        /* \"#utility.yul\":8438:8528   */\n      mstore\n        /* \"#utility.yul\":8321:8535   */\n      pop\n      jump\t// out\n        /* \"#utility.yul\":8541:8941   */\n    tag_88:\n        /* \"#utility.yul\":8701:8704   */\n      0x00\n        /* \"#utility.yul\":8722:8806   */\n      tag_185\n        /* \"#utility.yul\":8804:8805   */\n      0x01\n        /* \"#utility.yul\":8799:8802   */\n      dup4\n        /* \"#utility.yul\":8722:8806   */\n      tag_86\n      jump\t// in\n    tag_185:\n        /* \"#utility.yul\":8715:8806   */\n      swap2\n      pop\n        /* \"#utility.yul\":8815:8908   */\n      tag_186\n        /* \"#utility.yul\":8904:8907   */\n      dup3\n        /* \"#utility.yul\":8815:8908   */\n      tag_87\n      jump\t// in\n    tag_186:\n        /* \"#utility.yul\":8933:8934   */\n      0x01\n        /* \"#utility.yul\":8928:8931   */\n      dup3\n        /* \"#utility.yul\":8924:8935   */\n      add\n        /* \"#utility.yul\":8917:8935   */\n      swap1\n      pop\n        /* \"#utility.yul\":8541:8941   */\n      swap2\n      swap1\n      pop\n      jump\t// out\n        /* \"#utility.yul\":8947:9041   */\n    tag_89:\n        /* \"#utility.yul\":8980:8988   */\n      0x00\n        /* \"#utility.yul\":9028:9033   */\n      dup2\n        /* \"#utility.yul\":9024:9026   */\n      0x60\n        /* \"#utility.yul\":9020:9034   */\n      shl\n        /* \"#utility.yul\":8999:9034   */\n      swap1\n      pop\n        /* \"#utility.yul\":8947:9041   */\n      swap2\n      swap1\n      pop\n      jump\t// out\n        /* \"#utility.yul\":9047:9141   */\n    tag_90:\n        /* \"#utility.yul\":9086:9093   */\n      0x00\n        /* \"#utility.yul\":9115:9135   */\n      tag_189\n        /* \"#utility.yul\":9129:9134   */\n      dup3\n        /* \"#utility.yul\":9115:9135   */\n      tag_89\n      jump\t// in\n    tag_189:\n        /* \"#utility.yul\":9104:9135   */\n      swap1\n      pop\n        /* \"#utility.yul\":9047:9141   */\n      swap2\n      swap1\n      pop\n      jump\t// out\n        /* \"#utility.yul\":9147:9247   */\n    tag_91:\n        /* \"#utility.yul\":9186:9193   */\n      0x00\n        /* \"#utility.yul\":9215:9241   */\n      tag_191\n        /* \"#utility.yul\":9235:9240   */\n      dup3\n        /* \"#utility.yul\":9215:9241   */\n      tag_90\n      jump\t// in\n    tag_191:\n        /* \"#utility.yul\":9204:9241   */\n      swap1\n      pop\n        /* \"#utility.yul\":9147:9247   */\n      swap2\n      swap1\n      pop\n      jump\t// out\n        /* \"#utility.yul\":9253:9410   */\n    tag_92:\n        /* \"#utility.yul\":9358:9403   */\n      tag_193\n        /* \"#utility.yul\":9378:9402   */\n      tag_194\n        /* \"#utility.yul\":9396:9401   */\n      dup3\n        /* \"#utility.yul\":9378:9402   */\n      tag_63\n      jump\t// in\n    tag_194:\n        /* \"#utility.yul\":9358:9403   */\n      tag_91\n      jump\t// in\n    tag_193:\n        /* \"#utility.yul\":9353:9356   */\n      dup3\n        /* \"#utility.yul\":9346:9404   */\n      mstore\n        /* \"#utility.yul\":9253:9410   */\n      pop\n      pop\n      jump\t// out\n        /* \"#utility.yul\":9416:9495   */\n    tag_93:\n        /* \"#utility.yul\":9455:9462   */\n      0x00\n        /* \"#utility.yul\":9484:9489   */\n      dup2\n        /* \"#utility.yul\":9473:9489   */\n      swap1\n      pop\n        /* \"#utility.yul\":9416:9495   */\n      swap2\n      swap1\n      pop\n      jump\t// out\n        /* \"#utility.yul\":9501:9658   */\n    tag_94:\n        /* \"#utility.yul\":9606:9651   */\n      tag_197\n        /* \"#utility.yul\":9626:9650   */\n      tag_198\n        /* \"#utility.yul\":9644:9649   */\n      dup3\n        /* \"#utility.yul\":9626:9650   */\n      tag_77\n      jump\t// in\n    tag_198:\n        /* \"#utility.yul\":9606:9651   */\n      tag_93\n      jump\t// in\n    tag_197:\n        /* \"#utility.yul\":9601:9604   */\n      dup3\n        /* \"#utility.yul\":9594:9652   */\n      mstore\n        /* \"#utility.yul\":9501:9658   */\n      pop\n      pop\n      jump\t// out\n        /* \"#utility.yul\":9664:10468   */\n    tag_47:\n        /* \"#utility.yul\":9933:9936   */\n      0x00\n        /* \"#utility.yul\":9955:10103   */\n      tag_200\n        /* \"#utility.yul\":10099:10102   */\n      dup3\n        /* \"#utility.yul\":9955:10103   */\n      tag_88\n      jump\t// in\n    tag_200:\n        /* \"#utility.yul\":9948:10103   */\n      swap2\n      pop\n        /* \"#utility.yul\":10113:10188   */\n      tag_201\n        /* \"#utility.yul\":10184:10187   */\n      dup3\n        /* \"#utility.yul\":10175:10181   */\n      dup7\n        /* \"#utility.yul\":10113:10188   */\n      tag_92\n      jump\t// in\n    tag_201:\n        /* \"#utility.yul\":10213:10215   */\n      0x14\n        /* \"#utility.yul\":10208:10211   */\n      dup3\n        /* \"#utility.yul\":10204:10216   */\n      add\n        /* \"#utility.yul\":10197:10216   */\n      swap2\n      pop\n        /* \"#utility.yul\":10226:10301   */\n      tag_202\n        /* \"#utility.yul\":10297:10300   */\n      dup3\n        /* \"#utility.yul\":10288:10294   */\n      dup6\n        /* \"#utility.yul\":10226:10301   */\n      tag_94\n      jump\t// in\n    tag_202:\n        /* \"#utility.yul\":10326:10328   */\n      0x20\n        /* \"#utility.yul\":10321:10324   */\n      dup3\n        /* \"#utility.yul\":10317:10329   */\n      add\n        /* \"#utility.yul\":10310:10329   */\n      swap2\n      pop\n        /* \"#utility.yul\":10339:10414   */\n      tag_203\n        /* \"#utility.yul\":10410:10413   */\n      dup3\n        /* \"#utility.yul\":10401:10407   */\n      dup5\n        /* \"#utility.yul\":10339:10414   */\n      tag_94\n      jump\t// in\n    tag_203:\n        /* \"#utility.yul\":10439:10441   */\n      0x20\n        /* \"#utility.yul\":10434:10437   */\n      dup3\n        /* \"#utility.yul\":10430:10442   */\n      add\n        /* \"#utility.yul\":10423:10442   */\n      swap2\n      pop\n        /* \"#utility.yul\":10459:10462   */\n      dup2\n        /* \"#utility.yul\":10452:10462   */\n      swap1\n      pop\n        /* \"#utility.yul\":9664:10468   */\n      swap5\n      swap4\n      pop\n      pop\n      pop\n      pop\n      jump\t// out\n        /* \"#utility.yul\":10474:10589   */\n    tag_95:\n        /* \"#utility.yul\":10559:10582   */\n      tag_205\n        /* \"#utility.yul\":10576:10581   */\n      dup2\n        /* \"#utility.yul\":10559:10582   */\n      tag_66\n      jump\t// in\n    tag_205:\n        /* \"#utility.yul\":10554:10557   */\n      dup3\n        /* \"#utility.yul\":10547:10583   */\n      mstore\n        /* \"#utility.yul\":10474:10589   */\n      pop\n      pop\n      jump\t// out\n        /* \"#utility.yul\":10595:11033   */\n    tag_58:\n        /* \"#utility.yul\":10742:10746   */\n      0x00\n        /* \"#utility.yul\":10780:10782   */\n      0x60\n        /* \"#utility.yul\":10769:10778   */\n      dup3\n        /* \"#utility.yul\":10765:10783   */\n      add\n        /* \"#utility.yul\":10757:10783   */\n      swap1\n      pop\n        /* \"#utility.yul\":10793:10864   */\n      tag_207\n        /* \"#utility.yul\":10861:10862   */\n      0x00\n        /* \"#utility.yul\":10850:10859   */\n      dup4\n        /* \"#utility.yul\":10846:10863   */\n      add\n        /* \"#utility.yul\":10837:10843   */\n      dup7\n        /* \"#utility.yul\":10793:10864   */\n      tag_85\n      jump\t// in\n    tag_207:\n        /* \"#utility.yul\":10874:10946   */\n      tag_208\n        /* \"#utility.yul\":10942:10944   */\n      0x20\n        /* \"#utility.yul\":10931:10940   */\n      dup4\n        /* \"#utility.yul\":10927:10945   */\n      add\n        /* \"#utility.yul\":10918:10924   */\n      dup6\n        /* \"#utility.yul\":10874:10946   */\n      tag_85\n      jump\t// in\n    tag_208:\n        /* \"#utility.yul\":10956:11026   */\n      tag_209\n        /* \"#utility.yul\":11022:11024   */\n      0x40\n        /* \"#utility.yul\":11011:11020   */\n      dup4\n        /* \"#utility.yul\":11007:11025   */\n      add\n        /* \"#utility.yul\":10998:11004   */\n      dup5\n        /* \"#utility.yul\":10956:11026   */\n      tag_95\n      jump\t// in\n    tag_209:\n        /* \"#utility.yul\":10595:11033   */\n      swap5\n      swap4\n      pop\n      pop\n      pop\n      pop\n      jump\t// out\n\n    auxdata: 0xa26469706673582212204872e159c56b85be57602b62afab02b8e9b38b17cead6c957e89f4e5e26696ec64736f6c63430008160033\n}\n",
				"bytecode": {
					"linkReferences": {},
					"object": "608060405234801561000f575f80fd5b506109848061001d5f395ff3fe608060405234801561000f575f80fd5b5060043610610060575f3560e01c80632b6d5d8f146100645780634670168d146100945780634aa9f207146100c457806383092a82146100f4578063bb560b0814610124578063d80adc5214610154575b5f80fd5b61007e600480360381019061007991906104c1565b610184565b60405161008b919061056f565b60405180910390f35b6100ae60048036038101906100a99190610588565b610220565b6040516100bb9190610676565b60405180910390f35b6100de60048036038101906100d991906104c1565b610281565b6040516100eb91906106ae565b60405180910390f35b61010e600480360381019061010991906107a4565b61029d565b60405161011b91906107f1565b60405180910390f35b61013e60048036038101906101399190610588565b61036c565b60405161014b91906106ae565b60405180910390f35b61016e600480360381019061016991906104c1565b61038a565b60405161017b9190610676565b60405180910390f35b61018c6103d3565b8273ffffffffffffffffffffffffffffffffffffffff168473ffffffffffffffffffffffffffffffffffffffff1611156101cb57828480945081955050505b60405180606001604052808573ffffffffffffffffffffffffffffffffffffffff1681526020018473ffffffffffffffffffffffffffffffffffffffff1681526020018362ffffff1681525090509392505050565b60605f61022e858585610281565b905085817fe34f199b19b2b4f47f68442619d555527d244f78a3297ea89325f843f87b8b545f1b604051602001610267939291906108c3565b604051602081830303815290604052915050949350505050565b5f61028d84848461038a565b8051906020012090509392505050565b5f816020015173ffffffffffffffffffffffffffffffffffffffff16825f015173ffffffffffffffffffffffffffffffffffffffff16106102dc575f80fd5b5f6102f484845f01518560200151866040015161036c565b90505f815f1c90505f8190505f8190508073ffffffffffffffffffffffffffffffffffffffff168273ffffffffffffffffffffffffffffffffffffffff16847fbb10f7f9321ccf06b496ddee91a1f5f7586468a404a1b0ad959be6bda981339660405160405180910390a48094505050505092915050565b5f61037985858585610220565b805190602001209050949350505050565b60605f610398858585610184565b9050805f0151816020015182604001516040516020016103ba93929190610919565b6040516020818303038152906040529150509392505050565b60405180606001604052805f73ffffffffffffffffffffffffffffffffffffffff1681526020015f73ffffffffffffffffffffffffffffffffffffffff1681526020015f62ffffff1681525090565b5f604051905090565b5f80fd5b5f73ffffffffffffffffffffffffffffffffffffffff82169050919050565b5f6104588261042f565b9050919050565b6104688161044e565b8114610472575f80fd5b50565b5f813590506104838161045f565b92915050565b5f62ffffff82169050919050565b6104a081610489565b81146104aa575f80fd5b50565b5f813590506104bb81610497565b92915050565b5f805f606084860312156104d8576104d761042b565b5b5f6104e586828701610475565b93505060206104f686828701610475565b9250506040610507868287016104ad565b9150509250925092565b61051a8161044e565b82525050565b61052981610489565b82525050565b606082015f8201516105435f850182610511565b5060208201516105566020850182610511565b5060408201516105696040850182610520565b50505050565b5f6060820190506105825f83018461052f565b92915050565b5f805f80608085870312156105a05761059f61042b565b5b5f6105ad87828801610475565b94505060206105be87828801610475565b93505060406105cf87828801610475565b92505060606105e0878288016104ad565b91505092959194509250565b5f81519050919050565b5f82825260208201905092915050565b5f5b83811015610623578082015181840152602081019050610608565b5f8484015250505050565b5f601f19601f8301169050919050565b5f610648826105ec565b61065281856105f6565b9350610662818560208601610606565b61066b8161062e565b840191505092915050565b5f6020820190508181035f83015261068e818461063e565b905092915050565b5f819050919050565b6106a881610696565b82525050565b5f6020820190506106c15f83018461069f565b92915050565b5f80fd5b7f4e487b71000000000000000000000000000000000000000000000000000000005f52604160045260245ffd5b6107018261062e565b810181811067ffffffffffffffff821117156107205761071f6106cb565b5b80604052505050565b5f610732610422565b905061073e82826106f8565b919050565b5f60608284031215610758576107576106c7565b5b6107626060610729565b90505f61077184828501610475565b5f83015250602061078484828501610475565b6020830152506040610798848285016104ad565b60408301525092915050565b5f80608083850312156107ba576107b961042b565b5b5f6107c785828601610475565b92505060206107d885828601610743565b9150509250929050565b6107eb8161044e565b82525050565b5f6020820190506108045f8301846107e2565b92915050565b5f81905092915050565b7fff000000000000000000000000000000000000000000000000000000000000005f82015250565b5f61084860018361080a565b915061085382610814565b600182019050919050565b5f8160601b9050919050565b5f6108748261085e565b9050919050565b5f6108858261086a565b9050919050565b61089d6108988261044e565b61087b565b82525050565b5f819050919050565b6108bd6108b882610696565b6108a3565b82525050565b5f6108cd8261083c565b91506108d9828661088c565b6014820191506108e982856108ac565b6020820191506108f982846108ac565b602082019150819050949350505050565b61091381610489565b82525050565b5f60608201905061092c5f8301866107e2565b61093960208301856107e2565b610946604083018461090a565b94935050505056fea26469706673582212204872e159c56b85be57602b62afab02b8e9b38b17cead6c957e89f4e5e26696ec64736f6c63430008160033",
					"opcodes": "PUSH1 0x80 PUSH1 0x40 MSTORE CALLVALUE DUP1 ISZERO PUSH2 0xF JUMPI PUSH0 DUP1 REVERT JUMPDEST POP PUSH2 0x984 DUP1 PUSH2 0x1D PUSH0 CODECOPY PUSH0 RETURN INVALID PUSH1 0x80 PUSH1 0x40 MSTORE CALLVALUE DUP1 ISZERO PUSH2 0xF JUMPI PUSH0 DUP1 REVERT JUMPDEST POP PUSH1 0x4 CALLDATASIZE LT PUSH2 0x60 JUMPI PUSH0 CALLDATALOAD PUSH1 0xE0 SHR DUP1 PUSH4 0x2B6D5D8F EQ PUSH2 0x64 JUMPI DUP1 PUSH4 0x4670168D EQ PUSH2 0x94 JUMPI DUP1 PUSH4 0x4AA9F207 EQ PUSH2 0xC4 JUMPI DUP1 PUSH4 0x83092A82 EQ PUSH2 0xF4 JUMPI DUP1 PUSH4 0xBB560B08 EQ PUSH2 0x124 JUMPI DUP1 PUSH4 0xD80ADC52 EQ PUSH2 0x154 JUMPI JUMPDEST PUSH0 DUP1 REVERT JUMPDEST PUSH2 0x7E PUSH1 0x4 DUP1 CALLDATASIZE SUB DUP2 ADD SWAP1 PUSH2 0x79 SWAP2 SWAP1 PUSH2 0x4C1 JUMP JUMPDEST PUSH2 0x184 JUMP JUMPDEST PUSH1 0x40 MLOAD PUSH2 0x8B SWAP2 SWAP1 PUSH2 0x56F JUMP JUMPDEST PUSH1 0x40 MLOAD DUP1 SWAP2 SUB SWAP1 RETURN JUMPDEST PUSH2 0xAE PUSH1 0x4 DUP1 CALLDATASIZE SUB DUP2 ADD SWAP1 PUSH2 0xA9 SWAP2 SWAP1 PUSH2 0x588 JUMP JUMPDEST PUSH2 0x220 JUMP JUMPDEST PUSH1 0x40 MLOAD PUSH2 0xBB SWAP2 SWAP1 PUSH2 0x676 JUMP JUMPDEST PUSH1 0x40 MLOAD DUP1 SWAP2 SUB SWAP1 RETURN JUMPDEST PUSH2 0xDE PUSH1 0x4 DUP1 CALLDATASIZE SUB DUP2 ADD SWAP1 PUSH2 0xD9 SWAP2 SWAP1 PUSH2 0x4C1 JUMP JUMPDEST PUSH2 0x281 JUMP JUMPDEST PUSH1 0x40 MLOAD PUSH2 0xEB SWAP2 SWAP1 PUSH2 0x6AE JUMP JUMPDEST PUSH1 0x40 MLOAD DUP1 SWAP2 SUB SWAP1 RETURN JUMPDEST PUSH2 0x10E PUSH1 0x4 DUP1 CALLDATASIZE SUB DUP2 ADD SWAP1 PUSH2 0x109 SWAP2 SWAP1 PUSH2 0x7A4 JUMP JUMPDEST PUSH2 0x29D JUMP JUMPDEST PUSH1 0x40 MLOAD PUSH2 0x11B SWAP2 SWAP1 PUSH2 0x7F1 JUMP JUMPDEST PUSH1 0x40 MLOAD DUP1 SWAP2 SUB SWAP1 RETURN JUMPDEST PUSH2 0x13E PUSH1 0x4 DUP1 CALLDATASIZE SUB DUP2 ADD SWAP1 PUSH2 0x139 SWAP2 SWAP1 PUSH2 0x588 JUMP JUMPDEST PUSH2 0x36C JUMP JUMPDEST PUSH1 0x40 MLOAD PUSH2 0x14B SWAP2 SWAP1 PUSH2 0x6AE JUMP JUMPDEST PUSH1 0x40 MLOAD DUP1 SWAP2 SUB SWAP1 RETURN JUMPDEST PUSH2 0x16E PUSH1 0x4 DUP1 CALLDATASIZE SUB DUP2 ADD SWAP1 PUSH2 0x169 SWAP2 SWAP1 PUSH2 0x4C1 JUMP JUMPDEST PUSH2 0x38A JUMP JUMPDEST PUSH1 0x40 MLOAD PUSH2 0x17B SWAP2 SWAP1 PUSH2 0x676 JUMP JUMPDEST PUSH1 0x40 MLOAD DUP1 SWAP2 SUB SWAP1 RETURN JUMPDEST PUSH2 0x18C PUSH2 0x3D3 JUMP JUMPDEST DUP3 PUSH20 0xFFFFFFFFFFFFFFFFFFFFFFFFFFFFFFFFFFFFFFFF AND DUP5 PUSH20 0xFFFFFFFFFFFFFFFFFFFFFFFFFFFFFFFFFFFFFFFF AND GT ISZERO PUSH2 0x1CB JUMPI DUP3 DUP5 DUP1 SWAP5 POP DUP2 SWAP6 POP POP POP JUMPDEST PUSH1 0x40 MLOAD DUP1 PUSH1 0x60 ADD PUSH1 0x40 MSTORE DUP1 DUP6 PUSH20 0xFFFFFFFFFFFFFFFFFFFFFFFFFFFFFFFFFFFFFFFF AND DUP2 MSTORE PUSH1 0x20 ADD DUP5 PUSH20 0xFFFFFFFFFFFFFFFFFFFFFFFFFFFFFFFFFFFFFFFF AND DUP2 MSTORE PUSH1 0x20 ADD DUP4 PUSH3 0xFFFFFF AND DUP2 MSTORE POP SWAP1 POP SWAP4 SWAP3 POP POP POP JUMP JUMPDEST PUSH1 0x60 PUSH0 PUSH2 0x22E DUP6 DUP6 DUP6 PUSH2 0x281 JUMP JUMPDEST SWAP1 POP DUP6 DUP2 PUSH32 0xE34F199B19B2B4F47F68442619D555527D244F78A3297EA89325F843F87B8B54 PUSH0 SHL PUSH1 0x40 MLOAD PUSH1 0x20 ADD PUSH2 0x267 SWAP4 SWAP3 SWAP2 SWAP1 PUSH2 0x8C3 JUMP JUMPDEST PUSH1 0x40 MLOAD PUSH1 0x20 DUP2 DUP4 SUB SUB DUP2 MSTORE SWAP1 PUSH1 0x40 MSTORE SWAP2 POP POP SWAP5 SWAP4 POP POP POP POP JUMP JUMPDEST PUSH0 PUSH2 0x28D DUP5 DUP5 DUP5 PUSH2 0x38A JUMP JUMPDEST DUP1 MLOAD SWAP1 PUSH1 0x20 ADD KECCAK256 SWAP1 POP SWAP4 SWAP3 POP POP POP JUMP JUMPDEST PUSH0 DUP2 PUSH1 0x20 ADD MLOAD PUSH20 0xFFFFFFFFFFFFFFFFFFFFFFFFFFFFFFFFFFFFFFFF AND DUP3 PUSH0 ADD MLOAD PUSH20 0xFFFFFFFFFFFFFFFFFFFFFFFFFFFFFFFFFFFFFFFF AND LT PUSH2 0x2DC JUMPI PUSH0 DUP1 REVERT JUMPDEST PUSH0 PUSH2 0x2F4 DUP5 DUP5 PUSH0 ADD MLOAD DUP6 PUSH1 0x20 ADD MLOAD DUP7 PUSH1 0x40 ADD MLOAD PUSH2 0x36C JUMP JUMPDEST SWAP1 POP PUSH0 DUP2 PUSH0 SHR SWAP1 POP PUSH0 DUP2 SWAP1 POP PUSH0 DUP2 SWAP1 POP DUP1 PUSH20 0xFFFFFFFFFFFFFFFFFFFFFFFFFFFFFFFFFFFFFFFF AND DUP3 PUSH20 0xFFFFFFFFFFFFFFFFFFFFFFFFFFFFFFFFFFFFFFFF AND DUP5 PUSH32 0xBB10F7F9321CCF06B496DDEE91A1F5F7586468A404A1B0AD959BE6BDA9813396 PUSH1 0x40 MLOAD PUSH1 0x40 MLOAD DUP1 SWAP2 SUB SWAP1 LOG4 DUP1 SWAP5 POP POP POP POP POP SWAP3 SWAP2 POP POP JUMP JUMPDEST PUSH0 PUSH2 0x379 DUP6 DUP6 DUP6 DUP6 PUSH2 0x220 JUMP JUMPDEST DUP1 MLOAD SWAP1 PUSH1 0x20 ADD KECCAK256 SWAP1 POP SWAP5 SWAP4 POP POP POP POP JUMP JUMPDEST PUSH1 0x60 PUSH0 PUSH2 0x398 DUP6 DUP6 DUP6 PUSH2 0x184 JUMP JUMPDEST SWAP1 POP DUP1 PUSH0 ADD MLOAD DUP2 PUSH1 0x20 ADD MLOAD DUP3 PUSH1 0x40 ADD MLOAD PUSH1 0x40 MLOAD PUSH1 0x20 ADD PUSH2 0x3BA SWAP4 SWAP3 SWAP2 SWAP1 PUSH2 0x919 JUMP JUMPDEST PUSH1 0x40 MLOAD PUSH1 0x20 DUP2 DUP4 SUB SUB DUP2 MSTORE SWAP1 PUSH1 0x40 MSTORE SWAP2 POP POP SWAP4 SWAP3 POP POP POP JUMP JUMPDEST PUSH1 0x40 MLOAD DUP1 PUSH1 0x60 ADD PUSH1 0x40 MSTORE DUP1 PUSH0 PUSH20 0xFFFFFFFFFFFFFFFFFFFFFFFFFFFFFFFFFFFFFFFF AND DUP2 MSTORE PUSH1 0x20 ADD PUSH0 PUSH20 0xFFFFFFFFFFFFFFFFFFFFFFFFFFFFFFFFFFFFFFFF AND DUP2 MSTORE PUSH1 0x20 ADD PUSH0 PUSH3 0xFFFFFF AND DUP2 MSTORE POP SWAP1 JUMP JUMPDEST PUSH0 PUSH1 0x40 MLOAD SWAP1 POP SWAP1 JUMP JUMPDEST PUSH0 DUP1 REVERT JUMPDEST PUSH0 PUSH20 0xFFFFFFFFFFFFFFFFFFFFFFFFFFFFFFFFFFFFFFFF DUP3 AND SWAP1 POP SWAP2 SWAP1 POP JUMP JUMPDEST PUSH0 PUSH2 0x458 DUP3 PUSH2 0x42F JUMP JUMPDEST SWAP1 POP SWAP2 SWAP1 POP JUMP JUMPDEST PUSH2 0x468 DUP2 PUSH2 0x44E JUMP JUMPDEST DUP2 EQ PUSH2 0x472 JUMPI PUSH0 DUP1 REVERT JUMPDEST POP JUMP JUMPDEST PUSH0 DUP2 CALLDATALOAD SWAP1 POP PUSH2 0x483 DUP2 PUSH2 0x45F JUMP JUMPDEST SWAP3 SWAP2 POP POP JUMP JUMPDEST PUSH0 PUSH3 0xFFFFFF DUP3 AND SWAP1 POP SWAP2 SWAP1 POP JUMP JUMPDEST PUSH2 0x4A0 DUP2 PUSH2 0x489 JUMP JUMPDEST DUP2 EQ PUSH2 0x4AA JUMPI PUSH0 DUP1 REVERT JUMPDEST POP JUMP JUMPDEST PUSH0 DUP2 CALLDATALOAD SWAP1 POP PUSH2 0x4BB DUP2 PUSH2 0x497 JUMP JUMPDEST SWAP3 SWAP2 POP POP JUMP JUMPDEST PUSH0 DUP1 PUSH0 PUSH1 0x60 DUP5 DUP7 SUB SLT ISZERO PUSH2 0x4D8 JUMPI PUSH2 0x4D7 PUSH2 0x42B JUMP JUMPDEST JUMPDEST PUSH0 PUSH2 0x4E5 DUP7 DUP3 DUP8 ADD PUSH2 0x475 JUMP JUMPDEST SWAP4 POP POP PUSH1 0x20 PUSH2 0x4F6 DUP7 DUP3 DUP8 ADD PUSH2 0x475 JUMP JUMPDEST SWAP3 POP POP PUSH1 0x40 PUSH2 0x507 DUP7 DUP3 DUP8 ADD PUSH2 0x4AD JUMP JUMPDEST SWAP2 POP POP SWAP3 POP SWAP3 POP SWAP3 JUMP JUMPDEST PUSH2 0x51A DUP2 PUSH2 0x44E JUMP JUMPDEST DUP3 MSTORE POP POP JUMP JUMPDEST PUSH2 0x529 DUP2 PUSH2 0x489 JUMP JUMPDEST DUP3 MSTORE POP POP JUMP JUMPDEST PUSH1 0x60 DUP3 ADD PUSH0 DUP3 ADD MLOAD PUSH2 0x543 PUSH0 DUP6 ADD DUP3 PUSH2 0x511 JUMP JUMPDEST POP PUSH1 0x20 DUP3 ADD MLOAD PUSH2 0x556 PUSH1 0x20 DUP6 ADD DUP3 PUSH2 0x511 JUMP JUMPDEST POP PUSH1 0x40 DUP3 ADD MLOAD PUSH2 0x569 PUSH1 0x40 DUP6 ADD DUP3 PUSH2 0x520 JUMP JUMPDEST POP POP POP POP JUMP JUMPDEST PUSH0 PUSH1 0x60 DUP3 ADD SWAP1 POP PUSH2 0x582 PUSH0 DUP4 ADD DUP5 PUSH2 0x52F JUMP JUMPDEST SWAP3 SWAP2 POP POP JUMP JUMPDEST PUSH0 DUP1 PUSH0 DUP1 PUSH1 0x80 DUP6 DUP8 SUB SLT ISZERO PUSH2 0x5A0 JUMPI PUSH2 0x59F PUSH2 0x42B JUMP JUMPDEST JUMPDEST PUSH0 PUSH2 0x5AD DUP8 DUP3 DUP9 ADD PUSH2 0x475 JUMP JUMPDEST SWAP5 POP POP PUSH1 0x20 PUSH2 0x5BE DUP8 DUP3 DUP9 ADD PUSH2 0x475 JUMP JUMPDEST SWAP4 POP POP PUSH1 0x40 PUSH2 0x5CF DUP8 DUP3 DUP9 ADD PUSH2 0x475 JUMP JUMPDEST SWAP3 POP POP PUSH1 0x60 PUSH2 0x5E0 DUP8 DUP3 DUP9 ADD PUSH2 0x4AD JUMP JUMPDEST SWAP2 POP POP SWAP3 SWAP6 SWAP2 SWAP5 POP SWAP3 POP JUMP JUMPDEST PUSH0 DUP2 MLOAD SWAP1 POP SWAP2 SWAP1 POP JUMP JUMPDEST PUSH0 DUP3 DUP3 MSTORE PUSH1 0x20 DUP3 ADD SWAP1 POP SWAP3 SWAP2 POP POP JUMP JUMPDEST PUSH0 JUMPDEST DUP4 DUP2 LT ISZERO PUSH2 0x623 JUMPI DUP1 DUP3 ADD MLOAD DUP2 DUP5 ADD MSTORE PUSH1 0x20 DUP2 ADD SWAP1 POP PUSH2 0x608 JUMP JUMPDEST PUSH0 DUP5 DUP5 ADD MSTORE POP POP POP POP JUMP JUMPDEST PUSH0 PUSH1 0x1F NOT PUSH1 0x1F DUP4 ADD AND SWAP1 POP SWAP2 SWAP1 POP JUMP JUMPDEST PUSH0 PUSH2 0x648 DUP3 PUSH2 0x5EC JUMP JUMPDEST PUSH2 0x652 DUP2 DUP6 PUSH2 0x5F6 JUMP JUMPDEST SWAP4 POP PUSH2 0x662 DUP2 DUP6 PUSH1 0x20 DUP7 ADD PUSH2 0x606 JUMP JUMPDEST PUSH2 0x66B DUP2 PUSH2 0x62E JUMP JUMPDEST DUP5 ADD SWAP2 POP POP SWAP3 SWAP2 POP POP JUMP JUMPDEST PUSH0 PUSH1 0x20 DUP3 ADD SWAP1 POP DUP2 DUP2 SUB PUSH0 DUP4 ADD MSTORE PUSH2 0x68E DUP2 DUP5 PUSH2 0x63E JUMP JUMPDEST SWAP1 POP SWAP3 SWAP2 POP POP JUMP JUMPDEST PUSH0 DUP2 SWAP1 POP SWAP2 SWAP1 POP JUMP JUMPDEST PUSH2 0x6A8 DUP2 PUSH2 0x696 JUMP JUMPDEST DUP3 MSTORE POP POP JUMP JUMPDEST PUSH0 PUSH1 0x20 DUP3 ADD SWAP1 POP PUSH2 0x6C1 PUSH0 DUP4 ADD DUP5 PUSH2 0x69F JUMP JUMPDEST SWAP3 SWAP2 POP POP JUMP JUMPDEST PUSH0 DUP1 REVERT JUMPDEST PUSH32 0x4E487B7100000000000000000000000000000000000000000000000000000000 PUSH0 MSTORE PUSH1 0x41 PUSH1 0x4 MSTORE PUSH1 0x24 PUSH0 REVERT JUMPDEST PUSH2 0x701 DUP3 PUSH2 0x62E JUMP JUMPDEST DUP2 ADD DUP2 DUP2 LT PUSH8 0xFFFFFFFFFFFFFFFF DUP3 GT OR ISZERO PUSH2 0x720 JUMPI PUSH2 0x71F PUSH2 0x6CB JUMP JUMPDEST JUMPDEST DUP1 PUSH1 0x40 MSTORE POP POP POP JUMP JUMPDEST PUSH0 PUSH2 0x732 PUSH2 0x422 JUMP JUMPDEST SWAP1 POP PUSH2 0x73E DUP3 DUP3 PUSH2 0x6F8 JUMP JUMPDEST SWAP2 SWAP1 POP JUMP JUMPDEST PUSH0 PUSH1 0x60 DUP3 DUP5 SUB SLT ISZERO PUSH2 0x758 JUMPI PUSH2 0x757 PUSH2 0x6C7 JUMP JUMPDEST JUMPDEST PUSH2 0x762 PUSH1 0x60 PUSH2 0x729 JUMP JUMPDEST SWAP1 POP PUSH0 PUSH2 0x771 DUP5 DUP3 DUP6 ADD PUSH2 0x475 JUMP JUMPDEST PUSH0 DUP4 ADD MSTORE POP PUSH1 0x20 PUSH2 0x784 DUP5 DUP3 DUP6 ADD PUSH2 0x475 JUMP JUMPDEST PUSH1 0x20 DUP4 ADD MSTORE POP PUSH1 0x40 PUSH2 0x798 DUP5 DUP3 DUP6 ADD PUSH2 0x4AD JUMP JUMPDEST PUSH1 0x40 DUP4 ADD MSTORE POP SWAP3 SWAP2 POP POP JUMP JUMPDEST PUSH0 DUP1 PUSH1 0x80 DUP4 DUP6 SUB SLT ISZERO PUSH2 0x7BA JUMPI PUSH2 0x7B9 PUSH2 0x42B JUMP JUMPDEST JUMPDEST PUSH0 PUSH2 0x7C7 DUP6 DUP3 DUP7 ADD PUSH2 0x475 JUMP JUMPDEST SWAP3 POP POP PUSH1 0x20 PUSH2 0x7D8 DUP6 DUP3 DUP7 ADD PUSH2 0x743 JUMP JUMPDEST SWAP2 POP POP SWAP3 POP SWAP3 SWAP1 POP JUMP JUMPDEST PUSH2 0x7EB DUP2 PUSH2 0x44E JUMP JUMPDEST DUP3 MSTORE POP POP JUMP JUMPDEST PUSH0 PUSH1 0x20 DUP3 ADD SWAP1 POP PUSH2 0x804 PUSH0 DUP4 ADD DUP5 PUSH2 0x7E2 JUMP JUMPDEST SWAP3 SWAP2 POP POP JUMP JUMPDEST PUSH0 DUP2 SWAP1 POP SWAP3 SWAP2 POP POP JUMP JUMPDEST PUSH32 0xFF00000000000000000000000000000000000000000000000000000000000000 PUSH0 DUP3 ADD MSTORE POP JUMP JUMPDEST PUSH0 PUSH2 0x848 PUSH1 0x1 DUP4 PUSH2 0x80A JUMP JUMPDEST SWAP2 POP PUSH2 0x853 DUP3 PUSH2 0x814 JUMP JUMPDEST PUSH1 0x1 DUP3 ADD SWAP1 POP SWAP2 SWAP1 POP JUMP JUMPDEST PUSH0 DUP2 PUSH1 0x60 SHL SWAP1 POP SWAP2 SWAP1 POP JUMP JUMPDEST PUSH0 PUSH2 0x874 DUP3 PUSH2 0x85E JUMP JUMPDEST SWAP1 POP SWAP2 SWAP1 POP JUMP JUMPDEST PUSH0 PUSH2 0x885 DUP3 PUSH2 0x86A JUMP JUMPDEST SWAP1 POP SWAP2 SWAP1 POP JUMP JUMPDEST PUSH2 0x89D PUSH2 0x898 DUP3 PUSH2 0x44E JUMP JUMPDEST PUSH2 0x87B JUMP JUMPDEST DUP3 MSTORE POP POP JUMP JUMPDEST PUSH0 DUP2 SWAP1 POP SWAP2 SWAP1 POP JUMP JUMPDEST PUSH2 0x8BD PUSH2 0x8B8 DUP3 PUSH2 0x696 JUMP JUMPDEST PUSH2 0x8A3 JUMP JUMPDEST DUP3 MSTORE POP POP JUMP JUMPDEST PUSH0 PUSH2 0x8CD DUP3 PUSH2 0x83C JUMP JUMPDEST SWAP2 POP PUSH2 0x8D9 DUP3 DUP7 PUSH2 0x88C JUMP JUMPDEST PUSH1 0x14 DUP3 ADD SWAP2 POP PUSH2 0x8E9 DUP3 DUP6 PUSH2 0x8AC JUMP JUMPDEST PUSH1 0x20 DUP3 ADD SWAP2 POP PUSH2 0x8F9 DUP3 DUP5 PUSH2 0x8AC JUMP JUMPDEST PUSH1 0x20 DUP3 ADD SWAP2 POP DUP2 SWAP1 POP SWAP5 SWAP4 POP POP POP POP JUMP JUMPDEST PUSH2 0x913 DUP2 PUSH2 0x489 JUMP JUMPDEST DUP3 MSTORE POP POP JUMP JUMPDEST PUSH0 PUSH1 0x60 DUP3 ADD SWAP1 POP PUSH2 0x92C PUSH0 DUP4 ADD DUP7 PUSH2 0x7E2 JUMP JUMPDEST PUSH2 0x939 PUSH1 0x20 DUP4 ADD DUP6 PUSH2 0x7E2 JUMP JUMPDEST PUSH2 0x946 PUSH1 0x40 DUP4 ADD DUP5 PUSH2 0x90A JUMP JUMPDEST SWAP5 SWAP4 POP POP POP POP JUMP INVALID LOG2 PUSH5 0x6970667358 0x22 SLT KECCAK256 BASEFEE PUSH19 0xE159C56B85BE57602B62AFAB02B8E9B38B17CE 0xAD PUSH13 0x957E89F4E5E26696EC64736F6C PUSH4 0x43000816 STOP CALLER "
				},
				"gasEstimates": {
					"creation": {
						"codeDepositCost": "487200",
						"executionCost": "522",
						"totalCost": "487722"
					},
					"external": {
						"computeAddress(address,(address,address,uint24))": "infinite",
						"encodePackedPoolKey(address,address,address,uint24)": "infinite",
						"encodePoolKey(address,address,uint24)": "infinite",
						"getPoolKey(address,address,uint24)": "infinite",
						"keccak256EncodePackedPoolKey(address,address,address,uint24)": "infinite",
						"keccak256PoolKey(address,address,uint24)": "infinite"
					}
				},
				"methodIdentifiers": {
					"computeAddress(address,(address,address,uint24))": "83092a82",
					"encodePackedPoolKey(address,address,address,uint24)": "4670168d",
					"encodePoolKey(address,address,uint24)": "d80adc52",
					"getPoolKey(address,address,uint24)": "2b6d5d8f",
					"keccak256EncodePackedPoolKey(address,address,address,uint24)": "bb560b08",
					"keccak256PoolKey(address,address,uint24)": "4aa9f207"
				}
			},
			"storageLayout": {
				"storage": [],
				"types": null
			},
			"userdoc": {
				"kind": "user",
				"methods": {},
				"version": 1
			}
		}
	}
}