{
	".learneth/Deploy with Libraries/1_Writing_a_Library/1_contractSimpleLibrary.sol": {
		"test": {
			"abi": [
				{
					"constant": false,
					"inputs": [],
					"name": "get",
					"outputs": [],
					"payable": false,
					"stateMutability": "nonpayable",
					"type": "function"
				}
			],
			"devdoc": {
				"methods": {}
			},
			"evm": {
				"assembly": "    /* \".learneth/Deploy with Libraries/1_Writing_a_Library/1_contractSimpleLibrary.sol\":34:148  contract test {... */\n  mstore(0x40, 0x80)\n  callvalue\n    /* \"--CODEGEN--\":8:17   */\n  dup1\n    /* \"--CODEGEN--\":5:7   */\n  iszero\n  tag_1\n  jumpi\n    /* \"--CODEGEN--\":30:31   */\n  0x00\n    /* \"--CODEGEN--\":27:28   */\n  dup1\n    /* \"--CODEGEN--\":20:32   */\n  revert\n    /* \"--CODEGEN--\":5:7   */\ntag_1:\n    /* \".learneth/Deploy with Libraries/1_Writing_a_Library/1_contractSimpleLibrary.sol\":34:148  contract test {... */\n  pop\n  dataSize(sub_0)\n  dup1\n  dataOffset(sub_0)\n  0x00\n  codecopy\n  0x00\n  return\nstop\n\nsub_0: assembly {\n        /* \".learneth/Deploy with Libraries/1_Writing_a_Library/1_contractSimpleLibrary.sol\":34:148  contract test {... */\n      mstore(0x40, 0x80)\n      callvalue\n        /* \"--CODEGEN--\":8:17   */\n      dup1\n        /* \"--CODEGEN--\":5:7   */\n      iszero\n      tag_1\n      jumpi\n        /* \"--CODEGEN--\":30:31   */\n      0x00\n        /* \"--CODEGEN--\":27:28   */\n      dup1\n        /* \"--CODEGEN--\":20:32   */\n      revert\n        /* \"--CODEGEN--\":5:7   */\n    tag_1:\n        /* \".learneth/Deploy with Libraries/1_Writing_a_Library/1_contractSimpleLibrary.sol\":34:148  contract test {... */\n      pop\n      jumpi(tag_2, lt(calldatasize, 0x04))\n      shr(0xe0, calldataload(0x00))\n      dup1\n      0x6d4ce63c\n      eq\n      tag_3\n      jumpi\n    tag_2:\n      0x00\n      dup1\n      revert\n        /* \".learneth/Deploy with Libraries/1_Writing_a_Library/1_contractSimpleLibrary.sol\":54:146  function get () public {... */\n    tag_3:\n      tag_4\n      tag_5\n      jump\t// in\n    tag_4:\n      stop\n    tag_5:\n      jump\t// out\n\n    auxdata: 0xa265627a7a7231582034b54d5ca55b9a9f0991ebc8e269397a210d0ae82b6a997604f221651dfbb5ec64736f6c63430005110032\n}\n",
				"bytecode": {
					"linkReferences": {},
					"object": "6080604052348015600f57600080fd5b50606c80601d6000396000f3fe6080604052348015600f57600080fd5b506004361060285760003560e01c80636d4ce63c14602d575b600080fd5b60336035565b005b56fea265627a7a7231582034b54d5ca55b9a9f0991ebc8e269397a210d0ae82b6a997604f221651dfbb5ec64736f6c63430005110032",
					"opcodes": "PUSH1 0x80 PUSH1 0x40 MSTORE CALLVALUE DUP1 ISZERO PUSH1 0xF JUMPI PUSH1 0x0 DUP1 REVERT JUMPDEST POP PUSH1 0x6C DUP1 PUSH1 0x1D PUSH1 0x0 CODECOPY PUSH1 0x0 RETURN INVALID PUSH1 0x80 PUSH1 0x40 MSTORE CALLVALUE DUP1 ISZERO PUSH1 0xF JUMPI PUSH1 0x0 DUP1 REVERT JUMPDEST POP PUSH1 0x4 CALLDATASIZE LT PUSH1 0x28 JUMPI PUSH1 0x0 CALLDATALOAD PUSH1 0xE0 SHR DUP1 PUSH4 0x6D4CE63C EQ PUSH1 0x2D JUMPI JUMPDEST PUSH1 0x0 DUP1 REVERT JUMPDEST PUSH1 0x33 PUSH1 0x35 JUMP JUMPDEST STOP JUMPDEST JUMP INVALID LOG2 PUSH6 0x627A7A723158 KECCAK256 CALLVALUE 0xB5 0x4D 0x5C 0xA5 JUMPDEST SWAP11 SWAP16 MULMOD SWAP2 0xEB 0xC8 0xE2 PUSH10 0x397A210D0AE82B6A9976 DIV CALLCODE 0x21 PUSH6 0x1DFBB5EC6473 PUSH16 0x6C634300051100320000000000000000 "
				},
				"gasEstimates": {
					"creation": {
						"codeDepositCost": "21600",
						"executionCost": "75",
						"totalCost": "21675"
					},
					"external": {
						"get()": "122"
					}
				},
				"methodIdentifiers": {
					"get()": "6d4ce63c"
				}
			},
			"storageLayout": {
				"storage": [],
				"types": null
			},
			"userdoc": {
				"methods": {}
			}
		}
	}
}